{
  "transactions": [
    {
      "hash": "0xb7ff5add146faa7a132656574fc2c8c07f71bdfd9378f8e9abd49e4ceccedfdf",
      "transactionType": "CREATE",
      "contractName": "SimplePip",
      "contractAddress": "0x809e78898aba8806aa9f5aa0d5a5296a997b9d7a",
      "function": null,
      "arguments": null,
      "transaction": {
        "from": "0x8866438f9348f33516040d38a0113531bc9e7e1d",
        "value": "0x0",
        "input": "0x608060405234801561001057600080fd5b5060b68061001f6000396000f3fe6080604052348015600f57600080fd5b506004361060325760003560e01c806359e02dd714603757806360fe47b1146056575b600080fd5b603d6072565b6040805192835290151560208301528051918290030190f35b607060048036036020811015606a57600080fd5b5035607b565b005b60005460019091565b60005556fea2646970667358221220ed6bbf79e662bd7650e9cf4fee6b42aba572926fd267d961359e0ab9440998f264736f6c634300060c0033",
        "nonce": "0x85",
        "chainId": "0x161c28"
      },
      "additionalContracts": [],
      "isFixedGasLimit": false
    },
    {
      "hash": "0x45d60b70941c20830ef54a4c4d896174806d773902fce0434e63885bba7d2454",
      "transactionType": "CALL",
      "contractName": "SimplePip",
      "contractAddress": "0x809e78898aba8806aa9f5aa0d5a5296a997b9d7a",
      "function": "set(uint256)",
      "arguments": [
        "1000000000000000000"
      ],
      "transaction": {
        "from": "0x8866438f9348f33516040d38a0113531bc9e7e1d",
        "to": "0x809e78898aba8806aa9f5aa0d5a5296a997b9d7a",
        "value": "0x0",
        "input": "0x60fe47b10000000000000000000000000000000000000000000000000de0b6b3a7640000",
        "nonce": "0x86",
        "chainId": "0x161c28"
      },
      "additionalContracts": [],
      "isFixedGasLimit": false
    },
    {
      "hash": "0x036874c40df3eae59dbfdf1371c3fd27f3b2caa9acb643ed38cc997a44e7bd73",
      "transactionType": "CREATE",
      "contractName": "GemJoin",
      "contractAddress": "0x6c05717cf78704abb85569b303870181e9306628",
      "function": null,
      "arguments": [
        "0x9E8860db73D093464ee2B5a1Fe6F63B09F70e8C1",
        "0x5852502d410a0000000000000000000000000000000000000000000000000000",
        "0xEeeeeEeeeEeEeeEeEeEeeEEEeeeeEeeeeeeeEEeE"
      ],
      "transaction": {
        "from": "0x8866438f9348f33516040d38a0113531bc9e7e1d",
        "value": "0x0",
        "input": "0x608060405234801561001057600080fd5b5060405161092f38038061092f8339818101604052606081101561003357600080fd5b508051602080830151604093840151336000908152808452859020600190819055600581905580546001600160a01b038087166001600160a01b03199283161790925560028490556003805483851692169190911790819055865163313ce56760e01b8152965195969395929491169263313ce5679260048281019392829003018186803b1580156100c457600080fd5b505afa1580156100d8573d6000803e3d6000fd5b505050506040513d60208110156100ee57600080fd5b505160045560405133907fdd0e34038ac38b2a1ce960229778ac48a8719bc900b6c4f8d0475c6e8b385a6090600090a25050506107ff806101306000396000f3fe608060405234801561001057600080fd5b50600436106100995760003560e01c806336569e771461009e5780633b4da69f146100c257806365fae35e146100f057806369245009146101165780637bd2bea71461011e578063957aa58c146101265780639c52a7f114610140578063b3bcfa8214610166578063bf353dbb1461016e578063c5ce281e14610194578063ef693bed1461019c575b600080fd5b6100a66101c8565b604080516001600160a01b039092168252519081900360200190f35b6100ee600480360360408110156100d857600080fd5b506001600160a01b0381351690602001356101d7565b005b6100ee6004803603602081101561010657600080fd5b50356001600160a01b03166103f5565b6100ee610497565b6100a6610524565b61012e610533565b60408051918252519081900360200190f35b6100ee6004803603602081101561015657600080fd5b50356001600160a01b0316610539565b61012e6105da565b61012e6004803603602081101561018457600080fd5b50356001600160a01b03166105e0565b61012e6105f2565b6100ee600480360360408110156101b257600080fd5b506001600160a01b0381351690602001356105f8565b6001546001600160a01b031681565b600554600114610221576040805162461bcd60e51b815260206004820152601060248201526f47656d4a6f696e2f6e6f742d6c69766560801b604482015290519081900360640190fd5b600081121561026a576040805162461bcd60e51b815260206004820152601060248201526f47656d4a6f696e2f6f766572666c6f7760801b604482015290519081900360640190fd5b60015460025460408051633e6e9fef60e11b815260048101929092526001600160a01b038581166024840152604483018590529051921691637cdd3fde9160648082019260009290919082900301818387803b1580156102c957600080fd5b505af11580156102dd573d6000803e3d6000fd5b5050600354604080516323b872dd60e01b81523360048201523060248201526044810186905290516001600160a01b0390921693506323b872dd92506064808201926020929091908290030181600087803b15801561033b57600080fd5b505af115801561034f573d6000803e3d6000fd5b505050506040513d602081101561036557600080fd5b50516103b2576040805162461bcd60e51b815260206004820152601760248201527623b2b6a537b4b717b330b4b632b216ba3930b739b332b960491b604482015290519081900360640190fd5b6040805182815290516001600160a01b038416917fb4e09949657f21548b58afe74e7b86cd2295da5ff1598ae1e5faecb1cf19ca95919081900360200190a25050565b33600090815260208190526040902054600114610452576040805162461bcd60e51b815260206004820152601660248201527511d95b529bda5b8bdb9bdd0b585d5d1a1bdc9a5e995960521b604482015290519081900360640190fd5b6001600160a01b03811660008181526020819052604080822060019055517fdd0e34038ac38b2a1ce960229778ac48a8719bc900b6c4f8d0475c6e8b385a609190a250565b336000908152602081905260409020546001146104f4576040805162461bcd60e51b815260206004820152601660248201527511d95b529bda5b8bdb9bdd0b585d5d1a1bdc9a5e995960521b604482015290519081900360640190fd5b600060058190556040517f2308ed18a14e800c39b86eb6ea43270105955ca385b603b64eca89f98ae8fbda9190a1565b6003546001600160a01b031681565b60055481565b33600090815260208190526040902054600114610596576040805162461bcd60e51b815260206004820152601660248201527511d95b529bda5b8bdb9bdd0b585d5d1a1bdc9a5e995960521b604482015290519081900360640190fd5b6001600160a01b038116600081815260208190526040808220829055517f184450df2e323acec0ed3b5c7531b81f9b4cdef7914dfd4c0a4317416bb5251b9190a250565b60045481565b60006020819052908152604090205481565b60025481565b600160ff1b811115610644576040805162461bcd60e51b815260206004820152601060248201526f47656d4a6f696e2f6f766572666c6f7760801b604482015290519081900360640190fd5b60015460025460408051633e6e9fef60e11b815260048101929092523360248301526000848103604484015290516001600160a01b0390931692637cdd3fde92606480820193929182900301818387803b1580156106a157600080fd5b505af11580156106b5573d6000803e3d6000fd5b50506003546040805163a9059cbb60e01b81526001600160a01b03878116600483015260248201879052915191909216935063a9059cbb925060448083019260209291908290030181600087803b15801561070f57600080fd5b505af1158015610723573d6000803e3d6000fd5b505050506040513d602081101561073957600080fd5b5051610786576040805162461bcd60e51b815260206004820152601760248201527623b2b6a537b4b717b330b4b632b216ba3930b739b332b960491b604482015290519081900360640190fd5b6040805182815290516001600160a01b038416917f22d324652c93739755cf4581508b60875ebdd78c20c0cff5cf8e23452b299631919081900360200190a2505056fea2646970667358221220c5f058937d23e2129a5fc2e60a43c24022ba0f1faaa2b2cfec284b2545792fb764736f6c634300060c00330000000000000000000000009e8860db73d093464ee2b5a1fe6f63b09f70e8c15852502d410a0000000000000000000000000000000000000000000000000000000000000000000000000000eeeeeeeeeeeeeeeeeeeeeeeeeeeeeeeeeeeeeeee",
        "nonce": "0x87",
        "chainId": "0x161c28"
      },
      "additionalContracts": [],
      "isFixedGasLimit": false
    },
    {
      "hash": "0x7bf511bb0e62e87d17254d08a09376920fe9f578b110bb73ea89c91779ce6a65",
      "transactionType": "CALL",
      "contractName": null,
      "contractAddress": "0x10606bd4044d23de2f2bcd2d98ee7801f995a953",
      "function": "deployCollateralClip(bytes32,address,address,address)",
      "arguments": [
        "0x5852502d410a0000000000000000000000000000000000000000000000000000",
        "0x6c05717CF78704aBb85569b303870181E9306628",
        "0x809e78898ABA8806AA9F5aa0d5A5296A997b9d7A",
        "0x0000000000000000000000000000000000000000"
      ],
      "transaction": {
        "from": "0x8866438f9348f33516040d38a0113531bc9e7e1d",
        "to": "0x10606bd4044d23de2f2bcd2d98ee7801f995a953",
        "value": "0x0",
        "input": "0x611916085852502d410a00000000000000000000000000000000000000000000000000000000000000000000000000006c05717cf78704abb85569b303870181e9306628000000000000000000000000809e78898aba8806aa9f5aa0d5a5296a997b9d7a0000000000000000000000000000000000000000000000000000000000000000",
        "nonce": "0x88",
        "chainId": "0x161c28"
      },
      "additionalContracts": [],
      "isFixedGasLimit": false
    }
  ],
  "receipts": [
    {
      "status": "0x1",
      "cumulativeGasUsed": "0x192b7a",
      "logs": [],
      "logsBloom": "0x00000000000000000000000000000000000000000000000000000000000000000000000000000000000000000000000000000000000000000000000000000000000000000000000000000000000000000000000000000000000000000000000000000000000000000000000000000000000000000000000000000000000000000000000000000000000000000000000000000000000000000000000000000000000000000000000000000000000000000000000000000000000000000000000000000000000000000000000000000000000000000000000000000000000000000000000000000000000000000000000000000000000000000000000000000000",
      "type": "0x2",
      "transactionHash": "0xb7ff5add146faa7a132656574fc2c8c07f71bdfd9378f8e9abd49e4ceccedfdf",
      "transactionIndex": "0xc",
      "blockHash": "0x78271086da5bfbe5a135818658b1a3931b667a77296b523e873309349f777528",
      "blockNumber": "0x33a055",
      "gasUsed": "0x16a37",
      "effectiveGasPrice": "0x2e90edd001",
      "from": "0x8866438f9348f33516040d38a0113531bc9e7e1d",
      "to": null,
      "contractAddress": "0x809e78898aba8806aa9f5aa0d5a5296a997b9d7a"
    },
    {
      "status": "0x1",
      "cumulativeGasUsed": "0x18a2b6",
      "logs": [],
      "logsBloom": "0x00000000000000000000000000000000000000000000000000000000000000000000000000000000000000000000000000000000000000000000000000000000000000000000000000000000000000000000000000000000000000000000000000000000000000000000000000000000000000000000000000000000000000000000000000000000000000000000000000000000000000000000000000000000000000000000000000000000000000000000000000000000000000000000000000000000000000000000000000000000000000000000000000000000000000000000000000000000000000000000000000000000000000000000000000000000",
      "type": "0x2",
      "transactionHash": "0x45d60b70941c20830ef54a4c4d896174806d773902fce0434e63885bba7d2454",
      "transactionIndex": "0xc",
      "blockHash": "0xab0dc5b026f744b79fd0be9294ecd63de930ce149778b9a225c6b97b66730cae",
      "blockNumber": "0x33a056",
      "gasUsed": "0xaa21",
      "effectiveGasPrice": "0x2e90edd001",
      "from": "0x8866438f9348f33516040d38a0113531bc9e7e1d",
      "to": "0x809e78898aba8806aa9f5aa0d5a5296a997b9d7a",
      "contractAddress": null
    },
    {
      "status": "0x1",
      "cumulativeGasUsed": "0x39c765",
      "logs": [
        {
          "address": "0x6c05717cf78704abb85569b303870181e9306628",
          "topics": [
            "0xdd0e34038ac38b2a1ce960229778ac48a8719bc900b6c4f8d0475c6e8b385a60",
            "0x0000000000000000000000008866438f9348f33516040d38a0113531bc9e7e1d"
          ],
          "data": "0x",
          "blockHash": "0x4904978791de2f9f18520f19af7c80f334984d2ea1d73f3e3b534d9f38b4979e",
          "blockNumber": "0x33a057",
          "transactionHash": "0x036874c40df3eae59dbfdf1371c3fd27f3b2caa9acb643ed38cc997a44e7bd73",
          "transactionIndex": "0x17",
          "logIndex": "0x0",
          "removed": false
        }
      ],
      "logsBloom": "0x00000000002000000000000000000000000000000000000000000000000000000000000000000000000000000000000000004000000000000000000000000000000000400000000000000000000000000000000000000000000000000000000000000000000000000000000000000000000000400000000000000000000000000004000000000000000000000000000000004000000000000000000000000000000000000000000000000000000000000000000000000000000000000000000000000000000000000000040000000000000000000000000000000000000010000000000000000000000000000000000000000000000000000000040000000000",
      "type": "0x2",
      "transactionHash": "0x036874c40df3eae59dbfdf1371c3fd27f3b2caa9acb643ed38cc997a44e7bd73",
      "transactionIndex": "0x17",
      "blockHash": "0x4904978791de2f9f18520f19af7c80f334984d2ea1d73f3e3b534d9f38b4979e",
      "blockNumber": "0x33a057",
      "gasUsed": "0x9bc27",
      "effectiveGasPrice": "0x2e90edd001",
      "from": "0x8866438f9348f33516040d38a0113531bc9e7e1d",
      "to": null,
      "contractAddress": "0x6c05717cf78704abb85569b303870181e9306628"
    },
    {
      "status": "0x1",
      "cumulativeGasUsed": "0x41627a",
      "logs": [
        {
          "address": "0xe2b36963b6397dd97f83f13ce0c00e69d26352e0",
          "topics": [
            "0xdd0e34038ac38b2a1ce960229778ac48a8719bc900b6c4f8d0475c6e8b385a60",
            "0x00000000000000000000000037cefc3e4f9d23485c88d6b3bc1509904604f41c"
          ],
          "data": "0x",
          "blockHash": "0xe029910e231737fff4816f585862ba57cda7eb17b0349119b44a395be63a74e6",
          "blockNumber": "0x33a058",
          "transactionHash": "0x7bf511bb0e62e87d17254d08a09376920fe9f578b110bb73ea89c91779ce6a65",
          "transactionIndex": "0xb",
          "logIndex": "0x0",
          "removed": false
        },
        {
          "address": "0xe2b36963b6397dd97f83f13ce0c00e69d26352e0",
          "topics": [
            "0xdd0e34038ac38b2a1ce960229778ac48a8719bc900b6c4f8d0475c6e8b385a60",
            "0x00000000000000000000000010606bd4044d23de2f2bcd2d98ee7801f995a953"
          ],
          "data": "0x",
          "blockHash": "0xe029910e231737fff4816f585862ba57cda7eb17b0349119b44a395be63a74e6",
          "blockNumber": "0x33a058",
          "transactionHash": "0x7bf511bb0e62e87d17254d08a09376920fe9f578b110bb73ea89c91779ce6a65",
          "transactionIndex": "0xb",
          "logIndex": "0x1",
          "removed": false
        },
        {
          "address": "0xe2b36963b6397dd97f83f13ce0c00e69d26352e0",
          "topics": [
            "0x184450df2e323acec0ed3b5c7531b81f9b4cdef7914dfd4c0a4317416bb5251b",
            "0x00000000000000000000000037cefc3e4f9d23485c88d6b3bc1509904604f41c"
          ],
          "data": "0x",
          "blockHash": "0xe029910e231737fff4816f585862ba57cda7eb17b0349119b44a395be63a74e6",
          "blockNumber": "0x33a058",
          "transactionHash": "0x7bf511bb0e62e87d17254d08a09376920fe9f578b110bb73ea89c91779ce6a65",
          "transactionIndex": "0xb",
          "logIndex": "0x2",
          "removed": false
        },
        {
          "address": "0xed17d8734b9ef097ad190bb4bd539dfc98218c06",
          "topics": [
            "0x4ff2caaa972a7c6629ea01fae9c93d73cc307d13ea4c369f9bbbb7f9b7e9461d",
            "0x5852502d410a0000000000000000000000000000000000000000000000000000",
            "0x636c697000000000000000000000000000000000000000000000000000000000"
          ],
          "data": "0x000000000000000000000000e2b36963b6397dd97f83f13ce0c00e69d26352e0",
          "blockHash": "0xe029910e231737fff4816f585862ba57cda7eb17b0349119b44a395be63a74e6",
          "blockNumber": "0x33a058",
          "transactionHash": "0x7bf511bb0e62e87d17254d08a09376920fe9f578b110bb73ea89c91779ce6a65",
          "transactionIndex": "0xb",
          "logIndex": "0x3",
          "removed": false
        },
        {
          "address": "0xe2b36963b6397dd97f83f13ce0c00e69d26352e0",
          "topics": [
            "0x8fef588b5fc1afbf5b2f06c1a435d513f208da2e6704c3d8f0e0ec91167066ba",
            "0x766f770000000000000000000000000000000000000000000000000000000000"
          ],
          "data": "0x000000000000000000000000734c4c0e460b1f08e85f8bc1a4bf162c1601f86f",
          "blockHash": "0xe029910e231737fff4816f585862ba57cda7eb17b0349119b44a395be63a74e6",
          "blockNumber": "0x33a058",
          "transactionHash": "0x7bf511bb0e62e87d17254d08a09376920fe9f578b110bb73ea89c91779ce6a65",
          "transactionIndex": "0xb",
          "logIndex": "0x4",
          "removed": false
        },
        {
          "address": "0xe3578a96729558d9ce9eb830de212a1dcffd1907",
          "topics": [
            "0xdd0e34038ac38b2a1ce960229778ac48a8719bc900b6c4f8d0475c6e8b385a60",
            "0x000000000000000000000000c0041d92f0507772c7af867541231cb6da065a8b"
          ],
          "data": "0x",
          "blockHash": "0xe029910e231737fff4816f585862ba57cda7eb17b0349119b44a395be63a74e6",
          "blockNumber": "0x33a058",
          "transactionHash": "0x7bf511bb0e62e87d17254d08a09376920fe9f578b110bb73ea89c91779ce6a65",
          "transactionIndex": "0xb",
          "logIndex": "0x5",
          "removed": false
        },
        {
          "address": "0xe3578a96729558d9ce9eb830de212a1dcffd1907",
          "topics": [
            "0xdd0e34038ac38b2a1ce960229778ac48a8719bc900b6c4f8d0475c6e8b385a60",
            "0x00000000000000000000000010606bd4044d23de2f2bcd2d98ee7801f995a953"
          ],
          "data": "0x",
          "blockHash": "0xe029910e231737fff4816f585862ba57cda7eb17b0349119b44a395be63a74e6",
          "blockNumber": "0x33a058",
          "transactionHash": "0x7bf511bb0e62e87d17254d08a09376920fe9f578b110bb73ea89c91779ce6a65",
          "transactionIndex": "0xb",
          "logIndex": "0x6",
          "removed": false
        },
        {
          "address": "0xe3578a96729558d9ce9eb830de212a1dcffd1907",
          "topics": [
            "0x184450df2e323acec0ed3b5c7531b81f9b4cdef7914dfd4c0a4317416bb5251b",
            "0x000000000000000000000000c0041d92f0507772c7af867541231cb6da065a8b"
          ],
          "data": "0x",
          "blockHash": "0xe029910e231737fff4816f585862ba57cda7eb17b0349119b44a395be63a74e6",
          "blockNumber": "0x33a058",
          "transactionHash": "0x7bf511bb0e62e87d17254d08a09376920fe9f578b110bb73ea89c91779ce6a65",
          "transactionIndex": "0xb",
          "logIndex": "0x7",
          "removed": false
        },
        {
          "address": "0xe3578a96729558d9ce9eb830de212a1dcffd1907",
          "topics": [
            "0xe986e40cc8c151830d4f61050f4fb2e4add8567caad2d5f5496f9158e91fe4c7",
            "0x7461750000000000000000000000000000000000000000000000000000000000"
          ],
          "data": "0x0000000000000000000000000000000000000000000000000000000000000e10",
          "blockHash": "0xe029910e231737fff4816f585862ba57cda7eb17b0349119b44a395be63a74e6",
          "blockNumber": "0x33a058",
          "transactionHash": "0x7bf511bb0e62e87d17254d08a09376920fe9f578b110bb73ea89c91779ce6a65",
          "transactionIndex": "0xb",
          "logIndex": "0x8",
          "removed": false
        },
        {
          "address": "0xe2b36963b6397dd97f83f13ce0c00e69d26352e0",
          "topics": [
            "0x8fef588b5fc1afbf5b2f06c1a435d513f208da2e6704c3d8f0e0ec91167066ba",
            "0x63616c6300000000000000000000000000000000000000000000000000000000"
          ],
          "data": "0x000000000000000000000000e3578a96729558d9ce9eb830de212a1dcffd1907",
          "blockHash": "0xe029910e231737fff4816f585862ba57cda7eb17b0349119b44a395be63a74e6",
          "blockNumber": "0x33a058",
          "transactionHash": "0x7bf511bb0e62e87d17254d08a09376920fe9f578b110bb73ea89c91779ce6a65",
          "transactionIndex": "0xb",
          "logIndex": "0x9",
          "removed": false
        },
        {
          "address": "0xed17d8734b9ef097ad190bb4bd539dfc98218c06",
          "topics": [
            "0xdd0e34038ac38b2a1ce960229778ac48a8719bc900b6c4f8d0475c6e8b385a60",
            "0x000000000000000000000000e2b36963b6397dd97f83f13ce0c00e69d26352e0"
          ],
          "data": "0x",
          "blockHash": "0xe029910e231737fff4816f585862ba57cda7eb17b0349119b44a395be63a74e6",
          "blockNumber": "0x33a058",
          "transactionHash": "0x7bf511bb0e62e87d17254d08a09376920fe9f578b110bb73ea89c91779ce6a65",
          "transactionIndex": "0xb",
          "logIndex": "0xa",
          "removed": false
        },
        {
          "address": "0xe2b36963b6397dd97f83f13ce0c00e69d26352e0",
          "topics": [
            "0xdd0e34038ac38b2a1ce960229778ac48a8719bc900b6c4f8d0475c6e8b385a60",
            "0x000000000000000000000000ed17d8734b9ef097ad190bb4bd539dfc98218c06"
          ],
          "data": "0x",
          "blockHash": "0xe029910e231737fff4816f585862ba57cda7eb17b0349119b44a395be63a74e6",
          "blockNumber": "0x33a058",
          "transactionHash": "0x7bf511bb0e62e87d17254d08a09376920fe9f578b110bb73ea89c91779ce6a65",
          "transactionIndex": "0xb",
          "logIndex": "0xb",
          "removed": false
        },
        {
          "address": "0xe2b36963b6397dd97f83f13ce0c00e69d26352e0",
          "topics": [
            "0xdd0e34038ac38b2a1ce960229778ac48a8719bc900b6c4f8d0475c6e8b385a60",
            "0x0000000000000000000000006d20cf978868257f05081016d4977820025eb441"
          ],
          "data": "0x",
          "blockHash": "0xe029910e231737fff4816f585862ba57cda7eb17b0349119b44a395be63a74e6",
          "blockNumber": "0x33a058",
          "transactionHash": "0x7bf511bb0e62e87d17254d08a09376920fe9f578b110bb73ea89c91779ce6a65",
          "transactionIndex": "0xb",
          "logIndex": "0xc",
          "removed": false
        },
        {
          "address": "0xe2b36963b6397dd97f83f13ce0c00e69d26352e0",
          "topics": [
            "0xdd0e34038ac38b2a1ce960229778ac48a8719bc900b6c4f8d0475c6e8b385a60",
            "0x000000000000000000000000503cbd8700b1480662d16aefb9fd2fcf3ec181fa"
          ],
          "data": "0x",
          "blockHash": "0xe029910e231737fff4816f585862ba57cda7eb17b0349119b44a395be63a74e6",
          "blockNumber": "0x33a058",
          "transactionHash": "0x7bf511bb0e62e87d17254d08a09376920fe9f578b110bb73ea89c91779ce6a65",
          "transactionIndex": "0xb",
          "logIndex": "0xd",
          "removed": false
        },
        {
          "address": "0xe2b36963b6397dd97f83f13ce0c00e69d26352e0",
          "topics": [
            "0xdd0e34038ac38b2a1ce960229778ac48a8719bc900b6c4f8d0475c6e8b385a60",
            "0x00000000000000000000000032f7f111a625f1578e99e95478a3bbe472abd749"
          ],
          "data": "0x",
          "blockHash": "0xe029910e231737fff4816f585862ba57cda7eb17b0349119b44a395be63a74e6",
          "blockNumber": "0x33a058",
          "transactionHash": "0x7bf511bb0e62e87d17254d08a09376920fe9f578b110bb73ea89c91779ce6a65",
          "transactionIndex": "0xb",
          "logIndex": "0xe",
          "removed": false
        }
      ],
      "logsBloom": "0x000000000000000000002000000000000000008000000000000000000000200000000000001800000000000000002000000048000000040000000800030006000000004000000010000008000000000000400000000000440020400001000000081000000800410000400000100000000000000000000000000000204000040000000000000000000000001000000000000002000400000000000002000000000002000000000000200000000000000000080000000000000000000000000040c0408000000001008009000000040000000000000000004000000000004010000404000000000000000000001180000000001000401000000040000000000000",
      "type": "0x2",
      "transactionHash": "0x7bf511bb0e62e87d17254d08a09376920fe9f578b110bb73ea89c91779ce6a65",
      "transactionIndex": "0xb",
      "blockHash": "0xe029910e231737fff4816f585862ba57cda7eb17b0349119b44a395be63a74e6",
      "blockNumber": "0x33a058",
      "gasUsed": "0x2a202b",
      "effectiveGasPrice": "0x2e90edd001",
      "from": "0x8866438f9348f33516040d38a0113531bc9e7e1d",
      "to": "0x10606bd4044d23de2f2bcd2d98ee7801f995a953",
      "contractAddress": null
    }
  ],
  "libraries": [],
  "pending": [],
  "returns": {},
  "timestamp": 1759216601533,
  "chain": 1449000,
  "commit": "91aff73"
}