{
  "transactions": [
    {
      "hash": "0x969e782c257aa7b48a04cecad205e53801dbf11e9cf2df792d5c6259369169b7",
      "transactionType": "CALL",
      "contractName": null,
      "contractAddress": "0x75537828f2ce51be7289709686a69cbfdbb714f1",
      "function": "drip(bytes32)",
      "arguments": [
        "0x5852502d410a0000000000000000000000000000000000000000000000000000"
      ],
      "transaction": {
        "from": "0xf39fd6e51aad88f6f4ce6ab8827279cfffb92266",
        "to": "0x75537828f2ce51be7289709686a69cbfdbb714f1",
        "value": "0x0",
        "input": "0x44e2a5a85852502d410a0000000000000000000000000000000000000000000000000000",
        "nonce": "0x21",
        "chainId": "0x7a69"
      },
      "additionalContracts": [],
      "isFixedGasLimit": false
    },
    {
      "hash": "0xa9c6e1663cae3a2b9ea1abbdfaf4eaf53385fc7e6642d02fd770aa1b0e909751",
      "transactionType": "CALL",
      "contractName": null,
      "contractAddress": "0x6f1216d1bfe15c98520ca1434fc1d9d57ac95321",
      "function": "file(bytes32,bytes32,uint256)",
      "arguments": [
        "0x5852502d410a0000000000000000000000000000000000000000000000000000",
        "0x6d61740000000000000000000000000000000000000000000000000000000000",
        "1500000000000000000000000000"
      ],
      "transaction": {
        "from": "0xf39fd6e51aad88f6f4ce6ab8827279cfffb92266",
        "to": "0x6f1216d1bfe15c98520ca1434fc1d9d57ac95321",
        "value": "0x0",
        "input": "0x1a0b287e5852502d410a00000000000000000000000000000000000000000000000000006d61740000000000000000000000000000000000000000000000000000000000000000000000000000000000000000000000000004d8c55aefb8c05b5c000000",
        "nonce": "0x22",
        "chainId": "0x7a69"
      },
      "additionalContracts": [],
      "isFixedGasLimit": false
    },
    {
      "hash": "0x4fd5358fbc7ed1f1c4cf00a33d1dfda3f2dcb348f6b2045bd26ae5d6a300fa9c",
      "transactionType": "CALL",
      "contractName": null,
      "contractAddress": "0xcafac3dd18ac6c6e92c921884f9e4176737c052c",
      "function": "file(bytes32,bytes32,uint256)",
      "arguments": [
        "0x5852502d410a0000000000000000000000000000000000000000000000000000",
        "0x6c696e6500000000000000000000000000000000000000000000000000000000",
        "5000000000000000000000000000000000000000000000000000"
      ],
      "transaction": {
        "from": "0xf39fd6e51aad88f6f4ce6ab8827279cfffb92266",
        "to": "0xcafac3dd18ac6c6e92c921884f9e4176737c052c",
        "value": "0x0",
        "input": "0x1a0b287e5852502d410a00000000000000000000000000000000000000000000000000006c696e6500000000000000000000000000000000000000000000000000000000000000000000000000000d5d238a4abe9806872a4904598d6d88000000000000",
        "nonce": "0x23",
        "chainId": "0x7a69"
      },
      "additionalContracts": [],
      "isFixedGasLimit": false
    },
    {
      "hash": "0x0fd7c02542aba62cb08a7a00acd55f82d0a0fde5fac30a1664c3bd5cf8f000cc",
      "transactionType": "CALL",
      "contractName": null,
      "contractAddress": "0xcafac3dd18ac6c6e92c921884f9e4176737c052c",
      "function": "file(bytes32,uint256)",
      "arguments": [
        "0x4c696e6500000000000000000000000000000000000000000000000000000000",
        "5000000000000000000000000000000000000000000000000000"
      ],
      "transaction": {
        "from": "0xf39fd6e51aad88f6f4ce6ab8827279cfffb92266",
        "to": "0xcafac3dd18ac6c6e92c921884f9e4176737c052c",
        "value": "0x0",
        "input": "0x29ae81144c696e6500000000000000000000000000000000000000000000000000000000000000000000000000000d5d238a4abe9806872a4904598d6d88000000000000",
        "nonce": "0x24",
        "chainId": "0x7a69"
      },
      "additionalContracts": [],
      "isFixedGasLimit": false
    },
    {
      "hash": "0x7cc448dcbdf38caa5970b645c9e0c0131bc75bfe36bb59e069d8123d91de1a49",
      "transactionType": "CALL",
      "contractName": null,
      "contractAddress": "0xcafac3dd18ac6c6e92c921884f9e4176737c052c",
      "function": "file(bytes32,bytes32,uint256)",
      "arguments": [
        "0x5852502d410a0000000000000000000000000000000000000000000000000000",
        "0x6475737400000000000000000000000000000000000000000000000000000000",
        "50000000000000000000000000000000000000000000000"
      ],
      "transaction": {
        "from": "0xf39fd6e51aad88f6f4ce6ab8827279cfffb92266",
        "to": "0xcafac3dd18ac6c6e92c921884f9e4176737c052c",
        "value": "0x0",
        "input": "0x1a0b287e5852502d410a0000000000000000000000000000000000000000000000000000647573740000000000000000000000000000000000000000000000000000000000000000000000000000000008c213d9da502de454526f422cc3400000000000",
        "nonce": "0x25",
        "chainId": "0x7a69"
      },
      "additionalContracts": [],
      "isFixedGasLimit": false
    },
    {
      "hash": "0x25ea8c1edd0ccf24308de7fd73cd15998ce9cbad84b93fe7e41a313a450bd5e3",
      "transactionType": "CALL",
      "contractName": null,
      "contractAddress": "0x856e4424f806d16e8cbc702b3c0f2ede5468eae5",
      "function": "file(bytes32,uint256)",
      "arguments": [
        "0x486f6c6500000000000000000000000000000000000000000000000000000000",
        "5000000000000000000000000000000000000000000000000000"
      ],
      "transaction": {
        "from": "0xf39fd6e51aad88f6f4ce6ab8827279cfffb92266",
        "to": "0x856e4424f806d16e8cbc702b3c0f2ede5468eae5",
        "value": "0x0",
        "input": "0x29ae8114486f6c6500000000000000000000000000000000000000000000000000000000000000000000000000000d5d238a4abe9806872a4904598d6d88000000000000",
        "nonce": "0x26",
        "chainId": "0x7a69"
      },
      "additionalContracts": [],
      "isFixedGasLimit": false
    },
    {
      "hash": "0x98718d29bee23e9ab6838074d621afa88d120eb1e7f53518b3b126cf9139aaae",
      "transactionType": "CALL",
      "contractName": null,
      "contractAddress": "0x856e4424f806d16e8cbc702b3c0f2ede5468eae5",
      "function": "file(bytes32,bytes32,uint256)",
      "arguments": [
        "0x5852502d410a0000000000000000000000000000000000000000000000000000",
        "0x686f6c6500000000000000000000000000000000000000000000000000000000",
        "5000000000000000000000000000000000000000000000000000"
      ],
      "transaction": {
        "from": "0xf39fd6e51aad88f6f4ce6ab8827279cfffb92266",
        "to": "0x856e4424f806d16e8cbc702b3c0f2ede5468eae5",
        "value": "0x0",
        "input": "0x1a0b287e5852502d410a0000000000000000000000000000000000000000000000000000686f6c6500000000000000000000000000000000000000000000000000000000000000000000000000000d5d238a4abe9806872a4904598d6d88000000000000",
        "nonce": "0x27",
        "chainId": "0x7a69"
      },
      "additionalContracts": [],
      "isFixedGasLimit": false
    },
    {
      "hash": "0x36b98577bb2d805095a177c433323a6d29a52c1d8418de361507eadd5247b79d",
      "transactionType": "CALL",
      "contractName": null,
      "contractAddress": "0x6f1216d1bfe15c98520ca1434fc1d9d57ac95321",
      "function": "poke(bytes32)",
      "arguments": [
        "0x5852502d410a0000000000000000000000000000000000000000000000000000"
      ],
      "transaction": {
        "from": "0xf39fd6e51aad88f6f4ce6ab8827279cfffb92266",
        "to": "0x6f1216d1bfe15c98520ca1434fc1d9d57ac95321",
        "value": "0x0",
        "input": "0x1504460f5852502d410a0000000000000000000000000000000000000000000000000000",
        "nonce": "0x28",
        "chainId": "0x7a69"
      },
      "additionalContracts": [],
      "isFixedGasLimit": false
    }
  ],
  "receipts": [
    {
      "status": "0x1",
      "cumulativeGasUsed": "0xf788",
      "logs": [],
      "logsBloom": "0x00000000000000000000000000000000000000000000000000000000000000000000000000000000000000000000000000000000000000000000000000000000000000000000000000000000000000000000000000000000000000000000000000000000000000000000000000000000000000000000000000000000000000000000000000000000000000000000000000000000000000000000000000000000000000000000000000000000000000000000000000000000000000000000000000000000000000000000000000000000000000000000000000000000000000000000000000000000000000000000000000000000000000000000000000000000",
      "type": "0x2",
      "transactionHash": "0x969e782c257aa7b48a04cecad205e53801dbf11e9cf2df792d5c6259369169b7",
      "transactionIndex": "0x0",
      "blockHash": "0x40cf7c85d513db5154c0cf260fcb20d0e20baf81f8baaa732f7ebcff2ab81726",
      "blockNumber": "0x19",
      "gasUsed": "0xf788",
      "effectiveGasPrice": "0x37bf3ae",
      "blobGasPrice": "0x1",
      "from": "0xf39fd6e51aad88f6f4ce6ab8827279cfffb92266",
      "to": "0x75537828f2ce51be7289709686a69cbfdbb714f1",
      "contractAddress": null
    },
    {
      "status": "0x1",
      "cumulativeGasUsed": "0xbd31",
      "logs": [],
      "logsBloom": "0x00000000000000000000000000000000000000000000000000000000000000000000000000000000000000000000000000000000000000000000000000000000000000000000000000000000000000000000000000000000000000000000000000000000000000000000000000000000000000000000000000000000000000000000000000000000000000000000000000000000000000000000000000000000000000000000000000000000000000000000000000000000000000000000000000000000000000000000000000000000000000000000000000000000000000000000000000000000000000000000000000000000000000000000000000000000",
      "type": "0x2",
      "transactionHash": "0xa9c6e1663cae3a2b9ea1abbdfaf4eaf53385fc7e6642d02fd770aa1b0e909751",
      "transactionIndex": "0x0",
      "blockHash": "0xc2ac7926ffdb9c960b5bd98d59a801e07ce619a2b388f383061de67f3c9baf85",
      "blockNumber": "0x1a",
      "gasUsed": "0xbd31",
      "effectiveGasPrice": "0x30cedcd",
      "blobGasPrice": "0x1",
      "from": "0xf39fd6e51aad88f6f4ce6ab8827279cfffb92266",
      "to": "0x6f1216d1bfe15c98520ca1434fc1d9d57ac95321",
      "contractAddress": null
    },
    {
      "status": "0x1",
      "cumulativeGasUsed": "0xbdab",
      "logs": [],
      "logsBloom": "0x00000000000000000000000000000000000000000000000000000000000000000000000000000000000000000000000000000000000000000000000000000000000000000000000000000000000000000000000000000000000000000000000000000000000000000000000000000000000000000000000000000000000000000000000000000000000000000000000000000000000000000000000000000000000000000000000000000000000000000000000000000000000000000000000000000000000000000000000000000000000000000000000000000000000000000000000000000000000000000000000000000000000000000000000000000000",
      "type": "0x2",
      "transactionHash": "0x4fd5358fbc7ed1f1c4cf00a33d1dfda3f2dcb348f6b2045bd26ae5d6a300fa9c",
      "transactionIndex": "0x0",
      "blockHash": "0xd1e6ac74f43b63eccc4fc00505e57d6100a49fbcc58a5f94d445cc3583d9b358",
      "blockNumber": "0x1b",
      "gasUsed": "0xbdab",
      "effectiveGasPrice": "0x2aba0c4",
      "blobGasPrice": "0x1",
      "from": "0xf39fd6e51aad88f6f4ce6ab8827279cfffb92266",
      "to": "0xcafac3dd18ac6c6e92c921884f9e4176737c052c",
      "contractAddress": null
    },
    {
      "status": "0x1",
      "cumulativeGasUsed": "0xbc98",
      "logs": [],
      "logsBloom": "0x00000000000000000000000000000000000000000000000000000000000000000000000000000000000000000000000000000000000000000000000000000000000000000000000000000000000000000000000000000000000000000000000000000000000000000000000000000000000000000000000000000000000000000000000000000000000000000000000000000000000000000000000000000000000000000000000000000000000000000000000000000000000000000000000000000000000000000000000000000000000000000000000000000000000000000000000000000000000000000000000000000000000000000000000000000000",
      "type": "0x2",
      "transactionHash": "0x0fd7c02542aba62cb08a7a00acd55f82d0a0fde5fac30a1664c3bd5cf8f000cc",
      "transactionIndex": "0x0",
      "blockHash": "0x3dc87200cd5ca35f08589df497fcb9878f8449d891d1bbe57e9c6389a52fc10b",
      "blockNumber": "0x1c",
      "gasUsed": "0xbc98",
      "effectiveGasPrice": "0x256737c",
      "blobGasPrice": "0x1",
      "from": "0xf39fd6e51aad88f6f4ce6ab8827279cfffb92266",
      "to": "0xcafac3dd18ac6c6e92c921884f9e4176737c052c",
      "contractAddress": null
    },
    {
      "status": "0x1",
      "cumulativeGasUsed": "0xbdbf",
      "logs": [],
      "logsBloom": "0x00000000000000000000000000000000000000000000000000000000000000000000000000000000000000000000000000000000000000000000000000000000000000000000000000000000000000000000000000000000000000000000000000000000000000000000000000000000000000000000000000000000000000000000000000000000000000000000000000000000000000000000000000000000000000000000000000000000000000000000000000000000000000000000000000000000000000000000000000000000000000000000000000000000000000000000000000000000000000000000000000000000000000000000000000000000",
      "type": "0x2",
      "transactionHash": "0x7cc448dcbdf38caa5970b645c9e0c0131bc75bfe36bb59e069d8123d91de1a49",
      "transactionIndex": "0x0",
      "blockHash": "0x60bf407fb407f8b96876489f1317caa9942df432c4364342465c6877354a7b7b",
      "blockNumber": "0x1d",
      "gasUsed": "0xbdbf",
      "effectiveGasPrice": "0x20be2b1",
      "blobGasPrice": "0x1",
      "from": "0xf39fd6e51aad88f6f4ce6ab8827279cfffb92266",
      "to": "0xcafac3dd18ac6c6e92c921884f9e4176737c052c",
      "contractAddress": null
    },
    {
      "status": "0x1",
      "cumulativeGasUsed": "0xb9b7",
      "logs": [
        {
          "address": "0x856e4424f806d16e8cbc702b3c0f2ede5468eae5",
          "topics": [
            "0xe986e40cc8c151830d4f61050f4fb2e4add8567caad2d5f5496f9158e91fe4c7",
            "0x486f6c6500000000000000000000000000000000000000000000000000000000"
          ],
          "data": "0x000000000000000000000d5d238a4abe9806872a4904598d6d88000000000000",
          "blockHash": "0xa09aa35a5d1db7b672b40624ee8d85e0cf0aad9861a2484c49b9cb00bc1ee943",
          "blockNumber": "0x1e",
          "blockTimestamp": "0x68d154de",
          "transactionHash": "0x25ea8c1edd0ccf24308de7fd73cd15998ce9cbad84b93fe7e41a313a450bd5e3",
          "transactionIndex": "0x0",
          "logIndex": "0x0",
          "removed": false
        }
      ],
      "logsBloom": "0x00000000000000000000000000000000000000000000000000000000000000000000000000000400000000002000000000000000000000000000000000000000000000000000000800000000000000000010000000000000000000000000000000000000000000000000000000001000000000000000000000000000000000000000000000000000000000000000000000000200000000000000000200000000000000000000000000000000000000000000000000000000000000000000000000000000000000000001000000000000000000000000000000000000000000000004000000000000000000000000000000000000000000000000000000000000",
      "type": "0x2",
      "transactionHash": "0x25ea8c1edd0ccf24308de7fd73cd15998ce9cbad84b93fe7e41a313a450bd5e3",
      "transactionIndex": "0x0",
      "blockHash": "0xa09aa35a5d1db7b672b40624ee8d85e0cf0aad9861a2484c49b9cb00bc1ee943",
      "blockNumber": "0x1e",
      "gasUsed": "0xb9b7",
      "effectiveGasPrice": "0x1ca9ca5",
      "blobGasPrice": "0x1",
      "from": "0xf39fd6e51aad88f6f4ce6ab8827279cfffb92266",
      "to": "0x856e4424f806d16e8cbc702b3c0f2ede5468eae5",
      "contractAddress": null
    },
    {
      "status": "0x1",
      "cumulativeGasUsed": "0xbc68",
      "logs": [
        {
          "address": "0x856e4424f806d16e8cbc702b3c0f2ede5468eae5",
          "topics": [
            "0x851aa1caf4888170ad8875449d18f0f512fd6deb2a6571ea1a41fb9f95acbcd1",
            "0x5852502d410a0000000000000000000000000000000000000000000000000000",
            "0x686f6c6500000000000000000000000000000000000000000000000000000000"
          ],
          "data": "0x000000000000000000000d5d238a4abe9806872a4904598d6d88000000000000",
          "blockHash": "0x1369e4e27b328f7775247107167be4f0ec8abeb326a05bc0d0b022b3e5b7f0f4",
          "blockNumber": "0x1f",
          "blockTimestamp": "0x68d154de",
          "transactionHash": "0x98718d29bee23e9ab6838074d621afa88d120eb1e7f53518b3b126cf9139aaae",
          "transactionIndex": "0x0",
          "logIndex": "0x0",
          "removed": false
        }
      ],
      "logsBloom": "0x00000000000000000000000000000000000000000000000000000000000000000000000000000400000000000000200000000000000000000000000000000000000000000000000800000000000000000000000000000001000000000000000000000000000000000000000010000000000000000000000000000000000000000000000000000000000000000000000000000000000000000000000000000000000000000000000400000000000000000000000000000000000000000020000000000000000000000000000000000000000000001000000000000000000000000014000000000000000000000000000000000040000000000040000000000000",
      "type": "0x2",
      "transactionHash": "0x98718d29bee23e9ab6838074d621afa88d120eb1e7f53518b3b126cf9139aaae",
      "transactionIndex": "0x0",
      "blockHash": "0x1369e4e27b328f7775247107167be4f0ec8abeb326a05bc0d0b022b3e5b7f0f4",
      "blockNumber": "0x1f",
      "gasUsed": "0xbc68",
      "effectiveGasPrice": "0x1917795",
      "blobGasPrice": "0x1",
      "from": "0xf39fd6e51aad88f6f4ce6ab8827279cfffb92266",
      "to": "0x856e4424f806d16e8cbc702b3c0f2ede5468eae5",
      "contractAddress": null
    },
    {
      "status": "0x1",
      "cumulativeGasUsed": "0x10629",
      "logs": [
        {
          "address": "0x6f1216d1bfe15c98520ca1434fc1d9d57ac95321",
          "topics": [
            "0xdfd7467e425a8107cfd368d159957692c25085aacbcf5228ce08f10f2146486e"
          ],
          "data": "0x5852502d410a00000000000000000000000000000000000000000000000000000000000000000000000000000000000000000000000000000de0b6b3a76400000000000000000000000000000000000000000000022774286a8b00289aaaaaaa",
          "blockHash": "0x3aa44b7bebccbf8a3fa589cad3537f549bf867cbecd1ef10acb0c01ff9832992",
          "blockNumber": "0x20",
          "blockTimestamp": "0x68d154de",
          "transactionHash": "0x36b98577bb2d805095a177c433323a6d29a52c1d8418de361507eadd5247b79d",
          "transactionIndex": "0x0",
          "logIndex": "0x0",
          "removed": false
        }
      ],
      "logsBloom": "0x00000000000000000000000000000000000000000000000000000000000000000004000000000000000000000000000000000000000000000000000000000000000000000000000000000000000000000000800000000000000000000000000000000000000000000000040000004000000000000000000000002000000000000000000000000000000000000000000000000000000000000000000000000000000000000000000000000000000000000000000000000000000000000000000000200000000000000000000000000000000000000000000000000000000000000000000000000000000000000000000000000000000000000000000000000000",
      "type": "0x2",
      "transactionHash": "0x36b98577bb2d805095a177c433323a6d29a52c1d8418de361507eadd5247b79d",
      "transactionIndex": "0x0",
      "blockHash": "0x3aa44b7bebccbf8a3fa589cad3537f549bf867cbecd1ef10acb0c01ff9832992",
      "blockNumber": "0x20",
      "gasUsed": "0x10629",
      "effectiveGasPrice": "0x15f71f2",
      "blobGasPrice": "0x1",
      "from": "0xf39fd6e51aad88f6f4ce6ab8827279cfffb92266",
      "to": "0x6f1216d1bfe15c98520ca1434fc1d9d57ac95321",
      "contractAddress": null
    }
  ],
  "libraries": [],
  "pending": [],
  "returns": {},
  "timestamp": 1758549214139,
  "chain": 31337,
  "commit": "7ae1ba5"
}