{
  "transactions": [
    {
      "hash": "0xab1b677db7c24a074a658a35241c45f08b43e3d223b92258411821683a663acd",
      "transactionType": "CREATE",
      "contractName": "Controller",
      "contractAddress": "0xd87e64e51011716808b736c33cc3559c553219f4",
      "function": null,
      "arguments": [
        "0xB5FB4BE02232B1bBA4dC8f81dc24C26980dE9e3C",
        "0xEd09DD3f30CCDEADAa25eED2f14eAa646878799F",
        "0x9E8860db73D093464ee2B5a1Fe6F63B09F70e8C1",
        "0x6Ea452dC1105607eC1AB84c643369Dd3356cc251"
      ],
      "transaction": {
        "from": "0x8866438f9348f33516040d38a0113531bc9e7e1d",
        "value": "0x0",
        "input": "0x61010080604052346101c2575f608082611559803803809161002182856101d9565b8339810103126101c25761003482610210565b61004060208401610210565b610058606061005160408701610210565b9501610210565b6080929092526001600160a01b03169283156101c6576001600160a01b03169081156101c6576001600160a01b03169283156101c65760a081905260c082905260e0849052600a80546001600160a01b03191633179055813b156101c2575f916024839260405194859384926328ec8bf160e21b845260048401525af180156101b7576101a4575b5060c051909182916001600160a01b0316803b156101a0576024839260405194859384926328ec8bf160e21b845260048401525af180156101955761017d575b6040516113349081610225823960805181818161086701526110c1015260a051818181610308015281816104e6015281816109dd0152610eed015260c05181818161057701526107a7015260e05181818161020d0152610afc0152f35b6101888280926101d9565b6101925780610120565b80fd5b6040513d84823e3d90fd5b5050fd5b6101b091505f906101d9565b5f5f6100e0565b6040513d5f823e3d90fd5b5f80fd5b6316c6875160e31b5f525f60045260245ffd5b601f909101601f19168101906001600160401b038211908210176101fc57604052565b634e487b7160e01b5f52604160045260245ffd5b51906001600160a01b03821682036101c25756fe6080806040526004361015610012575f80fd5b5f905f3560e01c90816304bda262146110f05750806309c6bed9146110ac57806311eac85514611084578063120394de14610fc557806329241502146107d657806336569e77146107915780634cbab1f1146106845780634e1c756e1461076157806354134166146107285780635dfc9d7b146106fe57806374c31f5d146106ae5780637aa2dbc1146106845780638019a786146104bb578063947a97e91461046c578063a2f8f0571461044e578063a6bf15be146103a0578063acee287114610337578063bb038e15146102f2578063be22f546146102c9578063bf0dfcab1461023c578063c11645bc146101f7578063c4ed26621461019a578063c71f8d67146101c4578063c7e5b0a41461019a578063d1a294c4146101675763f851a4401461013c575f80fd5b34610164578060031936011261016457600a546040516001600160a01b039091168152602090f35b80fd5b503461016457602036600319011261016457602090600435815260048252604060018060a01b0391205416604051908152f35b50346101645760203660031901126101645760406020916004358152600283522054604051908152f35b503461016457602036600319011261016457602090600435815260058252604060018060a01b0391205416604051908152f35b50346101645780600319360112610164576040517f00000000000000000000000000000000000000000000000000000000000000006001600160a01b03168152602090f35b503461016457604036600319011261016457610256611171565b61025e611187565b9061027460018060a01b03600a54163314611219565b6001600160a01b03169081156102b5576001600160a01b03169081156102b55760018060a01b031983541617825560018060a01b0319600154161760015580f35b6316c6875160e31b83526004839052602483fd5b50346101645780600319360112610164576009546040516001600160a01b039091168152602090f35b50346101645780600319360112610164576040517f00000000000000000000000000000000000000000000000000000000000000006001600160a01b03168152602090f35b503461016457602036600319011261016457610351611171565b61036660018060a01b03600a54163314611219565b6001600160a01b0316801561038c57600980546001600160a01b03191691909117905580f35b6316c6875160e31b82526004829052602482fd5b5034610164576080366003190112610164576004356103bd611187565b6044356001600160a01b038116810361044a576103e560018060a01b03600a54163314611219565b82845260046020908152604080862080546001600160a01b039586166001600160a01b03199182168117909255868852600584528288208054959096169416939093179093559084526006815281842083905591835260079091528120606435905580f35b8380fd5b50346101645780600319360112610164576020600854604051908152f35b5034610164576020366003190112610164576004356001600160401b0381116104b75761049f6020913690600401611112565b90809291810103126104b75760209035604051908152f35b5080fd5b503461016457602036600319011261016457604051632c2cb9fd60e01b8152600480359082018190527f00000000000000000000000000000000000000000000000000000000000000006001600160a01b031690602083602481855afa928315610679578493610644575b50602090602460405180948193632726b07360e01b835260048301525afa801561063957610573926040928592610608575b5082516309092f9760e21b81529384928392600484016112b2565b03817f00000000000000000000000000000000000000000000000000000000000000006001600160a01b03165afa80156105fd57829183916105c0575b6040838382519182526020820152f35b9150506040813d6040116105f5575b816105dc6040938361119d565b810103126104b75760409150602081519101515f6105b0565b3d91506105cf565b6040513d84823e3d90fd5b61062b91925060203d602011610632575b610623818361119d565b810190611293565b905f610558565b503d610619565b6040513d85823e3d90fd5b9092506020813d602011610671575b816106606020938361119d565b8101031261044a5751916020610526565b3d9150610653565b6040513d86823e3d90fd5b50346101645760203660031901126101645760406020916004358152600383522054604051908152f35b503461016457602036600319011261016457600435906001600160401b038211610164576106ea6106e23660048501611112565b810190611251565b906106fa6040519283928361113f565b0390f35b50346101645760203660031901126101645760406020916004358152600783522054604051908152f35b5034610164576020366003190112610164576020906040906001600160a01b03610750611171565b168152600683522054604051908152f35b50346101645760203660031901126101645761078860018060a01b03600a54163314611219565b60043560085580f35b50346101645780600319360112610164576040517f00000000000000000000000000000000000000000000000000000000000000006001600160a01b03168152602090f35b5034610e735760e0366003190112610e73576024356001600160401b038111610e7357610807903690600401611112565b50506044356001600160401b038111610e7357610828903690600401611112565b9091906064356001600160401b038111610e735761084a903690600401611112565b939060a4356001600160a01b0381169060843590829003610e73577f00000000000000000000000000000000000000000000000000000000000000006001600160a01b03169260c4359033859003610fb2576108bb906108ab3689896111d4565b6020815191012099810190611251565b92907fc878ce8db15ae780a7801a0a72a5c00850f38b7bbdb4e0015ea7f3b253063fbf6020604051838152a17fe77d2bd163c1d1e0f6d02bd9b28f5b1b0efd4ecd39aa2db3cc6d3d720b6495a28103610fa05750604083805181010312610e735760406020840151930151935f5260066020528260405f205403610f8d57825f5260076020528060405f205403610f7b5750875f52600260205260405f2054978815610ec7575b505f828152600560205260409020546001600160a01b0316918215610eb5575f52600460205260018060a01b0360405f2054166020604051809263095ea7b360e01b8252815f816109b7888a600484016112e3565b03925af18015610e6857610e98575b50604051632726b07360e01b8152600481018990527f00000000000000000000000000000000000000000000000000000000000000006001600160a01b031692602082602481875afa918215610e68575f92610e77575b50803b15610e7357825f91610a499383604051809681958294633b4da69f60e01b8452600484016112e3565b03925af18015610e6857610e53575b50813b15610e1757604051906345e6bdcd60e01b82528860048301526024820152826044820152868160648183865af18015610e4857908791610e2f575b5050676765c793fa10079d601b1b82810297908389041483151715610e1b578697829796973b15610e175760648792836040519586948593637cf986db60e11b8552600485015230602485015260448401525af1908115610e0c578591610df7575b50507f00000000000000000000000000000000000000000000000000000000000000006001600160a01b0316803b15610df35760405163ef693bed60e01b81529185918391829084908290610b519030600484016112e3565b03925af1908115610679578491610dde575b50600954815460405163095ea7b360e01b81526001600160a01b039182166004820152670de0b6b3a7640000602482015292602092849260449284929091165af1801561067957610dc1575b507ff685e843ad79f24108e43bba845f0c0548e7d009a0304540bbe0684146d944416020604051670de0b6b3a76400008152a182546001600160a01b0316803b1561044a57838091604460405180948193638d7ef9bb60e01b835230600484015266038d7ea4c6800060248401525af1908115610679578491610dac575b5060015460405163095ea7b360e01b81526004810184905266071afd498d000060248201529160209183916044918391906001600160a01b03165af1801561067957610d7f575b50803b15610d7b578391836020604051968795869463da081c7360e01b86527fc8895f8ceb0cae9da15bb9d2bc5859a184ca0f61c88560488355c8a7364deef8600487015260c06024870152600460c4870152631e1c9c1b60e21b60e4870152610100604487015281610104870152610124860137826101248286010152601f80199101168301655af3107a4000606485015282610124808684030192600319840160848801520152670a688906bd8b000060a485015201925af180156105fd57610d66575b505060206040517fe84001f3dedacf7f9ddc370e9f09c26b37473e9e959ffdc4925f6fe33c9877e48152f35b610d7182809261119d565b6101645780610d3a565b8280fd5b610da09060203d602011610da5575b610d98818361119d565b8101906112cb565b610c74565b503d610d8e565b81610db69161119d565b610d7b57825f610c2d565b610dd99060203d602011610da557610d98818361119d565b610baf565b81610de89161119d565b610d7b57825f610b63565b8480fd5b81610e019161119d565b61044a57835f610af8565b6040513d87823e3d90fd5b8680fd5b634e487b7160e01b87526011600452602487fd5b81610e399161119d565b610e4457855f610a96565b8580fd5b6040513d89823e3d90fd5b610e609197505f9061119d565b5f955f610a58565b6040513d5f823e3d90fd5b5f80fd5b610e9191925060203d60201161063257610623818361119d565b905f610a1d565b610eb09060203d602011610da557610d98818361119d565b6109c6565b631e71423d60e01b5f5260045260245ffd5b604051636090dec560e01b8152985060208980610ee83087600484016112b2565b03815f7f00000000000000000000000000000000000000000000000000000000000000006001600160a01b03165af1988915610e68575f99610f47575b5088815f5260026020528060405f20555f52600360205260405f20555f610962565b9098506020813d602011610f73575b81610f636020938361119d565b81010312610e735751975f610f25565b3d9150610f56565b63961e5dc760e01b5f5260045260245ffd5b82631e71423d60e01b5f5260045260245ffd5b63cea2ba5f60e01b5f5260045260245ffd5b630d6c7be960e01b5f523360045260245ffd5b34610e73576020366003190112610e73576004356001600160401b038111610e7357610ff43682600401611112565b6040811061104e5760243591602083019182841161103a576020846004013585010180931161103a578211610e73576106ea923692819003601f190191016020016111d4565b634e487b7160e01b5f52601160045260245ffd5b60405162461bcd60e51b815260206004820152600e60248201526d11185d18481d1bdbc81cda1bdc9d60921b6044820152606490fd5b34610e73575f366003190112610e73576001546040516001600160a01b039091168152602090f35b34610e73575f366003190112610e73576040517f00000000000000000000000000000000000000000000000000000000000000006001600160a01b03168152602090f35b34610e73575f366003190112610e73575f546001600160a01b03168152602090f35b9181601f84011215610e73578235916001600160401b038311610e735760208381860195010111610e7357565b9060609260209183526040828401528051918291826040860152018484015e5f828201840152601f01601f1916010190565b600435906001600160a01b0382168203610e7357565b602435906001600160a01b0382168203610e7357565b601f909101601f19168101906001600160401b038211908210176111c057604052565b634e487b7160e01b5f52604160045260245ffd5b9192916001600160401b0382116111c057604051916111fd601f8201601f19166020018461119d565b829481845281830111610e73578281602093845f960137010152565b1561122057565b60405162461bcd60e51b81526020600482015260096024820152683737ba16b0b236b4b760b91b6044820152606490fd5b9190604083820312610e73578235926020810135906001600160401b038211610e7357019080601f83011215610e7357816020611290933591016111d4565b90565b90816020910312610e7357516001600160a01b0381168103610e735790565b9081526001600160a01b03909116602082015260400190565b90816020910312610e7357518015158103610e735790565b6001600160a01b03909116815260208101919091526040019056fea264697066735822122000db2a217bc5dc2bbd7bfa6eb8be88797b3c3ce2064196f5291c2e066f8c144864736f6c634300081e0033000000000000000000000000b5fb4be02232b1bba4dc8f81dc24c26980de9e3c000000000000000000000000ed09dd3f30ccdeadaa25eed2f14eaa646878799f0000000000000000000000009e8860db73d093464ee2b5a1fe6f63b09f70e8c10000000000000000000000006ea452dc1105607ec1ab84c643369dd3356cc251",
        "nonce": "0x26c",
        "chainId": "0x161c28"
      },
      "additionalContracts": [],
      "isFixedGasLimit": false
    },
    {
      "hash": "0xdf38600e0e1b53b09c8af4a495130e55bdfe52fa4b45929669b0cf97245ef928",
      "transactionType": "CALL",
      "contractName": "Controller",
      "contractAddress": "0xd87e64e51011716808b736c33cc3559c553219f4",
      "function": "setDaiTokenId(bytes32)",
      "arguments": [
        "0x8888888888888888888888888888888888888888888888888888888888888888"
      ],
      "transaction": {
        "from": "0x8866438f9348f33516040d38a0113531bc9e7e1d",
        "to": "0xd87e64e51011716808b736c33cc3559c553219f4",
        "value": "0x0",
        "input": "0x4e1c756e8888888888888888888888888888888888888888888888888888888888888888",
        "nonce": "0x26d",
        "chainId": "0x161c28"
      },
      "additionalContracts": [],
      "isFixedGasLimit": false
    },
    {
      "hash": "0x3aaa251f53ad804a1d1835c9e9a11bd24d03c9bb2600b114ef23c7dea42e9d9b",
      "transactionType": "CALL",
      "contractName": "Controller",
      "contractAddress": "0xd87e64e51011716808b736c33cc3559c553219f4",
      "function": "setDaiToken(address)",
      "arguments": [
        "0xB6202dd8D51598C18E1E277093B7468F943CD9fB"
      ],
      "transaction": {
        "from": "0x8866438f9348f33516040d38a0113531bc9e7e1d",
        "to": "0xd87e64e51011716808b736c33cc3559c553219f4",
        "value": "0x0",
        "input": "0xacee2871000000000000000000000000b6202dd8d51598c18e1e277093b7468f943cd9fb",
        "nonce": "0x26e",
        "chainId": "0x161c28"
      },
      "additionalContracts": [],
      "isFixedGasLimit": false
    },
    {
      "hash": "0x57fdda12a27deed504e7aef6782622da21fbef7d0736ce29ba8aed6511747a3b",
      "transactionType": "CALL",
      "contractName": "Controller",
      "contractAddress": "0xd87e64e51011716808b736c33cc3559c553219f4",
      "function": "setPsm(address,address)",
      "arguments": [
        "0xfc18ab74D3a04A730B767AAB241CE5A451dfCB1d",
        "0xE26D509C661c4F16FaFfBB1eAce1Fa1CdA8cc146"
      ],
      "transaction": {
        "from": "0x8866438f9348f33516040d38a0113531bc9e7e1d",
        "to": "0xd87e64e51011716808b736c33cc3559c553219f4",
        "value": "0x0",
        "input": "0xbf0dfcab000000000000000000000000fc18ab74d3a04a730b767aab241ce5a451dfcb1d000000000000000000000000e26d509c661c4f16faffbb1eace1fa1cda8cc146",
        "nonce": "0x26f",
        "chainId": "0x161c28"
      },
      "additionalContracts": [],
      "isFixedGasLimit": false
    },
    {
      "hash": "0xe492cee835b07858a5a5374cb6f08f2c3aa2ecf6bd4631c2b191229d4667ea96",
      "transactionType": "CALL",
      "contractName": "Controller",
      "contractAddress": "0xd87e64e51011716808b736c33cc3559c553219f4",
      "function": "setCollateralConfig(bytes32,address,address,bytes32)",
      "arguments": [
        "0x5852502d41000000000000000000000000000000000000000000000000000000",
        "0xEeeeeEeeeEeEeeEeEeEeeEEEeeeeEeeeeeeeEEeE",
        "0x3d22179f2578E9374791D2B825806e278eC14A7C",
        "0xba5a21ca88ef6bba2bfff5088994f90e1077e2a1cc3dcc38bd261f00fce2824f"
      ],
      "transaction": {
        "from": "0x8866438f9348f33516040d38a0113531bc9e7e1d",
        "to": "0xd87e64e51011716808b736c33cc3559c553219f4",
        "value": "0x0",
        "input": "0xa6bf15be5852502d41000000000000000000000000000000000000000000000000000000000000000000000000000000eeeeeeeeeeeeeeeeeeeeeeeeeeeeeeeeeeeeeeee0000000000000000000000003d22179f2578e9374791d2b825806e278ec14a7cba5a21ca88ef6bba2bfff5088994f90e1077e2a1cc3dcc38bd261f00fce2824f",
        "nonce": "0x270",
        "chainId": "0x161c28"
      },
      "additionalContracts": [],
      "isFixedGasLimit": false
    },
    {
      "hash": "0x37ab62978348e547ea9e0a1312c4f75e505e739c5c59e9f18b5d26588025516a",
      "transactionType": "CALL",
      "contractName": "Controller",
      "contractAddress": "0xd87e64e51011716808b736c33cc3559c553219f4",
      "function": "setCollateralConfig(bytes32,address,address,bytes32)",
      "arguments": [
        "0x555344432d410000000000000000000000000000000000000000000000000000",
        "0xE26D509C661c4F16FaFfBB1eAce1Fa1CdA8cc146",
        "0x43f5e030811411151f709A0796492EEFC34009A0",
        "0xc8895f8ceb0cae9da15bb9d2bc5859a184ca0f61c88560488355c8a7364deef8"
      ],
      "transaction": {
        "from": "0x8866438f9348f33516040d38a0113531bc9e7e1d",
        "to": "0xd87e64e51011716808b736c33cc3559c553219f4",
        "value": "0x0",
        "input": "0xa6bf15be555344432d410000000000000000000000000000000000000000000000000000000000000000000000000000e26d509c661c4f16faffbb1eace1fa1cda8cc14600000000000000000000000043f5e030811411151f709a0796492eefc34009a0c8895f8ceb0cae9da15bb9d2bc5859a184ca0f61c88560488355c8a7364deef8",
        "nonce": "0x271",
        "chainId": "0x161c28"
      },
      "additionalContracts": [],
      "isFixedGasLimit": false
    }
  ],
  "receipts": [
    {
      "status": "0x1",
      "cumulativeGasUsed": "0x30bd36",
      "logs": [],
      "logsBloom": "0x00000000000000000000000000000000000000000000000000000000000000000000000000000000000000000000000000000000000000000000000000000000000000000000000000000000000000000000000000000000000000000000000000000000000000000000000000000000000000000000000000000000000000000000000000000000000000000000000000000000000000000000000000000000000000000000000000000000000000000000000000000000000000000000000000000000000000000000000000000000000000000000000000000000000000000000000000000000000000000000000000000000000000000000000000000000",
      "type": "0x2",
      "transactionHash": "0xab1b677db7c24a074a658a35241c45f08b43e3d223b92258411821683a663acd",
      "transactionIndex": "0x14",
      "blockHash": "0x2dacf0a3b561647ff473f647df42642fe463c9e76b686ebc8c23f57511139656",
      "blockNumber": "0x33f5c4",
      "gasUsed": "0x1238b6",
      "effectiveGasPrice": "0x4cd5886400",
      "from": "0x8866438f9348f33516040d38a0113531bc9e7e1d",
      "to": null,
      "contractAddress": "0xd87e64e51011716808b736c33cc3559c553219f4"
    },
    {
      "status": "0x1",
      "cumulativeGasUsed": "0xb441",
      "logs": [],
      "logsBloom": "0x00000000000000000000000000000000000000000000000000000000000000000000000000000000000000000000000000000000000000000000000000000000000000000000000000000000000000000000000000000000000000000000000000000000000000000000000000000000000000000000000000000000000000000000000000000000000000000000000000000000000000000000000000000000000000000000000000000000000000000000000000000000000000000000000000000000000000000000000000000000000000000000000000000000000000000000000000000000000000000000000000000000000000000000000000000000",
      "type": "0x2",
      "transactionHash": "0xdf38600e0e1b53b09c8af4a495130e55bdfe52fa4b45929669b0cf97245ef928",
      "transactionIndex": "0x0",
      "blockHash": "0xf8e39f503d2dcebc8911ff358895ba48699536a0ff06e370757a51b4f8382314",
      "blockNumber": "0x33f5c5",
      "gasUsed": "0xb441",
      "effectiveGasPrice": "0x4cd5886400",
      "from": "0x8866438f9348f33516040d38a0113531bc9e7e1d",
      "to": "0xd87e64e51011716808b736c33cc3559c553219f4",
      "contractAddress": null
    },
    {
      "status": "0x1",
      "cumulativeGasUsed": "0x18175a",
      "logs": [],
      "logsBloom": "0x00000000000000000000000000000000000000000000000000000000000000000000000000000000000000000000000000000000000000000000000000000000000000000000000000000000000000000000000000000000000000000000000000000000000000000000000000000000000000000000000000000000000000000000000000000000000000000000000000000000000000000000000000000000000000000000000000000000000000000000000000000000000000000000000000000000000000000000000000000000000000000000000000000000000000000000000000000000000000000000000000000000000000000000000000000000",
      "type": "0x2",
      "transactionHash": "0x3aaa251f53ad804a1d1835c9e9a11bd24d03c9bb2600b114ef23c7dea42e9d9b",
      "transactionIndex": "0x10",
      "blockHash": "0x34c1f0f31521277fa39ca92b29e5b060c0a83177ee0e4d613c0166ad3a381b4d",
      "blockNumber": "0x33f5c6",
      "gasUsed": "0xb506",
      "effectiveGasPrice": "0x4cd5886400",
      "from": "0x8866438f9348f33516040d38a0113531bc9e7e1d",
      "to": "0xd87e64e51011716808b736c33cc3559c553219f4",
      "contractAddress": null
    },
    {
      "status": "0x1",
      "cumulativeGasUsed": "0x15455d",
      "logs": [],
      "logsBloom": "0x00000000000000000000000000000000000000000000000000000000000000000000000000000000000000000000000000000000000000000000000000000000000000000000000000000000000000000000000000000000000000000000000000000000000000000000000000000000000000000000000000000000000000000000000000000000000000000000000000000000000000000000000000000000000000000000000000000000000000000000000000000000000000000000000000000000000000000000000000000000000000000000000000000000000000000000000000000000000000000000000000000000000000000000000000000000",
      "type": "0x2",
      "transactionHash": "0x57fdda12a27deed504e7aef6782622da21fbef7d0736ce29ba8aed6511747a3b",
      "transactionIndex": "0x14",
      "blockHash": "0x901cca976051683b4ff8eb9bc94397806beae06b97e78274c4b2a66f5a98c908",
      "blockNumber": "0x33f5c7",
      "gasUsed": "0x10d95",
      "effectiveGasPrice": "0x4cd5886400",
      "from": "0x8866438f9348f33516040d38a0113531bc9e7e1d",
      "to": "0xd87e64e51011716808b736c33cc3559c553219f4",
      "contractAddress": null
    },
    {
      "status": "0x1",
      "cumulativeGasUsed": "0x10cee6",
      "logs": [],
      "logsBloom": "0x00000000000000000000000000000000000000000000000000000000000000000000000000000000000000000000000000000000000000000000000000000000000000000000000000000000000000000000000000000000000000000000000000000000000000000000000000000000000000000000000000000000000000000000000000000000000000000000000000000000000000000000000000000000000000000000000000000000000000000000000000000000000000000000000000000000000000000000000000000000000000000000000000000000000000000000000000000000000000000000000000000000000000000000000000000000",
      "type": "0x2",
      "transactionHash": "0xe492cee835b07858a5a5374cb6f08f2c3aa2ecf6bd4631c2b191229d4667ea96",
      "transactionIndex": "0x14",
      "blockHash": "0xd6277112484ab1176c0aafc4a35b0101dbe0ed785209a7425b9bb531957c00f2",
      "blockNumber": "0x33f5c8",
      "gasUsed": "0x1bd7a",
      "effectiveGasPrice": "0x4cd5886400",
      "from": "0x8866438f9348f33516040d38a0113531bc9e7e1d",
      "to": "0xd87e64e51011716808b736c33cc3559c553219f4",
      "contractAddress": null
    },
    {
      "status": "0x1",
      "cumulativeGasUsed": "0x10ffd2",
      "logs": [],
      "logsBloom": "0x00000000000000000000000000000000000000000000000000000000000000000000000000000000000000000000000000000000000000000000000000000000000000000000000000000000000000000000000000000000000000000000000000000000000000000000000000000000000000000000000000000000000000000000000000000000000000000000000000000000000000000000000000000000000000000000000000000000000000000000000000000000000000000000000000000000000000000000000000000000000000000000000000000000000000000000000000000000000000000000000000000000000000000000000000000000",
      "type": "0x2",
      "transactionHash": "0x37ab62978348e547ea9e0a1312c4f75e505e739c5c59e9f18b5d26588025516a",
      "transactionIndex": "0xa",
      "blockHash": "0xde260d6c720e253bbd091bf2162c6035a069d6cdc251686aabd194d56bb13df3",
      "blockNumber": "0x33f5c9",
      "gasUsed": "0x1bd92",
      "effectiveGasPrice": "0x4cd5886400",
      "from": "0x8866438f9348f33516040d38a0113531bc9e7e1d",
      "to": "0xd87e64e51011716808b736c33cc3559c553219f4",
      "contractAddress": null
    }
  ],
  "libraries": [],
  "pending": [],
  "returns": {},
  "timestamp": 1759340842426,
  "chain": 1449000,
  "commit": "16a1f0a"
}