{
  "transactions": [
    {
      "hash": "0x5755ee89deac641634ba983d4059d633f39864279843a9c4794abaa50cfbef59",
      "transactionType": "CREATE",
      "contractName": "Controller",
      "contractAddress": "0xd25998eaca3347ff80a08da4393c39309da7607a",
      "function": null,
      "arguments": [
        "0xB5FB4BE02232B1bBA4dC8f81dc24C26980dE9e3C",
        "0xAd8719B84d126000000000000000000000000000",
        "0x9E8860db73D093464ee2B5a1Fe6F63B09F70e8C1",
        "0x6Ea452dC1105607eC1AB84c643369Dd3356cc251"
      ],
      "transaction": {
        "from": "0x8866438f9348f33516040d38a0113531bc9e7e1d",
        "value": "0x0",
        "input": "0x610100806040523461014057608081610e3680380380916100208285610157565b833981010312610140576100338161018e565b906100406020820161018e565b61005860606100516040850161018e565b930161018e565b6080939093526001600160a01b0316908115610144576001600160a01b0316918215610144576001600160a01b031680156101445760a082905260c083905260e052600a80546001600160a01b03191633179055813b15610140575f916024839260405194859384926328ec8bf160e21b845260048401525af1801561013557610125575b604051610c9390816101a3823960805181818161082c0152610a6b015260a05181818161030301526104bb015260c0518181816105580152610773015260e051816102090152f35b5f61012f91610157565b5f6100dd565b6040513d5f823e3d90fd5b5f80fd5b6316c6875160e31b5f525f60045260245ffd5b601f909101601f19168101906001600160401b0382119082101761017a57604052565b634e487b7160e01b5f52604160045260245ffd5b51906001600160a01b03821682036101405756fe6080806040526004361015610012575f80fd5b5f3560e01c90816304bda26214610a9a5750806309c6bed914610a5657806311eac85514610a2e578063120394de1461096f57806329241502146107a257806336569e771461075e5780634cbab1f1146106555780634e1c756e1461073057806354134166146106f85780635dfc9d7b146106ce57806374c31f5d1461067f5780637aa2dbc1146106555780638019a78614610491578063947a97e914610447578063a2f8f0571461042a578063a6bf15be14610385578063acee287114610332578063bb038e15146102ee578063be22f546146102c6578063bf0dfcab14610238578063c11645bc146101f4578063c4ed266214610198578063c71f8d67146101c2578063c7e5b0a414610198578063d1a294c4146101665763f851a4401461013a575f80fd5b34610162575f36600319011261016257600a546040516001600160a01b039091168152602090f35b5f80fd5b34610162576020366003190112610162576004355f526004602052602060018060a01b0360405f205416604051908152f35b34610162576020366003190112610162576004355f526002602052602060405f2054604051908152f35b34610162576020366003190112610162576004355f526005602052602060018060a01b0360405f205416604051908152f35b34610162575f366003190112610162576040517f00000000000000000000000000000000000000000000000000000000000000006001600160a01b03168152602090f35b3461016257604036600319011261016257610251610b1b565b610259610b31565b9061026f60018060a01b03600a54163314610bc3565b6001600160a01b03169081156102b3576001600160a01b03169081156102b3575f80546001600160a01b031990811692909217905560018054909116919091179055005b6316c6875160e31b5f525f60045260245ffd5b34610162575f366003190112610162576009546040516001600160a01b039091168152602090f35b34610162575f366003190112610162576040517f00000000000000000000000000000000000000000000000000000000000000006001600160a01b03168152602090f35b346101625760203660031901126101625761034b610b1b565b61036060018060a01b03600a54163314610bc3565b6001600160a01b031680156102b357600980546001600160a01b031916919091179055005b34610162576080366003190112610162576004356103a1610b31565b6044356001600160a01b0381168103610162576103c960018060a01b03600a54163314610bc3565b5f83815260046020908152604080832080546001600160a01b039687166001600160a01b0319918216811790925560058452828520805496909716951694909417909455918152600682528281208490559283526007905290206064359055005b34610162575f366003190112610162576020600854604051908152f35b34610162576020366003190112610162576004356001600160401b038111610162576104796020913690600401610abc565b90809291810103126101625760209035604051908152f35b3461016257602036600319011261016257604051632c2cb9fd60e01b8152600480359082018190527f00000000000000000000000000000000000000000000000000000000000000006001600160a01b031690602083602481855afa9283156105d3575f93610620575b50602090602460405180948193632726b07360e01b835260048301525afa9081156105d3575f916105de575b50604080516309092f9760e21b815260048101939093526001600160a01b03918216602484015290829060449082907f0000000000000000000000000000000000000000000000000000000000000000165afa80156105d3575f905f90610599575b6040809350519182526020820152f35b50506040813d6040116105cb575b816105b460409383610b47565b810103126101625780602060409251910151610589565b3d91506105a7565b6040513d5f823e3d90fd5b90506020813d602011610618575b816105f960209383610b47565b8101031261016257516001600160a01b03811681036101625782610527565b3d91506105ec565b9092506020813d60201161064d575b8161063c60209383610b47565b8101031261016257519160206104fb565b3d915061062f565b34610162576020366003190112610162576004355f526003602052602060405f2054604051908152f35b34610162576020366003190112610162576004356001600160401b038111610162576106b26106ba913690600401610abc565b810190610bfb565b906106ca60405192839283610ae9565b0390f35b34610162576020366003190112610162576004355f526007602052602060405f2054604051908152f35b34610162576020366003190112610162576001600160a01b03610719610b1b565b165f526006602052602060405f2054604051908152f35b346101625760203660031901126101625761075660018060a01b03600a54163314610bc3565b600435600855005b34610162575f366003190112610162576040517f00000000000000000000000000000000000000000000000000000000000000006001600160a01b03168152602090f35b346101625760e0366003190112610162576024356001600160401b038111610162576107d2903690600401610abc565b906044356001600160401b038111610162576107f2903690600401610abc565b91906064356001600160401b03811161016257610813903690600401610abc565b91909260a4359560018060a01b038716809703610162577f00000000000000000000000000000000000000000000000000000000000000006001600160a01b0316330361095c577f930feecf69ea1a2d105172abbb9a8fa39391d176a2d80882b6e5489b8882ade39661091f966108f96108ea7f6250969d220720e7338bf44e92bbcab2b3f340a659195294b812a0903b2c6ca2966108b3368583610b7e565b60208151910120936108dc6040519889986004358a5261010060208b01526101008a0191610c3d565b918783036040890152610c3d565b84810360608601528789610c3d565b91608435608085015260a084015260c43560c084015260e08301520390a1810190610bfb565b9061092f60405192839283610ae9565b0390a160206040517fe84001f3dedacf7f9ddc370e9f09c26b37473e9e959ffdc4925f6fe33c9877e48152f35b630d6c7be960e01b5f523360045260245ffd5b34610162576020366003190112610162576004356001600160401b0381116101625761099e3682600401610abc565b604081106109f8576024359160208301918284116109e457602084600401358501018093116109e4578211610162576106ba923692819003601f19019101602001610b7e565b634e487b7160e01b5f52601160045260245ffd5b60405162461bcd60e51b815260206004820152600e60248201526d11185d18481d1bdbc81cda1bdc9d60921b6044820152606490fd5b34610162575f366003190112610162576001546040516001600160a01b039091168152602090f35b34610162575f366003190112610162576040517f00000000000000000000000000000000000000000000000000000000000000006001600160a01b03168152602090f35b34610162575f366003190112610162575f546001600160a01b03168152602090f35b9181601f84011215610162578235916001600160401b038311610162576020838186019501011161016257565b9060609260209183526040828401528051918291826040860152018484015e5f828201840152601f01601f1916010190565b600435906001600160a01b038216820361016257565b602435906001600160a01b038216820361016257565b601f909101601f19168101906001600160401b03821190821017610b6a57604052565b634e487b7160e01b5f52604160045260245ffd5b9192916001600160401b038211610b6a5760405191610ba7601f8201601f191660200184610b47565b829481845281830111610162578281602093845f960137010152565b15610bca57565b60405162461bcd60e51b81526020600482015260096024820152683737ba16b0b236b4b760b91b6044820152606490fd5b9190604083820312610162578235926020810135906001600160401b03821161016257019080601f8301121561016257816020610c3a93359101610b7e565b90565b908060209392818452848401375f828201840152601f01601f191601019056fea264697066735822122036c565098005b6977deb98b0962ca6728e442b7484f7b3dae8fabb231e4068d964736f6c634300081e0033000000000000000000000000b5fb4be02232b1bba4dc8f81dc24c26980de9e3c000000000000000000000000ad8719b84d1260000000000000000000000000000000000000000000000000009e8860db73d093464ee2b5a1fe6f63b09f70e8c10000000000000000000000006ea452dc1105607ec1ab84c643369dd3356cc251",
        "nonce": "0x127",
        "chainId": "0x161c28"
      },
      "additionalContracts": [],
      "isFixedGasLimit": false
    },
    {
      "hash": "0x6528b663586e5096246d01206496a276fa9af18bd5e6026e4d4fec8186f1880a",
      "transactionType": "CALL",
      "contractName": "Controller",
      "contractAddress": "0xd25998eaca3347ff80a08da4393c39309da7607a",
      "function": "setDaiTokenId(bytes32)",
      "arguments": [
        "0x8888888888888888888888888888888888888888888888888888888888888888"
      ],
      "transaction": {
        "from": "0x8866438f9348f33516040d38a0113531bc9e7e1d",
        "to": "0xd25998eaca3347ff80a08da4393c39309da7607a",
        "value": "0x0",
        "input": "0x4e1c756e8888888888888888888888888888888888888888888888888888888888888888",
        "nonce": "0x128",
        "chainId": "0x161c28"
      },
      "additionalContracts": [],
      "isFixedGasLimit": false
    },
    {
      "hash": "0x68bb7f7dbde69006db02e2c3dc213c04d3d18d965cc3707000212ae54af6dee0",
      "transactionType": "CALL",
      "contractName": "Controller",
      "contractAddress": "0xd25998eaca3347ff80a08da4393c39309da7607a",
      "function": "setDaiToken(address)",
      "arguments": [
        "0xB6202dd8D51598C18E1E277093B7468F943CD9fB"
      ],
      "transaction": {
        "from": "0x8866438f9348f33516040d38a0113531bc9e7e1d",
        "to": "0xd25998eaca3347ff80a08da4393c39309da7607a",
        "value": "0x0",
        "input": "0xacee2871000000000000000000000000b6202dd8d51598c18e1e277093b7468f943cd9fb",
        "nonce": "0x129",
        "chainId": "0x161c28"
      },
      "additionalContracts": [],
      "isFixedGasLimit": false
    },
    {
      "hash": "0x4719f32308fd566633a3699ca2a6b301285913bd9f75c14daca97691c77b354b",
      "transactionType": "CALL",
      "contractName": "Controller",
      "contractAddress": "0xd25998eaca3347ff80a08da4393c39309da7607a",
      "function": "setPsm(address,address)",
      "arguments": [
        "0xfc18ab74D3a04A730B767AAB241CE5A451dfCB1d",
        "0xE26D509C661c4F16FaFfBB1eAce1Fa1CdA8cc146"
      ],
      "transaction": {
        "from": "0x8866438f9348f33516040d38a0113531bc9e7e1d",
        "to": "0xd25998eaca3347ff80a08da4393c39309da7607a",
        "value": "0x0",
        "input": "0xbf0dfcab000000000000000000000000fc18ab74d3a04a730b767aab241ce5a451dfcb1d000000000000000000000000e26d509c661c4f16faffbb1eace1fa1cda8cc146",
        "nonce": "0x12a",
        "chainId": "0x161c28"
      },
      "additionalContracts": [],
      "isFixedGasLimit": false
    },
    {
      "hash": "0xccc71381e313c707fa8136d29f42100b1b7c7a4489b84c49eb90e8130c92f88d",
      "transactionType": "CALL",
      "contractName": "Controller",
      "contractAddress": "0xd25998eaca3347ff80a08da4393c39309da7607a",
      "function": "setCollateralConfig(bytes32,address,address,bytes32)",
      "arguments": [
        "0x5852502d41000000000000000000000000000000000000000000000000000000",
        "0xEeeeeEeeeEeEeeEeEeEeeEEEeeeeEeeeeeeeEEeE",
        "0x3d22179f2578E9374791D2B825806e278eC14A7C",
        "0xba5a21ca88ef6bba2bfff5088994f90e1077e2a1cc3dcc38bd261f00fce2824f"
      ],
      "transaction": {
        "from": "0x8866438f9348f33516040d38a0113531bc9e7e1d",
        "to": "0xd25998eaca3347ff80a08da4393c39309da7607a",
        "value": "0x0",
        "input": "0xa6bf15be5852502d41000000000000000000000000000000000000000000000000000000000000000000000000000000eeeeeeeeeeeeeeeeeeeeeeeeeeeeeeeeeeeeeeee0000000000000000000000003d22179f2578e9374791d2b825806e278ec14a7cba5a21ca88ef6bba2bfff5088994f90e1077e2a1cc3dcc38bd261f00fce2824f",
        "nonce": "0x12b",
        "chainId": "0x161c28"
      },
      "additionalContracts": [],
      "isFixedGasLimit": false
    },
    {
      "hash": "0x7c50368df9b16a42fad9d694c5266ad409d46df39f142c58ef69f30d3200f3ae",
      "transactionType": "CALL",
      "contractName": "Controller",
      "contractAddress": "0xd25998eaca3347ff80a08da4393c39309da7607a",
      "function": "setCollateralConfig(bytes32,address,address,bytes32)",
      "arguments": [
        "0x555344432d410000000000000000000000000000000000000000000000000000",
        "0xE26D509C661c4F16FaFfBB1eAce1Fa1CdA8cc146",
        "0x43f5e030811411151f709A0796492EEFC34009A0",
        "0xc8895f8ceb0cae9da15bb9d2bc5859a184ca0f61c88560488355c8a7364deef8"
      ],
      "transaction": {
        "from": "0x8866438f9348f33516040d38a0113531bc9e7e1d",
        "to": "0xd25998eaca3347ff80a08da4393c39309da7607a",
        "value": "0x0",
        "input": "0xa6bf15be555344432d410000000000000000000000000000000000000000000000000000000000000000000000000000e26d509c661c4f16faffbb1eace1fa1cda8cc14600000000000000000000000043f5e030811411151f709a0796492eefc34009a0c8895f8ceb0cae9da15bb9d2bc5859a184ca0f61c88560488355c8a7364deef8",
        "nonce": "0x12c",
        "chainId": "0x161c28"
      },
      "additionalContracts": [],
      "isFixedGasLimit": false
    }
  ],
  "receipts": [
    {
      "status": "0x1",
      "cumulativeGasUsed": "0xec4af",
      "logs": [],
      "logsBloom": "0x00000000000000000000000000000000000000000000000000000000000000000000000000000000000000000000000000000000000000000000000000000000000000000000000000000000000000000000000000000000000000000000000000000000000000000000000000000000000000000000000000000000000000000000000000000000000000000000000000000000000000000000000000000000000000000000000000000000000000000000000000000000000000000000000000000000000000000000000000000000000000000000000000000000000000000000000000000000000000000000000000000000000000000000000000000000",
      "type": "0x2",
      "transactionHash": "0x5755ee89deac641634ba983d4059d633f39864279843a9c4794abaa50cfbef59",
      "transactionIndex": "0x3",
      "blockHash": "0x6f6a81f1f1bbfc49424c9a79eb94b3d9aa28f3429c1515f0e666dfd6aa116773",
      "blockNumber": "0x33dc48",
      "gasUsed": "0xc4027",
      "effectiveGasPrice": "0x4cd5886400",
      "from": "0x8866438f9348f33516040d38a0113531bc9e7e1d",
      "to": null,
      "contractAddress": "0xd25998eaca3347ff80a08da4393c39309da7607a"
    },
    {
      "status": "0x1",
      "cumulativeGasUsed": "0xb437",
      "logs": [],
      "logsBloom": "0x00000000000000000000000000000000000000000000000000000000000000000000000000000000000000000000000000000000000000000000000000000000000000000000000000000000000000000000000000000000000000000000000000000000000000000000000000000000000000000000000000000000000000000000000000000000000000000000000000000000000000000000000000000000000000000000000000000000000000000000000000000000000000000000000000000000000000000000000000000000000000000000000000000000000000000000000000000000000000000000000000000000000000000000000000000000",
      "type": "0x2",
      "transactionHash": "0x6528b663586e5096246d01206496a276fa9af18bd5e6026e4d4fec8186f1880a",
      "transactionIndex": "0x0",
      "blockHash": "0x357d4021cc26bd62f81b8723918ca010d17f0ba8496985768b0b92328fb27e1f",
      "blockNumber": "0x33dc49",
      "gasUsed": "0xb437",
      "effectiveGasPrice": "0x4cd5886400",
      "from": "0x8866438f9348f33516040d38a0113531bc9e7e1d",
      "to": "0xd25998eaca3347ff80a08da4393c39309da7607a",
      "contractAddress": null
    },
    {
      "status": "0x1",
      "cumulativeGasUsed": "0x9dcbc",
      "logs": [],
      "logsBloom": "0x00000000000000000000000000000000000000000000000000000000000000000000000000000000000000000000000000000000000000000000000000000000000000000000000000000000000000000000000000000000000000000000000000000000000000000000000000000000000000000000000000000000000000000000000000000000000000000000000000000000000000000000000000000000000000000000000000000000000000000000000000000000000000000000000000000000000000000000000000000000000000000000000000000000000000000000000000000000000000000000000000000000000000000000000000000000",
      "type": "0x2",
      "transactionHash": "0x68bb7f7dbde69006db02e2c3dc213c04d3d18d965cc3707000212ae54af6dee0",
      "transactionIndex": "0x6",
      "blockHash": "0x69a3a6facced41c7d473c24e617d7b5b2abcf4510dff6436cf97edec66f5900f",
      "blockNumber": "0x33dc4a",
      "gasUsed": "0xb4fc",
      "effectiveGasPrice": "0x4cd5886400",
      "from": "0x8866438f9348f33516040d38a0113531bc9e7e1d",
      "to": "0xd25998eaca3347ff80a08da4393c39309da7607a",
      "contractAddress": null
    },
    {
      "status": "0x1",
      "cumulativeGasUsed": "0x2943c",
      "logs": [],
      "logsBloom": "0x00000000000000000000000000000000000000000000000000000000000000000000000000000000000000000000000000000000000000000000000000000000000000000000000000000000000000000000000000000000000000000000000000000000000000000000000000000000000000000000000000000000000000000000000000000000000000000000000000000000000000000000000000000000000000000000000000000000000000000000000000000000000000000000000000000000000000000000000000000000000000000000000000000000000000000000000000000000000000000000000000000000000000000000000000000000",
      "type": "0x2",
      "transactionHash": "0x4719f32308fd566633a3699ca2a6b301285913bd9f75c14daca97691c77b354b",
      "transactionIndex": "0x1",
      "blockHash": "0x2f535fd2e59a22580b15344b921c72e280a7847af9406c2f64d54bf0ac567554",
      "blockNumber": "0x33dc4b",
      "gasUsed": "0x10d9c",
      "effectiveGasPrice": "0x4cd5886400",
      "from": "0x8866438f9348f33516040d38a0113531bc9e7e1d",
      "to": "0xd25998eaca3347ff80a08da4393c39309da7607a",
      "contractAddress": null
    },
    {
      "status": "0x1",
      "cumulativeGasUsed": "0xbd94a",
      "logs": [],
      "logsBloom": "0x00000000000000000000000000000000000000000000000000000000000000000000000000000000000000000000000000000000000000000000000000000000000000000000000000000000000000000000000000000000000000000000000000000000000000000000000000000000000000000000000000000000000000000000000000000000000000000000000000000000000000000000000000000000000000000000000000000000000000000000000000000000000000000000000000000000000000000000000000000000000000000000000000000000000000000000000000000000000000000000000000000000000000000000000000000000",
      "type": "0x2",
      "transactionHash": "0xccc71381e313c707fa8136d29f42100b1b7c7a4489b84c49eb90e8130c92f88d",
      "transactionIndex": "0xa",
      "blockHash": "0x92e74cd5a350a592d89cd2a3870405920052d10d2cdd080b1d875fe9b061347f",
      "blockNumber": "0x33dc4c",
      "gasUsed": "0x1bd66",
      "effectiveGasPrice": "0x4cd5886400",
      "from": "0x8866438f9348f33516040d38a0113531bc9e7e1d",
      "to": "0xd25998eaca3347ff80a08da4393c39309da7607a",
      "contractAddress": null
    },
    {
      "status": "0x1",
      "cumulativeGasUsed": "0x1bd7e",
      "logs": [],
      "logsBloom": "0x00000000000000000000000000000000000000000000000000000000000000000000000000000000000000000000000000000000000000000000000000000000000000000000000000000000000000000000000000000000000000000000000000000000000000000000000000000000000000000000000000000000000000000000000000000000000000000000000000000000000000000000000000000000000000000000000000000000000000000000000000000000000000000000000000000000000000000000000000000000000000000000000000000000000000000000000000000000000000000000000000000000000000000000000000000000",
      "type": "0x2",
      "transactionHash": "0x7c50368df9b16a42fad9d694c5266ad409d46df39f142c58ef69f30d3200f3ae",
      "transactionIndex": "0x0",
      "blockHash": "0xafffcdf50218ffa3cc73df2a43f62e177b3b3de7e4dffd77cbe074a8c82b33e3",
      "blockNumber": "0x33dc4d",
      "gasUsed": "0x1bd7e",
      "effectiveGasPrice": "0x4cd5886400",
      "from": "0x8866438f9348f33516040d38a0113531bc9e7e1d",
      "to": "0xd25998eaca3347ff80a08da4393c39309da7607a",
      "contractAddress": null
    }
  ],
  "libraries": [],
  "pending": [],
  "returns": {},
  "timestamp": 1759303932865,
  "chain": 1449000,
  "commit": "91aff73"
}