{
  "transactions": [
    {
      "hash": "0x5d1373282bd047a54795bdd62a0243c83bb71fb4b06324290fa15bab31db4f2a",
      "transactionType": "CREATE",
      "contractName": "Controller",
      "contractAddress": "0x0197c00e4cc63eccc1007a4bc55bd30c2e391806",
      "function": null,
      "arguments": [
        "0xB5FB4BE02232B1bBA4dC8f81dc24C26980dE9e3C",
        "0xAd8719B84d126000000000000000000000000000",
        "0x9E8860db73D093464ee2B5a1Fe6F63B09F70e8C1",
        "0x6Ea452dC1105607eC1AB84c643369Dd3356cc251"
      ],
      "transaction": {
        "from": "0x8866438f9348f33516040d38a0113531bc9e7e1d",
        "value": "0x0",
        "input": "0x610100806040523461014057608081610bfe80380380916100208285610157565b833981010312610140576100338161018e565b906100406020820161018e565b61005860606100516040850161018e565b930161018e565b6080939093526001600160a01b0316908115610144576001600160a01b0316918215610144576001600160a01b031680156101445760a082905260c083905260e052600a80546001600160a01b03191633179055813b15610140575f916024839260405194859384926328ec8bf160e21b845260048401525af1801561013557610125575b604051610a5b90816101a3823960805181818161076601526108b1015260a0518181816102e20152610450015260c0518181816104ed01526106b9015260e051816101e80152f35b5f61012f91610157565b5f6100dd565b6040513d5f823e3d90fd5b5f80fd5b6316c6875160e31b5f525f60045260245ffd5b601f909101601f19168101906001600160401b0382119082101761017a57604052565b634e487b7160e01b5f52604160045260245ffd5b51906001600160a01b03821682036101405756fe6080806040526004361015610012575f80fd5b5f3560e01c90816304bda262146108e05750806309c6bed91461089c57806311eac8551461087457806329241502146106e857806336569e77146106a45780634cbab1f1146105ea5780634e1c756e14610676578063541341661461063e5780635dfc9d7b146106145780637aa2dbc1146105ea5780638019a78614610426578063a2f8f05714610409578063a6bf15be14610364578063acee287114610311578063bb038e15146102cd578063be22f546146102a5578063bf0dfcab14610217578063c11645bc146101d3578063c4ed266214610177578063c71f8d67146101a1578063c7e5b0a414610177578063d1a294c4146101455763f851a44014610119575f80fd5b34610141575f36600319011261014157600a546040516001600160a01b039091168152602090f35b5f80fd5b34610141576020366003190112610141576004355f526004602052602060018060a01b0360405f205416604051908152f35b34610141576020366003190112610141576004355f526002602052602060405f2054604051908152f35b34610141576020366003190112610141576004355f526005602052602060018060a01b0360405f205416604051908152f35b34610141575f366003190112610141576040517f00000000000000000000000000000000000000000000000000000000000000006001600160a01b03168152602090f35b3461014157604036600319011261014157610230610945565b61023861095b565b9061024e60018060a01b03600a54163314610971565b6001600160a01b0316908115610292576001600160a01b0316908115610292575f80546001600160a01b031990811692909217905560018054909116919091179055005b6316c6875160e31b5f525f60045260245ffd5b34610141575f366003190112610141576009546040516001600160a01b039091168152602090f35b34610141575f366003190112610141576040517f00000000000000000000000000000000000000000000000000000000000000006001600160a01b03168152602090f35b346101415760203660031901126101415761032a610945565b61033f60018060a01b03600a54163314610971565b6001600160a01b0316801561029257600980546001600160a01b031916919091179055005b346101415760803660031901126101415760043561038061095b565b6044356001600160a01b0381168103610141576103a860018060a01b03600a54163314610971565b5f83815260046020908152604080832080546001600160a01b039687166001600160a01b0319918216811790925560058452828520805496909716951694909417909455918152600682528281208490559283526007905290206064359055005b34610141575f366003190112610141576020600854604051908152f35b3461014157602036600319011261014157604051632c2cb9fd60e01b8152600480359082018190527f00000000000000000000000000000000000000000000000000000000000000006001600160a01b031690602083602481855afa928315610568575f936105b5575b50602090602460405180948193632726b07360e01b835260048301525afa908115610568575f91610573575b50604080516309092f9760e21b815260048101939093526001600160a01b03918216602484015290829060449082907f0000000000000000000000000000000000000000000000000000000000000000165afa8015610568575f905f9061052e575b6040809350519182526020820152f35b50506040813d604011610560575b81610549604093836109a9565b81010312610141578060206040925191015161051e565b3d915061053c565b6040513d5f823e3d90fd5b90506020813d6020116105ad575b8161058e602093836109a9565b8101031261014157516001600160a01b038116810361014157826104bc565b3d9150610581565b9092506020813d6020116105e2575b816105d1602093836109a9565b810103126101415751916020610490565b3d91506105c4565b34610141576020366003190112610141576004355f526003602052602060405f2054604051908152f35b34610141576020366003190112610141576004355f526007602052602060405f2054604051908152f35b34610141576020366003190112610141576001600160a01b0361065f610945565b165f526006602052602060405f2054604051908152f35b346101415760203660031901126101415761069c60018060a01b03600a54163314610971565b600435600855005b34610141575f366003190112610141576040517f00000000000000000000000000000000000000000000000000000000000000006001600160a01b03168152602090f35b346101415760e0366003190112610141576024356001600160401b03811161014157610718903690600401610902565b50506044356001600160401b03811161014157610739903690600401610902565b6064356001600160401b03811161014157610758903690600401610902565b91909261076361092f565b507f00000000000000000000000000000000000000000000000000000000000000006001600160a01b031633036108615761079f9136916109e0565b508101906040818303126101415760208101356001600160401b0381116101415781019180601f84011215610141576108016060918460207f930feecf69ea1a2d105172abbb9a8fa39391d176a2d80882b6e5489b8882ade3963591016109e0565b9160206040519384923583526040828401528051918291826040860152018484015e5f828201840152601f01601f19168101030190a160206040517fe84001f3dedacf7f9ddc370e9f09c26b37473e9e959ffdc4925f6fe33c9877e48152f35b630d6c7be960e01b5f523360045260245ffd5b34610141575f366003190112610141576001546040516001600160a01b039091168152602090f35b34610141575f366003190112610141576040517f00000000000000000000000000000000000000000000000000000000000000006001600160a01b03168152602090f35b34610141575f366003190112610141575f546001600160a01b03168152602090f35b9181601f84011215610141578235916001600160401b038311610141576020838186019501011161014157565b60a435906001600160a01b038216820361014157565b600435906001600160a01b038216820361014157565b602435906001600160a01b038216820361014157565b1561097857565b60405162461bcd60e51b81526020600482015260096024820152683737ba16b0b236b4b760b91b6044820152606490fd5b601f909101601f19168101906001600160401b038211908210176109cc57604052565b634e487b7160e01b5f52604160045260245ffd5b9192916001600160401b0382116109cc5760405191610a09601f8201601f1916602001846109a9565b829481845281830111610141578281602093845f96013701015256fea26469706673582212201ecfacc9ea1f79d1001569218323b6e68219b6d212c3306e93974d44acdabb7b64736f6c634300081e0033000000000000000000000000b5fb4be02232b1bba4dc8f81dc24c26980de9e3c000000000000000000000000ad8719b84d1260000000000000000000000000000000000000000000000000009e8860db73d093464ee2b5a1fe6f63b09f70e8c10000000000000000000000006ea452dc1105607ec1ab84c643369dd3356cc251",
        "nonce": "0x109",
        "chainId": "0x161c28"
      },
      "additionalContracts": [],
      "isFixedGasLimit": false
    },
    {
      "hash": "0x43b330a641dc6c6e46ec6ebd81a5efccba60ae3e2b675b6e5126e005b52dab3b",
      "transactionType": "CALL",
      "contractName": "Controller",
      "contractAddress": "0x0197c00e4cc63eccc1007a4bc55bd30c2e391806",
      "function": "setDaiTokenId(bytes32)",
      "arguments": [
        "0x8888888888888888888888888888888888888888888888888888888888888888"
      ],
      "transaction": {
        "from": "0x8866438f9348f33516040d38a0113531bc9e7e1d",
        "to": "0x0197c00e4cc63eccc1007a4bc55bd30c2e391806",
        "value": "0x0",
        "input": "0x4e1c756e8888888888888888888888888888888888888888888888888888888888888888",
        "nonce": "0x10a",
        "chainId": "0x161c28"
      },
      "additionalContracts": [],
      "isFixedGasLimit": false
    },
    {
      "hash": "0x214c8e08368adc4ed102988d53e206cb21080059f5ae53b4f27c30ebc3871b15",
      "transactionType": "CALL",
      "contractName": "Controller",
      "contractAddress": "0x0197c00e4cc63eccc1007a4bc55bd30c2e391806",
      "function": "setDaiToken(address)",
      "arguments": [
        "0xB6202dd8D51598C18E1E277093B7468F943CD9fB"
      ],
      "transaction": {
        "from": "0x8866438f9348f33516040d38a0113531bc9e7e1d",
        "to": "0x0197c00e4cc63eccc1007a4bc55bd30c2e391806",
        "value": "0x0",
        "input": "0xacee2871000000000000000000000000b6202dd8d51598c18e1e277093b7468f943cd9fb",
        "nonce": "0x10b",
        "chainId": "0x161c28"
      },
      "additionalContracts": [],
      "isFixedGasLimit": false
    },
    {
      "hash": "0x9eb711e48f18f8b54e450320edc60eb94b143a8f21c04a1f0e77b97f61c7c50d",
      "transactionType": "CALL",
      "contractName": "Controller",
      "contractAddress": "0x0197c00e4cc63eccc1007a4bc55bd30c2e391806",
      "function": "setPsm(address,address)",
      "arguments": [
        "0xfc18ab74D3a04A730B767AAB241CE5A451dfCB1d",
        "0xE26D509C661c4F16FaFfBB1eAce1Fa1CdA8cc146"
      ],
      "transaction": {
        "from": "0x8866438f9348f33516040d38a0113531bc9e7e1d",
        "to": "0x0197c00e4cc63eccc1007a4bc55bd30c2e391806",
        "value": "0x0",
        "input": "0xbf0dfcab000000000000000000000000fc18ab74d3a04a730b767aab241ce5a451dfcb1d000000000000000000000000e26d509c661c4f16faffbb1eace1fa1cda8cc146",
        "nonce": "0x10c",
        "chainId": "0x161c28"
      },
      "additionalContracts": [],
      "isFixedGasLimit": false
    },
    {
      "hash": "0xd03f87a7fdef028955cf6efe72dc9f2fdfecda00d94a28394360e9526ffa88e3",
      "transactionType": "CALL",
      "contractName": "Controller",
      "contractAddress": "0x0197c00e4cc63eccc1007a4bc55bd30c2e391806",
      "function": "setCollateralConfig(bytes32,address,address,bytes32)",
      "arguments": [
        "0x5852502d41000000000000000000000000000000000000000000000000000000",
        "0xEeeeeEeeeEeEeeEeEeEeeEEEeeeeEeeeeeeeEEeE",
        "0x3d22179f2578E9374791D2B825806e278eC14A7C",
        "0xba5a21ca88ef6bba2bfff5088994f90e1077e2a1cc3dcc38bd261f00fce2824f"
      ],
      "transaction": {
        "from": "0x8866438f9348f33516040d38a0113531bc9e7e1d",
        "to": "0x0197c00e4cc63eccc1007a4bc55bd30c2e391806",
        "value": "0x0",
        "input": "0xa6bf15be5852502d41000000000000000000000000000000000000000000000000000000000000000000000000000000eeeeeeeeeeeeeeeeeeeeeeeeeeeeeeeeeeeeeeee0000000000000000000000003d22179f2578e9374791d2b825806e278ec14a7cba5a21ca88ef6bba2bfff5088994f90e1077e2a1cc3dcc38bd261f00fce2824f",
        "nonce": "0x10d",
        "chainId": "0x161c28"
      },
      "additionalContracts": [],
      "isFixedGasLimit": false
    },
    {
      "hash": "0x17215cc54e71f77595cbe23eddb3e7e6e4b111a0e657a60ece0e09633c219030",
      "transactionType": "CALL",
      "contractName": "Controller",
      "contractAddress": "0x0197c00e4cc63eccc1007a4bc55bd30c2e391806",
      "function": "setCollateralConfig(bytes32,address,address,bytes32)",
      "arguments": [
        "0x555344432d410000000000000000000000000000000000000000000000000000",
        "0xE26D509C661c4F16FaFfBB1eAce1Fa1CdA8cc146",
        "0x43f5e030811411151f709A0796492EEFC34009A0",
        "0xc8895f8ceb0cae9da15bb9d2bc5859a184ca0f61c88560488355c8a7364deef8"
      ],
      "transaction": {
        "from": "0x8866438f9348f33516040d38a0113531bc9e7e1d",
        "to": "0x0197c00e4cc63eccc1007a4bc55bd30c2e391806",
        "value": "0x0",
        "input": "0xa6bf15be555344432d410000000000000000000000000000000000000000000000000000000000000000000000000000e26d509c661c4f16faffbb1eace1fa1cda8cc14600000000000000000000000043f5e030811411151f709a0796492eefc34009a0c8895f8ceb0cae9da15bb9d2bc5859a184ca0f61c88560488355c8a7364deef8",
        "nonce": "0x10e",
        "chainId": "0x161c28"
      },
      "additionalContracts": [],
      "isFixedGasLimit": false
    }
  ],
  "receipts": [
    {
      "status": "0x1",
      "cumulativeGasUsed": "0xa6080",
      "logs": [],
      "logsBloom": "0x00000000000000000000000000000000000000000000000000000000000000000000000000000000000000000000000000000000000000000000000000000000000000000000000000000000000000000000000000000000000000000000000000000000000000000000000000000000000000000000000000000000000000000000000000000000000000000000000000000000000000000000000000000000000000000000000000000000000000000000000000000000000000000000000000000000000000000000000000000000000000000000000000000000000000000000000000000000000000000000000000000000000000000000000000000000",
      "type": "0x2",
      "transactionHash": "0x5d1373282bd047a54795bdd62a0243c83bb71fb4b06324290fa15bab31db4f2a",
      "transactionIndex": "0x0",
      "blockHash": "0xe99f13d67eb9300631d9ffca1da9ab39eb7e45543b5d342d099748ec5cfcbdee",
      "blockNumber": "0x33d9a6",
      "gasUsed": "0xa6080",
      "effectiveGasPrice": "0x4cd5886400",
      "from": "0x8866438f9348f33516040d38a0113531bc9e7e1d",
      "to": null,
      "contractAddress": "0x0197c00e4cc63eccc1007a4bc55bd30c2e391806"
    },
    {
      "status": "0x1",
      "cumulativeGasUsed": "0x23ac1",
      "logs": [],
      "logsBloom": "0x00000000000000000000000000000000000000000000000000000000000000000000000000000000000000000000000000000000000000000000000000000000000000000000000000000000000000000000000000000000000000000000000000000000000000000000000000000000000000000000000000000000000000000000000000000000000000000000000000000000000000000000000000000000000000000000000000000000000000000000000000000000000000000000000000000000000000000000000000000000000000000000000000000000000000000000000000000000000000000000000000000000000000000000000000000000",
      "type": "0x2",
      "transactionHash": "0x43b330a641dc6c6e46ec6ebd81a5efccba60ae3e2b675b6e5126e005b52dab3b",
      "transactionIndex": "0x1",
      "blockHash": "0x50c1705cdad073d043e9d16e23940bfdbb008b4dc648552a3b74de0772c06762",
      "blockNumber": "0x33d9a7",
      "gasUsed": "0xb421",
      "effectiveGasPrice": "0x4cd5886400",
      "from": "0x8866438f9348f33516040d38a0113531bc9e7e1d",
      "to": "0x0197c00e4cc63eccc1007a4bc55bd30c2e391806",
      "contractAddress": null
    },
    {
      "status": "0x1",
      "cumulativeGasUsed": "0x4bfe2",
      "logs": [],
      "logsBloom": "0x00000000000000000000000000000000000000000000000000000000000000000000000000000000000000000000000000000000000000000000000000000000000000000000000000000000000000000000000000000000000000000000000000000000000000000000000000000000000000000000000000000000000000000000000000000000000000000000000000000000000000000000000000000000000000000000000000000000000000000000000000000000000000000000000000000000000000000000000000000000000000000000000000000000000000000000000000000000000000000000000000000000000000000000000000000000",
      "type": "0x2",
      "transactionHash": "0x214c8e08368adc4ed102988d53e206cb21080059f5ae53b4f27c30ebc3871b15",
      "transactionIndex": "0x4",
      "blockHash": "0x7b6273ec818e908ba25b8c11ef61114c2ff7a42493e39bf5abaf45d1c9896929",
      "blockNumber": "0x33d9a8",
      "gasUsed": "0xb4ba",
      "effectiveGasPrice": "0x4cd5886400",
      "from": "0x8866438f9348f33516040d38a0113531bc9e7e1d",
      "to": "0x0197c00e4cc63eccc1007a4bc55bd30c2e391806",
      "contractAddress": null
    },
    {
      "status": "0x1",
      "cumulativeGasUsed": "0x8ae7a",
      "logs": [],
      "logsBloom": "0x00000000000000000000000000000000000000000000000000000000000000000000000000000000000000000000000000000000000000000000000000000000000000000000000000000000000000000000000000000000000000000000000000000000000000000000000000000000000000000000000000000000000000000000000000000000000000000000000000000000000000000000000000000000000000000000000000000000000000000000000000000000000000000000000000000000000000000000000000000000000000000000000000000000000000000000000000000000000000000000000000000000000000000000000000000000",
      "type": "0x2",
      "transactionHash": "0x9eb711e48f18f8b54e450320edc60eb94b143a8f21c04a1f0e77b97f61c7c50d",
      "transactionIndex": "0x5",
      "blockHash": "0xd65f33dfb68091805d49ca427b068952e83fc9b8339125e26df1b2f92319c201",
      "blockNumber": "0x33d9a9",
      "gasUsed": "0x10d5a",
      "effectiveGasPrice": "0x4cd5886400",
      "from": "0x8866438f9348f33516040d38a0113531bc9e7e1d",
      "to": "0x0197c00e4cc63eccc1007a4bc55bd30c2e391806",
      "contractAddress": null
    },
    {
      "status": "0x1",
      "cumulativeGasUsed": "0x1bd24",
      "logs": [],
      "logsBloom": "0x00000000000000000000000000000000000000000000000000000000000000000000000000000000000000000000000000000000000000000000000000000000000000000000000000000000000000000000000000000000000000000000000000000000000000000000000000000000000000000000000000000000000000000000000000000000000000000000000000000000000000000000000000000000000000000000000000000000000000000000000000000000000000000000000000000000000000000000000000000000000000000000000000000000000000000000000000000000000000000000000000000000000000000000000000000000",
      "type": "0x2",
      "transactionHash": "0xd03f87a7fdef028955cf6efe72dc9f2fdfecda00d94a28394360e9526ffa88e3",
      "transactionIndex": "0x0",
      "blockHash": "0xea5086bdd392d2edae8e79d96e7a830a947d4d73060d6081efacd09ae4ac6e56",
      "blockNumber": "0x33d9aa",
      "gasUsed": "0x1bd24",
      "effectiveGasPrice": "0x4cd5886400",
      "from": "0x8866438f9348f33516040d38a0113531bc9e7e1d",
      "to": "0x0197c00e4cc63eccc1007a4bc55bd30c2e391806",
      "contractAddress": null
    },
    {
      "status": "0x1",
      "cumulativeGasUsed": "0x1bd3c",
      "logs": [],
      "logsBloom": "0x00000000000000000000000000000000000000000000000000000000000000000000000000000000000000000000000000000000000000000000000000000000000000000000000000000000000000000000000000000000000000000000000000000000000000000000000000000000000000000000000000000000000000000000000000000000000000000000000000000000000000000000000000000000000000000000000000000000000000000000000000000000000000000000000000000000000000000000000000000000000000000000000000000000000000000000000000000000000000000000000000000000000000000000000000000000",
      "type": "0x2",
      "transactionHash": "0x17215cc54e71f77595cbe23eddb3e7e6e4b111a0e657a60ece0e09633c219030",
      "transactionIndex": "0x0",
      "blockHash": "0x8c245c5fe1441a978f794e65f1c32c252c60880dfcaa09a9a95b800751bf5bd6",
      "blockNumber": "0x33d9ab",
      "gasUsed": "0x1bd3c",
      "effectiveGasPrice": "0x4cd5886400",
      "from": "0x8866438f9348f33516040d38a0113531bc9e7e1d",
      "to": "0x0197c00e4cc63eccc1007a4bc55bd30c2e391806",
      "contractAddress": null
    }
  ],
  "libraries": [],
  "pending": [],
  "returns": {},
  "timestamp": 1759300103212,
  "chain": 1449000,
  "commit": "91aff73"
}