{
  "transactions": [
    {
      "hash": "0x41841ddc84127a20a97994ea6453b1cb98b81dc558f3dd329d54f9a9011686cc",
      "transactionType": "CREATE",
      "contractName": "Controller",
      "contractAddress": "0xc4b35397d5ca975dc6f572c672d32375636a7a79",
      "function": null,
      "arguments": [
        "0xB5FB4BE02232B1bBA4dC8f81dc24C26980dE9e3C",
        "0xAd8719B84d126000000000000000000000000000",
        "0x9E8860db73D093464ee2B5a1Fe6F63B09F70e8C1",
        "0x6Ea452dC1105607eC1AB84c643369Dd3356cc251"
      ],
      "transaction": {
        "from": "0x8866438f9348f33516040d38a0113531bc9e7e1d",
        "value": "0x0",
        "input": "0x610100806040523461014057608081610ec080380380916100208285610157565b833981010312610140576100338161018e565b906100406020820161018e565b61005860606100516040850161018e565b930161018e565b6080939093526001600160a01b0316908115610144576001600160a01b0316918215610144576001600160a01b031680156101445760a082905260c083905260e052600a80546001600160a01b03191633179055813b15610140575f916024839260405194859384926328ec8bf160e21b845260048401525af1801561013557610125575b604051610d1d90816101a382396080518181816107fd01526108b9015260a0518181816102ed015261045b015260c0518181816104f80152610745015260e051816101f30152f35b5f61012f91610157565b5f6100dd565b6040513d5f823e3d90fd5b5f80fd5b6316c6875160e31b5f525f60045260245ffd5b601f909101601f19168101906001600160401b0382119082101761017a57604052565b634e487b7160e01b5f52604160045260245ffd5b51906001600160a01b03821682036101405756fe6080806040526004361015610012575f80fd5b5f3560e01c90816304bda262146108e85750806309c6bed9146108a457806311eac8551461087c578063292415021461077457806336569e77146107305780634cbab1f1146105f55780634e1c756e1461070257806354134166146106ca5780635dfc9d7b146106a057806374c31f5d1461061f5780637aa2dbc1146105f55780638019a78614610431578063a2f8f05714610414578063a6bf15be1461036f578063acee28711461031c578063bb038e15146102d8578063be22f546146102b0578063bf0dfcab14610222578063c11645bc146101de578063c4ed266214610182578063c71f8d67146101ac578063c7e5b0a414610182578063d1a294c4146101505763f851a44014610124575f80fd5b3461014c575f36600319011261014c57600a546040516001600160a01b039091168152602090f35b5f80fd5b3461014c57602036600319011261014c576004355f526004602052602060018060a01b0360405f205416604051908152f35b3461014c57602036600319011261014c576004355f526002602052602060405f2054604051908152f35b3461014c57602036600319011261014c576004355f526005602052602060018060a01b0360405f205416604051908152f35b3461014c575f36600319011261014c576040517f00000000000000000000000000000000000000000000000000000000000000006001600160a01b03168152602090f35b3461014c57604036600319011261014c5761023b610937565b61024361094d565b9061025960018060a01b03600a54163314610995565b6001600160a01b031690811561029d576001600160a01b031690811561029d575f80546001600160a01b031990811692909217905560018054909116919091179055005b6316c6875160e31b5f525f60045260245ffd5b3461014c575f36600319011261014c576009546040516001600160a01b039091168152602090f35b3461014c575f36600319011261014c576040517f00000000000000000000000000000000000000000000000000000000000000006001600160a01b03168152602090f35b3461014c57602036600319011261014c57610335610937565b61034a60018060a01b03600a54163314610995565b6001600160a01b0316801561029d57600980546001600160a01b031916919091179055005b3461014c57608036600319011261014c5760043561038b61094d565b6044356001600160a01b038116810361014c576103b360018060a01b03600a54163314610995565b5f83815260046020908152604080832080546001600160a01b039687166001600160a01b0319918216811790925560058452828520805496909716951694909417909455918152600682528281208490559283526007905290206064359055005b3461014c575f36600319011261014c576020600854604051908152f35b3461014c57602036600319011261014c57604051632c2cb9fd60e01b8152600480359082018190527f00000000000000000000000000000000000000000000000000000000000000006001600160a01b031690602083602481855afa928315610573575f936105c0575b50602090602460405180948193632726b07360e01b835260048301525afa908115610573575f9161057e575b50604080516309092f9760e21b815260048101939093526001600160a01b03918216602484015290829060449082907f0000000000000000000000000000000000000000000000000000000000000000165afa8015610573575f905f90610539575b6040809350519182526020820152f35b50506040813d60401161056b575b81610554604093836109cd565b8101031261014c5780602060409251910151610529565b3d9150610547565b6040513d5f823e3d90fd5b90506020813d6020116105b8575b81610599602093836109cd565b8101031261014c57516001600160a01b038116810361014c57826104c7565b3d915061058c565b9092506020813d6020116105ed575b816105dc602093836109cd565b8101031261014c575191602061049b565b3d91506105cf565b3461014c57602036600319011261014c576004355f526003602052602060405f2054604051908152f35b3461014c57602036600319011261014c576004356001600160401b03811161014c5761064f90369060040161090a565b810160408282031261014c5760208201356001600160401b03811161014c5782019080601f8301121561014c5781602061068b93359101610a1f565b9061069c6040519283923583610963565b0390f35b3461014c57602036600319011261014c576004355f526007602052602060405f2054604051908152f35b3461014c57602036600319011261014c576001600160a01b036106eb610937565b165f526006602052602060405f2054604051908152f35b3461014c57602036600319011261014c5761072860018060a01b03600a54163314610995565b600435600855005b3461014c575f36600319011261014c576040517f00000000000000000000000000000000000000000000000000000000000000006001600160a01b03168152602090f35b3461014c5760e036600319011261014c576024356001600160401b03811161014c576107a490369060040161090a565b6044356001600160401b03811161014c576107c390369060040161090a565b90926064356001600160401b03811161014c576107e490369060040161090a565b60a435939091906001600160a01b038516850361014c577f00000000000000000000000000000000000000000000000000000000000000006001600160a01b031633036108695761083f9660c4359660843595600435610a75565b60206040517fe84001f3dedacf7f9ddc370e9f09c26b37473e9e959ffdc4925f6fe33c9877e48152f35b630d6c7be960e01b5f523360045260245ffd5b3461014c575f36600319011261014c576001546040516001600160a01b039091168152602090f35b3461014c575f36600319011261014c576040517f00000000000000000000000000000000000000000000000000000000000000006001600160a01b03168152602090f35b3461014c575f36600319011261014c575f546001600160a01b03168152602090f35b9181601f8401121561014c578235916001600160401b03831161014c576020838186019501011161014c57565b600435906001600160a01b038216820361014c57565b602435906001600160a01b038216820361014c57565b9060609260209183526040828401528051918291826040860152018484015e5f828201840152601f01601f1916010190565b1561099c57565b60405162461bcd60e51b81526020600482015260096024820152683737ba16b0b236b4b760b91b6044820152606490fd5b601f909101601f19168101906001600160401b038211908210176109f057604052565b634e487b7160e01b5f52604160045260245ffd5b6001600160401b0381116109f057601f01601f191660200190565b929192610a2b82610a04565b91610a3960405193846109cd565b82948184528183011161014c578281602093845f960137010152565b908060209392818452848401375f828201840152601f01601f1916010190565b94979092610ae6610af5917f6250969d220720e7338bf44e92bbcab2b3f340a659195294b812a0903b2c6ca299969b94989b610ad8610ab5368385610a1f565b60208151910120976040519b8c9b8c5261010060208d01526101008c0191610a55565b9189830360408b0152610a55565b86810360608801528a8a610a55565b60808601949094526001600160a01b031660a085015260c084015260e08301520390a18115610c9f5760208210610c53576040516374c31f5d60e01b815260206004820152915f8380610b4c602482018587610a55565b0381305afa5f815f92610bc5575b5f516020610cc85f395f51905f529550610bb2575050610bad6040519283927fb454cc7272c96cb5ce364a230ff9435d974cd5d3b56708e3de453d6a27663c428452604060208501526040840191610a55565b0390a1565b91509150610bad60405192839283610963565b9150503d805f863e610bd781866109cd565b840160408582031261014c578451602086015190956001600160401b03821161014c57019481601f8701121561014c578551610c1281610a04565b92610c2060405194856109cd565b8184526020828901011161014c576020815f92825f516020610cc85f395f51905f529a018387015e840101529091610b5a565b5f516020610cc85f395f51905f5291610bad6040519283927f3de9caf725b802f048714ba248ea08bef63778b764036b924933910cb0bca8c68452604060208501526040840191610a55565b50505f516020610cc85f395f51905f5260606040515f8152604060208201525f6040820152a156fe930feecf69ea1a2d105172abbb9a8fa39391d176a2d80882b6e5489b8882ade3a2646970667358221220060d544c0d7d00e73763bd30e0eb72a6c1e4b6f31fe451ab79a741453866326064736f6c634300081e0033000000000000000000000000b5fb4be02232b1bba4dc8f81dc24c26980de9e3c000000000000000000000000ad8719b84d1260000000000000000000000000000000000000000000000000009e8860db73d093464ee2b5a1fe6f63b09f70e8c10000000000000000000000006ea452dc1105607ec1ab84c643369dd3356cc251",
        "nonce": "0x10f",
        "chainId": "0x161c28"
      },
      "additionalContracts": [],
      "isFixedGasLimit": false
    },
    {
      "hash": "0x8f774caaa9a022213e71a6507729699142f99c602b60c64ee721a44a4457c934",
      "transactionType": "CALL",
      "contractName": "Controller",
      "contractAddress": "0xc4b35397d5ca975dc6f572c672d32375636a7a79",
      "function": "setDaiTokenId(bytes32)",
      "arguments": [
        "0x8888888888888888888888888888888888888888888888888888888888888888"
      ],
      "transaction": {
        "from": "0x8866438f9348f33516040d38a0113531bc9e7e1d",
        "to": "0xc4b35397d5ca975dc6f572c672d32375636a7a79",
        "value": "0x0",
        "input": "0x4e1c756e8888888888888888888888888888888888888888888888888888888888888888",
        "nonce": "0x110",
        "chainId": "0x161c28"
      },
      "additionalContracts": [],
      "isFixedGasLimit": false
    },
    {
      "hash": "0xf87403ed2b9f50a48b237a36d58705b7bfe61949245d6f03554cba8fe9af1323",
      "transactionType": "CALL",
      "contractName": "Controller",
      "contractAddress": "0xc4b35397d5ca975dc6f572c672d32375636a7a79",
      "function": "setDaiToken(address)",
      "arguments": [
        "0xB6202dd8D51598C18E1E277093B7468F943CD9fB"
      ],
      "transaction": {
        "from": "0x8866438f9348f33516040d38a0113531bc9e7e1d",
        "to": "0xc4b35397d5ca975dc6f572c672d32375636a7a79",
        "value": "0x0",
        "input": "0xacee2871000000000000000000000000b6202dd8d51598c18e1e277093b7468f943cd9fb",
        "nonce": "0x111",
        "chainId": "0x161c28"
      },
      "additionalContracts": [],
      "isFixedGasLimit": false
    },
    {
      "hash": "0xdcf09df2ddcbb91d21a89f9de3490accbeed224f4cdae45ef53ffc04315af209",
      "transactionType": "CALL",
      "contractName": "Controller",
      "contractAddress": "0xc4b35397d5ca975dc6f572c672d32375636a7a79",
      "function": "setPsm(address,address)",
      "arguments": [
        "0xfc18ab74D3a04A730B767AAB241CE5A451dfCB1d",
        "0xE26D509C661c4F16FaFfBB1eAce1Fa1CdA8cc146"
      ],
      "transaction": {
        "from": "0x8866438f9348f33516040d38a0113531bc9e7e1d",
        "to": "0xc4b35397d5ca975dc6f572c672d32375636a7a79",
        "value": "0x0",
        "input": "0xbf0dfcab000000000000000000000000fc18ab74d3a04a730b767aab241ce5a451dfcb1d000000000000000000000000e26d509c661c4f16faffbb1eace1fa1cda8cc146",
        "nonce": "0x112",
        "chainId": "0x161c28"
      },
      "additionalContracts": [],
      "isFixedGasLimit": false
    },
    {
      "hash": "0xbdbda87c549fa499b22e14c45de9526820c6c96fe8bd4429afa4fd837e897af3",
      "transactionType": "CALL",
      "contractName": "Controller",
      "contractAddress": "0xc4b35397d5ca975dc6f572c672d32375636a7a79",
      "function": "setCollateralConfig(bytes32,address,address,bytes32)",
      "arguments": [
        "0x5852502d41000000000000000000000000000000000000000000000000000000",
        "0xEeeeeEeeeEeEeeEeEeEeeEEEeeeeEeeeeeeeEEeE",
        "0x3d22179f2578E9374791D2B825806e278eC14A7C",
        "0xba5a21ca88ef6bba2bfff5088994f90e1077e2a1cc3dcc38bd261f00fce2824f"
      ],
      "transaction": {
        "from": "0x8866438f9348f33516040d38a0113531bc9e7e1d",
        "to": "0xc4b35397d5ca975dc6f572c672d32375636a7a79",
        "value": "0x0",
        "input": "0xa6bf15be5852502d41000000000000000000000000000000000000000000000000000000000000000000000000000000eeeeeeeeeeeeeeeeeeeeeeeeeeeeeeeeeeeeeeee0000000000000000000000003d22179f2578e9374791d2b825806e278ec14a7cba5a21ca88ef6bba2bfff5088994f90e1077e2a1cc3dcc38bd261f00fce2824f",
        "nonce": "0x113",
        "chainId": "0x161c28"
      },
      "additionalContracts": [],
      "isFixedGasLimit": false
    },
    {
      "hash": "0xd394683f9c6bc218ce1240f3c51674e454f9ef7e6242c12bf170d7196bc0fcc2",
      "transactionType": "CALL",
      "contractName": "Controller",
      "contractAddress": "0xc4b35397d5ca975dc6f572c672d32375636a7a79",
      "function": "setCollateralConfig(bytes32,address,address,bytes32)",
      "arguments": [
        "0x555344432d410000000000000000000000000000000000000000000000000000",
        "0xE26D509C661c4F16FaFfBB1eAce1Fa1CdA8cc146",
        "0x43f5e030811411151f709A0796492EEFC34009A0",
        "0xc8895f8ceb0cae9da15bb9d2bc5859a184ca0f61c88560488355c8a7364deef8"
      ],
      "transaction": {
        "from": "0x8866438f9348f33516040d38a0113531bc9e7e1d",
        "to": "0xc4b35397d5ca975dc6f572c672d32375636a7a79",
        "value": "0x0",
        "input": "0xa6bf15be555344432d410000000000000000000000000000000000000000000000000000000000000000000000000000e26d509c661c4f16faffbb1eace1fa1cda8cc14600000000000000000000000043f5e030811411151f709a0796492eefc34009a0c8895f8ceb0cae9da15bb9d2bc5859a184ca0f61c88560488355c8a7364deef8",
        "nonce": "0x114",
        "chainId": "0x161c28"
      },
      "additionalContracts": [],
      "isFixedGasLimit": false
    }
  ],
  "receipts": [
    {
      "status": "0x1",
      "cumulativeGasUsed": "0xe3b45",
      "logs": [],
      "logsBloom": "0x00000000000000000000000000000000000000000000000000000000000000000000000000000000000000000000000000000000000000000000000000000000000000000000000000000000000000000000000000000000000000000000000000000000000000000000000000000000000000000000000000000000000000000000000000000000000000000000000000000000000000000000000000000000000000000000000000000000000000000000000000000000000000000000000000000000000000000000000000000000000000000000000000000000000000000000000000000000000000000000000000000000000000000000000000000000",
      "type": "0x2",
      "transactionHash": "0x41841ddc84127a20a97994ea6453b1cb98b81dc558f3dd329d54f9a9011686cc",
      "transactionIndex": "0x1",
      "blockHash": "0x3b55787057438bc1d77b04171da4a4d6e0ea6f31d98cf565b0f5f9aa25b96086",
      "blockNumber": "0x33d9eb",
      "gasUsed": "0xcb4a5",
      "effectiveGasPrice": "0x4cd5886400",
      "from": "0x8866438f9348f33516040d38a0113531bc9e7e1d",
      "to": null,
      "contractAddress": "0xc4b35397d5ca975dc6f572c672d32375636a7a79"
    },
    {
      "status": "0x1",
      "cumulativeGasUsed": "0x54801",
      "logs": [],
      "logsBloom": "0x00000000000000000000000000000000000000000000000000000000000000000000000000000000000000000000000000000000000000000000000000000000000000000000000000000000000000000000000000000000000000000000000000000000000000000000000000000000000000000000000000000000000000000000000000000000000000000000000000000000000000000000000000000000000000000000000000000000000000000000000000000000000000000000000000000000000000000000000000000000000000000000000000000000000000000000000000000000000000000000000000000000000000000000000000000000",
      "type": "0x2",
      "transactionHash": "0x8f774caaa9a022213e71a6507729699142f99c602b60c64ee721a44a4457c934",
      "transactionIndex": "0x3",
      "blockHash": "0xfbf5b57d4c85fdc6a5f5781222401290a0913aed17e3b3b53bb86c44bc380627",
      "blockNumber": "0x33d9ec",
      "gasUsed": "0xb421",
      "effectiveGasPrice": "0x4cd5886400",
      "from": "0x8866438f9348f33516040d38a0113531bc9e7e1d",
      "to": "0xc4b35397d5ca975dc6f572c672d32375636a7a79",
      "contractAddress": null
    },
    {
      "status": "0x1",
      "cumulativeGasUsed": "0x855f0",
      "logs": [],
      "logsBloom": "0x00000000000000000000000000000000000000000000000000000000000000000000000000000000000000000000000000000000000000000000000000000000000000000000000000000000000000000000000000000000000000000000000000000000000000000000000000000000000000000000000000000000000000000000000000000000000000000000000000000000000000000000000000000000000000000000000000000000000000000000000000000000000000000000000000000000000000000000000000000000000000000000000000000000000000000000000000000000000000000000000000000000000000000000000000000000",
      "type": "0x2",
      "transactionHash": "0xf87403ed2b9f50a48b237a36d58705b7bfe61949245d6f03554cba8fe9af1323",
      "transactionIndex": "0x5",
      "blockHash": "0x9e0cd3b1d216e87d493965b59266aefa358999d51f047f497db636e028fb68bd",
      "blockNumber": "0x33d9ed",
      "gasUsed": "0xb4d0",
      "effectiveGasPrice": "0x4cd5886400",
      "from": "0x8866438f9348f33516040d38a0113531bc9e7e1d",
      "to": "0xc4b35397d5ca975dc6f572c672d32375636a7a79",
      "contractAddress": null
    },
    {
      "status": "0x1",
      "cumulativeGasUsed": "0x62044",
      "logs": [],
      "logsBloom": "0x00000000000000000000000000000000000000000000000000000000000000000000000000000000000000000000000000000000000000000000000000000000000000000000000000000000000000000000000000000000000000000000000000000000000000000000000000000000000000000000000000000000000000000000000000000000000000000000000000000000000000000000000000000000000000000000000000000000000000000000000000000000000000000000000000000000000000000000000000000000000000000000000000000000000000000000000000000000000000000000000000000000000000000000000000000000",
      "type": "0x2",
      "transactionHash": "0xdcf09df2ddcbb91d21a89f9de3490accbeed224f4cdae45ef53ffc04315af209",
      "transactionIndex": "0x4",
      "blockHash": "0x4650cf469fdf96530f738c0f8ce04f5b9a10cc28134822e0f7706bb24c457266",
      "blockNumber": "0x33d9ee",
      "gasUsed": "0x10d70",
      "effectiveGasPrice": "0x4cd5886400",
      "from": "0x8866438f9348f33516040d38a0113531bc9e7e1d",
      "to": "0xc4b35397d5ca975dc6f572c672d32375636a7a79",
      "contractAddress": null
    },
    {
      "status": "0x1",
      "cumulativeGasUsed": "0x437fe",
      "logs": [],
      "logsBloom": "0x00000000000000000000000000000000000000000000000000000000000000000000000000000000000000000000000000000000000000000000000000000000000000000000000000000000000000000000000000000000000000000000000000000000000000000000000000000000000000000000000000000000000000000000000000000000000000000000000000000000000000000000000000000000000000000000000000000000000000000000000000000000000000000000000000000000000000000000000000000000000000000000000000000000000000000000000000000000000000000000000000000000000000000000000000000000",
      "type": "0x2",
      "transactionHash": "0xbdbda87c549fa499b22e14c45de9526820c6c96fe8bd4429afa4fd837e897af3",
      "transactionIndex": "0x5",
      "blockHash": "0x81aa72d9d8ce863c9753e07f692b1f51d83f1543e0f30556190f9c04db894df0",
      "blockNumber": "0x33d9ef",
      "gasUsed": "0x1bd3a",
      "effectiveGasPrice": "0x4cd5886400",
      "from": "0x8866438f9348f33516040d38a0113531bc9e7e1d",
      "to": "0xc4b35397d5ca975dc6f572c672d32375636a7a79",
      "contractAddress": null
    },
    {
      "status": "0x1",
      "cumulativeGasUsed": "0x856c6",
      "logs": [],
      "logsBloom": "0x00000000000000000000000000000000000000000000000000000000000000000000000000000000000000000000000000000000000000000000000000000000000000000000000000000000000000000000000000000000000000000000000000000000000000000000000000000000000000000000000000000000000000000000000000000000000000000000000000000000000000000000000000000000000000000000000000000000000000000000000000000000000000000000000000000000000000000000000000000000000000000000000000000000000000000000000000000000000000000000000000000000000000000000000000000000",
      "type": "0x2",
      "transactionHash": "0xd394683f9c6bc218ce1240f3c51674e454f9ef7e6242c12bf170d7196bc0fcc2",
      "transactionIndex": "0x5",
      "blockHash": "0x2c94a45db438e0cfc39a3906dd6f1b238ec29a7ec392b1037df27ee41111ab58",
      "blockNumber": "0x33d9f0",
      "gasUsed": "0x1bd52",
      "effectiveGasPrice": "0x4cd5886400",
      "from": "0x8866438f9348f33516040d38a0113531bc9e7e1d",
      "to": "0xc4b35397d5ca975dc6f572c672d32375636a7a79",
      "contractAddress": null
    }
  ],
  "libraries": [],
  "pending": [],
  "returns": {},
  "timestamp": 1759300494248,
  "chain": 1449000,
  "commit": "91aff73"
}