{
  "transactions": [
    {
      "hash": "0x2853cf3eb09dbdaf4654b340b42f58d71997eeadfaef08f79e9547f1d036013f",
      "transactionType": "CREATE",
      "contractName": "Controller",
      "contractAddress": "0x92707d338079f2712543873d95e49291da178975",
      "function": null,
      "arguments": [
        "0xB5FB4BE02232B1bBA4dC8f81dc24C26980dE9e3C",
        "0xEd09DD3f30CCDEADAa25eED2f14eAa646878799F",
        "0x9E8860db73D093464ee2B5a1Fe6F63B09F70e8C1",
        "0x6Ea452dC1105607eC1AB84c643369Dd3356cc251"
      ],
      "transaction": {
        "from": "0x8866438f9348f33516040d38a0113531bc9e7e1d",
        "value": "0x0",
        "input": "0x61010080604052346101c2575f6080826113d6803803809161002182856101d9565b8339810103126101c25761003482610210565b61004060208401610210565b610058606061005160408701610210565b9501610210565b6080929092526001600160a01b03169283156101c6576001600160a01b03169081156101c6576001600160a01b03169283156101c65760a081905260c082905260e0849052600a80546001600160a01b03191633179055813b156101c2575f916024839260405194859384926328ec8bf160e21b845260048401525af180156101b7576101a4575b5060c051909182916001600160a01b0316803b156101a0576024839260405194859384926328ec8bf160e21b845260048401525af180156101955761017d575b6040516111b1908161022582396080518181816108680152610f3e015260a051818181610308015281816104e6015281816109d70152610d6a015260c05181818161057701526107a7015260e05181818161020d0152610aef0152f35b6101888280926101d9565b6101925780610120565b80fd5b6040513d84823e3d90fd5b5050fd5b6101b091505f906101d9565b5f5f6100e0565b6040513d5f823e3d90fd5b5f80fd5b6316c6875160e31b5f525f60045260245ffd5b601f909101601f19168101906001600160401b038211908210176101fc57604052565b634e487b7160e01b5f52604160045260245ffd5b51906001600160a01b03821682036101c25756fe6080806040526004361015610012575f80fd5b5f905f3560e01c90816304bda26214610f6d5750806309c6bed914610f2957806311eac85514610f01578063120394de14610e4257806329241502146107d657806336569e77146107915780634cbab1f1146106845780634e1c756e1461076157806354134166146107285780635dfc9d7b146106fe57806374c31f5d146106ae5780637aa2dbc1146106845780638019a786146104bb578063947a97e91461046c578063a2f8f0571461044e578063a6bf15be146103a0578063acee287114610337578063bb038e15146102f2578063be22f546146102c9578063bf0dfcab1461023c578063c11645bc146101f7578063c4ed26621461019a578063c71f8d67146101c4578063c7e5b0a41461019a578063d1a294c4146101675763f851a4401461013c575f80fd5b34610164578060031936011261016457600a546040516001600160a01b039091168152602090f35b80fd5b503461016457602036600319011261016457602090600435815260048252604060018060a01b0391205416604051908152f35b50346101645760203660031901126101645760406020916004358152600283522054604051908152f35b503461016457602036600319011261016457602090600435815260058252604060018060a01b0391205416604051908152f35b50346101645780600319360112610164576040517f00000000000000000000000000000000000000000000000000000000000000006001600160a01b03168152602090f35b503461016457604036600319011261016457610256610fee565b61025e611004565b9061027460018060a01b03600a54163314611096565b6001600160a01b03169081156102b5576001600160a01b03169081156102b55760018060a01b031983541617825560018060a01b0319600154161760015580f35b6316c6875160e31b83526004839052602483fd5b50346101645780600319360112610164576009546040516001600160a01b039091168152602090f35b50346101645780600319360112610164576040517f00000000000000000000000000000000000000000000000000000000000000006001600160a01b03168152602090f35b503461016457602036600319011261016457610351610fee565b61036660018060a01b03600a54163314611096565b6001600160a01b0316801561038c57600980546001600160a01b03191691909117905580f35b6316c6875160e31b82526004829052602482fd5b5034610164576080366003190112610164576004356103bd611004565b6044356001600160a01b038116810361044a576103e560018060a01b03600a54163314611096565b82845260046020908152604080862080546001600160a01b039586166001600160a01b03199182168117909255868852600584528288208054959096169416939093179093559084526006815281842083905591835260079091528120606435905580f35b8380fd5b50346101645780600319360112610164576020600854604051908152f35b5034610164576020366003190112610164576004356001600160401b0381116104b75761049f6020913690600401610f8f565b90809291810103126104b75760209035604051908152f35b5080fd5b503461016457602036600319011261016457604051632c2cb9fd60e01b8152600480359082018190527f00000000000000000000000000000000000000000000000000000000000000006001600160a01b031690602083602481855afa928315610679578493610644575b50602090602460405180948193632726b07360e01b835260048301525afa801561063957610573926040928592610608575b5082516309092f9760e21b815293849283926004840161112f565b03817f00000000000000000000000000000000000000000000000000000000000000006001600160a01b03165afa80156105fd57829183916105c0575b6040838382519182526020820152f35b9150506040813d6040116105f5575b816105dc6040938361101a565b810103126104b75760409150602081519101515f6105b0565b3d91506105cf565b6040513d84823e3d90fd5b61062b91925060203d602011610632575b610623818361101a565b810190611110565b905f610558565b503d610619565b6040513d85823e3d90fd5b9092506020813d602011610671575b816106606020938361101a565b8101031261044a5751916020610526565b3d9150610653565b6040513d86823e3d90fd5b50346101645760203660031901126101645760406020916004358152600383522054604051908152f35b503461016457602036600319011261016457600435906001600160401b038211610164576106ea6106e23660048501610f8f565b8101906110ce565b906106fa60405192839283610fbc565b0390f35b50346101645760203660031901126101645760406020916004358152600783522054604051908152f35b5034610164576020366003190112610164576020906040906001600160a01b03610750610fee565b168152600683522054604051908152f35b50346101645760203660031901126101645761078860018060a01b03600a54163314611096565b60043560085580f35b50346101645780600319360112610164576040517f00000000000000000000000000000000000000000000000000000000000000006001600160a01b03168152602090f35b5034610cf05760e0366003190112610cf0576024356001600160401b038111610cf057610807903690600401610f8f565b50506044356001600160401b038111610cf057610828903690600401610f8f565b906064356001600160401b038111610cf057610848903690600401610f8f565b90926084359260a4359460018060a01b038616809603610cf05760c435927f00000000000000000000000000000000000000000000000000000000000000006001600160a01b03163303610e2f576108b5926108a5913691611051565b60208151910120938101906110ce565b93907fc878ce8db15ae780a7801a0a72a5c00850f38b7bbdb4e0015ea7f3b253063fbf6020604051838152a17fe77d2bd163c1d1e0f6d02bd9b28f5b1b0efd4ecd39aa2db3cc6d3d720b6495a28103610e1d5750604084805181010312610cf05760406020850151940151945f5260066020528360405f205403610e0a57835f5260076020528060405f205403610df85750815f52600260205260405f2054918215610d44575b505f838152600560205260409020546001600160a01b0316928315610d32575f52600460205260018060a01b0360405f2054166020604051809263095ea7b360e01b8252815f816109b1888b60048401611160565b03925af18015610ce557610d15575b50604051632726b07360e01b8152600481018390527f00000000000000000000000000000000000000000000000000000000000000006001600160a01b031693602082602481885afa918215610ce5575f92610cf4575b50803b15610cf057825f91610a439383604051809681958294633b4da69f60e01b845260048401611160565b03925af18015610ce557610cd0575b508490833b156104b757604051906345e6bdcd60e01b82528360048301526024820152846044820152818160648183885af180156105fd57610cbb575b5050676765c793fa10079d601b1b838102908482041484151715610ca75790829185933b1561044a5760648492836040519586948593637cf986db60e11b8552600485015230602485015260448401525af180156105fd57610c92575b507f00000000000000000000000000000000000000000000000000000000000000006001600160a01b0316803b156104b75781604051809263ef693bed60e01b8252818381610b3f893060048401611160565b03925af180156105fd57610c7d575b5050600954825460405163095ea7b360e01b81529160209183916001600160a01b0390811691839188918391610b8a918a911660048401611160565b03925af1801561063957610c50575b507ff685e843ad79f24108e43bba845f0c0548e7d009a0304540bbe0684146d944416020604051838152a181546001600160a01b0316908290823b156104b757610c00926103e89183604051809681958294638d7ef9bb60e01b8452043060048401611160565b03925af180156105fd57610c3b575b505060206040517fe84001f3dedacf7f9ddc370e9f09c26b37473e9e959ffdc4925f6fe33c9877e48152f35b610c4682809261101a565b6101645780610c0f565b610c719060203d602011610c76575b610c69818361101a565b810190611148565b610b99565b503d610c5f565b81610c879161101a565b6104b757815f610b4e565b81610c9c9161101a565b6104b757815f610aec565b634e487b7160e01b85526011600452602485fd5b81610cc59161101a565b61044a57835f610a8f565b610cdd9195505f9061101a565b5f935f610a52565b6040513d5f823e3d90fd5b5f80fd5b610d0e91925060203d60201161063257610623818361101a565b905f610a17565b610d2d9060203d602011610c7657610c69818361101a565b6109c0565b631e71423d60e01b5f5260045260245ffd5b604051636090dec560e01b8152925060208380610d6530886004840161112f565b03815f7f00000000000000000000000000000000000000000000000000000000000000006001600160a01b03165af1928315610ce5575f93610dc4575b5082815f5260026020528060405f20555f52600360205260405f20555f61095c565b9092506020813d602011610df0575b81610de06020938361101a565b81010312610cf05751915f610da2565b3d9150610dd3565b63961e5dc760e01b5f5260045260245ffd5b83631e71423d60e01b5f5260045260245ffd5b63cea2ba5f60e01b5f5260045260245ffd5b630d6c7be960e01b5f523360045260245ffd5b34610cf0576020366003190112610cf0576004356001600160401b038111610cf057610e713682600401610f8f565b60408110610ecb57602435916020830191828411610eb75760208460040135850101809311610eb7578211610cf0576106ea923692819003601f19019101602001611051565b634e487b7160e01b5f52601160045260245ffd5b60405162461bcd60e51b815260206004820152600e60248201526d11185d18481d1bdbc81cda1bdc9d60921b6044820152606490fd5b34610cf0575f366003190112610cf0576001546040516001600160a01b039091168152602090f35b34610cf0575f366003190112610cf0576040517f00000000000000000000000000000000000000000000000000000000000000006001600160a01b03168152602090f35b34610cf0575f366003190112610cf0575f546001600160a01b03168152602090f35b9181601f84011215610cf0578235916001600160401b038311610cf05760208381860195010111610cf057565b9060609260209183526040828401528051918291826040860152018484015e5f828201840152601f01601f1916010190565b600435906001600160a01b0382168203610cf057565b602435906001600160a01b0382168203610cf057565b601f909101601f19168101906001600160401b0382119082101761103d57604052565b634e487b7160e01b5f52604160045260245ffd5b9192916001600160401b03821161103d576040519161107a601f8201601f19166020018461101a565b829481845281830111610cf0578281602093845f960137010152565b1561109d57565b60405162461bcd60e51b81526020600482015260096024820152683737ba16b0b236b4b760b91b6044820152606490fd5b9190604083820312610cf0578235926020810135906001600160401b038211610cf057019080601f83011215610cf05781602061110d93359101611051565b90565b90816020910312610cf057516001600160a01b0381168103610cf05790565b9081526001600160a01b03909116602082015260400190565b90816020910312610cf057518015158103610cf05790565b6001600160a01b03909116815260208101919091526040019056fea2646970667358221220161f147a5c814a50f3786eba7b6a47e747cf2289cb20cd32ef4cddf66e129bc164736f6c634300081e0033000000000000000000000000b5fb4be02232b1bba4dc8f81dc24c26980de9e3c000000000000000000000000ed09dd3f30ccdeadaa25eed2f14eaa646878799f0000000000000000000000009e8860db73d093464ee2b5a1fe6f63b09f70e8c10000000000000000000000006ea452dc1105607ec1ab84c643369dd3356cc251",
        "nonce": "0x233",
        "chainId": "0x161c28"
      },
      "additionalContracts": [],
      "isFixedGasLimit": false
    },
    {
      "hash": "0xc60c02f4600051cddf778b54266d03b9b13274ecdfb8b5822cdc0905407348e6",
      "transactionType": "CALL",
      "contractName": "Controller",
      "contractAddress": "0x92707d338079f2712543873d95e49291da178975",
      "function": "setDaiTokenId(bytes32)",
      "arguments": [
        "0x8888888888888888888888888888888888888888888888888888888888888888"
      ],
      "transaction": {
        "from": "0x8866438f9348f33516040d38a0113531bc9e7e1d",
        "to": "0x92707d338079f2712543873d95e49291da178975",
        "value": "0x0",
        "input": "0x4e1c756e8888888888888888888888888888888888888888888888888888888888888888",
        "nonce": "0x234",
        "chainId": "0x161c28"
      },
      "additionalContracts": [],
      "isFixedGasLimit": false
    },
    {
      "hash": "0xa4fa630f21d154263217d76257335196a4c7e4a88f18f3c518fab0aa480f1f1c",
      "transactionType": "CALL",
      "contractName": "Controller",
      "contractAddress": "0x92707d338079f2712543873d95e49291da178975",
      "function": "setDaiToken(address)",
      "arguments": [
        "0xB6202dd8D51598C18E1E277093B7468F943CD9fB"
      ],
      "transaction": {
        "from": "0x8866438f9348f33516040d38a0113531bc9e7e1d",
        "to": "0x92707d338079f2712543873d95e49291da178975",
        "value": "0x0",
        "input": "0xacee2871000000000000000000000000b6202dd8d51598c18e1e277093b7468f943cd9fb",
        "nonce": "0x235",
        "chainId": "0x161c28"
      },
      "additionalContracts": [],
      "isFixedGasLimit": false
    },
    {
      "hash": "0xfdc446d07e050a47dc1abb0b4e360b824a539f34113ee700962946d558c4b092",
      "transactionType": "CALL",
      "contractName": "Controller",
      "contractAddress": "0x92707d338079f2712543873d95e49291da178975",
      "function": "setPsm(address,address)",
      "arguments": [
        "0xfc18ab74D3a04A730B767AAB241CE5A451dfCB1d",
        "0xE26D509C661c4F16FaFfBB1eAce1Fa1CdA8cc146"
      ],
      "transaction": {
        "from": "0x8866438f9348f33516040d38a0113531bc9e7e1d",
        "to": "0x92707d338079f2712543873d95e49291da178975",
        "value": "0x0",
        "input": "0xbf0dfcab000000000000000000000000fc18ab74d3a04a730b767aab241ce5a451dfcb1d000000000000000000000000e26d509c661c4f16faffbb1eace1fa1cda8cc146",
        "nonce": "0x236",
        "chainId": "0x161c28"
      },
      "additionalContracts": [],
      "isFixedGasLimit": false
    },
    {
      "hash": "0x7b4f276e02ad4db8490b73ac8438aebf28f257372b13f1c525f1c2ebec3d5282",
      "transactionType": "CALL",
      "contractName": "Controller",
      "contractAddress": "0x92707d338079f2712543873d95e49291da178975",
      "function": "setCollateralConfig(bytes32,address,address,bytes32)",
      "arguments": [
        "0x5852502d41000000000000000000000000000000000000000000000000000000",
        "0xEeeeeEeeeEeEeeEeEeEeeEEEeeeeEeeeeeeeEEeE",
        "0x3d22179f2578E9374791D2B825806e278eC14A7C",
        "0xba5a21ca88ef6bba2bfff5088994f90e1077e2a1cc3dcc38bd261f00fce2824f"
      ],
      "transaction": {
        "from": "0x8866438f9348f33516040d38a0113531bc9e7e1d",
        "to": "0x92707d338079f2712543873d95e49291da178975",
        "value": "0x0",
        "input": "0xa6bf15be5852502d41000000000000000000000000000000000000000000000000000000000000000000000000000000eeeeeeeeeeeeeeeeeeeeeeeeeeeeeeeeeeeeeeee0000000000000000000000003d22179f2578e9374791d2b825806e278ec14a7cba5a21ca88ef6bba2bfff5088994f90e1077e2a1cc3dcc38bd261f00fce2824f",
        "nonce": "0x237",
        "chainId": "0x161c28"
      },
      "additionalContracts": [],
      "isFixedGasLimit": false
    },
    {
      "hash": "0x1dc41d5453a7ba40b79176b8ebd31db893a839357213f516a4ad561acafcb99e",
      "transactionType": "CALL",
      "contractName": "Controller",
      "contractAddress": "0x92707d338079f2712543873d95e49291da178975",
      "function": "setCollateralConfig(bytes32,address,address,bytes32)",
      "arguments": [
        "0x555344432d410000000000000000000000000000000000000000000000000000",
        "0xE26D509C661c4F16FaFfBB1eAce1Fa1CdA8cc146",
        "0x43f5e030811411151f709A0796492EEFC34009A0",
        "0xc8895f8ceb0cae9da15bb9d2bc5859a184ca0f61c88560488355c8a7364deef8"
      ],
      "transaction": {
        "from": "0x8866438f9348f33516040d38a0113531bc9e7e1d",
        "to": "0x92707d338079f2712543873d95e49291da178975",
        "value": "0x0",
        "input": "0xa6bf15be555344432d410000000000000000000000000000000000000000000000000000000000000000000000000000e26d509c661c4f16faffbb1eace1fa1cda8cc14600000000000000000000000043f5e030811411151f709a0796492eefc34009a0c8895f8ceb0cae9da15bb9d2bc5859a184ca0f61c88560488355c8a7364deef8",
        "nonce": "0x238",
        "chainId": "0x161c28"
      },
      "additionalContracts": [],
      "isFixedGasLimit": false
    }
  ],
  "receipts": [
    {
      "status": "0x1",
      "cumulativeGasUsed": "0x10f263",
      "logs": [],
      "logsBloom": "0x00000000000000000000000000000000000000000000000000000000000000000000000000000000000000000000000000000000000000000000000000000000000000000000000000000000000000000000000000000000000000000000000000000000000000000000000000000000000000000000000000000000000000000000000000000000000000000000000000000000000000000000000000000000000000000000000000000000000000000000000000000000000000000000000000000000000000000000000000000000000000000000000000000000000000000000000000000000000000000000000000000000000000000000000000000000",
      "type": "0x2",
      "transactionHash": "0x2853cf3eb09dbdaf4654b340b42f58d71997eeadfaef08f79e9547f1d036013f",
      "transactionIndex": "0x0",
      "blockHash": "0xc5a3fe2c238a58678754a27ef51e11f6d6cc6b4ec7ae91725fe45491625d8dd6",
      "blockNumber": "0x33ee01",
      "gasUsed": "0x10f263",
      "effectiveGasPrice": "0x4cd5886400",
      "from": "0x8866438f9348f33516040d38a0113531bc9e7e1d",
      "to": null,
      "contractAddress": "0x92707d338079f2712543873d95e49291da178975"
    },
    {
      "status": "0x1",
      "cumulativeGasUsed": "0x26d9e1",
      "logs": [],
      "logsBloom": "0x00000000000000000000000000000000000000000000000000000000000000000000000000000000000000000000000000000000000000000000000000000000000000000000000000000000000000000000000000000000000000000000000000000000000000000000000000000000000000000000000000000000000000000000000000000000000000000000000000000000000000000000000000000000000000000000000000000000000000000000000000000000000000000000000000000000000000000000000000000000000000000000000000000000000000000000000000000000000000000000000000000000000000000000000000000000",
      "type": "0x2",
      "transactionHash": "0xc60c02f4600051cddf778b54266d03b9b13274ecdfb8b5822cdc0905407348e6",
      "transactionIndex": "0x19",
      "blockHash": "0xbfa74af0111a762eb8f8c3f20144983de8ba37cd9f33104442d3f6e83813bab9",
      "blockNumber": "0x33ee02",
      "gasUsed": "0xb441",
      "effectiveGasPrice": "0x4cd5886400",
      "from": "0x8866438f9348f33516040d38a0113531bc9e7e1d",
      "to": "0x92707d338079f2712543873d95e49291da178975",
      "contractAddress": null
    },
    {
      "status": "0x1",
      "cumulativeGasUsed": "0xb506",
      "logs": [],
      "logsBloom": "0x00000000000000000000000000000000000000000000000000000000000000000000000000000000000000000000000000000000000000000000000000000000000000000000000000000000000000000000000000000000000000000000000000000000000000000000000000000000000000000000000000000000000000000000000000000000000000000000000000000000000000000000000000000000000000000000000000000000000000000000000000000000000000000000000000000000000000000000000000000000000000000000000000000000000000000000000000000000000000000000000000000000000000000000000000000000",
      "type": "0x2",
      "transactionHash": "0xa4fa630f21d154263217d76257335196a4c7e4a88f18f3c518fab0aa480f1f1c",
      "transactionIndex": "0x0",
      "blockHash": "0x99eb608b08a92f1ae5d1806a8c0e6c598579ff3ccb0aa019c0e396d01aeb9d92",
      "blockNumber": "0x33ee03",
      "gasUsed": "0xb506",
      "effectiveGasPrice": "0x4cd5886400",
      "from": "0x8866438f9348f33516040d38a0113531bc9e7e1d",
      "to": "0x92707d338079f2712543873d95e49291da178975",
      "contractAddress": null
    },
    {
      "status": "0x1",
      "cumulativeGasUsed": "0x10d95",
      "logs": [],
      "logsBloom": "0x00000000000000000000000000000000000000000000000000000000000000000000000000000000000000000000000000000000000000000000000000000000000000000000000000000000000000000000000000000000000000000000000000000000000000000000000000000000000000000000000000000000000000000000000000000000000000000000000000000000000000000000000000000000000000000000000000000000000000000000000000000000000000000000000000000000000000000000000000000000000000000000000000000000000000000000000000000000000000000000000000000000000000000000000000000000",
      "type": "0x2",
      "transactionHash": "0xfdc446d07e050a47dc1abb0b4e360b824a539f34113ee700962946d558c4b092",
      "transactionIndex": "0x0",
      "blockHash": "0xfecb7b7748ca095f55f9f053ca5e71f88105cfacdbbcb3da6baae8d8162b10ee",
      "blockNumber": "0x33ee04",
      "gasUsed": "0x10d95",
      "effectiveGasPrice": "0x4cd5886400",
      "from": "0x8866438f9348f33516040d38a0113531bc9e7e1d",
      "to": "0x92707d338079f2712543873d95e49291da178975",
      "contractAddress": null
    },
    {
      "status": "0x1",
      "cumulativeGasUsed": "0x10ffba",
      "logs": [],
      "logsBloom": "0x00000000000000000000000000000000000000000000000000000000000000000000000000000000000000000000000000000000000000000000000000000000000000000000000000000000000000000000000000000000000000000000000000000000000000000000000000000000000000000000000000000000000000000000000000000000000000000000000000000000000000000000000000000000000000000000000000000000000000000000000000000000000000000000000000000000000000000000000000000000000000000000000000000000000000000000000000000000000000000000000000000000000000000000000000000000",
      "type": "0x2",
      "transactionHash": "0x7b4f276e02ad4db8490b73ac8438aebf28f257372b13f1c525f1c2ebec3d5282",
      "transactionIndex": "0xa",
      "blockHash": "0xfc147974b857efe786d55c899137f02892e8899f6378c15f1e67644f65f2ef80",
      "blockNumber": "0x33ee05",
      "gasUsed": "0x1bd7a",
      "effectiveGasPrice": "0x4cd5886400",
      "from": "0x8866438f9348f33516040d38a0113531bc9e7e1d",
      "to": "0x92707d338079f2712543873d95e49291da178975",
      "contractAddress": null
    },
    {
      "status": "0x1",
      "cumulativeGasUsed": "0x1bd92",
      "logs": [],
      "logsBloom": "0x00000000000000000000000000000000000000000000000000000000000000000000000000000000000000000000000000000000000000000000000000000000000000000000000000000000000000000000000000000000000000000000000000000000000000000000000000000000000000000000000000000000000000000000000000000000000000000000000000000000000000000000000000000000000000000000000000000000000000000000000000000000000000000000000000000000000000000000000000000000000000000000000000000000000000000000000000000000000000000000000000000000000000000000000000000000",
      "type": "0x2",
      "transactionHash": "0x1dc41d5453a7ba40b79176b8ebd31db893a839357213f516a4ad561acafcb99e",
      "transactionIndex": "0x0",
      "blockHash": "0x7ae65d319d862eea002cf16d721162ed8ae993fb17ea09acf524f9f2d9f64b53",
      "blockNumber": "0x33ee06",
      "gasUsed": "0x1bd92",
      "effectiveGasPrice": "0x4cd5886400",
      "from": "0x8866438f9348f33516040d38a0113531bc9e7e1d",
      "to": "0x92707d338079f2712543873d95e49291da178975",
      "contractAddress": null
    }
  ],
  "libraries": [],
  "pending": [],
  "returns": {},
  "timestamp": 1759329585379,
  "chain": 1449000,
  "commit": "673f0ae"
}