{
  "transactions": [
    {
      "hash": "0x19de07b0036a277b5a4dae8515d3f123dac7f9c190ebdd244661ba8f6893a1ae",
      "transactionType": "CREATE",
      "contractName": "Controller",
      "contractAddress": "0xf47eadfe59d5e2806ca4325433c615bba1de6871",
      "function": null,
      "arguments": [
        "0xB5FB4BE02232B1bBA4dC8f81dc24C26980dE9e3C",
        "0xEd09DD3f30CCDEADAa25eED2f14eAa646878799F",
        "0x9E8860db73D093464ee2B5a1Fe6F63B09F70e8C1",
        "0x6Ea452dC1105607eC1AB84c643369Dd3356cc251"
      ],
      "transaction": {
        "from": "0x8866438f9348f33516040d38a0113531bc9e7e1d",
        "value": "0x0",
        "input": "0x61010080604052346101c2575f60808261157a803803809161002182856101d9565b8339810103126101c25761003482610210565b61004060208401610210565b610058606061005160408701610210565b9501610210565b6080929092526001600160a01b03169283156101c6576001600160a01b03169081156101c6576001600160a01b03169283156101c65760a081905260c082905260e0849052600a80546001600160a01b03191633179055813b156101c2575f916024839260405194859384926328ec8bf160e21b845260048401525af180156101b7576101a4575b5060c051909182916001600160a01b0316803b156101a0576024839260405194859384926328ec8bf160e21b845260048401525af180156101955761017d575b6040516113559081610225823960805181818161086901526110e2015260a051818181610308015281816104e6015281816109db0152610f0e015260c05181818161057701526107a7015260e05181818161020d0152610af30152f35b6101888280926101d9565b6101925780610120565b80fd5b6040513d84823e3d90fd5b5050fd5b6101b091505f906101d9565b5f5f6100e0565b6040513d5f823e3d90fd5b5f80fd5b6316c6875160e31b5f525f60045260245ffd5b601f909101601f19168101906001600160401b038211908210176101fc57604052565b634e487b7160e01b5f52604160045260245ffd5b51906001600160a01b03821682036101c25756fe6080806040526004361015610012575f80fd5b5f905f3560e01c90816304bda262146111115750806309c6bed9146110cd57806311eac855146110a5578063120394de14610fe657806329241502146107d657806336569e77146107915780634cbab1f1146106845780634e1c756e1461076157806354134166146107285780635dfc9d7b146106fe57806374c31f5d146106ae5780637aa2dbc1146106845780638019a786146104bb578063947a97e91461046c578063a2f8f0571461044e578063a6bf15be146103a0578063acee287114610337578063bb038e15146102f2578063be22f546146102c9578063bf0dfcab1461023c578063c11645bc146101f7578063c4ed26621461019a578063c71f8d67146101c4578063c7e5b0a41461019a578063d1a294c4146101675763f851a4401461013c575f80fd5b34610164578060031936011261016457600a546040516001600160a01b039091168152602090f35b80fd5b503461016457602036600319011261016457602090600435815260048252604060018060a01b0391205416604051908152f35b50346101645760203660031901126101645760406020916004358152600283522054604051908152f35b503461016457602036600319011261016457602090600435815260058252604060018060a01b0391205416604051908152f35b50346101645780600319360112610164576040517f00000000000000000000000000000000000000000000000000000000000000006001600160a01b03168152602090f35b503461016457604036600319011261016457610256611192565b61025e6111a8565b9061027460018060a01b03600a5416331461123a565b6001600160a01b03169081156102b5576001600160a01b03169081156102b55760018060a01b031983541617825560018060a01b0319600154161760015580f35b6316c6875160e31b83526004839052602483fd5b50346101645780600319360112610164576009546040516001600160a01b039091168152602090f35b50346101645780600319360112610164576040517f00000000000000000000000000000000000000000000000000000000000000006001600160a01b03168152602090f35b503461016457602036600319011261016457610351611192565b61036660018060a01b03600a5416331461123a565b6001600160a01b0316801561038c57600980546001600160a01b03191691909117905580f35b6316c6875160e31b82526004829052602482fd5b5034610164576080366003190112610164576004356103bd6111a8565b6044356001600160a01b038116810361044a576103e560018060a01b03600a5416331461123a565b82845260046020908152604080862080546001600160a01b039586166001600160a01b03199182168117909255868852600584528288208054959096169416939093179093559084526006815281842083905591835260079091528120606435905580f35b8380fd5b50346101645780600319360112610164576020600854604051908152f35b5034610164576020366003190112610164576004356001600160401b0381116104b75761049f6020913690600401611133565b90809291810103126104b75760209035604051908152f35b5080fd5b503461016457602036600319011261016457604051632c2cb9fd60e01b8152600480359082018190527f00000000000000000000000000000000000000000000000000000000000000006001600160a01b031690602083602481855afa928315610679578493610644575b50602090602460405180948193632726b07360e01b835260048301525afa801561063957610573926040928592610608575b5082516309092f9760e21b81529384928392600484016112d3565b03817f00000000000000000000000000000000000000000000000000000000000000006001600160a01b03165afa80156105fd57829183916105c0575b6040838382519182526020820152f35b9150506040813d6040116105f5575b816105dc604093836111be565b810103126104b75760409150602081519101515f6105b0565b3d91506105cf565b6040513d84823e3d90fd5b61062b91925060203d602011610632575b61062381836111be565b8101906112b4565b905f610558565b503d610619565b6040513d85823e3d90fd5b9092506020813d602011610671575b81610660602093836111be565b8101031261044a5751916020610526565b3d9150610653565b6040513d86823e3d90fd5b50346101645760203660031901126101645760406020916004358152600383522054604051908152f35b503461016457602036600319011261016457600435906001600160401b038211610164576106ea6106e23660048501611133565b810190611272565b906106fa60405192839283611160565b0390f35b50346101645760203660031901126101645760406020916004358152600783522054604051908152f35b5034610164576020366003190112610164576020906040906001600160a01b03610750611192565b168152600683522054604051908152f35b50346101645760203660031901126101645761078860018060a01b03600a5416331461123a565b60043560085580f35b50346101645780600319360112610164576040517f00000000000000000000000000000000000000000000000000000000000000006001600160a01b03168152602090f35b5034610e945760e0366003190112610e94576024356001600160401b038111610e9457610807903690600401611133565b50506044356001600160401b038111610e9457610828903690600401611133565b906064356001600160401b038111610e9457610848903690600401611133565b60a4356001600160a01b03811693919060843590859003610e945760c435917f00000000000000000000000000000000000000000000000000000000000000009260018060a01b03841695863303610fd3576108b9906108a9368b896111f5565b6020815191012093810190611272565b93907fc878ce8db15ae780a7801a0a72a5c00850f38b7bbdb4e0015ea7f3b253063fbf6020604051838152a17fe77d2bd163c1d1e0f6d02bd9b28f5b1b0efd4ecd39aa2db3cc6d3d720b6495a28103610fc15750604084805181010312610e945760406020850151940151975f5260066020528360405f205403610fae57835f5260076020528060405f205403610f9c5750815f52600260205260405f2054918215610ee8575b505f838152600560205260409020546001600160a01b0316928315610ed6575f52600460205260018060a01b0360405f2054166020604051809263095ea7b360e01b8252815f816109b5888b60048401611304565b03925af18015610e8957610eb9575b50604051632726b07360e01b8152600481018390527f00000000000000000000000000000000000000000000000000000000000000006001600160a01b031693602082602481885afa918215610e89575f92610e98575b50803b15610e9457825f91610a479383604051809681958294633b4da69f60e01b845260048401611304565b03925af18015610e8957610e74575b508890833b156104b757604051906345e6bdcd60e01b82528360048301526024820152876044820152818160648183885af180156105fd57610e5b575b5050676765c793fa10079d601b1b868102908782041487151715610e475790829189933b1561044a5760648492836040519586948593637cf986db60e11b8552600485015230602485015260448401525af180156105fd57610e32575b507f00000000000000000000000000000000000000000000000000000000000000006001600160a01b0316803b156104b75781604051809263ef693bed60e01b8252818381610b438c3060048401611304565b03925af180156105fd57610e1d575b5050600954865460405163095ea7b360e01b81529160209183916001600160a01b039081169183918c918391610b8e918d911660048401611304565b03925af18015610e1257610df5575b507ff685e843ad79f24108e43bba845f0c0548e7d009a0304540bbe0684146d9444160206103e8860495604051908152a1855486906001600160a01b0316803b156104b757816040518092638d7ef9bb60e01b8252818381610c038c3060048401611304565b03925af180156105fd57610ddc575b505060018060a01b036001541666038d7ea4c68000850191828611610dc85791602091610c56938960405180968195829463095ea7b360e01b845260048401611304565b03925af18015610dbd57610d90575b506103e88302928084046103e81481151715610d7c579082918694933b15610d7857602085918795604051988997889663da081c7360e01b88527fc8895f8ceb0cae9da15bb9d2bc5859a184ca0f61c88560488355c8a7364deef8600489015260c06024890152600460c4890152631e1c9c1b60e21b60e4890152610100604489015281610104890152610124880137846101248288010152601f801991011685019160648601528361012480878503019360031985016084890152015260a485015201925af180156105fd57610d63575b505060206040517fe84001f3dedacf7f9ddc370e9f09c26b37473e9e959ffdc4925f6fe33c9877e48152f35b610d6e8280926111be565b6101645780610d37565b8480fd5b634e487b7160e01b86526011600452602486fd5b610db19060203d602011610db6575b610da981836111be565b8101906112ec565b610c65565b503d610d9f565b6040513d88823e3d90fd5b634e487b7160e01b88526011600452602488fd5b81610de6916111be565b610df157855f610c12565b8580fd5b610e0d9060203d602011610db657610da981836111be565b610b9d565b6040513d89823e3d90fd5b81610e27916111be565b610df157855f610b52565b81610e3c916111be565b610df157855f610af0565b634e487b7160e01b89526011600452602489fd5b81610e65916111be565b610e7057875f610a93565b8780fd5b610e819199505f906111be565b5f975f610a56565b6040513d5f823e3d90fd5b5f80fd5b610eb291925060203d6020116106325761062381836111be565b905f610a1b565b610ed19060203d602011610db657610da981836111be565b6109c4565b631e71423d60e01b5f5260045260245ffd5b604051636090dec560e01b8152925060208380610f093088600484016112d3565b03815f7f00000000000000000000000000000000000000000000000000000000000000006001600160a01b03165af1928315610e89575f93610f68575b5082815f5260026020528060405f20555f52600360205260405f20555f610960565b9092506020813d602011610f94575b81610f84602093836111be565b81010312610e945751915f610f46565b3d9150610f77565b63961e5dc760e01b5f5260045260245ffd5b83631e71423d60e01b5f5260045260245ffd5b63cea2ba5f60e01b5f5260045260245ffd5b630d6c7be960e01b5f523360045260245ffd5b34610e94576020366003190112610e94576004356001600160401b038111610e94576110153682600401611133565b6040811061106f5760243591602083019182841161105b576020846004013585010180931161105b578211610e94576106ea923692819003601f190191016020016111f5565b634e487b7160e01b5f52601160045260245ffd5b60405162461bcd60e51b815260206004820152600e60248201526d11185d18481d1bdbc81cda1bdc9d60921b6044820152606490fd5b34610e94575f366003190112610e94576001546040516001600160a01b039091168152602090f35b34610e94575f366003190112610e94576040517f00000000000000000000000000000000000000000000000000000000000000006001600160a01b03168152602090f35b34610e94575f366003190112610e94575f546001600160a01b03168152602090f35b9181601f84011215610e94578235916001600160401b038311610e945760208381860195010111610e9457565b9060609260209183526040828401528051918291826040860152018484015e5f828201840152601f01601f1916010190565b600435906001600160a01b0382168203610e9457565b602435906001600160a01b0382168203610e9457565b601f909101601f19168101906001600160401b038211908210176111e157604052565b634e487b7160e01b5f52604160045260245ffd5b9192916001600160401b0382116111e1576040519161121e601f8201601f1916602001846111be565b829481845281830111610e94578281602093845f960137010152565b1561124157565b60405162461bcd60e51b81526020600482015260096024820152683737ba16b0b236b4b760b91b6044820152606490fd5b9190604083820312610e94578235926020810135906001600160401b038211610e9457019080601f83011215610e94578160206112b1933591016111f5565b90565b90816020910312610e9457516001600160a01b0381168103610e945790565b9081526001600160a01b03909116602082015260400190565b90816020910312610e9457518015158103610e945790565b6001600160a01b03909116815260208101919091526040019056fea2646970667358221220c4332c08f02752e1017c556f9340ca356319515ea7af1884eeb48f99d5c4fe3c64736f6c634300081e0033000000000000000000000000b5fb4be02232b1bba4dc8f81dc24c26980de9e3c000000000000000000000000ed09dd3f30ccdeadaa25eed2f14eaa646878799f0000000000000000000000009e8860db73d093464ee2b5a1fe6f63b09f70e8c10000000000000000000000006ea452dc1105607ec1ab84c643369dd3356cc251",
        "nonce": "0x25f",
        "chainId": "0x161c28"
      },
      "additionalContracts": [],
      "isFixedGasLimit": false
    },
    {
      "hash": "0xbaa47f6847162941b04d2d23c7abdb3590b1bfa3549204d048d408e4e09144e8",
      "transactionType": "CALL",
      "contractName": "Controller",
      "contractAddress": "0xf47eadfe59d5e2806ca4325433c615bba1de6871",
      "function": "setDaiTokenId(bytes32)",
      "arguments": [
        "0x8888888888888888888888888888888888888888888888888888888888888888"
      ],
      "transaction": {
        "from": "0x8866438f9348f33516040d38a0113531bc9e7e1d",
        "to": "0xf47eadfe59d5e2806ca4325433c615bba1de6871",
        "value": "0x0",
        "input": "0x4e1c756e8888888888888888888888888888888888888888888888888888888888888888",
        "nonce": "0x260",
        "chainId": "0x161c28"
      },
      "additionalContracts": [],
      "isFixedGasLimit": false
    },
    {
      "hash": "0x072012cdaf65ab90e7cb7ecf3b97ec328e88cac684d77f3fd1066b9bbd0e832b",
      "transactionType": "CALL",
      "contractName": "Controller",
      "contractAddress": "0xf47eadfe59d5e2806ca4325433c615bba1de6871",
      "function": "setDaiToken(address)",
      "arguments": [
        "0xB6202dd8D51598C18E1E277093B7468F943CD9fB"
      ],
      "transaction": {
        "from": "0x8866438f9348f33516040d38a0113531bc9e7e1d",
        "to": "0xf47eadfe59d5e2806ca4325433c615bba1de6871",
        "value": "0x0",
        "input": "0xacee2871000000000000000000000000b6202dd8d51598c18e1e277093b7468f943cd9fb",
        "nonce": "0x261",
        "chainId": "0x161c28"
      },
      "additionalContracts": [],
      "isFixedGasLimit": false
    },
    {
      "hash": "0x2a0f4275e85881a82e0f2f870c007d42c5f83b02879bc19094fb4fb373729f8c",
      "transactionType": "CALL",
      "contractName": "Controller",
      "contractAddress": "0xf47eadfe59d5e2806ca4325433c615bba1de6871",
      "function": "setPsm(address,address)",
      "arguments": [
        "0xfc18ab74D3a04A730B767AAB241CE5A451dfCB1d",
        "0xE26D509C661c4F16FaFfBB1eAce1Fa1CdA8cc146"
      ],
      "transaction": {
        "from": "0x8866438f9348f33516040d38a0113531bc9e7e1d",
        "to": "0xf47eadfe59d5e2806ca4325433c615bba1de6871",
        "value": "0x0",
        "input": "0xbf0dfcab000000000000000000000000fc18ab74d3a04a730b767aab241ce5a451dfcb1d000000000000000000000000e26d509c661c4f16faffbb1eace1fa1cda8cc146",
        "nonce": "0x262",
        "chainId": "0x161c28"
      },
      "additionalContracts": [],
      "isFixedGasLimit": false
    },
    {
      "hash": "0x3069213cd328877166864c275443000218dc8bec001a4e5ce442ad00a63c8cea",
      "transactionType": "CALL",
      "contractName": "Controller",
      "contractAddress": "0xf47eadfe59d5e2806ca4325433c615bba1de6871",
      "function": "setCollateralConfig(bytes32,address,address,bytes32)",
      "arguments": [
        "0x5852502d41000000000000000000000000000000000000000000000000000000",
        "0xEeeeeEeeeEeEeeEeEeEeeEEEeeeeEeeeeeeeEEeE",
        "0x3d22179f2578E9374791D2B825806e278eC14A7C",
        "0xba5a21ca88ef6bba2bfff5088994f90e1077e2a1cc3dcc38bd261f00fce2824f"
      ],
      "transaction": {
        "from": "0x8866438f9348f33516040d38a0113531bc9e7e1d",
        "to": "0xf47eadfe59d5e2806ca4325433c615bba1de6871",
        "value": "0x0",
        "input": "0xa6bf15be5852502d41000000000000000000000000000000000000000000000000000000000000000000000000000000eeeeeeeeeeeeeeeeeeeeeeeeeeeeeeeeeeeeeeee0000000000000000000000003d22179f2578e9374791d2b825806e278ec14a7cba5a21ca88ef6bba2bfff5088994f90e1077e2a1cc3dcc38bd261f00fce2824f",
        "nonce": "0x263",
        "chainId": "0x161c28"
      },
      "additionalContracts": [],
      "isFixedGasLimit": false
    },
    {
      "hash": "0x0568115165b0457a22d87732ff29ba3391fbe3be3da0cb42770b118dfe6f8c07",
      "transactionType": "CALL",
      "contractName": "Controller",
      "contractAddress": "0xf47eadfe59d5e2806ca4325433c615bba1de6871",
      "function": "setCollateralConfig(bytes32,address,address,bytes32)",
      "arguments": [
        "0x555344432d410000000000000000000000000000000000000000000000000000",
        "0xE26D509C661c4F16FaFfBB1eAce1Fa1CdA8cc146",
        "0x43f5e030811411151f709A0796492EEFC34009A0",
        "0xc8895f8ceb0cae9da15bb9d2bc5859a184ca0f61c88560488355c8a7364deef8"
      ],
      "transaction": {
        "from": "0x8866438f9348f33516040d38a0113531bc9e7e1d",
        "to": "0xf47eadfe59d5e2806ca4325433c615bba1de6871",
        "value": "0x0",
        "input": "0xa6bf15be555344432d410000000000000000000000000000000000000000000000000000000000000000000000000000e26d509c661c4f16faffbb1eace1fa1cda8cc14600000000000000000000000043f5e030811411151f709a0796492eefc34009a0c8895f8ceb0cae9da15bb9d2bc5859a184ca0f61c88560488355c8a7364deef8",
        "nonce": "0x264",
        "chainId": "0x161c28"
      },
      "additionalContracts": [],
      "isFixedGasLimit": false
    }
  ],
  "receipts": [
    {
      "status": "0x1",
      "cumulativeGasUsed": "0x12550d",
      "logs": [],
      "logsBloom": "0x00000000000000000000000000000000000000000000000000000000000000000000000000000000000000000000000000000000000000000000000000000000000000000000000000000000000000000000000000000000000000000000000000000000000000000000000000000000000000000000000000000000000000000000000000000000000000000000000000000000000000000000000000000000000000000000000000000000000000000000000000000000000000000000000000000000000000000000000000000000000000000000000000000000000000000000000000000000000000000000000000000000000000000000000000000000",
      "type": "0x2",
      "transactionHash": "0x19de07b0036a277b5a4dae8515d3f123dac7f9c190ebdd244661ba8f6893a1ae",
      "transactionIndex": "0x0",
      "blockHash": "0x8d02786e25fd448f272d084f62d7df4df323290387fea222249528001fd1aaf5",
      "blockNumber": "0x33f0bb",
      "gasUsed": "0x12550d",
      "effectiveGasPrice": "0x4cd5886400",
      "from": "0x8866438f9348f33516040d38a0113531bc9e7e1d",
      "to": null,
      "contractAddress": "0xf47eadfe59d5e2806ca4325433c615bba1de6871"
    },
    {
      "status": "0x1",
      "cumulativeGasUsed": "0xa3da9",
      "logs": [],
      "logsBloom": "0x00000000000000000000000000000000000000000000000000000000000000000000000000000000000000000000000000000000000000000000000000000000000000000000000000000000000000000000000000000000000000000000000000000000000000000000000000000000000000000000000000000000000000000000000000000000000000000000000000000000000000000000000000000000000000000000000000000000000000000000000000000000000000000000000000000000000000000000000000000000000000000000000000000000000000000000000000000000000000000000000000000000000000000000000000000000",
      "type": "0x2",
      "transactionHash": "0xbaa47f6847162941b04d2d23c7abdb3590b1bfa3549204d048d408e4e09144e8",
      "transactionIndex": "0xd",
      "blockHash": "0x58acae63be3cc2ad95f786d61cbceb400021d283b00a0dd66eaf45941a95cadd",
      "blockNumber": "0x33f0bc",
      "gasUsed": "0xb441",
      "effectiveGasPrice": "0x4cd5886400",
      "from": "0x8866438f9348f33516040d38a0113531bc9e7e1d",
      "to": "0xf47eadfe59d5e2806ca4325433c615bba1de6871",
      "contractAddress": null
    },
    {
      "status": "0x1",
      "cumulativeGasUsed": "0x1f3986",
      "logs": [],
      "logsBloom": "0x00000000000000000000000000000000000000000000000000000000000000000000000000000000000000000000000000000000000000000000000000000000000000000000000000000000000000000000000000000000000000000000000000000000000000000000000000000000000000000000000000000000000000000000000000000000000000000000000000000000000000000000000000000000000000000000000000000000000000000000000000000000000000000000000000000000000000000000000000000000000000000000000000000000000000000000000000000000000000000000000000000000000000000000000000000000",
      "type": "0x2",
      "transactionHash": "0x072012cdaf65ab90e7cb7ecf3b97ec328e88cac684d77f3fd1066b9bbd0e832b",
      "transactionIndex": "0x14",
      "blockHash": "0x93fa2244a30a33a1158dff6d069cf83c95d9d995982b5365f388e394f15b47ca",
      "blockNumber": "0x33f0bd",
      "gasUsed": "0xb506",
      "effectiveGasPrice": "0x4cd5886400",
      "from": "0x8866438f9348f33516040d38a0113531bc9e7e1d",
      "to": "0xf47eadfe59d5e2806ca4325433c615bba1de6871",
      "contractAddress": null
    },
    {
      "status": "0x1",
      "cumulativeGasUsed": "0x10cec9",
      "logs": [],
      "logsBloom": "0x00000000000000000000000000000000000000000000000000000000000000000000000000000000000000000000000000000000000000000000000000000000000000000000000000000000000000000000000000000000000000000000000000000000000000000000000000000000000000000000000000000000000000000000000000000000000000000000000000000000000000000000000000000000000000000000000000000000000000000000000000000000000000000000000000000000000000000000000000000000000000000000000000000000000000000000000000000000000000000000000000000000000000000000000000000000",
      "type": "0x2",
      "transactionHash": "0x2a0f4275e85881a82e0f2f870c007d42c5f83b02879bc19094fb4fb373729f8c",
      "transactionIndex": "0xb",
      "blockHash": "0x0f4e0407a4ee5a9f4c6eebff5922e9fe97df6bd527e71738266dd81844abab67",
      "blockNumber": "0x33f0be",
      "gasUsed": "0x10d95",
      "effectiveGasPrice": "0x4cd5886400",
      "from": "0x8866438f9348f33516040d38a0113531bc9e7e1d",
      "to": "0xf47eadfe59d5e2806ca4325433c615bba1de6871",
      "contractAddress": null
    },
    {
      "status": "0x1",
      "cumulativeGasUsed": "0xa3f36",
      "logs": [],
      "logsBloom": "0x00000000000000000000000000000000000000000000000000000000000000000000000000000000000000000000000000000000000000000000000000000000000000000000000000000000000000000000000000000000000000000000000000000000000000000000000000000000000000000000000000000000000000000000000000000000000000000000000000000000000000000000000000000000000000000000000000000000000000000000000000000000000000000000000000000000000000000000000000000000000000000000000000000000000000000000000000000000000000000000000000000000000000000000000000000000",
      "type": "0x2",
      "transactionHash": "0x3069213cd328877166864c275443000218dc8bec001a4e5ce442ad00a63c8cea",
      "transactionIndex": "0xd",
      "blockHash": "0x5fd6075d85866689b729681423bda938b2227af44b0146280d4ad1ccac092444",
      "blockNumber": "0x33f0bf",
      "gasUsed": "0x1bd7a",
      "effectiveGasPrice": "0x4cd5886400",
      "from": "0x8866438f9348f33516040d38a0113531bc9e7e1d",
      "to": "0xf47eadfe59d5e2806ca4325433c615bba1de6871",
      "contractAddress": null
    },
    {
      "status": "0x1",
      "cumulativeGasUsed": "0x6b31a",
      "logs": [],
      "logsBloom": "0x00000000000000000000000000000000000000000000000000000000000000000000000000000000000000000000000000000000000000000000000000000000000000000000000000000000000000000000000000000000000000000000000000000000000000000000000000000000000000000000000000000000000000000000000000000000000000000000000000000000000000000000000000000000000000000000000000000000000000000000000000000000000000000000000000000000000000000000000000000000000000000000000000000000000000000000000000000000000000000000000000000000000000000000000000000000",
      "type": "0x2",
      "transactionHash": "0x0568115165b0457a22d87732ff29ba3391fbe3be3da0cb42770b118dfe6f8c07",
      "transactionIndex": "0xa",
      "blockHash": "0x62d587a2cb6459eb04308cc18097f3280e2bc6e5b9c1d921e9ca23aca09cb93f",
      "blockNumber": "0x33f0c0",
      "gasUsed": "0x1bd92",
      "effectiveGasPrice": "0x4cd5886400",
      "from": "0x8866438f9348f33516040d38a0113531bc9e7e1d",
      "to": "0xf47eadfe59d5e2806ca4325433c615bba1de6871",
      "contractAddress": null
    }
  ],
  "libraries": [],
  "pending": [],
  "returns": {},
  "timestamp": 1759333537270,
  "chain": 1449000,
  "commit": "a9f59f6"
}