{
  "transactions": [
    {
      "hash": "0x08794df3febd96bd79cf0ccbabe83798375866094b4adbf492deb946b123f290",
      "transactionType": "CREATE",
      "contractName": "Controller",
      "contractAddress": "0x906a7783db590cbeca1a5767ad3fccf44317ebd7",
      "function": null,
      "arguments": [
        "0xB5FB4BE02232B1bBA4dC8f81dc24C26980dE9e3C",
        "0xAd8719B84d126000000000000000000000000000",
        "0x9E8860db73D093464ee2B5a1Fe6F63B09F70e8C1",
        "0x6Ea452dC1105607eC1AB84c643369Dd3356cc251"
      ],
      "transaction": {
        "from": "0x8866438f9348f33516040d38a0113531bc9e7e1d",
        "value": "0x0",
        "input": "0x610100806040523461014057608081610dcf80380380916100208285610157565b833981010312610140576100338161018e565b906100406020820161018e565b61005860606100516040850161018e565b930161018e565b6080939093526001600160a01b0316908115610144576001600160a01b0316918215610144576001600160a01b031680156101445760a082905260c083905260e052600a80546001600160a01b03191633179055813b15610140575f916024839260405194859384926328ec8bf160e21b845260048401525af1801561013557610125575b604051610c2c90816101a382396080518181816108410152610a29015260a05181818161030301526104bb015260c0518181816105580152610794015260e051816102090152f35b5f61012f91610157565b5f6100dd565b6040513d5f823e3d90fd5b5f80fd5b6316c6875160e31b5f525f60045260245ffd5b601f909101601f19168101906001600160401b0382119082101761017a57604052565b634e487b7160e01b5f52604160045260245ffd5b51906001600160a01b03821682036101405756fe6080806040526004361015610012575f80fd5b5f3560e01c90816304bda26214610a585750806309c6bed914610a1457806311eac855146109ec578063120394de1461091d57806329241502146107c357806336569e771461077f5780634cbab1f1146106555780634e1c756e1461075157806354134166146107195780635dfc9d7b146106ef57806374c31f5d1461067f5780637aa2dbc1146106555780638019a78614610491578063947a97e914610447578063a2f8f0571461042a578063a6bf15be14610385578063acee287114610332578063bb038e15146102ee578063be22f546146102c6578063bf0dfcab14610238578063c11645bc146101f4578063c4ed266214610198578063c71f8d67146101c2578063c7e5b0a414610198578063d1a294c4146101665763f851a4401461013a575f80fd5b34610162575f36600319011261016257600a546040516001600160a01b039091168152602090f35b5f80fd5b34610162576020366003190112610162576004355f526004602052602060018060a01b0360405f205416604051908152f35b34610162576020366003190112610162576004355f526002602052602060405f2054604051908152f35b34610162576020366003190112610162576004355f526005602052602060018060a01b0360405f205416604051908152f35b34610162575f366003190112610162576040517f00000000000000000000000000000000000000000000000000000000000000006001600160a01b03168152602090f35b3461016257604036600319011261016257610251610afb565b610259610b11565b9061026f60018060a01b03600a54163314610ba3565b6001600160a01b03169081156102b3576001600160a01b03169081156102b3575f80546001600160a01b031990811692909217905560018054909116919091179055005b6316c6875160e31b5f525f60045260245ffd5b34610162575f366003190112610162576009546040516001600160a01b039091168152602090f35b34610162575f366003190112610162576040517f00000000000000000000000000000000000000000000000000000000000000006001600160a01b03168152602090f35b346101625760203660031901126101625761034b610afb565b61036060018060a01b03600a54163314610ba3565b6001600160a01b031680156102b357600980546001600160a01b031916919091179055005b34610162576080366003190112610162576004356103a1610b11565b6044356001600160a01b0381168103610162576103c960018060a01b03600a54163314610ba3565b5f83815260046020908152604080832080546001600160a01b039687166001600160a01b0319918216811790925560058452828520805496909716951694909417909455918152600682528281208490559283526007905290206064359055005b34610162575f366003190112610162576020600854604051908152f35b34610162576020366003190112610162576004356001600160401b038111610162576104796020913690600401610a7a565b90809291810103126101625760209035604051908152f35b3461016257602036600319011261016257604051632c2cb9fd60e01b8152600480359082018190527f00000000000000000000000000000000000000000000000000000000000000006001600160a01b031690602083602481855afa9283156105d3575f93610620575b50602090602460405180948193632726b07360e01b835260048301525afa9081156105d3575f916105de575b50604080516309092f9760e21b815260048101939093526001600160a01b03918216602484015290829060449082907f0000000000000000000000000000000000000000000000000000000000000000165afa80156105d3575f905f90610599575b6040809350519182526020820152f35b50506040813d6040116105cb575b816105b460409383610b27565b810103126101625780602060409251910151610589565b3d91506105a7565b6040513d5f823e3d90fd5b90506020813d602011610618575b816105f960209383610b27565b8101031261016257516001600160a01b03811681036101625782610527565b3d91506105ec565b9092506020813d60201161064d575b8161063c60209383610b27565b8101031261016257519160206104fb565b3d915061062f565b34610162576020366003190112610162576004355f526003602052602060405f2054604051908152f35b34610162576020366003190112610162576004356001600160401b038111610162576106af903690600401610a7a565b8101604082820312610162576020820135906001600160401b038211610162576106da918301610bdb565b906106eb6040519283923583610acb565b0390f35b34610162576020366003190112610162576004355f526007602052602060405f2054604051908152f35b34610162576020366003190112610162576001600160a01b0361073a610afb565b165f526006602052602060405f2054604051908152f35b346101625760203660031901126101625761077760018060a01b03600a54163314610ba3565b600435600855005b34610162575f366003190112610162576040517f00000000000000000000000000000000000000000000000000000000000000006001600160a01b03168152602090f35b346101625760e0366003190112610162576024356001600160401b038111610162576107f3903690600401610a7a565b50506044356001600160401b03811161016257610814903690600401610a7a565b6064356001600160401b03811161016257610833903690600401610a7a565b91909261083e610ae5565b507f00000000000000000000000000000000000000000000000000000000000000006001600160a01b0316330361090a5761087a913691610b5e565b50810190602081830312610162578035906001600160401b038211610162577fc0eed5984bdb689e25fdb017908ddf0f88d31e3e49039a8fe3efc63c760fe708926108dd926108c99201610bdb565b604051918291602083526020830190610aa7565b0390a160206040517fe84001f3dedacf7f9ddc370e9f09c26b37473e9e959ffdc4925f6fe33c9877e48152f35b630d6c7be960e01b5f523360045260245ffd5b34610162576020366003190112610162576004356001600160401b0381116101625761094c3682600401610a7a565b604081106109b6576024359160208301918284116109a257602084600401358501018093116109a257821161016257610992923692819003601f19019101602001610b5e565b906106eb60405192839283610acb565b634e487b7160e01b5f52601160045260245ffd5b60405162461bcd60e51b815260206004820152600e60248201526d11185d18481d1bdbc81cda1bdc9d60921b6044820152606490fd5b34610162575f366003190112610162576001546040516001600160a01b039091168152602090f35b34610162575f366003190112610162576040517f00000000000000000000000000000000000000000000000000000000000000006001600160a01b03168152602090f35b34610162575f366003190112610162575f546001600160a01b03168152602090f35b9181601f84011215610162578235916001600160401b038311610162576020838186019501011161016257565b805180835260209291819084018484015e5f828201840152601f01601f1916010190565b604090610ae2939281528160208201520190610aa7565b90565b60a435906001600160a01b038216820361016257565b600435906001600160a01b038216820361016257565b602435906001600160a01b038216820361016257565b601f909101601f19168101906001600160401b03821190821017610b4a57604052565b634e487b7160e01b5f52604160045260245ffd5b9192916001600160401b038211610b4a5760405191610b87601f8201601f191660200184610b27565b829481845281830111610162578281602093845f960137010152565b15610baa57565b60405162461bcd60e51b81526020600482015260096024820152683737ba16b0b236b4b760b91b6044820152606490fd5b9080601f8301121561016257816020610ae293359101610b5e56fea2646970667358221220b3b0aa079c1d98024c1ce757e0873dbe02519ec5a9727f2e2f88b7023f4be63964736f6c634300081e0033000000000000000000000000b5fb4be02232b1bba4dc8f81dc24c26980de9e3c000000000000000000000000ad8719b84d1260000000000000000000000000000000000000000000000000009e8860db73d093464ee2b5a1fe6f63b09f70e8c10000000000000000000000006ea452dc1105607ec1ab84c643369dd3356cc251",
        "nonce": "0x157",
        "chainId": "0x161c28"
      },
      "additionalContracts": [],
      "isFixedGasLimit": false
    },
    {
      "hash": "0xfa0d1605dfeeb696e1a4fc3cfee1fac831b96a12759ea15a171082bdd945d367",
      "transactionType": "CALL",
      "contractName": "Controller",
      "contractAddress": "0x906a7783db590cbeca1a5767ad3fccf44317ebd7",
      "function": "setDaiTokenId(bytes32)",
      "arguments": [
        "0x8888888888888888888888888888888888888888888888888888888888888888"
      ],
      "transaction": {
        "from": "0x8866438f9348f33516040d38a0113531bc9e7e1d",
        "to": "0x906a7783db590cbeca1a5767ad3fccf44317ebd7",
        "value": "0x0",
        "input": "0x4e1c756e8888888888888888888888888888888888888888888888888888888888888888",
        "nonce": "0x158",
        "chainId": "0x161c28"
      },
      "additionalContracts": [],
      "isFixedGasLimit": false
    },
    {
      "hash": "0x20f669e31e839426b59b17773de904a86787c1a67cce31301884559e07b247a3",
      "transactionType": "CALL",
      "contractName": "Controller",
      "contractAddress": "0x906a7783db590cbeca1a5767ad3fccf44317ebd7",
      "function": "setDaiToken(address)",
      "arguments": [
        "0xB6202dd8D51598C18E1E277093B7468F943CD9fB"
      ],
      "transaction": {
        "from": "0x8866438f9348f33516040d38a0113531bc9e7e1d",
        "to": "0x906a7783db590cbeca1a5767ad3fccf44317ebd7",
        "value": "0x0",
        "input": "0xacee2871000000000000000000000000b6202dd8d51598c18e1e277093b7468f943cd9fb",
        "nonce": "0x159",
        "chainId": "0x161c28"
      },
      "additionalContracts": [],
      "isFixedGasLimit": false
    },
    {
      "hash": "0x09b249ab23d1a06aab07edb1ce955b57f64f50a826e88b1c95cb314fd1fa6b0f",
      "transactionType": "CALL",
      "contractName": "Controller",
      "contractAddress": "0x906a7783db590cbeca1a5767ad3fccf44317ebd7",
      "function": "setPsm(address,address)",
      "arguments": [
        "0xfc18ab74D3a04A730B767AAB241CE5A451dfCB1d",
        "0xE26D509C661c4F16FaFfBB1eAce1Fa1CdA8cc146"
      ],
      "transaction": {
        "from": "0x8866438f9348f33516040d38a0113531bc9e7e1d",
        "to": "0x906a7783db590cbeca1a5767ad3fccf44317ebd7",
        "value": "0x0",
        "input": "0xbf0dfcab000000000000000000000000fc18ab74d3a04a730b767aab241ce5a451dfcb1d000000000000000000000000e26d509c661c4f16faffbb1eace1fa1cda8cc146",
        "nonce": "0x15a",
        "chainId": "0x161c28"
      },
      "additionalContracts": [],
      "isFixedGasLimit": false
    },
    {
      "hash": "0xa0a6ab9d60eae6056c10c6df70dd8fdb54201dc09eef0cd0b1d7846e6e8f5ce9",
      "transactionType": "CALL",
      "contractName": "Controller",
      "contractAddress": "0x906a7783db590cbeca1a5767ad3fccf44317ebd7",
      "function": "setCollateralConfig(bytes32,address,address,bytes32)",
      "arguments": [
        "0x5852502d41000000000000000000000000000000000000000000000000000000",
        "0xEeeeeEeeeEeEeeEeEeEeeEEEeeeeEeeeeeeeEEeE",
        "0x3d22179f2578E9374791D2B825806e278eC14A7C",
        "0xba5a21ca88ef6bba2bfff5088994f90e1077e2a1cc3dcc38bd261f00fce2824f"
      ],
      "transaction": {
        "from": "0x8866438f9348f33516040d38a0113531bc9e7e1d",
        "to": "0x906a7783db590cbeca1a5767ad3fccf44317ebd7",
        "value": "0x0",
        "input": "0xa6bf15be5852502d41000000000000000000000000000000000000000000000000000000000000000000000000000000eeeeeeeeeeeeeeeeeeeeeeeeeeeeeeeeeeeeeeee0000000000000000000000003d22179f2578e9374791d2b825806e278ec14a7cba5a21ca88ef6bba2bfff5088994f90e1077e2a1cc3dcc38bd261f00fce2824f",
        "nonce": "0x15b",
        "chainId": "0x161c28"
      },
      "additionalContracts": [],
      "isFixedGasLimit": false
    },
    {
      "hash": "0xb799d87ed8aedab4e6aad58dd30f6fa46401e57633db786fa3019637753f2786",
      "transactionType": "CALL",
      "contractName": "Controller",
      "contractAddress": "0x906a7783db590cbeca1a5767ad3fccf44317ebd7",
      "function": "setCollateralConfig(bytes32,address,address,bytes32)",
      "arguments": [
        "0x555344432d410000000000000000000000000000000000000000000000000000",
        "0xE26D509C661c4F16FaFfBB1eAce1Fa1CdA8cc146",
        "0x43f5e030811411151f709A0796492EEFC34009A0",
        "0xc8895f8ceb0cae9da15bb9d2bc5859a184ca0f61c88560488355c8a7364deef8"
      ],
      "transaction": {
        "from": "0x8866438f9348f33516040d38a0113531bc9e7e1d",
        "to": "0x906a7783db590cbeca1a5767ad3fccf44317ebd7",
        "value": "0x0",
        "input": "0xa6bf15be555344432d410000000000000000000000000000000000000000000000000000000000000000000000000000e26d509c661c4f16faffbb1eace1fa1cda8cc14600000000000000000000000043f5e030811411151f709a0796492eefc34009a0c8895f8ceb0cae9da15bb9d2bc5859a184ca0f61c88560488355c8a7364deef8",
        "nonce": "0x15c",
        "chainId": "0x161c28"
      },
      "additionalContracts": [],
      "isFixedGasLimit": false
    }
  ],
  "receipts": [
    {
      "status": "0x1",
      "cumulativeGasUsed": "0xbe944",
      "logs": [],
      "logsBloom": "0x00000000000000000000000000000000000000000000000000000000000000000000000000000000000000000000000000000000000000000000000000000000000000000000000000000000000000000000000000000000000000000000000000000000000000000000000000000000000000000000000000000000000000000000000000000000000000000000000000000000000000000000000000000000000000000000000000000000000000000000000000000000000000000000000000000000000000000000000000000000000000000000000000000000000000000000000000000000000000000000000000000000000000000000000000000000",
      "type": "0x2",
      "transactionHash": "0x08794df3febd96bd79cf0ccbabe83798375866094b4adbf492deb946b123f290",
      "transactionIndex": "0x0",
      "blockHash": "0xbbb373f19b92fae0201bef50d5e56383ee1345f9365828480d4065e331b59bb1",
      "blockNumber": "0x33e05a",
      "gasUsed": "0xbe944",
      "effectiveGasPrice": "0x4cd5886400",
      "from": "0x8866438f9348f33516040d38a0113531bc9e7e1d",
      "to": null,
      "contractAddress": "0x906a7783db590cbeca1a5767ad3fccf44317ebd7"
    },
    {
      "status": "0x1",
      "cumulativeGasUsed": "0x1063f",
      "logs": [],
      "logsBloom": "0x00000000000000000000000000000000000000000000000000000000000000000000000000000000000000000000000000000000000000000000000000000000000000000000000000000000000000000000000000000000000000000000000000000000000000000000000000000000000000000000000000000000000000000000000000000000000000000000000000000000000000000000000000000000000000000000000000000000000000000000000000000000000000000000000000000000000000000000000000000000000000000000000000000000000000000000000000000000000000000000000000000000000000000000000000000000",
      "type": "0x2",
      "transactionHash": "0xfa0d1605dfeeb696e1a4fc3cfee1fac831b96a12759ea15a171082bdd945d367",
      "transactionIndex": "0x1",
      "blockHash": "0x4cc7bfb0bdfb0b9b1f01b45d0c8fa99c0533954abce243ff446750dd6cd77337",
      "blockNumber": "0x33e05b",
      "gasUsed": "0xb437",
      "effectiveGasPrice": "0x4cd5886400",
      "from": "0x8866438f9348f33516040d38a0113531bc9e7e1d",
      "to": "0x906a7783db590cbeca1a5767ad3fccf44317ebd7",
      "contractAddress": null
    },
    {
      "status": "0x1",
      "cumulativeGasUsed": "0x8561c",
      "logs": [],
      "logsBloom": "0x00000000000000000000000000000000000000000000000000000000000000000000000000000000000000000000000000000000000000000000000000000000000000000000000000000000000000000000000000000000000000000000000000000000000000000000000000000000000000000000000000000000000000000000000000000000000000000000000000000000000000000000000000000000000000000000000000000000000000000000000000000000000000000000000000000000000000000000000000000000000000000000000000000000000000000000000000000000000000000000000000000000000000000000000000000000",
      "type": "0x2",
      "transactionHash": "0x20f669e31e839426b59b17773de904a86787c1a67cce31301884559e07b247a3",
      "transactionIndex": "0x5",
      "blockHash": "0x881c586391e667dba56860354ff5c27e3deb172a2e801cebb0c3da902c333c0d",
      "blockNumber": "0x33e05c",
      "gasUsed": "0xb4fc",
      "effectiveGasPrice": "0x4cd5886400",
      "from": "0x8866438f9348f33516040d38a0113531bc9e7e1d",
      "to": "0x906a7783db590cbeca1a5767ad3fccf44317ebd7",
      "contractAddress": null
    },
    {
      "status": "0x1",
      "cumulativeGasUsed": "0x10d9c",
      "logs": [],
      "logsBloom": "0x00000000000000000000000000000000000000000000000000000000000000000000000000000000000000000000000000000000000000000000000000000000000000000000000000000000000000000000000000000000000000000000000000000000000000000000000000000000000000000000000000000000000000000000000000000000000000000000000000000000000000000000000000000000000000000000000000000000000000000000000000000000000000000000000000000000000000000000000000000000000000000000000000000000000000000000000000000000000000000000000000000000000000000000000000000000",
      "type": "0x2",
      "transactionHash": "0x09b249ab23d1a06aab07edb1ce955b57f64f50a826e88b1c95cb314fd1fa6b0f",
      "transactionIndex": "0x0",
      "blockHash": "0xad79c6f5f64af47796068e034959620aaf019a72f649f17c3d4680d932cc0966",
      "blockNumber": "0x33e05d",
      "gasUsed": "0x10d9c",
      "effectiveGasPrice": "0x4cd5886400",
      "from": "0x8866438f9348f33516040d38a0113531bc9e7e1d",
      "to": "0x906a7783db590cbeca1a5767ad3fccf44317ebd7",
      "contractAddress": null
    },
    {
      "status": "0x1",
      "cumulativeGasUsed": "0x95e86",
      "logs": [],
      "logsBloom": "0x00000000000000000000000000000000000000000000000000000000000000000000000000000000000000000000000000000000000000000000000000000000000000000000000000000000000000000000000000000000000000000000000000000000000000000000000000000000000000000000000000000000000000000000000000000000000000000000000000000000000000000000000000000000000000000000000000000000000000000000000000000000000000000000000000000000000000000000000000000000000000000000000000000000000000000000000000000000000000000000000000000000000000000000000000000000",
      "type": "0x2",
      "transactionHash": "0xa0a6ab9d60eae6056c10c6df70dd8fdb54201dc09eef0cd0b1d7846e6e8f5ce9",
      "transactionIndex": "0x5",
      "blockHash": "0xf804a00637861e55f16383e0462440a4516e272679e020a2e57f06fe663a74d2",
      "blockNumber": "0x33e05e",
      "gasUsed": "0x1bd66",
      "effectiveGasPrice": "0x4cd5886400",
      "from": "0x8866438f9348f33516040d38a0113531bc9e7e1d",
      "to": "0x906a7783db590cbeca1a5767ad3fccf44317ebd7",
      "contractAddress": null
    },
    {
      "status": "0x1",
      "cumulativeGasUsed": "0x90147",
      "logs": [],
      "logsBloom": "0x00000000000000000000000000000000000000000000000000000000000000000000000000000000000000000000000000000000000000000000000000000000000000000000000000000000000000000000000000000000000000000000000000000000000000000000000000000000000000000000000000000000000000000000000000000000000000000000000000000000000000000000000000000000000000000000000000000000000000000000000000000000000000000000000000000000000000000000000000000000000000000000000000000000000000000000000000000000000000000000000000000000000000000000000000000000",
      "type": "0x2",
      "transactionHash": "0xb799d87ed8aedab4e6aad58dd30f6fa46401e57633db786fa3019637753f2786",
      "transactionIndex": "0x2",
      "blockHash": "0xd17b5960b179165691c90d59f540ef7f00100f3c256e20be63d315080e6113a5",
      "blockNumber": "0x33e05f",
      "gasUsed": "0x1bd7e",
      "effectiveGasPrice": "0x4cd5886400",
      "from": "0x8866438f9348f33516040d38a0113531bc9e7e1d",
      "to": "0x906a7783db590cbeca1a5767ad3fccf44317ebd7",
      "contractAddress": null
    }
  ],
  "libraries": [],
  "pending": [],
  "returns": {},
  "timestamp": 1759309849873,
  "chain": 1449000,
  "commit": "91aff73"
}