{
  "transactions": [
    {
      "hash": "0xbe5618c1833557eabbbe6139ed8ca2620887bd5e3606b3838590abedb6b7831f",
      "transactionType": "CREATE",
      "contractName": "Controller",
      "contractAddress": "0xd7ad5f8154cd0b5b1e84f7aaa116184f597336b2",
      "function": null,
      "arguments": [
        "0xB5FB4BE02232B1bBA4dC8f81dc24C26980dE9e3C",
        "0xAd8719B84d126000000000000000000000000000",
        "0x9E8860db73D093464ee2B5a1Fe6F63B09F70e8C1",
        "0x6Ea452dC1105607eC1AB84c643369Dd3356cc251"
      ],
      "transaction": {
        "from": "0x8866438f9348f33516040d38a0113531bc9e7e1d",
        "value": "0x0",
        "input": "0x610100806040523461014057608081610ca780380380916100208285610157565b833981010312610140576100338161018e565b906100406020820161018e565b61005860606100516040850161018e565b930161018e565b6080939093526001600160a01b0316908115610144576001600160a01b0316918215610144576001600160a01b031680156101445760a082905260c083905260e052600a80546001600160a01b03191633179055813b15610140575f916024839260405194859384926328ec8bf160e21b845260048401525af1801561013557610125575b604051610b0490816101a38239608051818181610766015261095a015260a0518181816102e20152610450015260c0518181816104ed01526106b9015260e051816101e80152f35b5f61012f91610157565b5f6100dd565b6040513d5f823e3d90fd5b5f80fd5b6316c6875160e31b5f525f60045260245ffd5b601f909101601f19168101906001600160401b0382119082101761017a57604052565b634e487b7160e01b5f52604160045260245ffd5b51906001600160a01b03821682036101405756fe6080806040526004361015610012575f80fd5b5f3560e01c90816304bda262146109895750806309c6bed91461094557806311eac8551461091d57806329241502146106e857806336569e77146106a45780634cbab1f1146105ea5780634e1c756e14610676578063541341661461063e5780635dfc9d7b146106145780637aa2dbc1146105ea5780638019a78614610426578063a2f8f05714610409578063a6bf15be14610364578063acee287114610311578063bb038e15146102cd578063be22f546146102a5578063bf0dfcab14610217578063c11645bc146101d3578063c4ed266214610177578063c71f8d67146101a1578063c7e5b0a414610177578063d1a294c4146101455763f851a44014610119575f80fd5b34610141575f36600319011261014157600a546040516001600160a01b039091168152602090f35b5f80fd5b34610141576020366003190112610141576004355f526004602052602060018060a01b0360405f205416604051908152f35b34610141576020366003190112610141576004355f526002602052602060405f2054604051908152f35b34610141576020366003190112610141576004355f526005602052602060018060a01b0360405f205416604051908152f35b34610141575f366003190112610141576040517f00000000000000000000000000000000000000000000000000000000000000006001600160a01b03168152602090f35b34610141576040366003190112610141576102306109ee565b610238610a04565b9061024e60018060a01b03600a54163314610a1a565b6001600160a01b0316908115610292576001600160a01b0316908115610292575f80546001600160a01b031990811692909217905560018054909116919091179055005b6316c6875160e31b5f525f60045260245ffd5b34610141575f366003190112610141576009546040516001600160a01b039091168152602090f35b34610141575f366003190112610141576040517f00000000000000000000000000000000000000000000000000000000000000006001600160a01b03168152602090f35b346101415760203660031901126101415761032a6109ee565b61033f60018060a01b03600a54163314610a1a565b6001600160a01b0316801561029257600980546001600160a01b031916919091179055005b3461014157608036600319011261014157600435610380610a04565b6044356001600160a01b0381168103610141576103a860018060a01b03600a54163314610a1a565b5f83815260046020908152604080832080546001600160a01b039687166001600160a01b0319918216811790925560058452828520805496909716951694909417909455918152600682528281208490559283526007905290206064359055005b34610141575f366003190112610141576020600854604051908152f35b3461014157602036600319011261014157604051632c2cb9fd60e01b8152600480359082018190527f00000000000000000000000000000000000000000000000000000000000000006001600160a01b031690602083602481855afa928315610568575f936105b5575b50602090602460405180948193632726b07360e01b835260048301525afa908115610568575f91610573575b50604080516309092f9760e21b815260048101939093526001600160a01b03918216602484015290829060449082907f0000000000000000000000000000000000000000000000000000000000000000165afa8015610568575f905f9061052e575b6040809350519182526020820152f35b50506040813d604011610560575b8161054960409383610a52565b81010312610141578060206040925191015161051e565b3d915061053c565b6040513d5f823e3d90fd5b90506020813d6020116105ad575b8161058e60209383610a52565b8101031261014157516001600160a01b038116810361014157826104bc565b3d9150610581565b9092506020813d6020116105e2575b816105d160209383610a52565b810103126101415751916020610490565b3d91506105c4565b34610141576020366003190112610141576004355f526003602052602060405f2054604051908152f35b34610141576020366003190112610141576004355f526007602052602060405f2054604051908152f35b34610141576020366003190112610141576001600160a01b0361065f6109ee565b165f526006602052602060405f2054604051908152f35b346101415760203660031901126101415761069c60018060a01b03600a54163314610a1a565b600435600855005b34610141575f366003190112610141576040517f00000000000000000000000000000000000000000000000000000000000000006001600160a01b03168152602090f35b346101415760e0366003190112610141576024356001600160401b038111610141576107189036906004016109ab565b906044356001600160401b038111610141576107389036906004016109ab565b906064356001600160401b038111610141576107589036906004016109ab565b9290946107636109d8565b507f00000000000000000000000000000000000000000000000000000000000000006001600160a01b0316330361090a576040516020810190828783376107bd6020828581015f838201520301601f198101835282610a52565b51902094604095602087516107d28982610a52565b6004815201631e1c9c1b60e21b8152875160046020820192835e5f602482015260048152610801602482610a52565b519020036108d157505090610817913691610a89565b5082019181818403126101415760208101356001600160401b0381116101415781019083601f8301121561014157606061087960209584877f930feecf69ea1a2d105172abbb9a8fa39391d176a2d80882b6e5489b8882ade396359101610a89565b91858551938492358352868284015280519182918289860152018484015e5f828201840152601f01601f19168101030190a1517fe84001f3dedacf7f9ddc370e9f09c26b37473e9e959ffdc4925f6fe33c9877e48152f35b604490828751938492635a1983b760e01b845260206004850152816024850152848401375f828201840152601f01601f19168101030190fd5b630d6c7be960e01b5f523360045260245ffd5b34610141575f366003190112610141576001546040516001600160a01b039091168152602090f35b34610141575f366003190112610141576040517f00000000000000000000000000000000000000000000000000000000000000006001600160a01b03168152602090f35b34610141575f366003190112610141575f546001600160a01b03168152602090f35b9181601f84011215610141578235916001600160401b038311610141576020838186019501011161014157565b60a435906001600160a01b038216820361014157565b600435906001600160a01b038216820361014157565b602435906001600160a01b038216820361014157565b15610a2157565b60405162461bcd60e51b81526020600482015260096024820152683737ba16b0b236b4b760b91b6044820152606490fd5b601f909101601f19168101906001600160401b03821190821017610a7557604052565b634e487b7160e01b5f52604160045260245ffd5b9192916001600160401b038211610a755760405191610ab2601f8201601f191660200184610a52565b829481845281830111610141578281602093845f96013701015256fea2646970667358221220c6e5f261a4c7590836f625687a0875fa581ee27cac206c139ceb0b6175d8acde64736f6c634300081e0033000000000000000000000000b5fb4be02232b1bba4dc8f81dc24c26980de9e3c000000000000000000000000ad8719b84d1260000000000000000000000000000000000000000000000000009e8860db73d093464ee2b5a1fe6f63b09f70e8c10000000000000000000000006ea452dc1105607ec1ab84c643369dd3356cc251",
        "nonce": "0x103",
        "chainId": "0x161c28"
      },
      "additionalContracts": [],
      "isFixedGasLimit": false
    },
    {
      "hash": "0x99c7a1598a6ba3e8d161213e3d2aa871b3bb71409b4fbffddd3522c079c62ea8",
      "transactionType": "CALL",
      "contractName": "Controller",
      "contractAddress": "0xd7ad5f8154cd0b5b1e84f7aaa116184f597336b2",
      "function": "setDaiTokenId(bytes32)",
      "arguments": [
        "0x8888888888888888888888888888888888888888888888888888888888888888"
      ],
      "transaction": {
        "from": "0x8866438f9348f33516040d38a0113531bc9e7e1d",
        "to": "0xd7ad5f8154cd0b5b1e84f7aaa116184f597336b2",
        "value": "0x0",
        "input": "0x4e1c756e8888888888888888888888888888888888888888888888888888888888888888",
        "nonce": "0x104",
        "chainId": "0x161c28"
      },
      "additionalContracts": [],
      "isFixedGasLimit": false
    },
    {
      "hash": "0xb7680035fc6e50484141c588788667b95acde2cac90f263629f516b768f38393",
      "transactionType": "CALL",
      "contractName": "Controller",
      "contractAddress": "0xd7ad5f8154cd0b5b1e84f7aaa116184f597336b2",
      "function": "setDaiToken(address)",
      "arguments": [
        "0xB6202dd8D51598C18E1E277093B7468F943CD9fB"
      ],
      "transaction": {
        "from": "0x8866438f9348f33516040d38a0113531bc9e7e1d",
        "to": "0xd7ad5f8154cd0b5b1e84f7aaa116184f597336b2",
        "value": "0x0",
        "input": "0xacee2871000000000000000000000000b6202dd8d51598c18e1e277093b7468f943cd9fb",
        "nonce": "0x105",
        "chainId": "0x161c28"
      },
      "additionalContracts": [],
      "isFixedGasLimit": false
    },
    {
      "hash": "0x4500f298b68d4be08a5e4264932ce76afe657b291c0f7994c6d18084eaf71e0d",
      "transactionType": "CALL",
      "contractName": "Controller",
      "contractAddress": "0xd7ad5f8154cd0b5b1e84f7aaa116184f597336b2",
      "function": "setPsm(address,address)",
      "arguments": [
        "0xfc18ab74D3a04A730B767AAB241CE5A451dfCB1d",
        "0xE26D509C661c4F16FaFfBB1eAce1Fa1CdA8cc146"
      ],
      "transaction": {
        "from": "0x8866438f9348f33516040d38a0113531bc9e7e1d",
        "to": "0xd7ad5f8154cd0b5b1e84f7aaa116184f597336b2",
        "value": "0x0",
        "input": "0xbf0dfcab000000000000000000000000fc18ab74d3a04a730b767aab241ce5a451dfcb1d000000000000000000000000e26d509c661c4f16faffbb1eace1fa1cda8cc146",
        "nonce": "0x106",
        "chainId": "0x161c28"
      },
      "additionalContracts": [],
      "isFixedGasLimit": false
    },
    {
      "hash": "0x29bab985e0a2af8f5aede9bc1df65f553bdd952398f64d7a98c3de6ff1ce708d",
      "transactionType": "CALL",
      "contractName": "Controller",
      "contractAddress": "0xd7ad5f8154cd0b5b1e84f7aaa116184f597336b2",
      "function": "setCollateralConfig(bytes32,address,address,bytes32)",
      "arguments": [
        "0x5852502d41000000000000000000000000000000000000000000000000000000",
        "0xEeeeeEeeeEeEeeEeEeEeeEEEeeeeEeeeeeeeEEeE",
        "0x3d22179f2578E9374791D2B825806e278eC14A7C",
        "0xba5a21ca88ef6bba2bfff5088994f90e1077e2a1cc3dcc38bd261f00fce2824f"
      ],
      "transaction": {
        "from": "0x8866438f9348f33516040d38a0113531bc9e7e1d",
        "to": "0xd7ad5f8154cd0b5b1e84f7aaa116184f597336b2",
        "value": "0x0",
        "input": "0xa6bf15be5852502d41000000000000000000000000000000000000000000000000000000000000000000000000000000eeeeeeeeeeeeeeeeeeeeeeeeeeeeeeeeeeeeeeee0000000000000000000000003d22179f2578e9374791d2b825806e278ec14a7cba5a21ca88ef6bba2bfff5088994f90e1077e2a1cc3dcc38bd261f00fce2824f",
        "nonce": "0x107",
        "chainId": "0x161c28"
      },
      "additionalContracts": [],
      "isFixedGasLimit": false
    },
    {
      "hash": "0x100e82c728404e6bfabfb4abb7562275333d0bba729fd7130acdbf12734e03b9",
      "transactionType": "CALL",
      "contractName": "Controller",
      "contractAddress": "0xd7ad5f8154cd0b5b1e84f7aaa116184f597336b2",
      "function": "setCollateralConfig(bytes32,address,address,bytes32)",
      "arguments": [
        "0x555344432d410000000000000000000000000000000000000000000000000000",
        "0xE26D509C661c4F16FaFfBB1eAce1Fa1CdA8cc146",
        "0x43f5e030811411151f709A0796492EEFC34009A0",
        "0xc8895f8ceb0cae9da15bb9d2bc5859a184ca0f61c88560488355c8a7364deef8"
      ],
      "transaction": {
        "from": "0x8866438f9348f33516040d38a0113531bc9e7e1d",
        "to": "0xd7ad5f8154cd0b5b1e84f7aaa116184f597336b2",
        "value": "0x0",
        "input": "0xa6bf15be555344432d410000000000000000000000000000000000000000000000000000000000000000000000000000e26d509c661c4f16faffbb1eace1fa1cda8cc14600000000000000000000000043f5e030811411151f709a0796492eefc34009a0c8895f8ceb0cae9da15bb9d2bc5859a184ca0f61c88560488355c8a7364deef8",
        "nonce": "0x108",
        "chainId": "0x161c28"
      },
      "additionalContracts": [],
      "isFixedGasLimit": false
    }
  ],
  "receipts": [
    {
      "status": "0x1",
      "cumulativeGasUsed": "0xaef4a",
      "logs": [],
      "logsBloom": "0x00000000000000000000000000000000000000000000000000000000000000000000000000000000000000000000000000000000000000000000000000000000000000000000000000000000000000000000000000000000000000000000000000000000000000000000000000000000000000000000000000000000000000000000000000000000000000000000000000000000000000000000000000000000000000000000000000000000000000000000000000000000000000000000000000000000000000000000000000000000000000000000000000000000000000000000000000000000000000000000000000000000000000000000000000000000",
      "type": "0x2",
      "transactionHash": "0xbe5618c1833557eabbbe6139ed8ca2620887bd5e3606b3838590abedb6b7831f",
      "transactionIndex": "0x0",
      "blockHash": "0xc551a8a919d17b102376dd6b32d88bf7d750956b8f23c4bf895f2a6c37b8378d",
      "blockNumber": "0x33d972",
      "gasUsed": "0xaef4a",
      "effectiveGasPrice": "0x4cd5886400",
      "from": "0x8866438f9348f33516040d38a0113531bc9e7e1d",
      "to": null,
      "contractAddress": "0xd7ad5f8154cd0b5b1e84f7aaa116184f597336b2"
    },
    {
      "status": "0x1",
      "cumulativeGasUsed": "0xb421",
      "logs": [],
      "logsBloom": "0x00000000000000000000000000000000000000000000000000000000000000000000000000000000000000000000000000000000000000000000000000000000000000000000000000000000000000000000000000000000000000000000000000000000000000000000000000000000000000000000000000000000000000000000000000000000000000000000000000000000000000000000000000000000000000000000000000000000000000000000000000000000000000000000000000000000000000000000000000000000000000000000000000000000000000000000000000000000000000000000000000000000000000000000000000000000",
      "type": "0x2",
      "transactionHash": "0x99c7a1598a6ba3e8d161213e3d2aa871b3bb71409b4fbffddd3522c079c62ea8",
      "transactionIndex": "0x0",
      "blockHash": "0x0eca0b451f6736eef04a83a22caf5d07857c7fd08167fbc6211c08ee7b62f9a8",
      "blockNumber": "0x33d973",
      "gasUsed": "0xb421",
      "effectiveGasPrice": "0x4cd5886400",
      "from": "0x8866438f9348f33516040d38a0113531bc9e7e1d",
      "to": "0xd7ad5f8154cd0b5b1e84f7aaa116184f597336b2",
      "contractAddress": null
    },
    {
      "status": "0x1",
      "cumulativeGasUsed": "0x4372a",
      "logs": [],
      "logsBloom": "0x00000000000000000000000000000000000000000000000000000000000000000000000000000000000000000000000000000000000000000000000000000000000000000000000000000000000000000000000000000000000000000000000000000000000000000000000000000000000000000000000000000000000000000000000000000000000000000000000000000000000000000000000000000000000000000000000000000000000000000000000000000000000000000000000000000000000000000000000000000000000000000000000000000000000000000000000000000000000000000000000000000000000000000000000000000000",
      "type": "0x2",
      "transactionHash": "0xb7680035fc6e50484141c588788667b95acde2cac90f263629f516b768f38393",
      "transactionIndex": "0x5",
      "blockHash": "0x6a810e88e8ae04f3c0a0b204998fa8b591a71b34781012d51915fa2936552733",
      "blockNumber": "0x33d974",
      "gasUsed": "0xb4ba",
      "effectiveGasPrice": "0x4cd5886400",
      "from": "0x8866438f9348f33516040d38a0113531bc9e7e1d",
      "to": "0xd7ad5f8154cd0b5b1e84f7aaa116184f597336b2",
      "contractAddress": null
    },
    {
      "status": "0x1",
      "cumulativeGasUsed": "0x3881e",
      "logs": [],
      "logsBloom": "0x00000000000000000000000000000000000000000000000000000000000000000000000000000000000000000000000000000000000000000000000000000000000000000000000000000000000000000000000000000000000000000000000000000000000000000000000000000000000000000000000000000000000000000000000000000000000000000000000000000000000000000000000000000000000000000000000000000000000000000000000000000000000000000000000000000000000000000000000000000000000000000000000000000000000000000000000000000000000000000000000000000000000000000000000000000000",
      "type": "0x2",
      "transactionHash": "0x4500f298b68d4be08a5e4264932ce76afe657b291c0f7994c6d18084eaf71e0d",
      "transactionIndex": "0x5",
      "blockHash": "0xf7da1513b8e69f56cc56436612262e96552eef2726a228ccd2052fa6f130a596",
      "blockNumber": "0x33d975",
      "gasUsed": "0x10d5a",
      "effectiveGasPrice": "0x4cd5886400",
      "from": "0x8866438f9348f33516040d38a0113531bc9e7e1d",
      "to": "0xd7ad5f8154cd0b5b1e84f7aaa116184f597336b2",
      "contractAddress": null
    },
    {
      "status": "0x1",
      "cumulativeGasUsed": "0x95e44",
      "logs": [],
      "logsBloom": "0x00000000000000000000000000000000000000000000000000000000000000000000000000000000000000000000000000000000000000000000000000000000000000000000000000000000000000000000000000000000000000000000000000000000000000000000000000000000000000000000000000000000000000000000000000000000000000000000000000000000000000000000000000000000000000000000000000000000000000000000000000000000000000000000000000000000000000000000000000000000000000000000000000000000000000000000000000000000000000000000000000000000000000000000000000000000",
      "type": "0x2",
      "transactionHash": "0x29bab985e0a2af8f5aede9bc1df65f553bdd952398f64d7a98c3de6ff1ce708d",
      "transactionIndex": "0x5",
      "blockHash": "0xd8ec5ed1b8a827b50d981d503a81152c4c059078ca7e59853a332934c3598876",
      "blockNumber": "0x33d976",
      "gasUsed": "0x1bd24",
      "effectiveGasPrice": "0x4cd5886400",
      "from": "0x8866438f9348f33516040d38a0113531bc9e7e1d",
      "to": "0xd7ad5f8154cd0b5b1e84f7aaa116184f597336b2",
      "contractAddress": null
    },
    {
      "status": "0x1",
      "cumulativeGasUsed": "0x1bd3c",
      "logs": [],
      "logsBloom": "0x00000000000000000000000000000000000000000000000000000000000000000000000000000000000000000000000000000000000000000000000000000000000000000000000000000000000000000000000000000000000000000000000000000000000000000000000000000000000000000000000000000000000000000000000000000000000000000000000000000000000000000000000000000000000000000000000000000000000000000000000000000000000000000000000000000000000000000000000000000000000000000000000000000000000000000000000000000000000000000000000000000000000000000000000000000000",
      "type": "0x2",
      "transactionHash": "0x100e82c728404e6bfabfb4abb7562275333d0bba729fd7130acdbf12734e03b9",
      "transactionIndex": "0x0",
      "blockHash": "0x228b5809f4938e9b77acf210e304910d69d64559da3ba7c85a43834ccdca44dc",
      "blockNumber": "0x33d977",
      "gasUsed": "0x1bd3c",
      "effectiveGasPrice": "0x4cd5886400",
      "from": "0x8866438f9348f33516040d38a0113531bc9e7e1d",
      "to": "0xd7ad5f8154cd0b5b1e84f7aaa116184f597336b2",
      "contractAddress": null
    }
  ],
  "libraries": [],
  "pending": [],
  "returns": {},
  "timestamp": 1759299808036,
  "chain": 1449000,
  "commit": "91aff73"
}