{
  "transactions": [
    {
      "hash": "0xe019ce0f44d66583efbb2e6c2a14d535b39702b7c18798d154ceb8daf1a61d6b",
      "transactionType": "CREATE",
      "contractName": "Controller",
      "contractAddress": "0x274e2f3dddadb5be809419e9658ce5b0298fb82a",
      "function": null,
      "arguments": [
        "0xB5FB4BE02232B1bBA4dC8f81dc24C26980dE9e3C",
        "0xEd09DD3f30CCDEADAa25eED2f14eAa646878799F",
        "0x9E8860db73D093464ee2B5a1Fe6F63B09F70e8C1",
        "0x6Ea452dC1105607eC1AB84c643369Dd3356cc251"
      ],
      "transaction": {
        "from": "0x8866438f9348f33516040d38a0113531bc9e7e1d",
        "value": "0x0",
        "input": "0x6101008060405234610147576080816110148038038091610020828561015e565b8339810103126101475761003381610195565b9061004060208201610195565b610058606061005160408501610195565b9301610195565b6080939093526001600160a01b031690811561014b576001600160a01b031691821561014b576001600160a01b0316801561014b5760a082905260c083905260e052600a80546001600160a01b03191633179055813b15610147575f916024839260405194859384926328ec8bf160e21b845260048401525af1801561013c5761012c575b604051610e6a90816101aa823960805181818161087b0152610c49015260a051818181610308015281816104e60152610a78015260c05181818161057901526107c0015260e0518161020d0152f35b5f6101369161015e565b5f6100dd565b6040513d5f823e3d90fd5b5f80fd5b6316c6875160e31b5f525f60045260245ffd5b601f909101601f19168101906001600160401b0382119082101761018157604052565b634e487b7160e01b5f52604160045260245ffd5b51906001600160a01b03821682036101475756fe6080806040526004361015610012575f80fd5b5f905f3560e01c90816304bda26214610c785750806309c6bed914610c3457806311eac85514610c0c578063120394de14610b4d57806329241502146107ef57806336569e77146107aa5780634cbab1f11461069d5780634e1c756e1461077a57806354134166146107415780635dfc9d7b1461071757806374c31f5d146106c75780637aa2dbc11461069d5780638019a786146104bb578063947a97e91461046c578063a2f8f0571461044e578063a6bf15be146103a0578063acee287114610337578063bb038e15146102f2578063be22f546146102c9578063bf0dfcab1461023c578063c11645bc146101f7578063c4ed26621461019a578063c71f8d67146101c4578063c7e5b0a41461019a578063d1a294c4146101675763f851a4401461013c575f80fd5b34610164578060031936011261016457600a546040516001600160a01b039091168152602090f35b80fd5b503461016457602036600319011261016457602090600435815260048252604060018060a01b0391205416604051908152f35b50346101645760203660031901126101645760406020916004358152600283522054604051908152f35b503461016457602036600319011261016457602090600435815260058252604060018060a01b0391205416604051908152f35b50346101645780600319360112610164576040517f00000000000000000000000000000000000000000000000000000000000000006001600160a01b03168152602090f35b503461016457604036600319011261016457610256610cf9565b61025e610d0f565b9061027460018060a01b03600a54163314610da1565b6001600160a01b03169081156102b5576001600160a01b03169081156102b55760018060a01b031983541617825560018060a01b0319600154161760015580f35b6316c6875160e31b83526004839052602483fd5b50346101645780600319360112610164576009546040516001600160a01b039091168152602090f35b50346101645780600319360112610164576040517f00000000000000000000000000000000000000000000000000000000000000006001600160a01b03168152602090f35b503461016457602036600319011261016457610351610cf9565b61036660018060a01b03600a54163314610da1565b6001600160a01b0316801561038c57600980546001600160a01b03191691909117905580f35b6316c6875160e31b82526004829052602482fd5b5034610164576080366003190112610164576004356103bd610d0f565b6044356001600160a01b038116810361044a576103e560018060a01b03600a54163314610da1565b82845260046020908152604080862080546001600160a01b039586166001600160a01b03199182168117909255868852600584528288208054959096169416939093179093559084526006815281842083905591835260079091528120606435905580f35b8380fd5b50346101645780600319360112610164576020600854604051908152f35b5034610164576020366003190112610164576004356001600160401b0381116104b75761049f6020913690600401610c9a565b90809291810103126104b75760209035604051908152f35b5080fd5b503461016457602036600319011261016457604051632c2cb9fd60e01b8152600480359082018190527f00000000000000000000000000000000000000000000000000000000000000006001600160a01b031690602083602481855afa92831561069257849361065d575b50602090602460405180948193632726b07360e01b835260048301525afa90811561065257839161060a575b50604080516309092f9760e21b8152929091839182916105759160048401610e1b565b03817f00000000000000000000000000000000000000000000000000000000000000006001600160a01b03165afa80156105ff57829183916105c2575b6040838382519182526020820152f35b9150506040813d6040116105f7575b816105de60409383610d25565b810103126104b75760409150602081519101515f6105b2565b3d91506105d1565b6040513d84823e3d90fd5b90506020813d60201161064a575b8161062560209383610d25565b8101031261064657516001600160a01b038116810361064657610575610552565b8280fd5b3d9150610618565b6040513d85823e3d90fd5b9092506020813d60201161068a575b8161067960209383610d25565b8101031261044a5751916020610526565b3d915061066c565b6040513d86823e3d90fd5b50346101645760203660031901126101645760406020916004358152600383522054604051908152f35b503461016457602036600319011261016457600435906001600160401b038211610164576107036106fb3660048501610c9a565b810190610dd9565b9061071360405192839283610cc7565b0390f35b50346101645760203660031901126101645760406020916004358152600783522054604051908152f35b5034610164576020366003190112610164576020906040906001600160a01b03610769610cf9565b168152600683522054604051908152f35b5034610164576020366003190112610164576107a160018060a01b03600a54163314610da1565b60043560085580f35b50346101645780600319360112610164576040517f00000000000000000000000000000000000000000000000000000000000000006001600160a01b03168152602090f35b34610a3e5760e0366003190112610a3e576024356001600160401b038111610a3e5761081f903690600401610c9a565b50506044356001600160401b038111610a3e57610840903690600401610c9a565b6064356001600160401b038111610a3e5761085f903690600401610c9a565b90926084359360a4359360018060a01b038516809503610a3e577f00000000000000000000000000000000000000000000000000000000000000006001600160a01b03163303610b3a576108c8926108b8913691610d5c565b6020815191012092810190610dd9565b93907fc878ce8db15ae780a7801a0a72a5c00850f38b7bbdb4e0015ea7f3b253063fbf6020604051838152a17fe77d2bd163c1d1e0f6d02bd9b28f5b1b0efd4ecd39aa2db3cc6d3d720b6495a28103610b285750604084805181010312610a3e5760406020850151940151925f5260066020528360405f205403610b1557835f5260076020528060405f205403610b035750805f52600260205260405f205415610a54575b505f828152600560205260409020546001600160a01b0316918215610a42575f526004602052813b15610a3e575f8092604460405180958193633b4da69f60e01b835230600484015260c43560248401525af1908115610a33577ff685e843ad79f24108e43bba845f0c0548e7d009a0304540bbe0684146d9444192602092610a23575b50604051908152a160206040517fe84001f3dedacf7f9ddc370e9f09c26b37473e9e959ffdc4925f6fe33c9877e48152f35b5f610a2d91610d25565b5f6109f1565b6040513d5f823e3d90fd5b5f80fd5b631e71423d60e01b5f5260045260245ffd5b604051636090dec560e01b815260208180610a73308860048401610e1b565b03815f7f00000000000000000000000000000000000000000000000000000000000000006001600160a01b03165af1908115610a33575f91610ad1575b50815f5260026020528060405f20555f52600360205260405f20558261096d565b90506020813d602011610afb575b81610aec60209383610d25565b81010312610a3e575184610ab0565b3d9150610adf565b63961e5dc760e01b5f5260045260245ffd5b83631e71423d60e01b5f5260045260245ffd5b63cea2ba5f60e01b5f5260045260245ffd5b630d6c7be960e01b5f523360045260245ffd5b34610a3e576020366003190112610a3e576004356001600160401b038111610a3e57610b7c3682600401610c9a565b60408110610bd657602435916020830191828411610bc25760208460040135850101809311610bc2578211610a3e57610703923692819003601f19019101602001610d5c565b634e487b7160e01b5f52601160045260245ffd5b60405162461bcd60e51b815260206004820152600e60248201526d11185d18481d1bdbc81cda1bdc9d60921b6044820152606490fd5b34610a3e575f366003190112610a3e576001546040516001600160a01b039091168152602090f35b34610a3e575f366003190112610a3e576040517f00000000000000000000000000000000000000000000000000000000000000006001600160a01b03168152602090f35b34610a3e575f366003190112610a3e575f546001600160a01b03168152602090f35b9181601f84011215610a3e578235916001600160401b038311610a3e5760208381860195010111610a3e57565b9060609260209183526040828401528051918291826040860152018484015e5f828201840152601f01601f1916010190565b600435906001600160a01b0382168203610a3e57565b602435906001600160a01b0382168203610a3e57565b601f909101601f19168101906001600160401b03821190821017610d4857604052565b634e487b7160e01b5f52604160045260245ffd5b9192916001600160401b038211610d485760405191610d85601f8201601f191660200184610d25565b829481845281830111610a3e578281602093845f960137010152565b15610da857565b60405162461bcd60e51b81526020600482015260096024820152683737ba16b0b236b4b760b91b6044820152606490fd5b9190604083820312610a3e578235926020810135906001600160401b038211610a3e57019080601f83011215610a3e57816020610e1893359101610d5c565b90565b9081526001600160a01b0390911660208201526040019056fea2646970667358221220c5672a0a9071031051ca90050631b44a037edce580d4f68d406857f2d6dc7e9964736f6c634300081e0033000000000000000000000000b5fb4be02232b1bba4dc8f81dc24c26980de9e3c000000000000000000000000ed09dd3f30ccdeadaa25eed2f14eaa646878799f0000000000000000000000009e8860db73d093464ee2b5a1fe6f63b09f70e8c10000000000000000000000006ea452dc1105607ec1ab84c643369dd3356cc251",
        "nonce": "0x1c2",
        "chainId": "0x161c28"
      },
      "additionalContracts": [],
      "isFixedGasLimit": false
    },
    {
      "hash": "0x6f3aaaed93bb3040425258b637ff25e89f07a7dae9bc858bf5bf57469d463ed3",
      "transactionType": "CALL",
      "contractName": "Controller",
      "contractAddress": "0x274e2f3dddadb5be809419e9658ce5b0298fb82a",
      "function": "setDaiTokenId(bytes32)",
      "arguments": [
        "0x8888888888888888888888888888888888888888888888888888888888888888"
      ],
      "transaction": {
        "from": "0x8866438f9348f33516040d38a0113531bc9e7e1d",
        "to": "0x274e2f3dddadb5be809419e9658ce5b0298fb82a",
        "value": "0x0",
        "input": "0x4e1c756e8888888888888888888888888888888888888888888888888888888888888888",
        "nonce": "0x1c3",
        "chainId": "0x161c28"
      },
      "additionalContracts": [],
      "isFixedGasLimit": false
    },
    {
      "hash": "0xa528361f34b8f8fe5ed7edb60cf519f76e42d553afbe4bfb34a1c97ded92ad3c",
      "transactionType": "CALL",
      "contractName": "Controller",
      "contractAddress": "0x274e2f3dddadb5be809419e9658ce5b0298fb82a",
      "function": "setDaiToken(address)",
      "arguments": [
        "0xB6202dd8D51598C18E1E277093B7468F943CD9fB"
      ],
      "transaction": {
        "from": "0x8866438f9348f33516040d38a0113531bc9e7e1d",
        "to": "0x274e2f3dddadb5be809419e9658ce5b0298fb82a",
        "value": "0x0",
        "input": "0xacee2871000000000000000000000000b6202dd8d51598c18e1e277093b7468f943cd9fb",
        "nonce": "0x1c4",
        "chainId": "0x161c28"
      },
      "additionalContracts": [],
      "isFixedGasLimit": false
    },
    {
      "hash": "0x5626c217de6aefc53ba08473038d60704568b73286e2201daea90ab13ffadd90",
      "transactionType": "CALL",
      "contractName": "Controller",
      "contractAddress": "0x274e2f3dddadb5be809419e9658ce5b0298fb82a",
      "function": "setPsm(address,address)",
      "arguments": [
        "0xfc18ab74D3a04A730B767AAB241CE5A451dfCB1d",
        "0xE26D509C661c4F16FaFfBB1eAce1Fa1CdA8cc146"
      ],
      "transaction": {
        "from": "0x8866438f9348f33516040d38a0113531bc9e7e1d",
        "to": "0x274e2f3dddadb5be809419e9658ce5b0298fb82a",
        "value": "0x0",
        "input": "0xbf0dfcab000000000000000000000000fc18ab74d3a04a730b767aab241ce5a451dfcb1d000000000000000000000000e26d509c661c4f16faffbb1eace1fa1cda8cc146",
        "nonce": "0x1c5",
        "chainId": "0x161c28"
      },
      "additionalContracts": [],
      "isFixedGasLimit": false
    },
    {
      "hash": "0x154431e408344c7c1dd89d717698a6e891c748d39c0488734ec1ef52d33e810b",
      "transactionType": "CALL",
      "contractName": "Controller",
      "contractAddress": "0x274e2f3dddadb5be809419e9658ce5b0298fb82a",
      "function": "setCollateralConfig(bytes32,address,address,bytes32)",
      "arguments": [
        "0x5852502d41000000000000000000000000000000000000000000000000000000",
        "0xEeeeeEeeeEeEeeEeEeEeeEEEeeeeEeeeeeeeEEeE",
        "0x3d22179f2578E9374791D2B825806e278eC14A7C",
        "0xba5a21ca88ef6bba2bfff5088994f90e1077e2a1cc3dcc38bd261f00fce2824f"
      ],
      "transaction": {
        "from": "0x8866438f9348f33516040d38a0113531bc9e7e1d",
        "to": "0x274e2f3dddadb5be809419e9658ce5b0298fb82a",
        "value": "0x0",
        "input": "0xa6bf15be5852502d41000000000000000000000000000000000000000000000000000000000000000000000000000000eeeeeeeeeeeeeeeeeeeeeeeeeeeeeeeeeeeeeeee0000000000000000000000003d22179f2578e9374791d2b825806e278ec14a7cba5a21ca88ef6bba2bfff5088994f90e1077e2a1cc3dcc38bd261f00fce2824f",
        "nonce": "0x1c6",
        "chainId": "0x161c28"
      },
      "additionalContracts": [],
      "isFixedGasLimit": false
    },
    {
      "hash": "0x61826d9308146eff77dec716ab712ed5a7bbf28aecc7a97ca7a86710e2379d5c",
      "transactionType": "CALL",
      "contractName": "Controller",
      "contractAddress": "0x274e2f3dddadb5be809419e9658ce5b0298fb82a",
      "function": "setCollateralConfig(bytes32,address,address,bytes32)",
      "arguments": [
        "0x555344432d410000000000000000000000000000000000000000000000000000",
        "0xE26D509C661c4F16FaFfBB1eAce1Fa1CdA8cc146",
        "0x43f5e030811411151f709A0796492EEFC34009A0",
        "0xc8895f8ceb0cae9da15bb9d2bc5859a184ca0f61c88560488355c8a7364deef8"
      ],
      "transaction": {
        "from": "0x8866438f9348f33516040d38a0113531bc9e7e1d",
        "to": "0x274e2f3dddadb5be809419e9658ce5b0298fb82a",
        "value": "0x0",
        "input": "0xa6bf15be555344432d410000000000000000000000000000000000000000000000000000000000000000000000000000e26d509c661c4f16faffbb1eace1fa1cda8cc14600000000000000000000000043f5e030811411151f709a0796492eefc34009a0c8895f8ceb0cae9da15bb9d2bc5859a184ca0f61c88560488355c8a7364deef8",
        "nonce": "0x1c7",
        "chainId": "0x161c28"
      },
      "additionalContracts": [],
      "isFixedGasLimit": false
    }
  ],
  "receipts": [
    {
      "status": "0x1",
      "cumulativeGasUsed": "0xe4cc8",
      "logs": [],
      "logsBloom": "0x00000000000000000000000000000000000000000000000000000000000000000000000000000000000000000000000000000000000000000000000000000000000000000000000000000000000000000000000000000000000000000000000000000000000000000000000000000000000000000000000000000000000000000000000000000000000000000000000000000000000000000000000000000000000000000000000000000000000000000000000000000000000000000000000000000000000000000000000000000000000000000000000000000000000000000000000000000000000000000000000000000000000000000000000000000000",
      "type": "0x2",
      "transactionHash": "0xe019ce0f44d66583efbb2e6c2a14d535b39702b7c18798d154ceb8daf1a61d6b",
      "transactionIndex": "0x1",
      "blockHash": "0xac7ee61c943d03c00dd4dad54c339ea07da21877a3f0b0de9ed6f2747bbfab0a",
      "blockNumber": "0x33e5a2",
      "gasUsed": "0xdcdd4",
      "effectiveGasPrice": "0x4cd5886400",
      "from": "0x8866438f9348f33516040d38a0113531bc9e7e1d",
      "to": null,
      "contractAddress": "0x274e2f3dddadb5be809419e9658ce5b0298fb82a"
    },
    {
      "status": "0x1",
      "cumulativeGasUsed": "0x23ae1",
      "logs": [],
      "logsBloom": "0x00000000000000000000000000000000000000000000000000000000000000000000000000000000000000000000000000000000000000000000000000000000000000000000000000000000000000000000000000000000000000000000000000000000000000000000000000000000000000000000000000000000000000000000000000000000000000000000000000000000000000000000000000000000000000000000000000000000000000000000000000000000000000000000000000000000000000000000000000000000000000000000000000000000000000000000000000000000000000000000000000000000000000000000000000000000",
      "type": "0x2",
      "transactionHash": "0x6f3aaaed93bb3040425258b637ff25e89f07a7dae9bc858bf5bf57469d463ed3",
      "transactionIndex": "0x1",
      "blockHash": "0x48a2451dfa062b443e2b4852396b9b673299a4f79d6b88de6bfbfe366052d365",
      "blockNumber": "0x33e5a3",
      "gasUsed": "0xb441",
      "effectiveGasPrice": "0x4cd5886400",
      "from": "0x8866438f9348f33516040d38a0113531bc9e7e1d",
      "to": "0x274e2f3dddadb5be809419e9658ce5b0298fb82a",
      "contractAddress": null
    },
    {
      "status": "0x1",
      "cumulativeGasUsed": "0xb506",
      "logs": [],
      "logsBloom": "0x00000000000000000000000000000000000000000000000000000000000000000000000000000000000000000000000000000000000000000000000000000000000000000000000000000000000000000000000000000000000000000000000000000000000000000000000000000000000000000000000000000000000000000000000000000000000000000000000000000000000000000000000000000000000000000000000000000000000000000000000000000000000000000000000000000000000000000000000000000000000000000000000000000000000000000000000000000000000000000000000000000000000000000000000000000000",
      "type": "0x2",
      "transactionHash": "0xa528361f34b8f8fe5ed7edb60cf519f76e42d553afbe4bfb34a1c97ded92ad3c",
      "transactionIndex": "0x0",
      "blockHash": "0xadc07d7aa49cc71122394bf155cf5dde90ea125dea2683cb26774bf5e7e88bb2",
      "blockNumber": "0x33e5a4",
      "gasUsed": "0xb506",
      "effectiveGasPrice": "0x4cd5886400",
      "from": "0x8866438f9348f33516040d38a0113531bc9e7e1d",
      "to": "0x274e2f3dddadb5be809419e9658ce5b0298fb82a",
      "contractAddress": null
    },
    {
      "status": "0x1",
      "cumulativeGasUsed": "0x18c89",
      "logs": [],
      "logsBloom": "0x00000000000000000000000000000000000000000000000000000000000000000000000000000000000000000000000000000000000000000000000000000000000000000000000000000000000000000000000000000000000000000000000000000000000000000000000000000000000000000000000000000000000000000000000000000000000000000000000000000000000000000000000000000000000000000000000000000000000000000000000000000000000000000000000000000000000000000000000000000000000000000000000000000000000000000000000000000000000000000000000000000000000000000000000000000000",
      "type": "0x2",
      "transactionHash": "0x5626c217de6aefc53ba08473038d60704568b73286e2201daea90ab13ffadd90",
      "transactionIndex": "0x1",
      "blockHash": "0xe80273a228081f66adeea8adb429ed981fbe316f4706592e4d75619c51e03cca",
      "blockNumber": "0x33e5a5",
      "gasUsed": "0x10d95",
      "effectiveGasPrice": "0x4cd5886400",
      "from": "0x8866438f9348f33516040d38a0113531bc9e7e1d",
      "to": "0x274e2f3dddadb5be809419e9658ce5b0298fb82a",
      "contractAddress": null
    },
    {
      "status": "0x1",
      "cumulativeGasUsed": "0x1bd7a",
      "logs": [],
      "logsBloom": "0x00000000000000000000000000000000000000000000000000000000000000000000000000000000000000000000000000000000000000000000000000000000000000000000000000000000000000000000000000000000000000000000000000000000000000000000000000000000000000000000000000000000000000000000000000000000000000000000000000000000000000000000000000000000000000000000000000000000000000000000000000000000000000000000000000000000000000000000000000000000000000000000000000000000000000000000000000000000000000000000000000000000000000000000000000000000",
      "type": "0x2",
      "transactionHash": "0x154431e408344c7c1dd89d717698a6e891c748d39c0488734ec1ef52d33e810b",
      "transactionIndex": "0x0",
      "blockHash": "0xc2a035a3f45f1dc8318b688c30b4ccd35f16ba4808b290ab82c1bdbe61a6e650",
      "blockNumber": "0x33e5a6",
      "gasUsed": "0x1bd7a",
      "effectiveGasPrice": "0x4cd5886400",
      "from": "0x8866438f9348f33516040d38a0113531bc9e7e1d",
      "to": "0x274e2f3dddadb5be809419e9658ce5b0298fb82a",
      "contractAddress": null
    },
    {
      "status": "0x1",
      "cumulativeGasUsed": "0x34432",
      "logs": [],
      "logsBloom": "0x00000000000000000000000000000000000000000000000000000000000000000000000000000000000000000000000000000000000000000000000000000000000000000000000000000000000000000000000000000000000000000000000000000000000000000000000000000000000000000000000000000000000000000000000000000000000000000000000000000000000000000000000000000000000000000000000000000000000000000000000000000000000000000000000000000000000000000000000000000000000000000000000000000000000000000000000000000000000000000000000000000000000000000000000000000000",
      "type": "0x2",
      "transactionHash": "0x61826d9308146eff77dec716ab712ed5a7bbf28aecc7a97ca7a86710e2379d5c",
      "transactionIndex": "0x1",
      "blockHash": "0x54c3ee49fcd115394a0f05017f68881e9ea9d67c639712a1c1189f75bcd59c06",
      "blockNumber": "0x33e5a7",
      "gasUsed": "0x1bd92",
      "effectiveGasPrice": "0x4cd5886400",
      "from": "0x8866438f9348f33516040d38a0113531bc9e7e1d",
      "to": "0x274e2f3dddadb5be809419e9658ce5b0298fb82a",
      "contractAddress": null
    }
  ],
  "libraries": [],
  "pending": [],
  "returns": {},
  "timestamp": 1759317489974,
  "chain": 1449000,
  "commit": "f678a5b"
}