{
  "transactions": [
    {
      "hash": "0x089846add3c4df14ca1c8a7bba5920b23f365dedbdbf7ecfbe46b5a345f9df23",
      "transactionType": "CREATE",
      "contractName": "Controller",
      "contractAddress": "0x735b4016f302d21037cb9c125c40b2e8e4c79c92",
      "function": null,
      "arguments": [
        "0xB5FB4BE02232B1bBA4dC8f81dc24C26980dE9e3C",
        "0xAd8719B84d126000000000000000000000000000",
        "0x9E8860db73D093464ee2B5a1Fe6F63B09F70e8C1",
        "0x6Ea452dC1105607eC1AB84c643369Dd3356cc251"
      ],
      "transaction": {
        "from": "0x8866438f9348f33516040d38a0113531bc9e7e1d",
        "value": "0x0",
        "input": "0x610100806040523461014057608081610e2f80380380916100208285610157565b833981010312610140576100338161018e565b906100406020820161018e565b61005860606100516040850161018e565b930161018e565b6080939093526001600160a01b0316908115610144576001600160a01b0316918215610144576001600160a01b031680156101445760a082905260c083905260e052600a80546001600160a01b03191633179055813b15610140575f916024839260405194859384926328ec8bf160e21b845260048401525af1801561013557610125575b604051610c8c90816101a3823960805181818161085c0152610aa6015260a05181818161030301526104bb015260c05181818161055801526107a5015260e051816102090152f35b5f61012f91610157565b5f6100dd565b6040513d5f823e3d90fd5b5f80fd5b6316c6875160e31b5f525f60045260245ffd5b601f909101601f19168101906001600160401b0382119082101761017a57604052565b634e487b7160e01b5f52604160045260245ffd5b51906001600160a01b03821682036101405756fe6080806040526004361015610012575f80fd5b5f3560e01c90816304bda26214610ad55750806309c6bed914610a9157806311eac85514610a69578063120394de1461099a57806329241502146107d457806336569e77146107905780634cbab1f1146106555780634e1c756e14610762578063541341661461072a5780635dfc9d7b1461070057806374c31f5d1461067f5780637aa2dbc1146106555780638019a78614610491578063947a97e914610447578063a2f8f0571461042a578063a6bf15be14610385578063acee287114610332578063bb038e15146102ee578063be22f546146102c6578063bf0dfcab14610238578063c11645bc146101f4578063c4ed266214610198578063c71f8d67146101c2578063c7e5b0a414610198578063d1a294c4146101665763f851a4401461013a575f80fd5b34610162575f36600319011261016257600a546040516001600160a01b039091168152602090f35b5f80fd5b34610162576020366003190112610162576004355f526004602052602060018060a01b0360405f205416604051908152f35b34610162576020366003190112610162576004355f526002602052602060405f2054604051908152f35b34610162576020366003190112610162576004355f526005602052602060018060a01b0360405f205416604051908152f35b34610162575f366003190112610162576040517f00000000000000000000000000000000000000000000000000000000000000006001600160a01b03168152602090f35b3461016257604036600319011261016257610251610b56565b610259610b6c565b9061026f60018060a01b03600a54163314610bfe565b6001600160a01b03169081156102b3576001600160a01b03169081156102b3575f80546001600160a01b031990811692909217905560018054909116919091179055005b6316c6875160e31b5f525f60045260245ffd5b34610162575f366003190112610162576009546040516001600160a01b039091168152602090f35b34610162575f366003190112610162576040517f00000000000000000000000000000000000000000000000000000000000000006001600160a01b03168152602090f35b346101625760203660031901126101625761034b610b56565b61036060018060a01b03600a54163314610bfe565b6001600160a01b031680156102b357600980546001600160a01b031916919091179055005b34610162576080366003190112610162576004356103a1610b6c565b6044356001600160a01b0381168103610162576103c960018060a01b03600a54163314610bfe565b5f83815260046020908152604080832080546001600160a01b039687166001600160a01b0319918216811790925560058452828520805496909716951694909417909455918152600682528281208490559283526007905290206064359055005b34610162575f366003190112610162576020600854604051908152f35b34610162576020366003190112610162576004356001600160401b038111610162576104796020913690600401610af7565b90809291810103126101625760209035604051908152f35b3461016257602036600319011261016257604051632c2cb9fd60e01b8152600480359082018190527f00000000000000000000000000000000000000000000000000000000000000006001600160a01b031690602083602481855afa9283156105d3575f93610620575b50602090602460405180948193632726b07360e01b835260048301525afa9081156105d3575f916105de575b50604080516309092f9760e21b815260048101939093526001600160a01b03918216602484015290829060449082907f0000000000000000000000000000000000000000000000000000000000000000165afa80156105d3575f905f90610599575b6040809350519182526020820152f35b50506040813d6040116105cb575b816105b460409383610b82565b810103126101625780602060409251910151610589565b3d91506105a7565b6040513d5f823e3d90fd5b90506020813d602011610618575b816105f960209383610b82565b8101031261016257516001600160a01b03811681036101625782610527565b3d91506105ec565b9092506020813d60201161064d575b8161063c60209383610b82565b8101031261016257519160206104fb565b3d915061062f565b34610162576020366003190112610162576004355f526003602052602060405f2054604051908152f35b34610162576020366003190112610162576004356001600160401b038111610162576106af903690600401610af7565b81016040828203126101625760208201356001600160401b0381116101625782019080601f83011215610162578160206106eb93359101610bb9565b906106fc6040519283923583610b24565b0390f35b34610162576020366003190112610162576004355f526007602052602060405f2054604051908152f35b34610162576020366003190112610162576001600160a01b0361074b610b56565b165f526006602052602060405f2054604051908152f35b346101625760203660031901126101625761078860018060a01b03600a54163314610bfe565b600435600855005b34610162575f366003190112610162576040517f00000000000000000000000000000000000000000000000000000000000000006001600160a01b03168152602090f35b346101625760e0366003190112610162576024356001600160401b03811161016257610804903690600401610af7565b6044356001600160401b03811161016257610823903690600401610af7565b92906064356001600160401b03811161016257610844903690600401610af7565b92909360a43560018060a01b038116809103610162577f00000000000000000000000000000000000000000000000000000000000000006001600160a01b03163303610987577fc0eed5984bdb689e25fdb017908ddf0f88d31e3e49039a8fe3efc63c760fe708966109256109167f6250969d220720e7338bf44e92bbcab2b3f340a659195294b812a0903b2c6ca2966108df368583610bb9565b60208151910120936109086040519889986004358a5261010060208b01526101008a0191610c36565b918783036040890152610c36565b84810360608601528789610c36565b91608435608085015260a084015260c43560c084015260e08301520390a161095a604051928392602084526020840191610c36565b0390a160206040517fe84001f3dedacf7f9ddc370e9f09c26b37473e9e959ffdc4925f6fe33c9877e48152f35b630d6c7be960e01b5f523360045260245ffd5b34610162576020366003190112610162576004356001600160401b038111610162576109c93682600401610af7565b60408110610a3357602435916020830191828411610a1f5760208460040135850101809311610a1f57821161016257610a0f923692819003601f19019101602001610bb9565b906106fc60405192839283610b24565b634e487b7160e01b5f52601160045260245ffd5b60405162461bcd60e51b815260206004820152600e60248201526d11185d18481d1bdbc81cda1bdc9d60921b6044820152606490fd5b34610162575f366003190112610162576001546040516001600160a01b039091168152602090f35b34610162575f366003190112610162576040517f00000000000000000000000000000000000000000000000000000000000000006001600160a01b03168152602090f35b34610162575f366003190112610162575f546001600160a01b03168152602090f35b9181601f84011215610162578235916001600160401b038311610162576020838186019501011161016257565b9060609260209183526040828401528051918291826040860152018484015e5f828201840152601f01601f1916010190565b600435906001600160a01b038216820361016257565b602435906001600160a01b038216820361016257565b601f909101601f19168101906001600160401b03821190821017610ba557604052565b634e487b7160e01b5f52604160045260245ffd5b9192916001600160401b038211610ba55760405191610be2601f8201601f191660200184610b82565b829481845281830111610162578281602093845f960137010152565b15610c0557565b60405162461bcd60e51b81526020600482015260096024820152683737ba16b0b236b4b760b91b6044820152606490fd5b908060209392818452848401375f828201840152601f01601f191601019056fea26469706673582212207137630f58e375b90708c73f5398e27c644a6eeaa10e98cd5855ae537ee3c9d764736f6c634300081e0033000000000000000000000000b5fb4be02232b1bba4dc8f81dc24c26980de9e3c000000000000000000000000ad8719b84d1260000000000000000000000000000000000000000000000000009e8860db73d093464ee2b5a1fe6f63b09f70e8c10000000000000000000000006ea452dc1105607ec1ab84c643369dd3356cc251",
        "nonce": "0x133",
        "chainId": "0x161c28"
      },
      "additionalContracts": [],
      "isFixedGasLimit": false
    },
    {
      "hash": "0xc184aa42684873d7e115237d5741e3a077ba818ce554ff6118f8b57b003ae185",
      "transactionType": "CALL",
      "contractName": "Controller",
      "contractAddress": "0x735b4016f302d21037cb9c125c40b2e8e4c79c92",
      "function": "setDaiTokenId(bytes32)",
      "arguments": [
        "0x8888888888888888888888888888888888888888888888888888888888888888"
      ],
      "transaction": {
        "from": "0x8866438f9348f33516040d38a0113531bc9e7e1d",
        "to": "0x735b4016f302d21037cb9c125c40b2e8e4c79c92",
        "value": "0x0",
        "input": "0x4e1c756e8888888888888888888888888888888888888888888888888888888888888888",
        "nonce": "0x134",
        "chainId": "0x161c28"
      },
      "additionalContracts": [],
      "isFixedGasLimit": false
    },
    {
      "hash": "0x4f6ab934910714e7d74e8d10f61b76205246b15149232c516e929a4d111e73f6",
      "transactionType": "CALL",
      "contractName": "Controller",
      "contractAddress": "0x735b4016f302d21037cb9c125c40b2e8e4c79c92",
      "function": "setDaiToken(address)",
      "arguments": [
        "0xB6202dd8D51598C18E1E277093B7468F943CD9fB"
      ],
      "transaction": {
        "from": "0x8866438f9348f33516040d38a0113531bc9e7e1d",
        "to": "0x735b4016f302d21037cb9c125c40b2e8e4c79c92",
        "value": "0x0",
        "input": "0xacee2871000000000000000000000000b6202dd8d51598c18e1e277093b7468f943cd9fb",
        "nonce": "0x135",
        "chainId": "0x161c28"
      },
      "additionalContracts": [],
      "isFixedGasLimit": false
    },
    {
      "hash": "0xe3de1472cbb177ace2ef00f525319beb183b379f34ada5a8869b3e7252e2e087",
      "transactionType": "CALL",
      "contractName": "Controller",
      "contractAddress": "0x735b4016f302d21037cb9c125c40b2e8e4c79c92",
      "function": "setPsm(address,address)",
      "arguments": [
        "0xfc18ab74D3a04A730B767AAB241CE5A451dfCB1d",
        "0xE26D509C661c4F16FaFfBB1eAce1Fa1CdA8cc146"
      ],
      "transaction": {
        "from": "0x8866438f9348f33516040d38a0113531bc9e7e1d",
        "to": "0x735b4016f302d21037cb9c125c40b2e8e4c79c92",
        "value": "0x0",
        "input": "0xbf0dfcab000000000000000000000000fc18ab74d3a04a730b767aab241ce5a451dfcb1d000000000000000000000000e26d509c661c4f16faffbb1eace1fa1cda8cc146",
        "nonce": "0x136",
        "chainId": "0x161c28"
      },
      "additionalContracts": [],
      "isFixedGasLimit": false
    },
    {
      "hash": "0xadc9c5ed2ddb66b0fdfa3439d82e45487ab53178f1787b8b6bcefd3daf201bba",
      "transactionType": "CALL",
      "contractName": "Controller",
      "contractAddress": "0x735b4016f302d21037cb9c125c40b2e8e4c79c92",
      "function": "setCollateralConfig(bytes32,address,address,bytes32)",
      "arguments": [
        "0x5852502d41000000000000000000000000000000000000000000000000000000",
        "0xEeeeeEeeeEeEeeEeEeEeeEEEeeeeEeeeeeeeEEeE",
        "0x3d22179f2578E9374791D2B825806e278eC14A7C",
        "0xba5a21ca88ef6bba2bfff5088994f90e1077e2a1cc3dcc38bd261f00fce2824f"
      ],
      "transaction": {
        "from": "0x8866438f9348f33516040d38a0113531bc9e7e1d",
        "to": "0x735b4016f302d21037cb9c125c40b2e8e4c79c92",
        "value": "0x0",
        "input": "0xa6bf15be5852502d41000000000000000000000000000000000000000000000000000000000000000000000000000000eeeeeeeeeeeeeeeeeeeeeeeeeeeeeeeeeeeeeeee0000000000000000000000003d22179f2578e9374791d2b825806e278ec14a7cba5a21ca88ef6bba2bfff5088994f90e1077e2a1cc3dcc38bd261f00fce2824f",
        "nonce": "0x137",
        "chainId": "0x161c28"
      },
      "additionalContracts": [],
      "isFixedGasLimit": false
    },
    {
      "hash": "0x393d2ca4d407ff936b9af73f1f3ed5ecba7edfc4c574d535e6d6bb7c5157f250",
      "transactionType": "CALL",
      "contractName": "Controller",
      "contractAddress": "0x735b4016f302d21037cb9c125c40b2e8e4c79c92",
      "function": "setCollateralConfig(bytes32,address,address,bytes32)",
      "arguments": [
        "0x555344432d410000000000000000000000000000000000000000000000000000",
        "0xE26D509C661c4F16FaFfBB1eAce1Fa1CdA8cc146",
        "0x43f5e030811411151f709A0796492EEFC34009A0",
        "0xc8895f8ceb0cae9da15bb9d2bc5859a184ca0f61c88560488355c8a7364deef8"
      ],
      "transaction": {
        "from": "0x8866438f9348f33516040d38a0113531bc9e7e1d",
        "to": "0x735b4016f302d21037cb9c125c40b2e8e4c79c92",
        "value": "0x0",
        "input": "0xa6bf15be555344432d410000000000000000000000000000000000000000000000000000000000000000000000000000e26d509c661c4f16faffbb1eace1fa1cda8cc14600000000000000000000000043f5e030811411151f709a0796492eefc34009a0c8895f8ceb0cae9da15bb9d2bc5859a184ca0f61c88560488355c8a7364deef8",
        "nonce": "0x138",
        "chainId": "0x161c28"
      },
      "additionalContracts": [],
      "isFixedGasLimit": false
    }
  ],
  "receipts": [
    {
      "status": "0x1",
      "cumulativeGasUsed": "0x1b7c73",
      "logs": [],
      "logsBloom": "0x00000000000000000000000000000000000000000000000000000000000000000000000000000000000000000000000000000000000000000000000000000000000000000000000000000000000000000000000000000000000000000000000000000000000000000000000000000000000000000000000000000000000000000000000000000000000000000000000000000000000000000000000000000000000000000000000000000000000000000000000000000000000000000000000000000000000000000000000000000000000000000000000000000000000000000000000000000000000000000000000000000000000000000000000000000000",
      "type": "0x2",
      "transactionHash": "0x089846add3c4df14ca1c8a7bba5920b23f365dedbdbf7ecfbe46b5a345f9df23",
      "transactionIndex": "0xa",
      "blockHash": "0x69e51d311280f89961e2f5aaf4c3404e2a3f3ad713b31a422978ceb8cda706a7",
      "blockNumber": "0x33dd4d",
      "gasUsed": "0xc3a33",
      "effectiveGasPrice": "0x4cd5886400",
      "from": "0x8866438f9348f33516040d38a0113531bc9e7e1d",
      "to": null,
      "contractAddress": "0x735b4016f302d21037cb9c125c40b2e8e4c79c92"
    },
    {
      "status": "0x1",
      "cumulativeGasUsed": "0x6ceb7",
      "logs": [],
      "logsBloom": "0x00000000000000000000000000000000000000000000000000000000000000000000000000000000000000000000000000000000000000000000000000000000000000000000000000000000000000000000000000000000000000000000000000000000000000000000000000000000000000000000000000000000000000000000000000000000000000000000000000000000000000000000000000000000000000000000000000000000000000000000000000000000000000000000000000000000000000000000000000000000000000000000000000000000000000000000000000000000000000000000000000000000000000000000000000000000",
      "type": "0x2",
      "transactionHash": "0xc184aa42684873d7e115237d5741e3a077ba818ce554ff6118f8b57b003ae185",
      "transactionIndex": "0x4",
      "blockHash": "0x5f2aacb640d9e78a315c958cf4310cf9bb1142e58050e8998503fd12b3996259",
      "blockNumber": "0x33dd4e",
      "gasUsed": "0xb437",
      "effectiveGasPrice": "0x4cd5886400",
      "from": "0x8866438f9348f33516040d38a0113531bc9e7e1d",
      "to": "0x735b4016f302d21037cb9c125c40b2e8e4c79c92",
      "contractAddress": null
    },
    {
      "status": "0x1",
      "cumulativeGasUsed": "0xb4fc",
      "logs": [],
      "logsBloom": "0x00000000000000000000000000000000000000000000000000000000000000000000000000000000000000000000000000000000000000000000000000000000000000000000000000000000000000000000000000000000000000000000000000000000000000000000000000000000000000000000000000000000000000000000000000000000000000000000000000000000000000000000000000000000000000000000000000000000000000000000000000000000000000000000000000000000000000000000000000000000000000000000000000000000000000000000000000000000000000000000000000000000000000000000000000000000",
      "type": "0x2",
      "transactionHash": "0x4f6ab934910714e7d74e8d10f61b76205246b15149232c516e929a4d111e73f6",
      "transactionIndex": "0x0",
      "blockHash": "0x96bad49f7606a34a4b63679333cf7ef921c93be4a4ed57046ea74ac0ba246af8",
      "blockNumber": "0x33dd4f",
      "gasUsed": "0xb4fc",
      "effectiveGasPrice": "0x4cd5886400",
      "from": "0x8866438f9348f33516040d38a0113531bc9e7e1d",
      "to": "0x735b4016f302d21037cb9c125c40b2e8e4c79c92",
      "contractAddress": null
    },
    {
      "status": "0x1",
      "cumulativeGasUsed": "0x39224",
      "logs": [],
      "logsBloom": "0x00000000000000000000000000000000000000000000000000000000000000000000000000000000000000000000000000000000000000000000000000000000000000000000000000000000000000000000000000000000000000000000000000000000000000000000000000000000000000000000000000000000000000000000000000000000000000000000000000000000000000000000000000000000000000000000000000000000000000000000000000000000000000000000000000000000000000000000000000000000000000000000000000000000000000000000000000000000000000000000000000000000000000000000000000000000",
      "type": "0x2",
      "transactionHash": "0xe3de1472cbb177ace2ef00f525319beb183b379f34ada5a8869b3e7252e2e087",
      "transactionIndex": "0x3",
      "blockHash": "0x5ac103c35bebcf6347e8c572dab3c67162f8be2fa3ed6fff5bb0a60ec44d6507",
      "blockNumber": "0x33dd50",
      "gasUsed": "0x10d9c",
      "effectiveGasPrice": "0x4cd5886400",
      "from": "0x8866438f9348f33516040d38a0113531bc9e7e1d",
      "to": "0x735b4016f302d21037cb9c125c40b2e8e4c79c92",
      "contractAddress": null
    },
    {
      "status": "0x1",
      "cumulativeGasUsed": "0x7d7e6",
      "logs": [],
      "logsBloom": "0x00000000000000000000000000000000000000000000000000000000000000000000000000000000000000000000000000000000000000000000000000000000000000000000000000000000000000000000000000000000000000000000000000000000000000000000000000000000000000000000000000000000000000000000000000000000000000000000000000000000000000000000000000000000000000000000000000000000000000000000000000000000000000000000000000000000000000000000000000000000000000000000000000000000000000000000000000000000000000000000000000000000000000000000000000000000",
      "type": "0x2",
      "transactionHash": "0xadc9c5ed2ddb66b0fdfa3439d82e45487ab53178f1787b8b6bcefd3daf201bba",
      "transactionIndex": "0x4",
      "blockHash": "0x7b1175ccfe11e0133d5961b557887e60f6c773b48b5d58d39a886ca5d12a5a16",
      "blockNumber": "0x33dd51",
      "gasUsed": "0x1bd66",
      "effectiveGasPrice": "0x4cd5886400",
      "from": "0x8866438f9348f33516040d38a0113531bc9e7e1d",
      "to": "0x735b4016f302d21037cb9c125c40b2e8e4c79c92",
      "contractAddress": null
    },
    {
      "status": "0x1",
      "cumulativeGasUsed": "0x6515e",
      "logs": [],
      "logsBloom": "0x00000000000000000000000000000000000000000000000000000000000000000000000000000000000000000000000000000000000000000000000000000000000000000000000000000000000000000000000000000000000000000000000000000000000000000000000000000000000000000000000000000000000000000000000000000000000000000000000000000000000000000000000000000000000000000000000000000000000000000000000000000000000000000000000000000000000000000000000000000000000000000000000000000000000000000000000000000000000000000000000000000000000000000000000000000000",
      "type": "0x2",
      "transactionHash": "0x393d2ca4d407ff936b9af73f1f3ed5ecba7edfc4c574d535e6d6bb7c5157f250",
      "transactionIndex": "0x3",
      "blockHash": "0xdf743bee0dedd09f15212d913d03cbc5956505577c0a6afe0a41382d4749fedc",
      "blockNumber": "0x33dd52",
      "gasUsed": "0x1bd7e",
      "effectiveGasPrice": "0x4cd5886400",
      "from": "0x8866438f9348f33516040d38a0113531bc9e7e1d",
      "to": "0x735b4016f302d21037cb9c125c40b2e8e4c79c92",
      "contractAddress": null
    }
  ],
  "libraries": [],
  "pending": [],
  "returns": {},
  "timestamp": 1759305414069,
  "chain": 1449000,
  "commit": "91aff73"
}