{
  "transactions": [
    {
      "hash": "0x1f62f88c26f8f7df4ad7af7d36266e2e9fb200c8cd28d2b0af0a949d016e70ed",
      "transactionType": "CREATE",
      "contractName": "Controller",
      "contractAddress": "0x492e26a8f06c37eaa23014ebe0a34accbc4d2282",
      "function": null,
      "arguments": [
        "0xB5FB4BE02232B1bBA4dC8f81dc24C26980dE9e3C",
        "0xAd8719B84d126000000000000000000000000000",
        "0x9E8860db73D093464ee2B5a1Fe6F63B09F70e8C1",
        "0x6Ea452dC1105607eC1AB84c643369Dd3356cc251"
      ],
      "transaction": {
        "from": "0x8866438f9348f33516040d38a0113531bc9e7e1d",
        "value": "0x0",
        "input": "0x6101008060405234610155576080816115828038038091610020828561016c565b83398101031261015557610033816101a3565b90610040602082016101a3565b6100586060610051604085016101a3565b93016101a3565b6080939093526001600160a01b0316908115610159576001600160a01b0316918215610159576001600160a01b031680156101595760a082905260c083905260e052600a80546001600160a01b03191633179055813b15610155575f916024839260405194859384926328ec8bf160e21b845260048401525af1801561014a5761013a575b6040516113ca90816101b882396080518181816108800152611135015260a051818181610308015281816104e601528181610a1f0152610f5e015260c05181818161057901526107c0015260e05181818161020d0152610b090152f35b5f6101449161016c565b5f6100dd565b6040513d5f823e3d90fd5b5f80fd5b6316c6875160e31b5f525f60045260245ffd5b601f909101601f19168101906001600160401b0382119082101761018f57604052565b634e487b7160e01b5f52604160045260245ffd5b51906001600160a01b03821682036101555756fe6080806040526004361015610012575f80fd5b5f905f3560e01c90816304bda262146111645750806309c6bed91461112057806311eac855146110f8578063120394de1461103957806329241502146107ef57806336569e77146107aa5780634cbab1f11461069d5780634e1c756e1461077a57806354134166146107415780635dfc9d7b1461071757806374c31f5d146106c75780637aa2dbc11461069d5780638019a786146104bb578063947a97e91461046c578063a2f8f0571461044e578063a6bf15be146103a0578063acee287114610337578063bb038e15146102f2578063be22f546146102c9578063bf0dfcab1461023c578063c11645bc146101f7578063c4ed26621461019a578063c71f8d67146101c4578063c7e5b0a41461019a578063d1a294c4146101675763f851a4401461013c575f80fd5b34610164578060031936011261016457600a546040516001600160a01b039091168152602090f35b80fd5b503461016457602036600319011261016457602090600435815260048252604060018060a01b0391205416604051908152f35b50346101645760203660031901126101645760406020916004358152600283522054604051908152f35b503461016457602036600319011261016457602090600435815260058252604060018060a01b0391205416604051908152f35b50346101645780600319360112610164576040517f00000000000000000000000000000000000000000000000000000000000000006001600160a01b03168152602090f35b5034610164576040366003190112610164576102566111f1565b61025e611207565b9061027460018060a01b03600a54163314611299565b6001600160a01b03169081156102b5576001600160a01b03169081156102b55760018060a01b031983541617825560018060a01b0319600154161760015580f35b6316c6875160e31b83526004839052602483fd5b50346101645780600319360112610164576009546040516001600160a01b039091168152602090f35b50346101645780600319360112610164576040517f00000000000000000000000000000000000000000000000000000000000000006001600160a01b03168152602090f35b5034610164576020366003190112610164576103516111f1565b61036660018060a01b03600a54163314611299565b6001600160a01b0316801561038c57600980546001600160a01b03191691909117905580f35b6316c6875160e31b82526004829052602482fd5b5034610164576080366003190112610164576004356103bd611207565b6044356001600160a01b038116810361044a576103e560018060a01b03600a54163314611299565b82845260046020908152604080862080546001600160a01b039586166001600160a01b03199182168117909255868852600584528288208054959096169416939093179093559084526006815281842083905591835260079091528120606435905580f35b8380fd5b50346101645780600319360112610164576020600854604051908152f35b5034610164576020366003190112610164576004356001600160401b0381116104b75761049f6020913690600401611186565b90809291810103126104b75760209035604051908152f35b5080fd5b503461016457602036600319011261016457604051632c2cb9fd60e01b8152600480359082018190527f00000000000000000000000000000000000000000000000000000000000000006001600160a01b031690602083602481855afa92831561069257849361065d575b50602090602460405180948193632726b07360e01b835260048301525afa90811561065257839161060a575b50604080516309092f9760e21b8152929091839182916105759160048401611310565b03817f00000000000000000000000000000000000000000000000000000000000000006001600160a01b03165afa80156105ff57829183916105c2575b6040838382519182526020820152f35b9150506040813d6040116105f7575b816105de6040938361121d565b810103126104b75760409150602081519101515f6105b2565b3d91506105d1565b6040513d84823e3d90fd5b90506020813d60201161064a575b816106256020938361121d565b8101031261064657516001600160a01b038116810361064657610575610552565b8280fd5b3d9150610618565b6040513d85823e3d90fd5b9092506020813d60201161068a575b816106796020938361121d565b8101031261044a5751916020610526565b3d915061066c565b6040513d86823e3d90fd5b50346101645760203660031901126101645760406020916004358152600383522054604051908152f35b503461016457602036600319011261016457600435906001600160401b038211610164576107036106fb3660048501611186565b8101906112d1565b90610713604051928392836111d7565b0390f35b50346101645760203660031901126101645760406020916004358152600783522054604051908152f35b5034610164576020366003190112610164576020906040906001600160a01b036107696111f1565b168152600683522054604051908152f35b5034610164576020366003190112610164576107a160018060a01b03600a54163314611299565b60043560085580f35b50346101645780600319360112610164576040517f00000000000000000000000000000000000000000000000000000000000000006001600160a01b03168152602090f35b5034610e1b5760e0366003190112610e1b576024356001600160401b038111610e1b57610820903690600401611186565b50506044356001600160401b038111610e1b57610841903690600401611186565b906064356001600160401b038111610e1b57610861903690600401611186565b906084359060a4359560018060a01b038716809703610e1b5760c435967f00000000000000000000000000000000000000000000000000000000000000006001600160a01b03169233849003611026576108d0906108c0368a8a611254565b60208151910120968101906112d1565b94907fc878ce8db15ae780a7801a0a72a5c00850f38b7bbdb4e0015ea7f3b253063fbf6020604051838152a17fe77d2bd163c1d1e0f6d02bd9b28f5b1b0efd4ecd39aa2db3cc6d3d720b6495a281036110145750604085805181010312610e1b5760406020860151950151915f5260066020528460405f20540361100157845f5260076020528060405f205403610fef5750845f52600260205260405f2054975f928915610f36575b5f868152600560205260409020546001600160a01b03168015610f2357865f52600460205260018060a01b0360405f20541660405163a9059cbb60e01b8152602081806109ca888760048401611329565b03815f865af1908115610ed0575f91610f04575b5015610edb5750803b15610e1b575f6040518092633b4da69f60e01b8252818381610a0d893060048401611329565b03925af18015610ed057610ebd575b507f00000000000000000000000000000000000000000000000000000000000000006001600160a01b0316803b156104b7576040516345e6bdcd60e01b81528b6004820152836024820152826044820152828160648183865af1801561065257908391610ea8575b5050803b156104b7576040516345e6bdcd60e01b81528b6004820152826024820152846044820152828160648183865af1801561065257908391610e93575b5050803b156104b75781809160648d6040519485938492637cf986db60e11b845260048401523060248401528960448401525af180156105ff57908291610e7e575b50507f00000000000000000000000000000000000000000000000000000000000000006001600160a01b0316803b156104b75781604051809263ef693bed60e01b8252818381610b598a3060048401611329565b03925af180156105ff57908291610e69575b5050600954815460405163095ea7b360e01b81529160209183916001600160a01b0390811691839187918391610ba7918c911660048401611329565b03925af180156105ff57610e3c575b5080546001600160a01b0316803b156104b757816040518092638d7ef9bb60e01b8252818381610bea8a3060048401611329565b03925af180156105ff57908291610e27575b50506001546040516370a0823160e01b815230600482015291906001600160a01b0316602083602481845afa9283156105ff578293610ded575b50610c409061135c565b604096875191610c50898461121d565b60048352631e1c9c1b60e21b6020840152813b1561044a57918391610c9d93838f8f816020928f51998a98899763da081c7360e01b8952600489015260c0602489015260c48801906111b3565b868103600319016044880152818152928484013783838284010152601f8019910116018960648501528282808684030192600319840160848801520152670de0b6b3a764000060a485015201925af18015610de357610dce575b50507f298d1f35e2dd4577763f14f93add67dde623ad370b53a63e344e675e0ce2f97e9160a09186518b8b8237808c81015f8152039020948751928a84528d60208501528884015260608301526080820152a2610d7f575b50505050505060206040517fe84001f3dedacf7f9ddc370e9f09c26b37473e9e959ffdc4925f6fe33c9877e48152f35b7f02d9c84a454c183b5ea2a41f9fee8be374c9629d08d22bb525281025473ade4b94606094818351928392833781015f81520390209581519384526020840152820152a25f8080808080610d4f565b610dd982809261121d565b6101645780610cf7565b87513d84823e3d90fd5b9092506020813d602011610e1f575b81610e096020938361121d565b81010312610e1b575191610c40610c36565b5f80fd5b3d9150610dfc565b81610e319161121d565b61016457805f610bfc565b610e5d9060203d602011610e62575b610e55818361121d565b810190611344565b610bb6565b503d610e4b565b81610e739161121d565b61016457805f610b6b565b81610e889161121d565b61016457805f610b05565b81610e9d9161121d565b6104b757815f610ac3565b81610eb29161121d565b6104b757815f610a84565b610ec991505f9061121d565b5f5f610a1c565b6040513d5f823e3d90fd5b836084926040519263cd3f165960e01b8452600484015230602484015260448301526064820152fd5b610f1d915060203d602011610e6257610e55818361121d565b5f6109de565b86631e71423d60e01b5f5260045260245ffd5b604051636090dec560e01b81529950925060208980610f59308960048401611310565b03815f7f00000000000000000000000000000000000000000000000000000000000000006001600160a01b03165af1988915610ed0575f99610fbb575b5088865f5260026020528060405f20555f5260036020528560405f2055600192610979565b9098506020813d602011610fe7575b81610fd76020938361121d565b81010312610e1b5751975f610f96565b3d9150610fca565b63961e5dc760e01b5f5260045260245ffd5b84631e71423d60e01b5f5260045260245ffd5b63cea2ba5f60e01b5f5260045260245ffd5b630d6c7be960e01b5f523360045260245ffd5b34610e1b576020366003190112610e1b576004356001600160401b038111610e1b576110683682600401611186565b604081106110c2576024359160208301918284116110ae57602084600401358501018093116110ae578211610e1b57610703923692819003601f19019101602001611254565b634e487b7160e01b5f52601160045260245ffd5b60405162461bcd60e51b815260206004820152600e60248201526d11185d18481d1bdbc81cda1bdc9d60921b6044820152606490fd5b34610e1b575f366003190112610e1b576001546040516001600160a01b039091168152602090f35b34610e1b575f366003190112610e1b576040517f00000000000000000000000000000000000000000000000000000000000000006001600160a01b03168152602090f35b34610e1b575f366003190112610e1b575f546001600160a01b03168152602090f35b9181601f84011215610e1b578235916001600160401b038311610e1b5760208381860195010111610e1b57565b805180835260209291819084018484015e5f828201840152601f01601f1916010190565b6040906111ee9392815281602082015201906111b3565b90565b600435906001600160a01b0382168203610e1b57565b602435906001600160a01b0382168203610e1b57565b601f909101601f19168101906001600160401b0382119082101761124057604052565b634e487b7160e01b5f52604160045260245ffd5b9192916001600160401b038211611240576040519161127d601f8201601f19166020018461121d565b829481845281830111610e1b578281602093845f960137010152565b156112a057565b60405162461bcd60e51b81526020600482015260096024820152683737ba16b0b236b4b760b91b6044820152606490fd5b9190604083820312610e1b578235926020810135906001600160401b038211610e1b57019080601f83011215610e1b578160206111ee93359101611254565b9081526001600160a01b03909116602082015260400190565b6001600160a01b039091168152602081019190915260400190565b90816020910312610e1b57518015158103610e1b5790565b6009546001600160a01b039182169116811461138d575f52600660205260405f20545f52600760205260405f205490565b506008549056fea2646970667358221220c8f641300cca6d2d3b0fd95e4fd2bfdb23c7e79d4f2a3d7d595fa9ff9d738e6764736f6c634300081e0033000000000000000000000000b5fb4be02232b1bba4dc8f81dc24c26980de9e3c000000000000000000000000ad8719b84d1260000000000000000000000000000000000000000000000000009e8860db73d093464ee2b5a1fe6f63b09f70e8c10000000000000000000000006ea452dc1105607ec1ab84c643369dd3356cc251",
        "nonce": "0x16f",
        "chainId": "0x161c28"
      },
      "additionalContracts": [],
      "isFixedGasLimit": false
    },
    {
      "hash": "0x984003301b8bc65c054c90ca2fcdbd836d810bd3d45a8ab173787021a7a7768e",
      "transactionType": "CALL",
      "contractName": "Controller",
      "contractAddress": "0x492e26a8f06c37eaa23014ebe0a34accbc4d2282",
      "function": "setDaiTokenId(bytes32)",
      "arguments": [
        "0x8888888888888888888888888888888888888888888888888888888888888888"
      ],
      "transaction": {
        "from": "0x8866438f9348f33516040d38a0113531bc9e7e1d",
        "to": "0x492e26a8f06c37eaa23014ebe0a34accbc4d2282",
        "value": "0x0",
        "input": "0x4e1c756e8888888888888888888888888888888888888888888888888888888888888888",
        "nonce": "0x170",
        "chainId": "0x161c28"
      },
      "additionalContracts": [],
      "isFixedGasLimit": false
    },
    {
      "hash": "0x927dea2f0c279fed36a48f6a532f07ddb13d0c49d3e1042d8f4bd1bab38d4ffa",
      "transactionType": "CALL",
      "contractName": "Controller",
      "contractAddress": "0x492e26a8f06c37eaa23014ebe0a34accbc4d2282",
      "function": "setDaiToken(address)",
      "arguments": [
        "0xB6202dd8D51598C18E1E277093B7468F943CD9fB"
      ],
      "transaction": {
        "from": "0x8866438f9348f33516040d38a0113531bc9e7e1d",
        "to": "0x492e26a8f06c37eaa23014ebe0a34accbc4d2282",
        "value": "0x0",
        "input": "0xacee2871000000000000000000000000b6202dd8d51598c18e1e277093b7468f943cd9fb",
        "nonce": "0x171",
        "chainId": "0x161c28"
      },
      "additionalContracts": [],
      "isFixedGasLimit": false
    },
    {
      "hash": "0x3bca2ed4503418bb798f43f64b116a74fc3193389e9adcd6c285a920178bdbac",
      "transactionType": "CALL",
      "contractName": "Controller",
      "contractAddress": "0x492e26a8f06c37eaa23014ebe0a34accbc4d2282",
      "function": "setPsm(address,address)",
      "arguments": [
        "0xfc18ab74D3a04A730B767AAB241CE5A451dfCB1d",
        "0xE26D509C661c4F16FaFfBB1eAce1Fa1CdA8cc146"
      ],
      "transaction": {
        "from": "0x8866438f9348f33516040d38a0113531bc9e7e1d",
        "to": "0x492e26a8f06c37eaa23014ebe0a34accbc4d2282",
        "value": "0x0",
        "input": "0xbf0dfcab000000000000000000000000fc18ab74d3a04a730b767aab241ce5a451dfcb1d000000000000000000000000e26d509c661c4f16faffbb1eace1fa1cda8cc146",
        "nonce": "0x172",
        "chainId": "0x161c28"
      },
      "additionalContracts": [],
      "isFixedGasLimit": false
    },
    {
      "hash": "0x2aa427f1a5259d6a52f9c7540d88f1c1c78961cf9bba34981a468a298de71cb6",
      "transactionType": "CALL",
      "contractName": "Controller",
      "contractAddress": "0x492e26a8f06c37eaa23014ebe0a34accbc4d2282",
      "function": "setCollateralConfig(bytes32,address,address,bytes32)",
      "arguments": [
        "0x5852502d41000000000000000000000000000000000000000000000000000000",
        "0xEeeeeEeeeEeEeeEeEeEeeEEEeeeeEeeeeeeeEEeE",
        "0x3d22179f2578E9374791D2B825806e278eC14A7C",
        "0xba5a21ca88ef6bba2bfff5088994f90e1077e2a1cc3dcc38bd261f00fce2824f"
      ],
      "transaction": {
        "from": "0x8866438f9348f33516040d38a0113531bc9e7e1d",
        "to": "0x492e26a8f06c37eaa23014ebe0a34accbc4d2282",
        "value": "0x0",
        "input": "0xa6bf15be5852502d41000000000000000000000000000000000000000000000000000000000000000000000000000000eeeeeeeeeeeeeeeeeeeeeeeeeeeeeeeeeeeeeeee0000000000000000000000003d22179f2578e9374791d2b825806e278ec14a7cba5a21ca88ef6bba2bfff5088994f90e1077e2a1cc3dcc38bd261f00fce2824f",
        "nonce": "0x173",
        "chainId": "0x161c28"
      },
      "additionalContracts": [],
      "isFixedGasLimit": false
    },
    {
      "hash": "0xa93297dbd060a9aef84cdaa90b21a3cced20449e20ce8a0622104d7d7d7b6a4d",
      "transactionType": "CALL",
      "contractName": "Controller",
      "contractAddress": "0x492e26a8f06c37eaa23014ebe0a34accbc4d2282",
      "function": "setCollateralConfig(bytes32,address,address,bytes32)",
      "arguments": [
        "0x555344432d410000000000000000000000000000000000000000000000000000",
        "0xE26D509C661c4F16FaFfBB1eAce1Fa1CdA8cc146",
        "0x43f5e030811411151f709A0796492EEFC34009A0",
        "0xc8895f8ceb0cae9da15bb9d2bc5859a184ca0f61c88560488355c8a7364deef8"
      ],
      "transaction": {
        "from": "0x8866438f9348f33516040d38a0113531bc9e7e1d",
        "to": "0x492e26a8f06c37eaa23014ebe0a34accbc4d2282",
        "value": "0x0",
        "input": "0xa6bf15be555344432d410000000000000000000000000000000000000000000000000000000000000000000000000000e26d509c661c4f16faffbb1eace1fa1cda8cc14600000000000000000000000043f5e030811411151f709a0796492eefc34009a0c8895f8ceb0cae9da15bb9d2bc5859a184ca0f61c88560488355c8a7364deef8",
        "nonce": "0x174",
        "chainId": "0x161c28"
      },
      "additionalContracts": [],
      "isFixedGasLimit": false
    }
  ],
  "receipts": [
    {
      "status": "0x1",
      "cumulativeGasUsed": "0x125539",
      "logs": [],
      "logsBloom": "0x00000000000000000000000000000000000000000000000000000000000000000000000000000000000000000000000000000000000000000000000000000000000000000000000000000000000000000000000000000000000000000000000000000000000000000000000000000000000000000000000000000000000000000000000000000000000000000000000000000000000000000000000000000000000000000000000000000000000000000000000000000000000000000000000000000000000000000000000000000000000000000000000000000000000000000000000000000000000000000000000000000000000000000000000000000000",
      "type": "0x2",
      "transactionHash": "0x1f62f88c26f8f7df4ad7af7d36266e2e9fb200c8cd28d2b0af0a949d016e70ed",
      "transactionIndex": "0x0",
      "blockHash": "0x75670b8bf5da124a9edb053131663bd4e941c6c94d394dbb4f4fa750d8d3ee4b",
      "blockNumber": "0x33e1a4",
      "gasUsed": "0x125539",
      "effectiveGasPrice": "0x4cd5886400",
      "from": "0x8866438f9348f33516040d38a0113531bc9e7e1d",
      "to": null,
      "contractAddress": "0x492e26a8f06c37eaa23014ebe0a34accbc4d2282"
    },
    {
      "status": "0x1",
      "cumulativeGasUsed": "0x424b1",
      "logs": [],
      "logsBloom": "0x00000000000000000000000000000000000000000000000000000000000000000000000000000000000000000000000000000000000000000000000000000000000000000000000000000000000000000000000000000000000000000000000000000000000000000000000000000000000000000000000000000000000000000000000000000000000000000000000000000000000000000000000000000000000000000000000000000000000000000000000000000000000000000000000000000000000000000000000000000000000000000000000000000000000000000000000000000000000000000000000000000000000000000000000000000000",
      "type": "0x2",
      "transactionHash": "0x984003301b8bc65c054c90ca2fcdbd836d810bd3d45a8ab173787021a7a7768e",
      "transactionIndex": "0x1",
      "blockHash": "0x71b9a11e7a32567d80357ffd097ba4a2974327d019c9a7d1d8094787ae3aea5f",
      "blockNumber": "0x33e1a5",
      "gasUsed": "0xb441",
      "effectiveGasPrice": "0x4cd5886400",
      "from": "0x8866438f9348f33516040d38a0113531bc9e7e1d",
      "to": "0x492e26a8f06c37eaa23014ebe0a34accbc4d2282",
      "contractAddress": null
    },
    {
      "status": "0x1",
      "cumulativeGasUsed": "0xb506",
      "logs": [],
      "logsBloom": "0x00000000000000000000000000000000000000000000000000000000000000000000000000000000000000000000000000000000000000000000000000000000000000000000000000000000000000000000000000000000000000000000000000000000000000000000000000000000000000000000000000000000000000000000000000000000000000000000000000000000000000000000000000000000000000000000000000000000000000000000000000000000000000000000000000000000000000000000000000000000000000000000000000000000000000000000000000000000000000000000000000000000000000000000000000000000",
      "type": "0x2",
      "transactionHash": "0x927dea2f0c279fed36a48f6a532f07ddb13d0c49d3e1042d8f4bd1bab38d4ffa",
      "transactionIndex": "0x0",
      "blockHash": "0x3f6c0aa2e283a69312e75340d35a13eb6ffa42d3726e9ef33dca718aaded5d88",
      "blockNumber": "0x33e1a6",
      "gasUsed": "0xb506",
      "effectiveGasPrice": "0x4cd5886400",
      "from": "0x8866438f9348f33516040d38a0113531bc9e7e1d",
      "to": "0x492e26a8f06c37eaa23014ebe0a34accbc4d2282",
      "contractAddress": null
    },
    {
      "status": "0x1",
      "cumulativeGasUsed": "0x10d95",
      "logs": [],
      "logsBloom": "0x00000000000000000000000000000000000000000000000000000000000000000000000000000000000000000000000000000000000000000000000000000000000000000000000000000000000000000000000000000000000000000000000000000000000000000000000000000000000000000000000000000000000000000000000000000000000000000000000000000000000000000000000000000000000000000000000000000000000000000000000000000000000000000000000000000000000000000000000000000000000000000000000000000000000000000000000000000000000000000000000000000000000000000000000000000000",
      "type": "0x2",
      "transactionHash": "0x3bca2ed4503418bb798f43f64b116a74fc3193389e9adcd6c285a920178bdbac",
      "transactionIndex": "0x0",
      "blockHash": "0x63e9ed87ae6c28603bbd39cdfa1818aa751fd71dfe22046c00dd70a9976fc762",
      "blockNumber": "0x33e1a7",
      "gasUsed": "0x10d95",
      "effectiveGasPrice": "0x4cd5886400",
      "from": "0x8866438f9348f33516040d38a0113531bc9e7e1d",
      "to": "0x492e26a8f06c37eaa23014ebe0a34accbc4d2282",
      "contractAddress": null
    },
    {
      "status": "0x1",
      "cumulativeGasUsed": "0x52dea",
      "logs": [],
      "logsBloom": "0x00000000000000000000000000000000000000000000000000000000000000000000000000000000000000000000000000000000000000000000000000000000000000000000000000000000000000000000000000000000000000000000000000000000000000000000000000000000000000000000000000000000000000000000000000000000000000000000000000000000000000000000000000000000000000000000000000000000000000000000000000000000000000000000000000000000000000000000000000000000000000000000000000000000000000000000000000000000000000000000000000000000000000000000000000000000",
      "type": "0x2",
      "transactionHash": "0x2aa427f1a5259d6a52f9c7540d88f1c1c78961cf9bba34981a468a298de71cb6",
      "transactionIndex": "0x1",
      "blockHash": "0x3ff3c3eb1fe97a506ba5359bde7e28e576b72bb79cd0fe6812ae14794c52b018",
      "blockNumber": "0x33e1a8",
      "gasUsed": "0x1bd7a",
      "effectiveGasPrice": "0x4cd5886400",
      "from": "0x8866438f9348f33516040d38a0113531bc9e7e1d",
      "to": "0x492e26a8f06c37eaa23014ebe0a34accbc4d2282",
      "contractAddress": null
    },
    {
      "status": "0x1",
      "cumulativeGasUsed": "0xccf22",
      "logs": [],
      "logsBloom": "0x00000000000000000000000000000000000000000000000000000000000000000000000000000000000000000000000000000000000000000000000000000000000000000000000000000000000000000000000000000000000000000000000000000000000000000000000000000000000000000000000000000000000000000000000000000000000000000000000000000000000000000000000000000000000000000000000000000000000000000000000000000000000000000000000000000000000000000000000000000000000000000000000000000000000000000000000000000000000000000000000000000000000000000000000000000000",
      "type": "0x2",
      "transactionHash": "0xa93297dbd060a9aef84cdaa90b21a3cced20449e20ce8a0622104d7d7d7b6a4d",
      "transactionIndex": "0x6",
      "blockHash": "0x24aac9c40026b0aac0c760ece978905a08e6022729ea1f85106c1f5616ac3bb1",
      "blockNumber": "0x33e1a9",
      "gasUsed": "0x1bd92",
      "effectiveGasPrice": "0x4cd5886400",
      "from": "0x8866438f9348f33516040d38a0113531bc9e7e1d",
      "to": "0x492e26a8f06c37eaa23014ebe0a34accbc4d2282",
      "contractAddress": null
    }
  ],
  "libraries": [],
  "pending": [],
  "returns": {},
  "timestamp": 1759311717194,
  "chain": 1449000,
  "commit": "8de4158"
}