{
  "transactions": [
    {
      "hash": "0xad7bb8c02cfb95729ee19a5c2dfaafbe8f72350353ceee268cad0e8bf1104c45",
      "transactionType": "CREATE",
      "contractName": "Controller",
      "contractAddress": "0x20a57802f9270f4fb7a4b3a917b7d72b3524e1c1",
      "function": null,
      "arguments": [
        "0xB5FB4BE02232B1bBA4dC8f81dc24C26980dE9e3C",
        "0xAd8719B84d126000000000000000000000000000",
        "0x9E8860db73D093464ee2B5a1Fe6F63B09F70e8C1",
        "0x6Ea452dC1105607eC1AB84c643369Dd3356cc251"
      ],
      "transaction": {
        "from": "0x8866438f9348f33516040d38a0113531bc9e7e1d",
        "value": "0x0",
        "input": "0x61010080604052346101405760808161106080380380916100208285610157565b833981010312610140576100338161018e565b906100406020820161018e565b61005860606100516040850161018e565b930161018e565b6080939093526001600160a01b0316908115610144576001600160a01b0316918215610144576001600160a01b031680156101445760a082905260c083905260e052600a80546001600160a01b03191633179055813b15610140575f916024839260405194859384926328ec8bf160e21b845260048401525af1801561013557610125575b604051610ebd90816101a3823960805181818161085d01526109e8015260a05181818161030301526104bb015260c05181818161055801526107a5015260e051816102090152f35b5f61012f91610157565b5f6100dd565b6040513d5f823e3d90fd5b5f80fd5b6316c6875160e31b5f525f60045260245ffd5b601f909101601f19168101906001600160401b0382119082101761017a57604052565b634e487b7160e01b5f52604160045260245ffd5b51906001600160a01b03821682036101405756fe6080806040526004361015610012575f80fd5b5f3560e01c90816304bda26214610a175750806309c6bed9146109d357806311eac855146109ab578063120394de146108dc57806329241502146107d457806336569e77146107905780634cbab1f1146106555780634e1c756e14610762578063541341661461072a5780635dfc9d7b1461070057806374c31f5d1461067f5780637aa2dbc1146106555780638019a78614610491578063947a97e914610447578063a2f8f0571461042a578063a6bf15be14610385578063acee287114610332578063bb038e15146102ee578063be22f546146102c6578063bf0dfcab14610238578063c11645bc146101f4578063c4ed266214610198578063c71f8d67146101c2578063c7e5b0a414610198578063d1a294c4146101665763f851a4401461013a575f80fd5b34610162575f36600319011261016257600a546040516001600160a01b039091168152602090f35b5f80fd5b34610162576020366003190112610162576004355f526004602052602060018060a01b0360405f205416604051908152f35b34610162576020366003190112610162576004355f526002602052602060405f2054604051908152f35b34610162576020366003190112610162576004355f526005602052602060018060a01b0360405f205416604051908152f35b34610162575f366003190112610162576040517f00000000000000000000000000000000000000000000000000000000000000006001600160a01b03168152602090f35b3461016257604036600319011261016257610251610a98565b610259610aae565b9061026f60018060a01b03600a54163314610b4c565b6001600160a01b03169081156102b3576001600160a01b03169081156102b3575f80546001600160a01b031990811692909217905560018054909116919091179055005b6316c6875160e31b5f525f60045260245ffd5b34610162575f366003190112610162576009546040516001600160a01b039091168152602090f35b34610162575f366003190112610162576040517f00000000000000000000000000000000000000000000000000000000000000006001600160a01b03168152602090f35b346101625760203660031901126101625761034b610a98565b61036060018060a01b03600a54163314610b4c565b6001600160a01b031680156102b357600980546001600160a01b031916919091179055005b34610162576080366003190112610162576004356103a1610aae565b6044356001600160a01b0381168103610162576103c960018060a01b03600a54163314610b4c565b5f83815260046020908152604080832080546001600160a01b039687166001600160a01b0319918216811790925560058452828520805496909716951694909417909455918152600682528281208490559283526007905290206064359055005b34610162575f366003190112610162576020600854604051908152f35b34610162576020366003190112610162576004356001600160401b038111610162576104796020913690600401610a39565b90809291810103126101625760209035604051908152f35b3461016257602036600319011261016257604051632c2cb9fd60e01b8152600480359082018190527f00000000000000000000000000000000000000000000000000000000000000006001600160a01b031690602083602481855afa9283156105d3575f93610620575b50602090602460405180948193632726b07360e01b835260048301525afa9081156105d3575f916105de575b50604080516309092f9760e21b815260048101939093526001600160a01b03918216602484015290829060449082907f0000000000000000000000000000000000000000000000000000000000000000165afa80156105d3575f905f90610599575b6040809350519182526020820152f35b50506040813d6040116105cb575b816105b460409383610ac4565b810103126101625780602060409251910151610589565b3d91506105a7565b6040513d5f823e3d90fd5b90506020813d602011610618575b816105f960209383610ac4565b8101031261016257516001600160a01b03811681036101625782610527565b3d91506105ec565b9092506020813d60201161064d575b8161063c60209383610ac4565b8101031261016257519160206104fb565b3d915061062f565b34610162576020366003190112610162576004355f526003602052602060405f2054604051908152f35b34610162576020366003190112610162576004356001600160401b038111610162576106af903690600401610a39565b81016040828203126101625760208201356001600160401b0381116101625782019080601f83011215610162578160206106eb93359101610b16565b906106fc6040519283923583610a66565b0390f35b34610162576020366003190112610162576004355f526007602052602060405f2054604051908152f35b34610162576020366003190112610162576001600160a01b0361074b610a98565b165f526006602052602060405f2054604051908152f35b346101625760203660031901126101625761078860018060a01b03600a54163314610b4c565b600435600855005b34610162575f366003190112610162576040517f00000000000000000000000000000000000000000000000000000000000000006001600160a01b03168152602090f35b346101625760e0366003190112610162576024356001600160401b03811161016257610804903690600401610a39565b6044356001600160401b03811161016257610823903690600401610a39565b90926064356001600160401b03811161016257610844903690600401610a39565b60a435939091906001600160a01b0385168503610162577f00000000000000000000000000000000000000000000000000000000000000006001600160a01b031633036108c95761089f9660c4359660843595600435610ba4565b60206040517fe84001f3dedacf7f9ddc370e9f09c26b37473e9e959ffdc4925f6fe33c9877e48152f35b630d6c7be960e01b5f523360045260245ffd5b34610162576020366003190112610162576004356001600160401b0381116101625761090b3682600401610a39565b6040811061097557602435916020830191828411610961576020846004013585010180931161096157821161016257610951923692819003601f19019101602001610b16565b906106fc60405192839283610a66565b634e487b7160e01b5f52601160045260245ffd5b60405162461bcd60e51b815260206004820152600e60248201526d11185d18481d1bdbc81cda1bdc9d60921b6044820152606490fd5b34610162575f366003190112610162576001546040516001600160a01b039091168152602090f35b34610162575f366003190112610162576040517f00000000000000000000000000000000000000000000000000000000000000006001600160a01b03168152602090f35b34610162575f366003190112610162575f546001600160a01b03168152602090f35b9181601f84011215610162578235916001600160401b038311610162576020838186019501011161016257565b9060609260209183526040828401528051918291826040860152018484015e5f828201840152601f01601f1916010190565b600435906001600160a01b038216820361016257565b602435906001600160a01b038216820361016257565b601f909101601f19168101906001600160401b03821190821017610ae757604052565b634e487b7160e01b5f52604160045260245ffd5b6001600160401b038111610ae757601f01601f191660200190565b929192610b2282610afb565b91610b306040519384610ac4565b829481845281830111610162578281602093845f960137010152565b15610b5357565b60405162461bcd60e51b81526020600482015260096024820152683737ba16b0b236b4b760b91b6044820152606490fd5b908060209392818452848401375f828201840152601f01601f1916010190565b94979092610c15610c24917f6250969d220720e7338bf44e92bbcab2b3f340a659195294b812a0903b2c6ca299969b94989b610c07610be4368385610b16565b60208151910120976040519b8c9b8c5261010060208d01526101008c0191610b84565b9189830360408b0152610b84565b86810360608801528a8a610b84565b60808601949094526001600160a01b031660a085015260c084015260e08301520390a18115610e3f5760405163947a97e960e01b81526020600482018190528180610c73602482018787610b84565b0381305afa5f9181610e0b575b50610db357506040516374c31f5d60e01b815260206004820152915f8380610cac602482018587610b84565b0381305afa5f815f92610d25575b5f516020610e685f395f51905f529550610d12575050610d0d6040519283927f39029d34a8b6b2b5da5f65266cb13b3b4de81883a183493559b04ec7484290d38452604060208501526040840191610b84565b0390a1565b91509150610d0d60405192839283610a66565b9150503d805f863e610d378186610ac4565b8401604085820312610162578451602086015190956001600160401b03821161016257019481601f87011215610162578551610d7281610afb565b92610d806040519485610ac4565b81845260208289010111610162576020815f92825f516020610e685f395f51905f529a018387015e840101529091610cba565b90505f516020610e685f395f51905f52915060405190602080830152600e60408301526d6f7065726174696f6e5f6f6e6c7960901b606083015260608252610dfc608083610ac4565b610d0d60405192839283610a66565b9091506020813d602011610e37575b81610e2760209383610ac4565b810103126101625751905f610c80565b3d9150610e1a565b50505f516020610e685f395f51905f5260606040515f8152604060208201525f6040820152a156fe930feecf69ea1a2d105172abbb9a8fa39391d176a2d80882b6e5489b8882ade3a264697066735822122067f316c818c5938f3609189451755042497d9c35c78482e825cfb3273ac75dff64736f6c634300081e0033000000000000000000000000b5fb4be02232b1bba4dc8f81dc24c26980de9e3c000000000000000000000000ad8719b84d1260000000000000000000000000000000000000000000000000009e8860db73d093464ee2b5a1fe6f63b09f70e8c10000000000000000000000006ea452dc1105607ec1ab84c643369dd3356cc251",
        "nonce": "0x11b",
        "chainId": "0x161c28"
      },
      "additionalContracts": [],
      "isFixedGasLimit": false
    },
    {
      "hash": "0x117ebe4ee6534ec5d0a05c501c72c66e933c5584dae2c232e9e7fbddc1a1bd06",
      "transactionType": "CALL",
      "contractName": "Controller",
      "contractAddress": "0x20a57802f9270f4fb7a4b3a917b7d72b3524e1c1",
      "function": "setDaiTokenId(bytes32)",
      "arguments": [
        "0x8888888888888888888888888888888888888888888888888888888888888888"
      ],
      "transaction": {
        "from": "0x8866438f9348f33516040d38a0113531bc9e7e1d",
        "to": "0x20a57802f9270f4fb7a4b3a917b7d72b3524e1c1",
        "value": "0x0",
        "input": "0x4e1c756e8888888888888888888888888888888888888888888888888888888888888888",
        "nonce": "0x11c",
        "chainId": "0x161c28"
      },
      "additionalContracts": [],
      "isFixedGasLimit": false
    },
    {
      "hash": "0x10fb2520517bf16e9f4aa1f2ffaad5f1dbc7f45e295da37a224469192cad428f",
      "transactionType": "CALL",
      "contractName": "Controller",
      "contractAddress": "0x20a57802f9270f4fb7a4b3a917b7d72b3524e1c1",
      "function": "setDaiToken(address)",
      "arguments": [
        "0xB6202dd8D51598C18E1E277093B7468F943CD9fB"
      ],
      "transaction": {
        "from": "0x8866438f9348f33516040d38a0113531bc9e7e1d",
        "to": "0x20a57802f9270f4fb7a4b3a917b7d72b3524e1c1",
        "value": "0x0",
        "input": "0xacee2871000000000000000000000000b6202dd8d51598c18e1e277093b7468f943cd9fb",
        "nonce": "0x11d",
        "chainId": "0x161c28"
      },
      "additionalContracts": [],
      "isFixedGasLimit": false
    },
    {
      "hash": "0x2d0780233c09480723213e2ecd9c5c21935f8bd18261a40020730f35fb8b09ac",
      "transactionType": "CALL",
      "contractName": "Controller",
      "contractAddress": "0x20a57802f9270f4fb7a4b3a917b7d72b3524e1c1",
      "function": "setPsm(address,address)",
      "arguments": [
        "0xfc18ab74D3a04A730B767AAB241CE5A451dfCB1d",
        "0xE26D509C661c4F16FaFfBB1eAce1Fa1CdA8cc146"
      ],
      "transaction": {
        "from": "0x8866438f9348f33516040d38a0113531bc9e7e1d",
        "to": "0x20a57802f9270f4fb7a4b3a917b7d72b3524e1c1",
        "value": "0x0",
        "input": "0xbf0dfcab000000000000000000000000fc18ab74d3a04a730b767aab241ce5a451dfcb1d000000000000000000000000e26d509c661c4f16faffbb1eace1fa1cda8cc146",
        "nonce": "0x11e",
        "chainId": "0x161c28"
      },
      "additionalContracts": [],
      "isFixedGasLimit": false
    },
    {
      "hash": "0x8b32686dad3a7c6548908a449c6e72e260062949bdfdc8b21d47278f10aa6621",
      "transactionType": "CALL",
      "contractName": "Controller",
      "contractAddress": "0x20a57802f9270f4fb7a4b3a917b7d72b3524e1c1",
      "function": "setCollateralConfig(bytes32,address,address,bytes32)",
      "arguments": [
        "0x5852502d41000000000000000000000000000000000000000000000000000000",
        "0xEeeeeEeeeEeEeeEeEeEeeEEEeeeeEeeeeeeeEEeE",
        "0x3d22179f2578E9374791D2B825806e278eC14A7C",
        "0xba5a21ca88ef6bba2bfff5088994f90e1077e2a1cc3dcc38bd261f00fce2824f"
      ],
      "transaction": {
        "from": "0x8866438f9348f33516040d38a0113531bc9e7e1d",
        "to": "0x20a57802f9270f4fb7a4b3a917b7d72b3524e1c1",
        "value": "0x0",
        "input": "0xa6bf15be5852502d41000000000000000000000000000000000000000000000000000000000000000000000000000000eeeeeeeeeeeeeeeeeeeeeeeeeeeeeeeeeeeeeeee0000000000000000000000003d22179f2578e9374791d2b825806e278ec14a7cba5a21ca88ef6bba2bfff5088994f90e1077e2a1cc3dcc38bd261f00fce2824f",
        "nonce": "0x11f",
        "chainId": "0x161c28"
      },
      "additionalContracts": [],
      "isFixedGasLimit": false
    },
    {
      "hash": "0x155127805278aca3b61fe6d3d2ace52194e670070d13a51c49d6ea681194e34c",
      "transactionType": "CALL",
      "contractName": "Controller",
      "contractAddress": "0x20a57802f9270f4fb7a4b3a917b7d72b3524e1c1",
      "function": "setCollateralConfig(bytes32,address,address,bytes32)",
      "arguments": [
        "0x555344432d410000000000000000000000000000000000000000000000000000",
        "0xE26D509C661c4F16FaFfBB1eAce1Fa1CdA8cc146",
        "0x43f5e030811411151f709A0796492EEFC34009A0",
        "0xc8895f8ceb0cae9da15bb9d2bc5859a184ca0f61c88560488355c8a7364deef8"
      ],
      "transaction": {
        "from": "0x8866438f9348f33516040d38a0113531bc9e7e1d",
        "to": "0x20a57802f9270f4fb7a4b3a917b7d72b3524e1c1",
        "value": "0x0",
        "input": "0xa6bf15be555344432d410000000000000000000000000000000000000000000000000000000000000000000000000000e26d509c661c4f16faffbb1eace1fa1cda8cc14600000000000000000000000043f5e030811411151f709a0796492eefc34009a0c8895f8ceb0cae9da15bb9d2bc5859a184ca0f61c88560488355c8a7364deef8",
        "nonce": "0x120",
        "chainId": "0x161c28"
      },
      "additionalContracts": [],
      "isFixedGasLimit": false
    }
  ],
  "receipts": [
    {
      "status": "0x1",
      "cumulativeGasUsed": "0x19414e",
      "logs": [],
      "logsBloom": "0x00000000000000000000000000000000000000000000000000000000000000000000000000000000000000000000000000000000000000000000000000000000000000000000000000000000000000000000000000000000000000000000000000000000000000000000000000000000000000000000000000000000000000000000000000000000000000000000000000000000000000000000000000000000000000000000000000000000000000000000000000000000000000000000000000000000000000000000000000000000000000000000000000000000000000000000000000000000000000000000000000000000000000000000000000000000",
      "type": "0x2",
      "transactionHash": "0xad7bb8c02cfb95729ee19a5c2dfaafbe8f72350353ceee268cad0e8bf1104c45",
      "transactionIndex": "0x8",
      "blockHash": "0xa352f5fcfe5a69011820a39f0ea3c630ec9aeba35162aefceffedc7422da23cb",
      "blockNumber": "0x33db8d",
      "gasUsed": "0xe13fa",
      "effectiveGasPrice": "0x4cd5886400",
      "from": "0x8866438f9348f33516040d38a0113531bc9e7e1d",
      "to": null,
      "contractAddress": "0x20a57802f9270f4fb7a4b3a917b7d72b3524e1c1"
    },
    {
      "status": "0x1",
      "cumulativeGasUsed": "0xb437",
      "logs": [],
      "logsBloom": "0x00000000000000000000000000000000000000000000000000000000000000000000000000000000000000000000000000000000000000000000000000000000000000000000000000000000000000000000000000000000000000000000000000000000000000000000000000000000000000000000000000000000000000000000000000000000000000000000000000000000000000000000000000000000000000000000000000000000000000000000000000000000000000000000000000000000000000000000000000000000000000000000000000000000000000000000000000000000000000000000000000000000000000000000000000000000",
      "type": "0x2",
      "transactionHash": "0x117ebe4ee6534ec5d0a05c501c72c66e933c5584dae2c232e9e7fbddc1a1bd06",
      "transactionIndex": "0x0",
      "blockHash": "0x8d5f0c96817725d2959f6a16fb3de4fcc3544c4df9b41c5be1d9aca8e5116925",
      "blockNumber": "0x33db8e",
      "gasUsed": "0xb437",
      "effectiveGasPrice": "0x4cd5886400",
      "from": "0x8866438f9348f33516040d38a0113531bc9e7e1d",
      "to": "0x20a57802f9270f4fb7a4b3a917b7d72b3524e1c1",
      "contractAddress": null
    },
    {
      "status": "0x1",
      "cumulativeGasUsed": "0xff73c",
      "logs": [],
      "logsBloom": "0x00000000000000000000000000000000000000000000000000000000000000000000000000000000000000000000000000000000000000000000000000000000000000000000000000000000000000000000000000000000000000000000000000000000000000000000000000000000000000000000000000000000000000000000000000000000000000000000000000000000000000000000000000000000000000000000000000000000000000000000000000000000000000000000000000000000000000000000000000000000000000000000000000000000000000000000000000000000000000000000000000000000000000000000000000000000",
      "type": "0x2",
      "transactionHash": "0x10fb2520517bf16e9f4aa1f2ffaad5f1dbc7f45e295da37a224469192cad428f",
      "transactionIndex": "0xa",
      "blockHash": "0x167f5958081ff11131158634cd374e8dcd896bf38b8a78e4d4f40d7454e9e1a9",
      "blockNumber": "0x33db8f",
      "gasUsed": "0xb4fc",
      "effectiveGasPrice": "0x4cd5886400",
      "from": "0x8866438f9348f33516040d38a0113531bc9e7e1d",
      "to": "0x20a57802f9270f4fb7a4b3a917b7d72b3524e1c1",
      "contractAddress": null
    },
    {
      "status": "0x1",
      "cumulativeGasUsed": "0x10d9c",
      "logs": [],
      "logsBloom": "0x00000000000000000000000000000000000000000000000000000000000000000000000000000000000000000000000000000000000000000000000000000000000000000000000000000000000000000000000000000000000000000000000000000000000000000000000000000000000000000000000000000000000000000000000000000000000000000000000000000000000000000000000000000000000000000000000000000000000000000000000000000000000000000000000000000000000000000000000000000000000000000000000000000000000000000000000000000000000000000000000000000000000000000000000000000000",
      "type": "0x2",
      "transactionHash": "0x2d0780233c09480723213e2ecd9c5c21935f8bd18261a40020730f35fb8b09ac",
      "transactionIndex": "0x0",
      "blockHash": "0xc9226424a353e9e4b2e7e23fca63cde8b1a0d2d7ec617b07ef91b6b75f012d14",
      "blockNumber": "0x33db90",
      "gasUsed": "0x10d9c",
      "effectiveGasPrice": "0x4cd5886400",
      "from": "0x8866438f9348f33516040d38a0113531bc9e7e1d",
      "to": "0x20a57802f9270f4fb7a4b3a917b7d72b3524e1c1",
      "contractAddress": null
    },
    {
      "status": "0x1",
      "cumulativeGasUsed": "0x1bd66",
      "logs": [],
      "logsBloom": "0x00000000000000000000000000000000000000000000000000000000000000000000000000000000000000000000000000000000000000000000000000000000000000000000000000000000000000000000000000000000000000000000000000000000000000000000000000000000000000000000000000000000000000000000000000000000000000000000000000000000000000000000000000000000000000000000000000000000000000000000000000000000000000000000000000000000000000000000000000000000000000000000000000000000000000000000000000000000000000000000000000000000000000000000000000000000",
      "type": "0x2",
      "transactionHash": "0x8b32686dad3a7c6548908a449c6e72e260062949bdfdc8b21d47278f10aa6621",
      "transactionIndex": "0x0",
      "blockHash": "0xdaea1c85cc4f044e5ecc460f781a58068b4287fafe990aaf1abb2a49a012ee70",
      "blockNumber": "0x33db91",
      "gasUsed": "0x1bd66",
      "effectiveGasPrice": "0x4cd5886400",
      "from": "0x8866438f9348f33516040d38a0113531bc9e7e1d",
      "to": "0x20a57802f9270f4fb7a4b3a917b7d72b3524e1c1",
      "contractAddress": null
    },
    {
      "status": "0x1",
      "cumulativeGasUsed": "0x1bd7e",
      "logs": [],
      "logsBloom": "0x00000000000000000000000000000000000000000000000000000000000000000000000000000000000000000000000000000000000000000000000000000000000000000000000000000000000000000000000000000000000000000000000000000000000000000000000000000000000000000000000000000000000000000000000000000000000000000000000000000000000000000000000000000000000000000000000000000000000000000000000000000000000000000000000000000000000000000000000000000000000000000000000000000000000000000000000000000000000000000000000000000000000000000000000000000000",
      "type": "0x2",
      "transactionHash": "0x155127805278aca3b61fe6d3d2ace52194e670070d13a51c49d6ea681194e34c",
      "transactionIndex": "0x0",
      "blockHash": "0xc0fc9a6118b279a350272dcf7797e7f38596c043d3dce441dc18af71f3792474",
      "blockNumber": "0x33db92",
      "gasUsed": "0x1bd7e",
      "effectiveGasPrice": "0x4cd5886400",
      "from": "0x8866438f9348f33516040d38a0113531bc9e7e1d",
      "to": "0x20a57802f9270f4fb7a4b3a917b7d72b3524e1c1",
      "contractAddress": null
    }
  ],
  "libraries": [],
  "pending": [],
  "returns": {},
  "timestamp": 1759302869534,
  "chain": 1449000,
  "commit": "91aff73"
}