{
  "transactions": [
    {
      "hash": "0x650e44487e92800fb0b5f3d0ca8ec82919e51e801f0bbf008ca04a22946cb876",
      "transactionType": "CREATE",
      "contractName": "Controller",
      "contractAddress": "0x8b8075a57c6b3c6dfdbc4b674a4c4decf5574a5d",
      "function": null,
      "arguments": [
        "0xB5FB4BE02232B1bBA4dC8f81dc24C26980dE9e3C",
        "0xEd09DD3f30CCDEADAa25eED2f14eAa646878799F",
        "0x9E8860db73D093464ee2B5a1Fe6F63B09F70e8C1",
        "0x6Ea452dC1105607eC1AB84c643369Dd3356cc251"
      ],
      "transaction": {
        "from": "0x8866438f9348f33516040d38a0113531bc9e7e1d",
        "value": "0x0",
        "input": "0x61010080604052346101c2575f6080826114ca803803809161002182856101d9565b8339810103126101c25761003482610210565b61004060208401610210565b610058606061005160408701610210565b9501610210565b6080929092526001600160a01b03169283156101c6576001600160a01b03169081156101c6576001600160a01b03169283156101c65760a081905260c082905260e0849052600a80546001600160a01b03191633179055813b156101c2575f916024839260405194859384926328ec8bf160e21b845260048401525af180156101b7576101a4575b5060c051909182916001600160a01b0316803b156101a0576024839260405194859384926328ec8bf160e21b845260048401525af180156101955761017d575b6040516112a5908161022582396080518181816108660152610ffa015260a051818181610308015281816104e6015281816109dc0152610e26015260c05181818161057701526107a7015260e05181818161020d0152610af70152f35b6101888280926101d9565b6101925780610120565b80fd5b6040513d84823e3d90fd5b5050fd5b6101b091505f906101d9565b5f5f6100e0565b6040513d5f823e3d90fd5b5f80fd5b6316c6875160e31b5f525f60045260245ffd5b601f909101601f19168101906001600160401b038211908210176101fc57604052565b634e487b7160e01b5f52604160045260245ffd5b51906001600160a01b03821682036101c25756fe6080806040526004361015610012575f80fd5b5f905f3560e01c90816304bda262146110295750806309c6bed914610fe557806311eac85514610fbd578063120394de14610efe57806329241502146107d657806336569e77146107915780634cbab1f1146106845780634e1c756e1461076157806354134166146107285780635dfc9d7b146106fe57806374c31f5d146106ae5780637aa2dbc1146106845780638019a786146104bb578063947a97e91461046c578063a2f8f0571461044e578063a6bf15be146103a0578063acee287114610337578063bb038e15146102f2578063be22f546146102c9578063bf0dfcab1461023c578063c11645bc146101f7578063c4ed26621461019a578063c71f8d67146101c4578063c7e5b0a41461019a578063d1a294c4146101675763f851a4401461013c575f80fd5b34610164578060031936011261016457600a546040516001600160a01b039091168152602090f35b80fd5b503461016457602036600319011261016457602090600435815260048252604060018060a01b0391205416604051908152f35b50346101645760203660031901126101645760406020916004358152600283522054604051908152f35b503461016457602036600319011261016457602090600435815260058252604060018060a01b0391205416604051908152f35b50346101645780600319360112610164576040517f00000000000000000000000000000000000000000000000000000000000000006001600160a01b03168152602090f35b5034610164576040366003190112610164576102566110aa565b61025e6110c0565b9061027460018060a01b03600a54163314611152565b6001600160a01b03169081156102b5576001600160a01b03169081156102b55760018060a01b031983541617825560018060a01b0319600154161760015580f35b6316c6875160e31b83526004839052602483fd5b50346101645780600319360112610164576009546040516001600160a01b039091168152602090f35b50346101645780600319360112610164576040517f00000000000000000000000000000000000000000000000000000000000000006001600160a01b03168152602090f35b5034610164576020366003190112610164576103516110aa565b61036660018060a01b03600a54163314611152565b6001600160a01b0316801561038c57600980546001600160a01b03191691909117905580f35b6316c6875160e31b82526004829052602482fd5b5034610164576080366003190112610164576004356103bd6110c0565b6044356001600160a01b038116810361044a576103e560018060a01b03600a54163314611152565b82845260046020908152604080862080546001600160a01b039586166001600160a01b03199182168117909255868852600584528288208054959096169416939093179093559084526006815281842083905591835260079091528120606435905580f35b8380fd5b50346101645780600319360112610164576020600854604051908152f35b5034610164576020366003190112610164576004356001600160401b0381116104b75761049f602091369060040161104b565b90809291810103126104b75760209035604051908152f35b5080fd5b503461016457602036600319011261016457604051632c2cb9fd60e01b8152600480359082018190527f00000000000000000000000000000000000000000000000000000000000000006001600160a01b031690602083602481855afa928315610679578493610644575b50602090602460405180948193632726b07360e01b835260048301525afa801561063957610573926040928592610608575b5082516309092f9760e21b81529384928392600484016111eb565b03817f00000000000000000000000000000000000000000000000000000000000000006001600160a01b03165afa80156105fd57829183916105c0575b6040838382519182526020820152f35b9150506040813d6040116105f5575b816105dc604093836110d6565b810103126104b75760409150602081519101515f6105b0565b3d91506105cf565b6040513d84823e3d90fd5b61062b91925060203d602011610632575b61062381836110d6565b8101906111cc565b905f610558565b503d610619565b6040513d85823e3d90fd5b9092506020813d602011610671575b81610660602093836110d6565b8101031261044a5751916020610526565b3d9150610653565b6040513d86823e3d90fd5b50346101645760203660031901126101645760406020916004358152600383522054604051908152f35b503461016457602036600319011261016457600435906001600160401b038211610164576106ea6106e2366004850161104b565b81019061118a565b906106fa60405192839283611078565b0390f35b50346101645760203660031901126101645760406020916004358152600783522054604051908152f35b5034610164576020366003190112610164576020906040906001600160a01b036107506110aa565b168152600683522054604051908152f35b50346101645760203660031901126101645761078860018060a01b03600a54163314611152565b60043560085580f35b50346101645780600319360112610164576040517f00000000000000000000000000000000000000000000000000000000000000006001600160a01b03168152602090f35b5034610dac5760e0366003190112610dac576024356001600160401b038111610dac5761080790369060040161104b565b50506044356001600160401b038111610dac5761082890369060040161104b565b9091906064356001600160401b038111610dac5761084a90369060040161104b565b60a4356001600160a01b038116956084359391879003610dac577f00000000000000000000000000000000000000000000000000000000000000009460c43592906001600160a01b0387163303610eeb576108ba926108aa91369161110d565b602081519101209381019061118a565b93907fc878ce8db15ae780a7801a0a72a5c00850f38b7bbdb4e0015ea7f3b253063fbf6020604051838152a17fe77d2bd163c1d1e0f6d02bd9b28f5b1b0efd4ecd39aa2db3cc6d3d720b6495a28103610ed95750604084805181010312610dac5760406020850151940151965f5260066020528360405f205403610ec657835f5260076020528060405f205403610eb45750815f52600260205260405f2054918215610e00575b505f838152600560205260409020546001600160a01b0316928315610dee575f52600460205260018060a01b0360405f2054166020604051809263095ea7b360e01b8252815f816109b6888b6004840161121c565b03925af18015610da157610dd1575b50604051632726b07360e01b8152600481018390527f00000000000000000000000000000000000000000000000000000000000000006001600160a01b031693602082602481885afa918215610da1575f92610db0575b50803b15610dac57825f91610a489383604051809681958294633b4da69f60e01b84526004840161121c565b03925af18015610da157610d8c575b50823b15610d5457604051906345e6bdcd60e01b82528260048301526024820152856044820152848160648183875af18015610d8157908591610d6c575b5050676765c793fa10079d601b1b85810291908683041486151715610d5857823b15610d54579060648592836040519586948593637cf986db60e11b8552600485015230602485015260448401525af1801561063957908391610d3f575b50507f00000000000000000000000000000000000000000000000000000000000000006001600160a01b0316803b15610d095782604051809263ef693bed60e01b8252818381610b478a306004840161121c565b03925af1801561063957908391610d2a575b5050600954825460405163095ea7b360e01b81529160209183916001600160a01b0390811691839188918391610b95918c91166004840161121c565b03925af1801561063957610d0d575b507ff685e843ad79f24108e43bba845f0c0548e7d009a0304540bbe0684146d9444160206103e8850494604051908152a181546001600160a01b0316803b15610d0957826040518092638d7ef9bb60e01b8252818381610c088a306004840161121c565b03925af1801561063957908391610cf4575b50506001546001600160a01b031690610c3282611237565b5066038d7ea4c680008401809411610ce05792602091610c69948460405180978195829463095ea7b360e01b84526004840161121c565b03925af1908115610cd45750610ca5575b5060206040517fe84001f3dedacf7f9ddc370e9f09c26b37473e9e959ffdc4925f6fe33c9877e48152f35b610cc69060203d602011610ccd575b610cbe81836110d6565b810190611204565b505f610c7a565b503d610cb4565b604051903d90823e3d90fd5b634e487b7160e01b83526011600452602483fd5b81610cfe916110d6565b6104b757815f610c1a565b8280fd5b610d259060203d602011610ccd57610cbe81836110d6565b610ba4565b81610d34916110d6565b6104b757815f610b59565b81610d49916110d6565b6104b757815f610af3565b8480fd5b634e487b7160e01b85526011600452602485fd5b81610d76916110d6565b61044a57835f610a95565b6040513d87823e3d90fd5b610d999195505f906110d6565b5f935f610a57565b6040513d5f823e3d90fd5b5f80fd5b610dca91925060203d6020116106325761062381836110d6565b905f610a1c565b610de99060203d602011610ccd57610cbe81836110d6565b6109c5565b631e71423d60e01b5f5260045260245ffd5b604051636090dec560e01b8152925060208380610e213088600484016111eb565b03815f7f00000000000000000000000000000000000000000000000000000000000000006001600160a01b03165af1928315610da1575f93610e80575b5082815f5260026020528060405f20555f52600360205260405f20555f610961565b9092506020813d602011610eac575b81610e9c602093836110d6565b81010312610dac5751915f610e5e565b3d9150610e8f565b63961e5dc760e01b5f5260045260245ffd5b83631e71423d60e01b5f5260045260245ffd5b63cea2ba5f60e01b5f5260045260245ffd5b630d6c7be960e01b5f523360045260245ffd5b34610dac576020366003190112610dac576004356001600160401b038111610dac57610f2d368260040161104b565b60408110610f8757602435916020830191828411610f735760208460040135850101809311610f73578211610dac576106ea923692819003601f1901910160200161110d565b634e487b7160e01b5f52601160045260245ffd5b60405162461bcd60e51b815260206004820152600e60248201526d11185d18481d1bdbc81cda1bdc9d60921b6044820152606490fd5b34610dac575f366003190112610dac576001546040516001600160a01b039091168152602090f35b34610dac575f366003190112610dac576040517f00000000000000000000000000000000000000000000000000000000000000006001600160a01b03168152602090f35b34610dac575f366003190112610dac575f546001600160a01b03168152602090f35b9181601f84011215610dac578235916001600160401b038311610dac5760208381860195010111610dac57565b9060609260209183526040828401528051918291826040860152018484015e5f828201840152601f01601f1916010190565b600435906001600160a01b0382168203610dac57565b602435906001600160a01b0382168203610dac57565b601f909101601f19168101906001600160401b038211908210176110f957604052565b634e487b7160e01b5f52604160045260245ffd5b9192916001600160401b0382116110f95760405191611136601f8201601f1916602001846110d6565b829481845281830111610dac578281602093845f960137010152565b1561115957565b60405162461bcd60e51b81526020600482015260096024820152683737ba16b0b236b4b760b91b6044820152606490fd5b9190604083820312610dac578235926020810135906001600160401b038211610dac57019080601f83011215610dac578160206111c99335910161110d565b90565b90816020910312610dac57516001600160a01b0381168103610dac5790565b9081526001600160a01b03909116602082015260400190565b90816020910312610dac57518015158103610dac5790565b6001600160a01b039091168152602081019190915260400190565b6009546001600160a01b0391821691168114611268575f52600660205260405f20545f52600760205260405f205490565b506008549056fea26469706673582212203083f70dc5c2622fad1516d12290d6e56b1bfa1a06a088700517d04543338db764736f6c634300081e0033000000000000000000000000b5fb4be02232b1bba4dc8f81dc24c26980de9e3c000000000000000000000000ed09dd3f30ccdeadaa25eed2f14eaa646878799f0000000000000000000000009e8860db73d093464ee2b5a1fe6f63b09f70e8c10000000000000000000000006ea452dc1105607ec1ab84c643369dd3356cc251",
        "nonce": "0x24c",
        "chainId": "0x161c28"
      },
      "additionalContracts": [],
      "isFixedGasLimit": false
    },
    {
      "hash": "0xd6b68414e1aaaf1c515242d01d31b04496333f9a5dcfd24e8f42dfaa136e2cdd",
      "transactionType": "CALL",
      "contractName": "Controller",
      "contractAddress": "0x8b8075a57c6b3c6dfdbc4b674a4c4decf5574a5d",
      "function": "setDaiTokenId(bytes32)",
      "arguments": [
        "0x8888888888888888888888888888888888888888888888888888888888888888"
      ],
      "transaction": {
        "from": "0x8866438f9348f33516040d38a0113531bc9e7e1d",
        "to": "0x8b8075a57c6b3c6dfdbc4b674a4c4decf5574a5d",
        "value": "0x0",
        "input": "0x4e1c756e8888888888888888888888888888888888888888888888888888888888888888",
        "nonce": "0x24d",
        "chainId": "0x161c28"
      },
      "additionalContracts": [],
      "isFixedGasLimit": false
    },
    {
      "hash": "0x379459f69ff4b4af0713d2182150a8ce6300407c7959d01103ad42846686f1d1",
      "transactionType": "CALL",
      "contractName": "Controller",
      "contractAddress": "0x8b8075a57c6b3c6dfdbc4b674a4c4decf5574a5d",
      "function": "setDaiToken(address)",
      "arguments": [
        "0xB6202dd8D51598C18E1E277093B7468F943CD9fB"
      ],
      "transaction": {
        "from": "0x8866438f9348f33516040d38a0113531bc9e7e1d",
        "to": "0x8b8075a57c6b3c6dfdbc4b674a4c4decf5574a5d",
        "value": "0x0",
        "input": "0xacee2871000000000000000000000000b6202dd8d51598c18e1e277093b7468f943cd9fb",
        "nonce": "0x24e",
        "chainId": "0x161c28"
      },
      "additionalContracts": [],
      "isFixedGasLimit": false
    },
    {
      "hash": "0x209d1b4c545c7a45a0e1ca6430b4a6739b1b3fe74d1267b45c03d414a335cb4a",
      "transactionType": "CALL",
      "contractName": "Controller",
      "contractAddress": "0x8b8075a57c6b3c6dfdbc4b674a4c4decf5574a5d",
      "function": "setPsm(address,address)",
      "arguments": [
        "0xfc18ab74D3a04A730B767AAB241CE5A451dfCB1d",
        "0xE26D509C661c4F16FaFfBB1eAce1Fa1CdA8cc146"
      ],
      "transaction": {
        "from": "0x8866438f9348f33516040d38a0113531bc9e7e1d",
        "to": "0x8b8075a57c6b3c6dfdbc4b674a4c4decf5574a5d",
        "value": "0x0",
        "input": "0xbf0dfcab000000000000000000000000fc18ab74d3a04a730b767aab241ce5a451dfcb1d000000000000000000000000e26d509c661c4f16faffbb1eace1fa1cda8cc146",
        "nonce": "0x24f",
        "chainId": "0x161c28"
      },
      "additionalContracts": [],
      "isFixedGasLimit": false
    },
    {
      "hash": "0xcdb08864cb34395703b6bbd37654bd4324538afef0c287727c6813ad0881fc7d",
      "transactionType": "CALL",
      "contractName": "Controller",
      "contractAddress": "0x8b8075a57c6b3c6dfdbc4b674a4c4decf5574a5d",
      "function": "setCollateralConfig(bytes32,address,address,bytes32)",
      "arguments": [
        "0x5852502d41000000000000000000000000000000000000000000000000000000",
        "0xEeeeeEeeeEeEeeEeEeEeeEEEeeeeEeeeeeeeEEeE",
        "0x3d22179f2578E9374791D2B825806e278eC14A7C",
        "0xba5a21ca88ef6bba2bfff5088994f90e1077e2a1cc3dcc38bd261f00fce2824f"
      ],
      "transaction": {
        "from": "0x8866438f9348f33516040d38a0113531bc9e7e1d",
        "to": "0x8b8075a57c6b3c6dfdbc4b674a4c4decf5574a5d",
        "value": "0x0",
        "input": "0xa6bf15be5852502d41000000000000000000000000000000000000000000000000000000000000000000000000000000eeeeeeeeeeeeeeeeeeeeeeeeeeeeeeeeeeeeeeee0000000000000000000000003d22179f2578e9374791d2b825806e278ec14a7cba5a21ca88ef6bba2bfff5088994f90e1077e2a1cc3dcc38bd261f00fce2824f",
        "nonce": "0x250",
        "chainId": "0x161c28"
      },
      "additionalContracts": [],
      "isFixedGasLimit": false
    },
    {
      "hash": "0x77e763c4428d1630e2fff4a8b05bf8dbb2554fd073f6e12b0c6943316ee44a6c",
      "transactionType": "CALL",
      "contractName": "Controller",
      "contractAddress": "0x8b8075a57c6b3c6dfdbc4b674a4c4decf5574a5d",
      "function": "setCollateralConfig(bytes32,address,address,bytes32)",
      "arguments": [
        "0x555344432d410000000000000000000000000000000000000000000000000000",
        "0xE26D509C661c4F16FaFfBB1eAce1Fa1CdA8cc146",
        "0x43f5e030811411151f709A0796492EEFC34009A0",
        "0xc8895f8ceb0cae9da15bb9d2bc5859a184ca0f61c88560488355c8a7364deef8"
      ],
      "transaction": {
        "from": "0x8866438f9348f33516040d38a0113531bc9e7e1d",
        "to": "0x8b8075a57c6b3c6dfdbc4b674a4c4decf5574a5d",
        "value": "0x0",
        "input": "0xa6bf15be555344432d410000000000000000000000000000000000000000000000000000000000000000000000000000e26d509c661c4f16faffbb1eace1fa1cda8cc14600000000000000000000000043f5e030811411151f709a0796492eefc34009a0c8895f8ceb0cae9da15bb9d2bc5859a184ca0f61c88560488355c8a7364deef8",
        "nonce": "0x251",
        "chainId": "0x161c28"
      },
      "additionalContracts": [],
      "isFixedGasLimit": false
    }
  ],
  "receipts": [
    {
      "status": "0x1",
      "cumulativeGasUsed": "0x123f60",
      "logs": [],
      "logsBloom": "0x00000000000000000000000000000000000000000000000000000000000000000000000000000000000000000000000000000000000000000000000000000000000000000000000000000000000000000000000000000000000000000000000000000000000000000000000000000000000000000000000000000000000000000000000000000000000000000000000000000000000000000000000000000000000000000000000000000000000000000000000000000000000000000000000000000000000000000000000000000000000000000000000000000000000000000000000000000000000000000000000000000000000000000000000000000000",
      "type": "0x2",
      "transactionHash": "0x650e44487e92800fb0b5f3d0ca8ec82919e51e801f0bbf008ca04a22946cb876",
      "transactionIndex": "0x1",
      "blockHash": "0x12ad1f6898e5e451ca21c8f5efbe6a076d01a55dee368116dcaa240920576da9",
      "blockNumber": "0x33ef4e",
      "gasUsed": "0x11c06c",
      "effectiveGasPrice": "0x4cd5886400",
      "from": "0x8866438f9348f33516040d38a0113531bc9e7e1d",
      "to": null,
      "contractAddress": "0x8b8075a57c6b3c6dfdbc4b674a4c4decf5574a5d"
    },
    {
      "status": "0x1",
      "cumulativeGasUsed": "0x7af5d",
      "logs": [],
      "logsBloom": "0x00000000000000000000000000000000000000000000000000000000000000000000000000000000000000000000000000000000000000000000000000000000000000000000000000000000000000000000000000000000000000000000000000000000000000000000000000000000000000000000000000000000000000000000000000000000000000000000000000000000000000000000000000000000000000000000000000000000000000000000000000000000000000000000000000000000000000000000000000000000000000000000000000000000000000000000000000000000000000000000000000000000000000000000000000000000",
      "type": "0x2",
      "transactionHash": "0xd6b68414e1aaaf1c515242d01d31b04496333f9a5dcfd24e8f42dfaa136e2cdd",
      "transactionIndex": "0xc",
      "blockHash": "0x1c5b337c0857f78b9a449a1247533b821627f39d125929fedde43ea27da406d0",
      "blockNumber": "0x33ef4f",
      "gasUsed": "0xb441",
      "effectiveGasPrice": "0x4cd5886400",
      "from": "0x8866438f9348f33516040d38a0113531bc9e7e1d",
      "to": "0x8b8075a57c6b3c6dfdbc4b674a4c4decf5574a5d",
      "contractAddress": null
    },
    {
      "status": "0x1",
      "cumulativeGasUsed": "0xff746",
      "logs": [],
      "logsBloom": "0x00000000000000000000000000000000000000000000000000000000000000000000000000000000000000000000000000000000000000000000000000000000000000000000000000000000000000000000000000000000000000000000000000000000000000000000000000000000000000000000000000000000000000000000000000000000000000000000000000000000000000000000000000000000000000000000000000000000000000000000000000000000000000000000000000000000000000000000000000000000000000000000000000000000000000000000000000000000000000000000000000000000000000000000000000000000",
      "type": "0x2",
      "transactionHash": "0x379459f69ff4b4af0713d2182150a8ce6300407c7959d01103ad42846686f1d1",
      "transactionIndex": "0xa",
      "blockHash": "0x3ebabe8184b39b5acb95f496e7c4da2df6cbb1472f720189e6c70243e4621648",
      "blockNumber": "0x33ef50",
      "gasUsed": "0xb506",
      "effectiveGasPrice": "0x4cd5886400",
      "from": "0x8866438f9348f33516040d38a0113531bc9e7e1d",
      "to": "0x8b8075a57c6b3c6dfdbc4b674a4c4decf5574a5d",
      "contractAddress": null
    },
    {
      "status": "0x1",
      "cumulativeGasUsed": "0x144f0e",
      "logs": [],
      "logsBloom": "0x00000000000000000000000000000000000000000000000000000000000000000000000000000000000000000000000000000000000000000000000000000000000000000000000000000000000000000000000000000000000000000000000000000000000000000000000000000000000000000000000000000000000000000000000000000000000000000000000000000000000000000000000000000000000000000000000000000000000000000000000000000000000000000000000000000000000000000000000000000000000000000000000000000000000000000000000000000000000000000000000000000000000000000000000000000000",
      "type": "0x2",
      "transactionHash": "0x209d1b4c545c7a45a0e1ca6430b4a6739b1b3fe74d1267b45c03d414a335cb4a",
      "transactionIndex": "0xd",
      "blockHash": "0x29644d067d60cf9573113ff388f722d54ff7966ccb4fcd3a8b21d142ed1a5737",
      "blockNumber": "0x33ef51",
      "gasUsed": "0x10d95",
      "effectiveGasPrice": "0x4cd5886400",
      "from": "0x8866438f9348f33516040d38a0113531bc9e7e1d",
      "to": "0x8b8075a57c6b3c6dfdbc4b674a4c4decf5574a5d",
      "contractAddress": null
    },
    {
      "status": "0x1",
      "cumulativeGasUsed": "0x4caba",
      "logs": [],
      "logsBloom": "0x00000000000000000000000000000000000000000000000000000000000000000000000000000000000000000000000000000000000000000000000000000000000000000000000000000000000000000000000000000000000000000000000000000000000000000000000000000000000000000000000000000000000000000000000000000000000000000000000000000000000000000000000000000000000000000000000000000000000000000000000000000000000000000000000000000000000000000000000000000000000000000000000000000000000000000000000000000000000000000000000000000000000000000000000000000000",
      "type": "0x2",
      "transactionHash": "0xcdb08864cb34395703b6bbd37654bd4324538afef0c287727c6813ad0881fc7d",
      "transactionIndex": "0x2",
      "blockHash": "0x4c4614367054edfd37821030dc1737e57f6b41db453498264ca54be7c04c4ab7",
      "blockNumber": "0x33ef52",
      "gasUsed": "0x1bd7a",
      "effectiveGasPrice": "0x4cd5886400",
      "from": "0x8866438f9348f33516040d38a0113531bc9e7e1d",
      "to": "0x8b8075a57c6b3c6dfdbc4b674a4c4decf5574a5d",
      "contractAddress": null
    },
    {
      "status": "0x1",
      "cumulativeGasUsed": "0x7320e",
      "logs": [],
      "logsBloom": "0x00000000000000000000000000000000000000000000000000000000000000000000000000000000000000000000000000000000000000000000000000000000000000000000000000000000000000000000000000000000000000000000000000000000000000000000000000000000000000000000000000000000000000000000000000000000000000000000000000000000000000000000000000000000000000000000000000000000000000000000000000000000000000000000000000000000000000000000000000000000000000000000000000000000000000000000000000000000000000000000000000000000000000000000000000000000",
      "type": "0x2",
      "transactionHash": "0x77e763c4428d1630e2fff4a8b05bf8dbb2554fd073f6e12b0c6943316ee44a6c",
      "transactionIndex": "0xb",
      "blockHash": "0x022c914a0d83348cc686093348a22868e3b25e0fbff968fd940a42878f81187a",
      "blockNumber": "0x33ef53",
      "gasUsed": "0x1bd92",
      "effectiveGasPrice": "0x4cd5886400",
      "from": "0x8866438f9348f33516040d38a0113531bc9e7e1d",
      "to": "0x8b8075a57c6b3c6dfdbc4b674a4c4decf5574a5d",
      "contractAddress": null
    }
  ],
  "libraries": [],
  "pending": [],
  "returns": {},
  "timestamp": 1759331468557,
  "chain": 1449000,
  "commit": "ff938a8"
}