{
  "transactions": [
    {
      "hash": "0xeb9287b5e3214a33b8af8cb27220914d9c4b9998e7c528eab1139e2c0d3d99bf",
      "transactionType": "CREATE",
      "contractName": "Controller",
      "contractAddress": "0x8a0b2eed85d7a3b05365933d9f67da642ddf4535",
      "function": null,
      "arguments": [
        "0xB5FB4BE02232B1bBA4dC8f81dc24C26980dE9e3C",
        "0xAd8719B84d126000000000000000000000000000",
        "0x9E8860db73D093464ee2B5a1Fe6F63B09F70e8C1",
        "0x6Ea452dC1105607eC1AB84c643369Dd3356cc251"
      ],
      "transaction": {
        "from": "0x8866438f9348f33516040d38a0113531bc9e7e1d",
        "value": "0x0",
        "input": "0x610100806040523461014057608081610d8b80380380916100208285610157565b833981010312610140576100338161018e565b906100406020820161018e565b61005860606100516040850161018e565b930161018e565b6080939093526001600160a01b0316908115610144576001600160a01b0316918215610144576001600160a01b031680156101445760a082905260c083905260e052600a80546001600160a01b03191633179055813b15610140575f916024839260405194859384926328ec8bf160e21b845260048401525af1801561013557610125575b604051610be890816101a3823960805181818161081f01526109ca015260a05181818161030301526104bb015260c0518181816105580152610773015260e051816102090152f35b5f61012f91610157565b5f6100dd565b6040513d5f823e3d90fd5b5f80fd5b6316c6875160e31b5f525f60045260245ffd5b601f909101601f19168101906001600160401b0382119082101761017a57604052565b634e487b7160e01b5f52604160045260245ffd5b51906001600160a01b03821682036101405756fe6080806040526004361015610012575f80fd5b5f3560e01c90816304bda262146109f95750806309c6bed9146109b557806311eac8551461098d578063120394de146108ce57806329241502146107a257806336569e771461075e5780634cbab1f1146106555780634e1c756e1461073057806354134166146106f85780635dfc9d7b146106ce57806374c31f5d1461067f5780637aa2dbc1146106555780638019a78614610491578063947a97e914610447578063a2f8f0571461042a578063a6bf15be14610385578063acee287114610332578063bb038e15146102ee578063be22f546146102c6578063bf0dfcab14610238578063c11645bc146101f4578063c4ed266214610198578063c71f8d67146101c2578063c7e5b0a414610198578063d1a294c4146101665763f851a4401461013a575f80fd5b34610162575f36600319011261016257600a546040516001600160a01b039091168152602090f35b5f80fd5b34610162576020366003190112610162576004355f526004602052602060018060a01b0360405f205416604051908152f35b34610162576020366003190112610162576004355f526002602052602060405f2054604051908152f35b34610162576020366003190112610162576004355f526005602052602060018060a01b0360405f205416604051908152f35b34610162575f366003190112610162576040517f00000000000000000000000000000000000000000000000000000000000000006001600160a01b03168152602090f35b3461016257604036600319011261016257610251610a90565b610259610aa6565b9061026f60018060a01b03600a54163314610b38565b6001600160a01b03169081156102b3576001600160a01b03169081156102b3575f80546001600160a01b031990811692909217905560018054909116919091179055005b6316c6875160e31b5f525f60045260245ffd5b34610162575f366003190112610162576009546040516001600160a01b039091168152602090f35b34610162575f366003190112610162576040517f00000000000000000000000000000000000000000000000000000000000000006001600160a01b03168152602090f35b346101625760203660031901126101625761034b610a90565b61036060018060a01b03600a54163314610b38565b6001600160a01b031680156102b357600980546001600160a01b031916919091179055005b34610162576080366003190112610162576004356103a1610aa6565b6044356001600160a01b0381168103610162576103c960018060a01b03600a54163314610b38565b5f83815260046020908152604080832080546001600160a01b039687166001600160a01b0319918216811790925560058452828520805496909716951694909417909455918152600682528281208490559283526007905290206064359055005b34610162575f366003190112610162576020600854604051908152f35b34610162576020366003190112610162576004356001600160401b038111610162576104796020913690600401610a1b565b90809291810103126101625760209035604051908152f35b3461016257602036600319011261016257604051632c2cb9fd60e01b8152600480359082018190527f00000000000000000000000000000000000000000000000000000000000000006001600160a01b031690602083602481855afa9283156105d3575f93610620575b50602090602460405180948193632726b07360e01b835260048301525afa9081156105d3575f916105de575b50604080516309092f9760e21b815260048101939093526001600160a01b03918216602484015290829060449082907f0000000000000000000000000000000000000000000000000000000000000000165afa80156105d3575f905f90610599575b6040809350519182526020820152f35b50506040813d6040116105cb575b816105b460409383610abc565b810103126101625780602060409251910151610589565b3d91506105a7565b6040513d5f823e3d90fd5b90506020813d602011610618575b816105f960209383610abc565b8101031261016257516001600160a01b03811681036101625782610527565b3d91506105ec565b9092506020813d60201161064d575b8161063c60209383610abc565b8101031261016257519160206104fb565b3d915061062f565b34610162576020366003190112610162576004355f526003602052602060405f2054604051908152f35b34610162576020366003190112610162576004356001600160401b038111610162576106b26106ba913690600401610a1b565b810190610b70565b906106ca60405192839283610a48565b0390f35b34610162576020366003190112610162576004355f526007602052602060405f2054604051908152f35b34610162576020366003190112610162576001600160a01b03610719610a90565b165f526006602052602060405f2054604051908152f35b346101625760203660031901126101625761075660018060a01b03600a54163314610b38565b600435600855005b34610162575f366003190112610162576040517f00000000000000000000000000000000000000000000000000000000000000006001600160a01b03168152602090f35b346101625760e0366003190112610162576024356001600160401b038111610162576107d2903690600401610a1b565b50506044356001600160401b038111610162576107f3903690600401610a1b565b6064356001600160401b03811161016257610812903690600401610a1b565b929061081c610a7a565b507f00000000000000000000000000000000000000000000000000000000000000006001600160a01b031633036108bb577fc878ce8db15ae780a7801a0a72a5c00850f38b7bbdb4e0015ea7f3b253063fbf93610880610889936020953691610af3565b50810190610b70565b50604051908152a160206040517fe84001f3dedacf7f9ddc370e9f09c26b37473e9e959ffdc4925f6fe33c9877e48152f35b630d6c7be960e01b5f523360045260245ffd5b34610162576020366003190112610162576004356001600160401b038111610162576108fd3682600401610a1b565b60408110610957576024359160208301918284116109435760208460040135850101809311610943578211610162576106ba923692819003601f19019101602001610af3565b634e487b7160e01b5f52601160045260245ffd5b60405162461bcd60e51b815260206004820152600e60248201526d11185d18481d1bdbc81cda1bdc9d60921b6044820152606490fd5b34610162575f366003190112610162576001546040516001600160a01b039091168152602090f35b34610162575f366003190112610162576040517f00000000000000000000000000000000000000000000000000000000000000006001600160a01b03168152602090f35b34610162575f366003190112610162575f546001600160a01b03168152602090f35b9181601f84011215610162578235916001600160401b038311610162576020838186019501011161016257565b9060609260209183526040828401528051918291826040860152018484015e5f828201840152601f01601f1916010190565b60a435906001600160a01b038216820361016257565b600435906001600160a01b038216820361016257565b602435906001600160a01b038216820361016257565b601f909101601f19168101906001600160401b03821190821017610adf57604052565b634e487b7160e01b5f52604160045260245ffd5b9192916001600160401b038211610adf5760405191610b1c601f8201601f191660200184610abc565b829481845281830111610162578281602093845f960137010152565b15610b3f57565b60405162461bcd60e51b81526020600482015260096024820152683737ba16b0b236b4b760b91b6044820152606490fd5b9190604083820312610162578235926020810135906001600160401b03821161016257019080601f8301121561016257816020610baf93359101610af3565b9056fea26469706673582212200f1d28541a6b46a11ef326ccea7368ff49afc4b98cf05d5c8eda4c61b4fee2f464736f6c634300081e0033000000000000000000000000b5fb4be02232b1bba4dc8f81dc24c26980de9e3c000000000000000000000000ad8719b84d1260000000000000000000000000000000000000000000000000009e8860db73d093464ee2b5a1fe6f63b09f70e8c10000000000000000000000006ea452dc1105607ec1ab84c643369dd3356cc251",
        "nonce": "0x15d",
        "chainId": "0x161c28"
      },
      "additionalContracts": [],
      "isFixedGasLimit": false
    },
    {
      "hash": "0x2fd177bf71086807cb891c29ea2c603cfe88b94d557a7a6a4c089c6bdaa47e18",
      "transactionType": "CALL",
      "contractName": "Controller",
      "contractAddress": "0x8a0b2eed85d7a3b05365933d9f67da642ddf4535",
      "function": "setDaiTokenId(bytes32)",
      "arguments": [
        "0x8888888888888888888888888888888888888888888888888888888888888888"
      ],
      "transaction": {
        "from": "0x8866438f9348f33516040d38a0113531bc9e7e1d",
        "to": "0x8a0b2eed85d7a3b05365933d9f67da642ddf4535",
        "value": "0x0",
        "input": "0x4e1c756e8888888888888888888888888888888888888888888888888888888888888888",
        "nonce": "0x15e",
        "chainId": "0x161c28"
      },
      "additionalContracts": [],
      "isFixedGasLimit": false
    },
    {
      "hash": "0x5779fbd4ee195b1fa513691ffa42fd62e73996d7c44fe5b51eb14010d85028f5",
      "transactionType": "CALL",
      "contractName": "Controller",
      "contractAddress": "0x8a0b2eed85d7a3b05365933d9f67da642ddf4535",
      "function": "setDaiToken(address)",
      "arguments": [
        "0xB6202dd8D51598C18E1E277093B7468F943CD9fB"
      ],
      "transaction": {
        "from": "0x8866438f9348f33516040d38a0113531bc9e7e1d",
        "to": "0x8a0b2eed85d7a3b05365933d9f67da642ddf4535",
        "value": "0x0",
        "input": "0xacee2871000000000000000000000000b6202dd8d51598c18e1e277093b7468f943cd9fb",
        "nonce": "0x15f",
        "chainId": "0x161c28"
      },
      "additionalContracts": [],
      "isFixedGasLimit": false
    },
    {
      "hash": "0xa3422cc8e85b7ac729f82730a269f9a0b5a51e2faeeca49ffce4d680cd454cee",
      "transactionType": "CALL",
      "contractName": "Controller",
      "contractAddress": "0x8a0b2eed85d7a3b05365933d9f67da642ddf4535",
      "function": "setPsm(address,address)",
      "arguments": [
        "0xfc18ab74D3a04A730B767AAB241CE5A451dfCB1d",
        "0xE26D509C661c4F16FaFfBB1eAce1Fa1CdA8cc146"
      ],
      "transaction": {
        "from": "0x8866438f9348f33516040d38a0113531bc9e7e1d",
        "to": "0x8a0b2eed85d7a3b05365933d9f67da642ddf4535",
        "value": "0x0",
        "input": "0xbf0dfcab000000000000000000000000fc18ab74d3a04a730b767aab241ce5a451dfcb1d000000000000000000000000e26d509c661c4f16faffbb1eace1fa1cda8cc146",
        "nonce": "0x160",
        "chainId": "0x161c28"
      },
      "additionalContracts": [],
      "isFixedGasLimit": false
    },
    {
      "hash": "0x63ceeffd045cd64cf09b0a1b02e91a1aa0d42b30ea7e10d129880e3babd1b49c",
      "transactionType": "CALL",
      "contractName": "Controller",
      "contractAddress": "0x8a0b2eed85d7a3b05365933d9f67da642ddf4535",
      "function": "setCollateralConfig(bytes32,address,address,bytes32)",
      "arguments": [
        "0x5852502d41000000000000000000000000000000000000000000000000000000",
        "0xEeeeeEeeeEeEeeEeEeEeeEEEeeeeEeeeeeeeEEeE",
        "0x3d22179f2578E9374791D2B825806e278eC14A7C",
        "0xba5a21ca88ef6bba2bfff5088994f90e1077e2a1cc3dcc38bd261f00fce2824f"
      ],
      "transaction": {
        "from": "0x8866438f9348f33516040d38a0113531bc9e7e1d",
        "to": "0x8a0b2eed85d7a3b05365933d9f67da642ddf4535",
        "value": "0x0",
        "input": "0xa6bf15be5852502d41000000000000000000000000000000000000000000000000000000000000000000000000000000eeeeeeeeeeeeeeeeeeeeeeeeeeeeeeeeeeeeeeee0000000000000000000000003d22179f2578e9374791d2b825806e278ec14a7cba5a21ca88ef6bba2bfff5088994f90e1077e2a1cc3dcc38bd261f00fce2824f",
        "nonce": "0x161",
        "chainId": "0x161c28"
      },
      "additionalContracts": [],
      "isFixedGasLimit": false
    },
    {
      "hash": "0x5d247385dc5da885bb0baadb69d1bc9c281a532493529aa817f2c994f4cc0d28",
      "transactionType": "CALL",
      "contractName": "Controller",
      "contractAddress": "0x8a0b2eed85d7a3b05365933d9f67da642ddf4535",
      "function": "setCollateralConfig(bytes32,address,address,bytes32)",
      "arguments": [
        "0x555344432d410000000000000000000000000000000000000000000000000000",
        "0xE26D509C661c4F16FaFfBB1eAce1Fa1CdA8cc146",
        "0x43f5e030811411151f709A0796492EEFC34009A0",
        "0xc8895f8ceb0cae9da15bb9d2bc5859a184ca0f61c88560488355c8a7364deef8"
      ],
      "transaction": {
        "from": "0x8866438f9348f33516040d38a0113531bc9e7e1d",
        "to": "0x8a0b2eed85d7a3b05365933d9f67da642ddf4535",
        "value": "0x0",
        "input": "0xa6bf15be555344432d410000000000000000000000000000000000000000000000000000000000000000000000000000e26d509c661c4f16faffbb1eace1fa1cda8cc14600000000000000000000000043f5e030811411151f709a0796492eefc34009a0c8895f8ceb0cae9da15bb9d2bc5859a184ca0f61c88560488355c8a7364deef8",
        "nonce": "0x162",
        "chainId": "0x161c28"
      },
      "additionalContracts": [],
      "isFixedGasLimit": false
    }
  ],
  "receipts": [
    {
      "status": "0x1",
      "cumulativeGasUsed": "0xbafd7",
      "logs": [],
      "logsBloom": "0x00000000000000000000000000000000000000000000000000000000000000000000000000000000000000000000000000000000000000000000000000000000000000000000000000000000000000000000000000000000000000000000000000000000000000000000000000000000000000000000000000000000000000000000000000000000000000000000000000000000000000000000000000000000000000000000000000000000000000000000000000000000000000000000000000000000000000000000000000000000000000000000000000000000000000000000000000000000000000000000000000000000000000000000000000000000",
      "type": "0x2",
      "transactionHash": "0xeb9287b5e3214a33b8af8cb27220914d9c4b9998e7c528eab1139e2c0d3d99bf",
      "transactionIndex": "0x0",
      "blockHash": "0xdf259304bc8b02521799946ebfb9b5843059ff180c63006f1d6985630ce275a9",
      "blockNumber": "0x33e0b6",
      "gasUsed": "0xbafd7",
      "effectiveGasPrice": "0x4cd5886400",
      "from": "0x8866438f9348f33516040d38a0113531bc9e7e1d",
      "to": null,
      "contractAddress": "0x8a0b2eed85d7a3b05365933d9f67da642ddf4535"
    },
    {
      "status": "0x1",
      "cumulativeGasUsed": "0xb437",
      "logs": [],
      "logsBloom": "0x00000000000000000000000000000000000000000000000000000000000000000000000000000000000000000000000000000000000000000000000000000000000000000000000000000000000000000000000000000000000000000000000000000000000000000000000000000000000000000000000000000000000000000000000000000000000000000000000000000000000000000000000000000000000000000000000000000000000000000000000000000000000000000000000000000000000000000000000000000000000000000000000000000000000000000000000000000000000000000000000000000000000000000000000000000000",
      "type": "0x2",
      "transactionHash": "0x2fd177bf71086807cb891c29ea2c603cfe88b94d557a7a6a4c089c6bdaa47e18",
      "transactionIndex": "0x0",
      "blockHash": "0xfe2246c3a802208f6285e183348e70a4e6c48f82d9c5b6a1117c7cc71731d0e2",
      "blockNumber": "0x33e0b7",
      "gasUsed": "0xb437",
      "effectiveGasPrice": "0x4cd5886400",
      "from": "0x8866438f9348f33516040d38a0113531bc9e7e1d",
      "to": "0x8a0b2eed85d7a3b05365933d9f67da642ddf4535",
      "contractAddress": null
    },
    {
      "status": "0x1",
      "cumulativeGasUsed": "0xb4fc",
      "logs": [],
      "logsBloom": "0x00000000000000000000000000000000000000000000000000000000000000000000000000000000000000000000000000000000000000000000000000000000000000000000000000000000000000000000000000000000000000000000000000000000000000000000000000000000000000000000000000000000000000000000000000000000000000000000000000000000000000000000000000000000000000000000000000000000000000000000000000000000000000000000000000000000000000000000000000000000000000000000000000000000000000000000000000000000000000000000000000000000000000000000000000000000",
      "type": "0x2",
      "transactionHash": "0x5779fbd4ee195b1fa513691ffa42fd62e73996d7c44fe5b51eb14010d85028f5",
      "transactionIndex": "0x0",
      "blockHash": "0xedf68d1b5ecce10353e3e7830f5e9610cf1d1da18eb6f79da67863877c96e15f",
      "blockNumber": "0x33e0b8",
      "gasUsed": "0xb4fc",
      "effectiveGasPrice": "0x4cd5886400",
      "from": "0x8866438f9348f33516040d38a0113531bc9e7e1d",
      "to": "0x8a0b2eed85d7a3b05365933d9f67da642ddf4535",
      "contractAddress": null
    },
    {
      "status": "0x1",
      "cumulativeGasUsed": "0x8aebc",
      "logs": [],
      "logsBloom": "0x00000000000000000000000000000000000000000000000000000000000000000000000000000000000000000000000000000000000000000000000000000000000000000000000000000000000000000000000000000000000000000000000000000000000000000000000000000000000000000000000000000000000000000000000000000000000000000000000000000000000000000000000000000000000000000000000000000000000000000000000000000000000000000000000000000000000000000000000000000000000000000000000000000000000000000000000000000000000000000000000000000000000000000000000000000000",
      "type": "0x2",
      "transactionHash": "0xa3422cc8e85b7ac729f82730a269f9a0b5a51e2faeeca49ffce4d680cd454cee",
      "transactionIndex": "0x5",
      "blockHash": "0xd0258d786c3605c5bb51526ba994a07b6ce95fbd0e131bd46d56b1bb599a835c",
      "blockNumber": "0x33e0b9",
      "gasUsed": "0x10d9c",
      "effectiveGasPrice": "0x4cd5886400",
      "from": "0x8866438f9348f33516040d38a0113531bc9e7e1d",
      "to": "0x8a0b2eed85d7a3b05365933d9f67da642ddf4535",
      "contractAddress": null
    },
    {
      "status": "0x1",
      "cumulativeGasUsed": "0x1bd66",
      "logs": [],
      "logsBloom": "0x00000000000000000000000000000000000000000000000000000000000000000000000000000000000000000000000000000000000000000000000000000000000000000000000000000000000000000000000000000000000000000000000000000000000000000000000000000000000000000000000000000000000000000000000000000000000000000000000000000000000000000000000000000000000000000000000000000000000000000000000000000000000000000000000000000000000000000000000000000000000000000000000000000000000000000000000000000000000000000000000000000000000000000000000000000000",
      "type": "0x2",
      "transactionHash": "0x63ceeffd045cd64cf09b0a1b02e91a1aa0d42b30ea7e10d129880e3babd1b49c",
      "transactionIndex": "0x0",
      "blockHash": "0xeb7597502fa7280cccc84bcfe883bc2fa75193d8a1a9a2e04717dc3a59ab073a",
      "blockNumber": "0x33e0ba",
      "gasUsed": "0x1bd66",
      "effectiveGasPrice": "0x4cd5886400",
      "from": "0x8866438f9348f33516040d38a0113531bc9e7e1d",
      "to": "0x8a0b2eed85d7a3b05365933d9f67da642ddf4535",
      "contractAddress": null
    },
    {
      "status": "0x1",
      "cumulativeGasUsed": "0x1bd7e",
      "logs": [],
      "logsBloom": "0x00000000000000000000000000000000000000000000000000000000000000000000000000000000000000000000000000000000000000000000000000000000000000000000000000000000000000000000000000000000000000000000000000000000000000000000000000000000000000000000000000000000000000000000000000000000000000000000000000000000000000000000000000000000000000000000000000000000000000000000000000000000000000000000000000000000000000000000000000000000000000000000000000000000000000000000000000000000000000000000000000000000000000000000000000000000",
      "type": "0x2",
      "transactionHash": "0x5d247385dc5da885bb0baadb69d1bc9c281a532493529aa817f2c994f4cc0d28",
      "transactionIndex": "0x0",
      "blockHash": "0x42524dc82a57843c6d758d149e4e8f077dc3d100a2ee0652f929688dcd2a29c9",
      "blockNumber": "0x33e0bb",
      "gasUsed": "0x1bd7e",
      "effectiveGasPrice": "0x4cd5886400",
      "from": "0x8866438f9348f33516040d38a0113531bc9e7e1d",
      "to": "0x8a0b2eed85d7a3b05365933d9f67da642ddf4535",
      "contractAddress": null
    }
  ],
  "libraries": [],
  "pending": [],
  "returns": {},
  "timestamp": 1759310369956,
  "chain": 1449000,
  "commit": "91aff73"
}