{
  "transactions": [
    {
      "hash": "0x25f1ae52e20d08194d2337fab03b31aaa06721ef9b340d8a8f07b3332b92ae9d",
      "transactionType": "CREATE",
      "contractName": "Controller",
      "contractAddress": "0x901bd415905b21e15b606693280716b57c54d7e9",
      "function": null,
      "arguments": [
        "0xB5FB4BE02232B1bBA4dC8f81dc24C26980dE9e3C",
        "0xAd8719B84d126000000000000000000000000000",
        "0x9E8860db73D093464ee2B5a1Fe6F63B09F70e8C1",
        "0x6Ea452dC1105607eC1AB84c643369Dd3356cc251"
      ],
      "transaction": {
        "from": "0x8866438f9348f33516040d38a0113531bc9e7e1d",
        "value": "0x0",
        "input": "0x6101008060405234610140576080816110f180380380916100208285610157565b833981010312610140576100338161018e565b906100406020820161018e565b61005860606100516040850161018e565b930161018e565b6080939093526001600160a01b0316908115610144576001600160a01b0316918215610144576001600160a01b031680156101445760a082905260c083905260e052600a80546001600160a01b03191633179055813b15610140575f916024839260405194859384926328ec8bf160e21b845260048401525af1801561013557610125575b604051610f4e90816101a3823960805181818161085d01526109e8015260a05181818161030301526104bb015260c05181818161055801526107a5015260e051816102090152f35b5f61012f91610157565b5f6100dd565b6040513d5f823e3d90fd5b5f80fd5b6316c6875160e31b5f525f60045260245ffd5b601f909101601f19168101906001600160401b0382119082101761017a57604052565b634e487b7160e01b5f52604160045260245ffd5b51906001600160a01b03821682036101405756fe6080806040526004361015610012575f80fd5b5f3560e01c90816304bda26214610a175750806309c6bed9146109d357806311eac855146109ab578063120394de146108dc57806329241502146107d457806336569e77146107905780634cbab1f1146106555780634e1c756e14610762578063541341661461072a5780635dfc9d7b1461070057806374c31f5d1461067f5780637aa2dbc1146106555780638019a78614610491578063947a97e914610447578063a2f8f0571461042a578063a6bf15be14610385578063acee287114610332578063bb038e15146102ee578063be22f546146102c6578063bf0dfcab14610238578063c11645bc146101f4578063c4ed266214610198578063c71f8d67146101c2578063c7e5b0a414610198578063d1a294c4146101665763f851a4401461013a575f80fd5b34610162575f36600319011261016257600a546040516001600160a01b039091168152602090f35b5f80fd5b34610162576020366003190112610162576004355f526004602052602060018060a01b0360405f205416604051908152f35b34610162576020366003190112610162576004355f526002602052602060405f2054604051908152f35b34610162576020366003190112610162576004355f526005602052602060018060a01b0360405f205416604051908152f35b34610162575f366003190112610162576040517f00000000000000000000000000000000000000000000000000000000000000006001600160a01b03168152602090f35b3461016257604036600319011261016257610251610a98565b610259610aae565b9061026f60018060a01b03600a54163314610b4c565b6001600160a01b03169081156102b3576001600160a01b03169081156102b3575f80546001600160a01b031990811692909217905560018054909116919091179055005b6316c6875160e31b5f525f60045260245ffd5b34610162575f366003190112610162576009546040516001600160a01b039091168152602090f35b34610162575f366003190112610162576040517f00000000000000000000000000000000000000000000000000000000000000006001600160a01b03168152602090f35b346101625760203660031901126101625761034b610a98565b61036060018060a01b03600a54163314610b4c565b6001600160a01b031680156102b357600980546001600160a01b031916919091179055005b34610162576080366003190112610162576004356103a1610aae565b6044356001600160a01b0381168103610162576103c960018060a01b03600a54163314610b4c565b5f83815260046020908152604080832080546001600160a01b039687166001600160a01b0319918216811790925560058452828520805496909716951694909417909455918152600682528281208490559283526007905290206064359055005b34610162575f366003190112610162576020600854604051908152f35b34610162576020366003190112610162576004356001600160401b038111610162576104796020913690600401610a39565b90809291810103126101625760209035604051908152f35b3461016257602036600319011261016257604051632c2cb9fd60e01b8152600480359082018190527f00000000000000000000000000000000000000000000000000000000000000006001600160a01b031690602083602481855afa9283156105d3575f93610620575b50602090602460405180948193632726b07360e01b835260048301525afa9081156105d3575f916105de575b50604080516309092f9760e21b815260048101939093526001600160a01b03918216602484015290829060449082907f0000000000000000000000000000000000000000000000000000000000000000165afa80156105d3575f905f90610599575b6040809350519182526020820152f35b50506040813d6040116105cb575b816105b460409383610ac4565b810103126101625780602060409251910151610589565b3d91506105a7565b6040513d5f823e3d90fd5b90506020813d602011610618575b816105f960209383610ac4565b8101031261016257516001600160a01b03811681036101625782610527565b3d91506105ec565b9092506020813d60201161064d575b8161063c60209383610ac4565b8101031261016257519160206104fb565b3d915061062f565b34610162576020366003190112610162576004355f526003602052602060405f2054604051908152f35b34610162576020366003190112610162576004356001600160401b038111610162576106af903690600401610a39565b81016040828203126101625760208201356001600160401b0381116101625782019080601f83011215610162578160206106eb93359101610b16565b906106fc6040519283923583610a66565b0390f35b34610162576020366003190112610162576004355f526007602052602060405f2054604051908152f35b34610162576020366003190112610162576001600160a01b0361074b610a98565b165f526006602052602060405f2054604051908152f35b346101625760203660031901126101625761078860018060a01b03600a54163314610b4c565b600435600855005b34610162575f366003190112610162576040517f00000000000000000000000000000000000000000000000000000000000000006001600160a01b03168152602090f35b346101625760e0366003190112610162576024356001600160401b03811161016257610804903690600401610a39565b6044356001600160401b03811161016257610823903690600401610a39565b90926064356001600160401b03811161016257610844903690600401610a39565b60a435939091906001600160a01b0385168503610162577f00000000000000000000000000000000000000000000000000000000000000006001600160a01b031633036108c95761089f9660c4359660843595600435610ba4565b60206040517fe84001f3dedacf7f9ddc370e9f09c26b37473e9e959ffdc4925f6fe33c9877e48152f35b630d6c7be960e01b5f523360045260245ffd5b34610162576020366003190112610162576004356001600160401b0381116101625761090b3682600401610a39565b6040811061097557602435916020830191828411610961576020846004013585010180931161096157821161016257610951923692819003601f19019101602001610b16565b906106fc60405192839283610a66565b634e487b7160e01b5f52601160045260245ffd5b60405162461bcd60e51b815260206004820152600e60248201526d11185d18481d1bdbc81cda1bdc9d60921b6044820152606490fd5b34610162575f366003190112610162576001546040516001600160a01b039091168152602090f35b34610162575f366003190112610162576040517f00000000000000000000000000000000000000000000000000000000000000006001600160a01b03168152602090f35b34610162575f366003190112610162575f546001600160a01b03168152602090f35b9181601f84011215610162578235916001600160401b038311610162576020838186019501011161016257565b9060609260209183526040828401528051918291826040860152018484015e5f828201840152601f01601f1916010190565b600435906001600160a01b038216820361016257565b602435906001600160a01b038216820361016257565b601f909101601f19168101906001600160401b03821190821017610ae757604052565b634e487b7160e01b5f52604160045260245ffd5b6001600160401b038111610ae757601f01601f191660200190565b929192610b2282610afb565b91610b306040519384610ac4565b829481845281830111610162578281602093845f960137010152565b15610b5357565b60405162461bcd60e51b81526020600482015260096024820152683737ba16b0b236b4b760b91b6044820152606490fd5b908060209392818452848401375f828201840152601f01601f1916010190565b93959692999890919497604051602081019087858337610bd76020828a81015f838201520301601f198101835282610ac4565b5190209660409760208951610bec8b82610ac4565b6004815201631e1c9c1b60e21b8152895160046020820192835e5f602482015260048152610c1b602482610ac4565b51902003610ed257610c8d7f6250969d220720e7338bf44e92bbcab2b3f340a659195294b812a0903b2c6ca298999a9b9c610c9c92610c80610c5e368385610b16565b60208151910120978d519b8c9b8c5261010060208d01526101008c0191610b84565b918983038d8b0152610b84565b86810360608801528a8c610b84565b60808601949094526001600160a01b031660a085015260c084015260e08301520390a18115610eab57805163947a97e960e01b81526020600482018190528180610cea602482018789610b84565b0381305afa5f9181610e77575b50610e22575080516374c31f5d60e01b815260206004820152925f8480610d22602482018786610b84565b0381305afa5f815f92610d96575b5f516020610ef95f395f51905f529650610d85575050610d809082519384937f39029d34a8b6b2b5da5f65266cb13b3b4de81883a183493559b04ec7484290d38552806020860152840191610b84565b0390a1565b925193508392610d80925083610a66565b9150503d805f873e610da88187610ac4565b85018386820312610162578551602087015190966001600160401b03821161016257019581601f88011215610162578651610de281610afb565b92610def87519485610ac4565b8184526020828a010111610162576020815f92825f516020610ef95f395f51905f529b018387015e840101529091610d30565b9091505f516020610ef95f395f51905f529250610d80825192602080850152600e818501526d6f7065726174696f6e5f6f6e6c7960901b606085015260608452610e6d608085610ac4565b5192839283610a66565b9091506020813d602011610ea3575b81610e9360209383610ac4565b810103126101625751905f610cf7565b3d9150610e86565b5f516020610ef95f395f51905f529250606091505f815191818352806020840152820152a1565b8751635a1983b760e01b81526020600482015280610ef4602482018a88610b84565b0390fdfe930feecf69ea1a2d105172abbb9a8fa39391d176a2d80882b6e5489b8882ade3a2646970667358221220023dcbdaf47dd50d2b6b6d015096ec3fffbc1637674ea6be26d30bdf9d51d1e364736f6c634300081e0033000000000000000000000000b5fb4be02232b1bba4dc8f81dc24c26980de9e3c000000000000000000000000ad8719b84d1260000000000000000000000000000000000000000000000000009e8860db73d093464ee2b5a1fe6f63b09f70e8c10000000000000000000000006ea452dc1105607ec1ab84c643369dd3356cc251",
        "nonce": "0x115",
        "chainId": "0x161c28"
      },
      "additionalContracts": [],
      "isFixedGasLimit": false
    },
    {
      "hash": "0x8ff1c0ac75f70f1c92faa38a15fbc7b17a2eae50fd90c523a896df0bb14a723e",
      "transactionType": "CALL",
      "contractName": "Controller",
      "contractAddress": "0x901bd415905b21e15b606693280716b57c54d7e9",
      "function": "setDaiTokenId(bytes32)",
      "arguments": [
        "0x8888888888888888888888888888888888888888888888888888888888888888"
      ],
      "transaction": {
        "from": "0x8866438f9348f33516040d38a0113531bc9e7e1d",
        "to": "0x901bd415905b21e15b606693280716b57c54d7e9",
        "value": "0x0",
        "input": "0x4e1c756e8888888888888888888888888888888888888888888888888888888888888888",
        "nonce": "0x116",
        "chainId": "0x161c28"
      },
      "additionalContracts": [],
      "isFixedGasLimit": false
    },
    {
      "hash": "0x6db56f94160f94cb4158a2833ad87428a224f5d3cd6309ffdde45d111808fdf7",
      "transactionType": "CALL",
      "contractName": "Controller",
      "contractAddress": "0x901bd415905b21e15b606693280716b57c54d7e9",
      "function": "setDaiToken(address)",
      "arguments": [
        "0xB6202dd8D51598C18E1E277093B7468F943CD9fB"
      ],
      "transaction": {
        "from": "0x8866438f9348f33516040d38a0113531bc9e7e1d",
        "to": "0x901bd415905b21e15b606693280716b57c54d7e9",
        "value": "0x0",
        "input": "0xacee2871000000000000000000000000b6202dd8d51598c18e1e277093b7468f943cd9fb",
        "nonce": "0x117",
        "chainId": "0x161c28"
      },
      "additionalContracts": [],
      "isFixedGasLimit": false
    },
    {
      "hash": "0xb2cc2c5ed96b19cb06fe7fca8341d4791e746b2d500916e771fab834da62872f",
      "transactionType": "CALL",
      "contractName": "Controller",
      "contractAddress": "0x901bd415905b21e15b606693280716b57c54d7e9",
      "function": "setPsm(address,address)",
      "arguments": [
        "0xfc18ab74D3a04A730B767AAB241CE5A451dfCB1d",
        "0xE26D509C661c4F16FaFfBB1eAce1Fa1CdA8cc146"
      ],
      "transaction": {
        "from": "0x8866438f9348f33516040d38a0113531bc9e7e1d",
        "to": "0x901bd415905b21e15b606693280716b57c54d7e9",
        "value": "0x0",
        "input": "0xbf0dfcab000000000000000000000000fc18ab74d3a04a730b767aab241ce5a451dfcb1d000000000000000000000000e26d509c661c4f16faffbb1eace1fa1cda8cc146",
        "nonce": "0x118",
        "chainId": "0x161c28"
      },
      "additionalContracts": [],
      "isFixedGasLimit": false
    },
    {
      "hash": "0xf3f3395d73c642b0eccc03737a4fbb4e3a7a7a067b5458dbfe10f5077f33a253",
      "transactionType": "CALL",
      "contractName": "Controller",
      "contractAddress": "0x901bd415905b21e15b606693280716b57c54d7e9",
      "function": "setCollateralConfig(bytes32,address,address,bytes32)",
      "arguments": [
        "0x5852502d41000000000000000000000000000000000000000000000000000000",
        "0xEeeeeEeeeEeEeeEeEeEeeEEEeeeeEeeeeeeeEEeE",
        "0x3d22179f2578E9374791D2B825806e278eC14A7C",
        "0xba5a21ca88ef6bba2bfff5088994f90e1077e2a1cc3dcc38bd261f00fce2824f"
      ],
      "transaction": {
        "from": "0x8866438f9348f33516040d38a0113531bc9e7e1d",
        "to": "0x901bd415905b21e15b606693280716b57c54d7e9",
        "value": "0x0",
        "input": "0xa6bf15be5852502d41000000000000000000000000000000000000000000000000000000000000000000000000000000eeeeeeeeeeeeeeeeeeeeeeeeeeeeeeeeeeeeeeee0000000000000000000000003d22179f2578e9374791d2b825806e278ec14a7cba5a21ca88ef6bba2bfff5088994f90e1077e2a1cc3dcc38bd261f00fce2824f",
        "nonce": "0x119",
        "chainId": "0x161c28"
      },
      "additionalContracts": [],
      "isFixedGasLimit": false
    },
    {
      "hash": "0x82a2180bb706bc9aca8fe8510de36032a304d22e42ded328b11745ad07d0e9f8",
      "transactionType": "CALL",
      "contractName": "Controller",
      "contractAddress": "0x901bd415905b21e15b606693280716b57c54d7e9",
      "function": "setCollateralConfig(bytes32,address,address,bytes32)",
      "arguments": [
        "0x555344432d410000000000000000000000000000000000000000000000000000",
        "0xE26D509C661c4F16FaFfBB1eAce1Fa1CdA8cc146",
        "0x43f5e030811411151f709A0796492EEFC34009A0",
        "0xc8895f8ceb0cae9da15bb9d2bc5859a184ca0f61c88560488355c8a7364deef8"
      ],
      "transaction": {
        "from": "0x8866438f9348f33516040d38a0113531bc9e7e1d",
        "to": "0x901bd415905b21e15b606693280716b57c54d7e9",
        "value": "0x0",
        "input": "0xa6bf15be555344432d410000000000000000000000000000000000000000000000000000000000000000000000000000e26d509c661c4f16faffbb1eace1fa1cda8cc14600000000000000000000000043f5e030811411151f709a0796492eefc34009a0c8895f8ceb0cae9da15bb9d2bc5859a184ca0f61c88560488355c8a7364deef8",
        "nonce": "0x11a",
        "chainId": "0x161c28"
      },
      "additionalContracts": [],
      "isFixedGasLimit": false
    }
  ],
  "receipts": [
    {
      "status": "0x1",
      "cumulativeGasUsed": "0x132252",
      "logs": [],
      "logsBloom": "0x00000000000000000000000000000000000000000000000000000000000000000000000000000000000000000000000000000000000000000000000000000000000000000000000000000000000000000000000000000000000000000000000000000000000000000000000000000000000000000000000000000000000000000000000000000000000000000000000000000000000000000000000000000000000000000000000000000000000000000000000000000000000000000000000000000000000000000000000000000000000000000000000000000000000000000000000000000000000000000000000000000000000000000000000000000000",
      "type": "0x2",
      "transactionHash": "0x25f1ae52e20d08194d2337fab03b31aaa06721ef9b340d8a8f07b3332b92ae9d",
      "transactionIndex": "0x3",
      "blockHash": "0x41bcacca6137ed69f4145dbbf4eb59ac143ce170bda2ec97046ee83d7af48c6d",
      "blockNumber": "0x33db5c",
      "gasUsed": "0xe8e72",
      "effectiveGasPrice": "0x4cd5886400",
      "from": "0x8866438f9348f33516040d38a0113531bc9e7e1d",
      "to": null,
      "contractAddress": "0x901bd415905b21e15b606693280716b57c54d7e9"
    },
    {
      "status": "0x1",
      "cumulativeGasUsed": "0x6ceb7",
      "logs": [],
      "logsBloom": "0x00000000000000000000000000000000000000000000000000000000000000000000000000000000000000000000000000000000000000000000000000000000000000000000000000000000000000000000000000000000000000000000000000000000000000000000000000000000000000000000000000000000000000000000000000000000000000000000000000000000000000000000000000000000000000000000000000000000000000000000000000000000000000000000000000000000000000000000000000000000000000000000000000000000000000000000000000000000000000000000000000000000000000000000000000000000",
      "type": "0x2",
      "transactionHash": "0x8ff1c0ac75f70f1c92faa38a15fbc7b17a2eae50fd90c523a896df0bb14a723e",
      "transactionIndex": "0x4",
      "blockHash": "0x3678f32442cf3d1403bd24566ef97d11c31929fd04094c3072b5de1f532a0c21",
      "blockNumber": "0x33db5d",
      "gasUsed": "0xb437",
      "effectiveGasPrice": "0x4cd5886400",
      "from": "0x8866438f9348f33516040d38a0113531bc9e7e1d",
      "to": "0x901bd415905b21e15b606693280716b57c54d7e9",
      "contractAddress": null
    },
    {
      "status": "0x1",
      "cumulativeGasUsed": "0x4b660",
      "logs": [],
      "logsBloom": "0x00000000000000000000000000000000000000000000000000000000000000000000000000000000000000000000000000000000000000000000000000000000000000000000000000000000000000000000000000000000000000000000000000000000000000000000000000000000000000000000000000000000000000000000000000000000000000000000000000000000000000000000000000000000000000000000000000000000000000000000000000000000000000000000000000000000000000000000000000000000000000000000000000000000000000000000000000000000000000000000000000000000000000000000000000000000",
      "type": "0x2",
      "transactionHash": "0x6db56f94160f94cb4158a2833ad87428a224f5d3cd6309ffdde45d111808fdf7",
      "transactionIndex": "0x6",
      "blockHash": "0x50aa7758b8899d05611956aa684c6021b26647f409a14b8c9af85627f99037a1",
      "blockNumber": "0x33db5e",
      "gasUsed": "0xb4fc",
      "effectiveGasPrice": "0x4cd5886400",
      "from": "0x8866438f9348f33516040d38a0113531bc9e7e1d",
      "to": "0x901bd415905b21e15b606693280716b57c54d7e9",
      "contractAddress": null
    },
    {
      "status": "0x1",
      "cumulativeGasUsed": "0x7281c",
      "logs": [],
      "logsBloom": "0x00000000000000000000000000000000000000000000000000000000000000000000000000000000000000000000000000000000000000000000000000000000000000000000000000000000000000000000000000000000000000000000000000000000000000000000000000000000000000000000000000000000000000000000000000000000000000000000000000000000000000000000000000000000000000000000000000000000000000000000000000000000000000000000000000000000000000000000000000000000000000000000000000000000000000000000000000000000000000000000000000000000000000000000000000000000",
      "type": "0x2",
      "transactionHash": "0xb2cc2c5ed96b19cb06fe7fca8341d4791e746b2d500916e771fab834da62872f",
      "transactionIndex": "0x4",
      "blockHash": "0xb8534a483961e1783a71f2ad5618b1c656fad79897dcb75053a369cd8b99ff5b",
      "blockNumber": "0x33db5f",
      "gasUsed": "0x10d9c",
      "effectiveGasPrice": "0x4cd5886400",
      "from": "0x8866438f9348f33516040d38a0113531bc9e7e1d",
      "to": "0x901bd415905b21e15b606693280716b57c54d7e9",
      "contractAddress": null
    },
    {
      "status": "0x1",
      "cumulativeGasUsed": "0xe715a",
      "logs": [],
      "logsBloom": "0x00000000000000000000000000000000000000000000000000000000000000000000000000000000000000000000000000000000000000000000000000000000000000000000000000000000000000000000000000000000000000000000000000000000000000000000000000000000000000000000000000000000000000000000000000000000000000000000000000000000000000000000000000000000000000000000000000000000000000000000000000000000000000000000000000000000000000000000000000000000000000000000000000000000000000000000000000000000000000000000000000000000000000000000000000000000",
      "type": "0x2",
      "transactionHash": "0xf3f3395d73c642b0eccc03737a4fbb4e3a7a7a067b5458dbfe10f5077f33a253",
      "transactionIndex": "0x9",
      "blockHash": "0x62522c59d30b4148a496825f504a16897ee9991bb2b2bc25b03a55395e885466",
      "blockNumber": "0x33db60",
      "gasUsed": "0x1bd66",
      "effectiveGasPrice": "0x4cd5886400",
      "from": "0x8866438f9348f33516040d38a0113531bc9e7e1d",
      "to": "0x901bd415905b21e15b606693280716b57c54d7e9",
      "contractAddress": null
    },
    {
      "status": "0x1",
      "cumulativeGasUsed": "0x3b94e",
      "logs": [],
      "logsBloom": "0x00000000000000000000000000000000000000000000000000000000000000000000000000000000000000000000000000000000000000000000000000000000000000000000000000000000000000000000000000000000000000000000000000000000000000000000000000000000000000000000000000000000000000000000000000000000000000000000000000000000000000000000000000000000000000000000000000000000000000000000000000000000000000000000000000000000000000000000000000000000000000000000000000000000000000000000000000000000000000000000000000000000000000000000000000000000",
      "type": "0x2",
      "transactionHash": "0x82a2180bb706bc9aca8fe8510de36032a304d22e42ded328b11745ad07d0e9f8",
      "transactionIndex": "0x4",
      "blockHash": "0x02d8bf95de0bfd4c1d51d9b143b0f01d8bddaaf9b93f2ae99d931799a846e28e",
      "blockNumber": "0x33db61",
      "gasUsed": "0x1bd7e",
      "effectiveGasPrice": "0x4cd5886400",
      "from": "0x8866438f9348f33516040d38a0113531bc9e7e1d",
      "to": "0x901bd415905b21e15b606693280716b57c54d7e9",
      "contractAddress": null
    }
  ],
  "libraries": [],
  "pending": [],
  "returns": {},
  "timestamp": 1759302591590,
  "chain": 1449000,
  "commit": "91aff73"
}