{
  "transactions": [
    {
      "hash": "0x2feb2bdf226ffd0a844aac1c68d59ceb3fbabd50e85c54b7f396bf7689a3aa33",
      "transactionType": "CALL",
      "contractName": null,
      "contractAddress": "0x7816527746f0ade226986e02cf6cc70cf287ff61",
      "function": "drip(bytes32)",
      "arguments": [
        "0x5553444300000000000000000000000000000000000000000000000000000000"
      ],
      "transaction": {
        "from": "0x8866438f9348f33516040d38a0113531bc9e7e1d",
        "to": "0x7816527746f0ade226986e02cf6cc70cf287ff61",
        "value": "0x0",
        "input": "0x44e2a5a85553444300000000000000000000000000000000000000000000000000000000",
        "nonce": "0x98",
        "chainId": "0x161c28"
      },
      "additionalContracts": [],
      "isFixedGasLimit": false
    },
    {
      "hash": "0xc1707808ff5da8cb637a0457687e691d1b6877685df0c5cd0606592507a1c2ef",
      "transactionType": "CALL",
      "contractName": null,
      "contractAddress": "0xbcacd0124f64017c58c151dc5734bc64622c6a75",
      "function": "file(bytes32,bytes32,uint256)",
      "arguments": [
        "0x5553444300000000000000000000000000000000000000000000000000000000",
        "0x6d61740000000000000000000000000000000000000000000000000000000000",
        "1010000000000000000000000000"
      ],
      "transaction": {
        "from": "0x8866438f9348f33516040d38a0113531bc9e7e1d",
        "to": "0xbcacd0124f64017c58c151dc5734bc64622c6a75",
        "value": "0x0",
        "input": "0x1a0b287e55534443000000000000000000000000000000000000000000000000000000006d617400000000000000000000000000000000000000000000000000000000000000000000000000000000000000000000000000034373d1b5e4818532000000",
        "nonce": "0x99",
        "chainId": "0x161c28"
      },
      "additionalContracts": [],
      "isFixedGasLimit": false
    },
    {
      "hash": "0x1a25df45e7521b3ed9481c776b56748c0488814f1a1258ca0c66a2cf8778aac7",
      "transactionType": "CALL",
      "contractName": null,
      "contractAddress": "0x9e8860db73d093464ee2b5a1fe6f63b09f70e8c1",
      "function": "file(bytes32,bytes32,uint256)",
      "arguments": [
        "0x5553444300000000000000000000000000000000000000000000000000000000",
        "0x6c696e6500000000000000000000000000000000000000000000000000000000",
        "5000000000000000000000000000000000000000000000000000"
      ],
      "transaction": {
        "from": "0x8866438f9348f33516040d38a0113531bc9e7e1d",
        "to": "0x9e8860db73d093464ee2b5a1fe6f63b09f70e8c1",
        "value": "0x0",
        "input": "0x1a0b287e55534443000000000000000000000000000000000000000000000000000000006c696e6500000000000000000000000000000000000000000000000000000000000000000000000000000d5d238a4abe9806872a4904598d6d88000000000000",
        "nonce": "0x9a",
        "chainId": "0x161c28"
      },
      "additionalContracts": [],
      "isFixedGasLimit": false
    },
    {
      "hash": "0x36b3b99d29bc9ba6f5b40e394f576860b22172d9cbf4d3c9b0b006636814338d",
      "transactionType": "CALL",
      "contractName": null,
      "contractAddress": "0x9e8860db73d093464ee2b5a1fe6f63b09f70e8c1",
      "function": "file(bytes32,uint256)",
      "arguments": [
        "0x4c696e6500000000000000000000000000000000000000000000000000000000",
        "5000000000000000000000000000000000000000000000000000"
      ],
      "transaction": {
        "from": "0x8866438f9348f33516040d38a0113531bc9e7e1d",
        "to": "0x9e8860db73d093464ee2b5a1fe6f63b09f70e8c1",
        "value": "0x0",
        "input": "0x29ae81144c696e6500000000000000000000000000000000000000000000000000000000000000000000000000000d5d238a4abe9806872a4904598d6d88000000000000",
        "nonce": "0x9b",
        "chainId": "0x161c28"
      },
      "additionalContracts": [],
      "isFixedGasLimit": false
    },
    {
      "hash": "0x39f609f854cc665ff925b4674774817c6de891ba07e06db9585d3b25caa91673",
      "transactionType": "CALL",
      "contractName": null,
      "contractAddress": "0x9e8860db73d093464ee2b5a1fe6f63b09f70e8c1",
      "function": "file(bytes32,bytes32,uint256)",
      "arguments": [
        "0x5553444300000000000000000000000000000000000000000000000000000000",
        "0x6475737400000000000000000000000000000000000000000000000000000000",
        "50000000000000000000000000000000000000000000000"
      ],
      "transaction": {
        "from": "0x8866438f9348f33516040d38a0113531bc9e7e1d",
        "to": "0x9e8860db73d093464ee2b5a1fe6f63b09f70e8c1",
        "value": "0x0",
        "input": "0x1a0b287e5553444300000000000000000000000000000000000000000000000000000000647573740000000000000000000000000000000000000000000000000000000000000000000000000000000008c213d9da502de454526f422cc3400000000000",
        "nonce": "0x9c",
        "chainId": "0x161c28"
      },
      "additionalContracts": [],
      "isFixedGasLimit": false
    },
    {
      "hash": "0x5187bfe4b52493b16c6d04274c62ecb122fa744576d2f7d43008c59bb99767dd",
      "transactionType": "CALL",
      "contractName": null,
      "contractAddress": "0xed17d8734b9ef097ad190bb4bd539dfc98218c06",
      "function": "file(bytes32,uint256)",
      "arguments": [
        "0x486f6c6500000000000000000000000000000000000000000000000000000000",
        "5000000000000000000000000000000000000000000000000000"
      ],
      "transaction": {
        "from": "0x8866438f9348f33516040d38a0113531bc9e7e1d",
        "to": "0xed17d8734b9ef097ad190bb4bd539dfc98218c06",
        "value": "0x0",
        "input": "0x29ae8114486f6c6500000000000000000000000000000000000000000000000000000000000000000000000000000d5d238a4abe9806872a4904598d6d88000000000000",
        "nonce": "0x9d",
        "chainId": "0x161c28"
      },
      "additionalContracts": [],
      "isFixedGasLimit": false
    },
    {
      "hash": "0x73f44530af0c53fd6f5ecbf49c63339faf5b1dc1e08fb0f5a886a790a1a042d7",
      "transactionType": "CALL",
      "contractName": null,
      "contractAddress": "0xed17d8734b9ef097ad190bb4bd539dfc98218c06",
      "function": "file(bytes32,bytes32,uint256)",
      "arguments": [
        "0x5553444300000000000000000000000000000000000000000000000000000000",
        "0x686f6c6500000000000000000000000000000000000000000000000000000000",
        "5000000000000000000000000000000000000000000000000000"
      ],
      "transaction": {
        "from": "0x8866438f9348f33516040d38a0113531bc9e7e1d",
        "to": "0xed17d8734b9ef097ad190bb4bd539dfc98218c06",
        "value": "0x0",
        "input": "0x1a0b287e5553444300000000000000000000000000000000000000000000000000000000686f6c6500000000000000000000000000000000000000000000000000000000000000000000000000000d5d238a4abe9806872a4904598d6d88000000000000",
        "nonce": "0x9e",
        "chainId": "0x161c28"
      },
      "additionalContracts": [],
      "isFixedGasLimit": false
    },
    {
      "hash": "0x2382699d4020e5a5ea8fa76cec3e3168229d9400030695e61ae26a8e89fec3c9",
      "transactionType": "CALL",
      "contractName": null,
      "contractAddress": "0xbcacd0124f64017c58c151dc5734bc64622c6a75",
      "function": "poke(bytes32)",
      "arguments": [
        "0x5553444300000000000000000000000000000000000000000000000000000000"
      ],
      "transaction": {
        "from": "0x8866438f9348f33516040d38a0113531bc9e7e1d",
        "to": "0xbcacd0124f64017c58c151dc5734bc64622c6a75",
        "value": "0x0",
        "input": "0x1504460f5553444300000000000000000000000000000000000000000000000000000000",
        "nonce": "0x9f",
        "chainId": "0x161c28"
      },
      "additionalContracts": [],
      "isFixedGasLimit": false
    }
  ],
  "receipts": [
    {
      "status": "0x1",
      "cumulativeGasUsed": "0x1b461d",
      "logs": [],
      "logsBloom": "0x00000000000000000000000000000000000000000000000000000000000000000000000000000000000000000000000000000000000000000000000000000000000000000000000000000000000000000000000000000000000000000000000000000000000000000000000000000000000000000000000000000000000000000000000000000000000000000000000000000000000000000000000000000000000000000000000000000000000000000000000000000000000000000000000000000000000000000000000000000000000000000000000000000000000000000000000000000000000000000000000000000000000000000000000000000000",
      "type": "0x2",
      "transactionHash": "0x2feb2bdf226ffd0a844aac1c68d59ceb3fbabd50e85c54b7f396bf7689a3aa33",
      "transactionIndex": "0xd",
      "blockHash": "0xf36df31b2b4fab354d6d1fe08f25aba53d7efbf7cc85ba0bb11a9ea37dba3f57",
      "blockNumber": "0x33a50e",
      "gasUsed": "0xf68e",
      "effectiveGasPrice": "0x2e90edd001",
      "from": "0x8866438f9348f33516040d38a0113531bc9e7e1d",
      "to": "0x7816527746f0ade226986e02cf6cc70cf287ff61",
      "contractAddress": null
    },
    {
      "status": "0x1",
      "cumulativeGasUsed": "0x198608",
      "logs": [],
      "logsBloom": "0x00000000000000000000000000000000000000000000000000000000000000000000000000000000000000000000000000000000000000000000000000000000000000000000000000000000000000000000000000000000000000000000000000000000000000000000000000000000000000000000000000000000000000000000000000000000000000000000000000000000000000000000000000000000000000000000000000000000000000000000000000000000000000000000000000000000000000000000000000000000000000000000000000000000000000000000000000000000000000000000000000000000000000000000000000000000",
      "type": "0x2",
      "transactionHash": "0xc1707808ff5da8cb637a0457687e691d1b6877685df0c5cd0606592507a1c2ef",
      "transactionIndex": "0xc",
      "blockHash": "0x3ad2d03ab842a8280691652de2d790b868bac6f7d226f6433b35ed6bd0946ff4",
      "blockNumber": "0x33a50f",
      "gasUsed": "0xbd19",
      "effectiveGasPrice": "0x2e90edd001",
      "from": "0x8866438f9348f33516040d38a0113531bc9e7e1d",
      "to": "0xbcacd0124f64017c58c151dc5734bc64622c6a75",
      "contractAddress": null
    },
    {
      "status": "0x1",
      "cumulativeGasUsed": "0x17ffe2",
      "logs": [],
      "logsBloom": "0x00000000000000000000000000000000000000000000000000000000000000000000000000000000000000000000000000000000000000000000000000000000000000000000000000000000000000000000000000000000000000000000000000000000000000000000000000000000000000000000000000000000000000000000000000000000000000000000000000000000000000000000000000000000000000000000000000000000000000000000000000000000000000000000000000000000000000000000000000000000000000000000000000000000000000000000000000000000000000000000000000000000000000000000000000000000",
      "type": "0x2",
      "transactionHash": "0x1a25df45e7521b3ed9481c776b56748c0488814f1a1258ca0c66a2cf8778aac7",
      "transactionIndex": "0xb",
      "blockHash": "0xe506e281e98ec9c822ce958afeb97fe7151d28d93800dfea7bdef6e0d3a43c81",
      "blockNumber": "0x33a510",
      "gasUsed": "0xbd93",
      "effectiveGasPrice": "0x2e90edd001",
      "from": "0x8866438f9348f33516040d38a0113531bc9e7e1d",
      "to": "0x9e8860db73d093464ee2b5a1fe6f63b09f70e8c1",
      "contractAddress": null
    },
    {
      "status": "0x1",
      "cumulativeGasUsed": "0x1f524b",
      "logs": [],
      "logsBloom": "0x00000000000000000000000000000000000000000000000000000000000000000000000000000000000000000000000000000000000000000000000000000000000000000000000000000000000000000000000000000000000000000000000000000000000000000000000000000000000000000000000000000000000000000000000000000000000000000000000000000000000000000000000000000000000000000000000000000000000000000000000000000000000000000000000000000000000000000000000000000000000000000000000000000000000000000000000000000000000000000000000000000000000000000000000000000000",
      "type": "0x2",
      "transactionHash": "0x36b3b99d29bc9ba6f5b40e394f576860b22172d9cbf4d3c9b0b006636814338d",
      "transactionIndex": "0x10",
      "blockHash": "0xc06021f249b8b19397d14a1bb2e5336ba49a4be392b98342128d97c3f60869df",
      "blockNumber": "0x33a511",
      "gasUsed": "0x6edc",
      "effectiveGasPrice": "0x2e90edd001",
      "from": "0x8866438f9348f33516040d38a0113531bc9e7e1d",
      "to": "0x9e8860db73d093464ee2b5a1fe6f63b09f70e8c1",
      "contractAddress": null
    },
    {
      "status": "0x1",
      "cumulativeGasUsed": "0x198696",
      "logs": [],
      "logsBloom": "0x00000000000000000000000000000000000000000000000000000000000000000000000000000000000000000000000000000000000000000000000000000000000000000000000000000000000000000000000000000000000000000000000000000000000000000000000000000000000000000000000000000000000000000000000000000000000000000000000000000000000000000000000000000000000000000000000000000000000000000000000000000000000000000000000000000000000000000000000000000000000000000000000000000000000000000000000000000000000000000000000000000000000000000000000000000000",
      "type": "0x2",
      "transactionHash": "0x39f609f854cc665ff925b4674774817c6de891ba07e06db9585d3b25caa91673",
      "transactionIndex": "0xc",
      "blockHash": "0x44e996f34b0d1f7a5e0315bb9380ab26a0de7f244c2c33e7271b99aaa30c5e52",
      "blockNumber": "0x33a512",
      "gasUsed": "0xbda7",
      "effectiveGasPrice": "0x2e90edd001",
      "from": "0x8866438f9348f33516040d38a0113531bc9e7e1d",
      "to": "0x9e8860db73d093464ee2b5a1fe6f63b09f70e8c1",
      "contractAddress": null
    },
    {
      "status": "0x1",
      "cumulativeGasUsed": "0x1abb8a",
      "logs": [
        {
          "address": "0xed17d8734b9ef097ad190bb4bd539dfc98218c06",
          "topics": [
            "0xe986e40cc8c151830d4f61050f4fb2e4add8567caad2d5f5496f9158e91fe4c7",
            "0x486f6c6500000000000000000000000000000000000000000000000000000000"
          ],
          "data": "0x000000000000000000000d5d238a4abe9806872a4904598d6d88000000000000",
          "blockHash": "0x1e554600ff0ebee65fa9a74041272d7b11c4fa1456ec870a51756918108a9cc2",
          "blockNumber": "0x33a513",
          "transactionHash": "0x5187bfe4b52493b16c6d04274c62ecb122fa744576d2f7d43008c59bb99767dd",
          "transactionIndex": "0xd",
          "logIndex": "0x0",
          "removed": false
        }
      ],
      "logsBloom": "0x00000000000000000000000000000000000000000000000000000000000000000000000000000000000000002000000000000000000000000000000000000000000000000000000000000000000000000010000000000000000000000000000000000000000000000000000000001000000000000000000000000000000000000000000000000000000000000000000000000200000000000000000200000000000000000000000000000000000000000000000000000000000000000000000080000000000000000001000000000000000000000000000000000000000000000000000000000000000000000100000000000000400000000000000000000000",
      "type": "0x2",
      "transactionHash": "0x5187bfe4b52493b16c6d04274c62ecb122fa744576d2f7d43008c59bb99767dd",
      "transactionIndex": "0xd",
      "blockHash": "0x1e554600ff0ebee65fa9a74041272d7b11c4fa1456ec870a51756918108a9cc2",
      "blockNumber": "0x33a513",
      "gasUsed": "0x6bfb",
      "effectiveGasPrice": "0x2e90edd001",
      "from": "0x8866438f9348f33516040d38a0113531bc9e7e1d",
      "to": "0xed17d8734b9ef097ad190bb4bd539dfc98218c06",
      "contractAddress": null
    },
    {
      "status": "0x1",
      "cumulativeGasUsed": "0x32cd22",
      "logs": [
        {
          "address": "0xed17d8734b9ef097ad190bb4bd539dfc98218c06",
          "topics": [
            "0x851aa1caf4888170ad8875449d18f0f512fd6deb2a6571ea1a41fb9f95acbcd1",
            "0x5553444300000000000000000000000000000000000000000000000000000000",
            "0x686f6c6500000000000000000000000000000000000000000000000000000000"
          ],
          "data": "0x000000000000000000000d5d238a4abe9806872a4904598d6d88000000000000",
          "blockHash": "0x2fe4b98655d5fcb3dfc7b87871c5fa03578f54a165762c0b22511b43d614e52f",
          "blockNumber": "0x33a514",
          "transactionHash": "0x73f44530af0c53fd6f5ecbf49c63339faf5b1dc1e08fb0f5a886a790a1a042d7",
          "transactionIndex": "0x19",
          "logIndex": "0x1",
          "removed": false
        }
      ],
      "logsBloom": "0x00000000000000000000000000000000000000000000000000000000000000000000000000000000001000000000000000000000000000000000000000000000000000000000000000000000000000000000000000000001000000000000000000000000000000000000000000000000000000000000000000000000000000000000000000000000000000000000000000000000000000000000000000000000000000000000000400000000000000000000000000000000000000000020000090000200000000000000000000000000000000001000000000000000000000000010000000000000000000000100000000000040400000000000000000000000",
      "type": "0x2",
      "transactionHash": "0x73f44530af0c53fd6f5ecbf49c63339faf5b1dc1e08fb0f5a886a790a1a042d7",
      "transactionIndex": "0x19",
      "blockHash": "0x2fe4b98655d5fcb3dfc7b87871c5fa03578f54a165762c0b22511b43d614e52f",
      "blockNumber": "0x33a514",
      "gasUsed": "0xbc50",
      "effectiveGasPrice": "0x2e90edd001",
      "from": "0x8866438f9348f33516040d38a0113531bc9e7e1d",
      "to": "0xed17d8734b9ef097ad190bb4bd539dfc98218c06",
      "contractAddress": null
    },
    {
      "status": "0x1",
      "cumulativeGasUsed": "0x1f981a",
      "logs": [
        {
          "address": "0xbcacd0124f64017c58c151dc5734bc64622c6a75",
          "topics": [
            "0xdfd7467e425a8107cfd368d159957692c25085aacbcf5228ce08f10f2146486e"
          ],
          "data": "0x55534443000000000000000000000000000000000000000000000000000000000000000000000000000000000000000000000000000000000de0b6b3a764000000000000000000000000000000000000000000000332fd9ee0221483460511be",
          "blockHash": "0x47adae7fe03875c80f2e3c68999d2498829852213cb2f5427697979cb4733102",
          "blockNumber": "0x33a515",
          "transactionHash": "0x2382699d4020e5a5ea8fa76cec3e3168229d9400030695e61ae26a8e89fec3c9",
          "transactionIndex": "0x11",
          "logIndex": "0x2",
          "removed": false
        }
      ],
      "logsBloom": "0x00000000000000000000000000040000000000000000000000000000000000000004000000000000000000000000000000000000000000000000000000000000000000000000000000000000000000000000000000000000000000000000000000000000000000000400000000000000000000000000000000002000000000000000000000000000000000000000000000000000000000000000000000000000000080000000000000000000000000000000000000000000000000000000000000200000000000000000000000000000000000000000000000000000000000000000000000000000000000000000000000000000000000000000000000000000",
      "type": "0x2",
      "transactionHash": "0x2382699d4020e5a5ea8fa76cec3e3168229d9400030695e61ae26a8e89fec3c9",
      "transactionIndex": "0x11",
      "blockHash": "0x47adae7fe03875c80f2e3c68999d2498829852213cb2f5427697979cb4733102",
      "blockNumber": "0x33a515",
      "gasUsed": "0x10611",
      "effectiveGasPrice": "0x2e90edd001",
      "from": "0x8866438f9348f33516040d38a0113531bc9e7e1d",
      "to": "0xbcacd0124f64017c58c151dc5734bc64622c6a75",
      "contractAddress": null
    }
  ],
  "libraries": [],
  "pending": [],
  "returns": {},
  "timestamp": 1759223568136,
  "chain": 1449000,
  "commit": "91aff73"
}