{
  "transactions": [
    {
      "hash": "0x8851533c556e13a4f64f1e7d53d3ade2afea7a64e7745ade149548eb42b30c2b",
      "transactionType": "CREATE",
      "contractName": "AuthGemJoin5",
      "contractAddress": "0x43f5e030811411151f709a0796492eefc34009a0",
      "function": null,
      "arguments": [
        "0x9E8860db73D093464ee2B5a1Fe6F63B09F70e8C1",
        "0x555344432d410000000000000000000000000000000000000000000000000000",
        "0xE26D509C661c4F16FaFfBB1eAce1Fa1CdA8cc146"
      ],
      "transaction": {
        "from": "0x8866438f9348f33516040d38a0113531bc9e7e1d",
        "value": "0x0",
        "input": "0x61010060405234801561001157600080fd5b50604051610b71380380610b718339818101604052606081101561003457600080fd5b5080516020808301516040938401516001600160601b0319606082901b1660c052845163313ce56760e01b815294519394919390926000926001600160a01b0385169263313ce56792600480840193919291829003018186803b15801561009a57600080fd5b505afa1580156100ae573d6000803e3d6000fd5b505050506040513d60208110156100c457600080fd5b505160ff1660e081905290506012811061010f5760405162461bcd60e51b8152600401808060200182810382526022815260200180610b4f6022913960400191505060405180910390fd5b3360008181526020819052604080822060019055517fdd0e34038ac38b2a1ce960229778ac48a8719bc900b6c4f8d0475c6e8b385a609190a2505060018055606082811b6001600160601b03191660805260a082905260c05160e0516001600160a01b0390941693911c906109846101cb6000398061032f52806103fa52806106885250806102a5528061052d52806107af52508061036552806104a552806107125250806101d45280610476528061075252506109846000f3fe608060405234801561001057600080fd5b50600436106100995760003560e01c806336569e771461009e57806365fae35e146100c257806369245009146100ea5780637bd2bea7146100f2578063957aa58c146100fa5780639c52a7f114610114578063b3bcfa821461013a578063bf353dbb14610142578063c5ce281e14610168578063d14b1e4b14610170578063ef693bed146101a6575b600080fd5b6100a66101d2565b604080516001600160a01b039092168252519081900360200190f35b6100e8600480360360208110156100d857600080fd5b50356001600160a01b03166101f6565b005b6100e8610257565b6100a66102a3565b6101026102c7565b60408051918252519081900360200190f35b6100e86004803603602081101561012a57600080fd5b50356001600160a01b03166102cd565b61010261032d565b6101026004803603602081101561015857600080fd5b50356001600160a01b0316610351565b610102610363565b6100e86004803603606081101561018657600080fd5b506001600160a01b03813581169160208101359160409091013516610387565b6100e8600480360360408110156101bc57600080fd5b506001600160a01b038135169060200135610680565b7f000000000000000000000000000000000000000000000000000000000000000081565b3360009081526020819052604090205460011461021257600080fd5b6001600160a01b03811660008181526020819052604080822060019055517fdd0e34038ac38b2a1ce960229778ac48a8719bc900b6c4f8d0475c6e8b385a609190a250565b3360009081526020819052604090205460011461027357600080fd5b600060018190556040517f2308ed18a14e800c39b86eb6ea43270105955ca385b603b64eca89f98ae8fbda9190a1565b7f000000000000000000000000000000000000000000000000000000000000000081565b60015481565b336000908152602081905260409020546001146102e957600080fd5b6001600160a01b038116600081815260208190526040808220829055517f184450df2e323acec0ed3b5c7531b81f9b4cdef7914dfd4c0a4317416bb5251b9190a250565b7f000000000000000000000000000000000000000000000000000000000000000081565b60006020819052908152604090205481565b7f000000000000000000000000000000000000000000000000000000000000000081565b336000908152602081905260409020546001146103a357600080fd5b6001546001146103f2576040805162461bcd60e51b81526020600482015260156024820152744175746847656d4a6f696e352f6e6f742d6c69766560581b604482015290519081900360640190fd5b6000610424837f0000000000000000000000000000000000000000000000000000000000000000601203600a0a6108e4565b90506000811215610474576040805162461bcd60e51b81526020600482015260156024820152744175746847656d4a6f696e352f6f766572666c6f7760581b604482015290519081900360640190fd5b7f00000000000000000000000000000000000000000000000000000000000000006001600160a01b0316637cdd3fde7f000000000000000000000000000000000000000000000000000000000000000086846040518463ffffffff1660e01b815260040180848152602001836001600160a01b031681526020018281526020019350505050600060405180830381600087803b15801561051357600080fd5b505af1158015610527573d6000803e3d6000fd5b505050507f00000000000000000000000000000000000000000000000000000000000000006001600160a01b03166323b872dd8330866040518463ffffffff1660e01b815260040180846001600160a01b03168152602001836001600160a01b031681526020018281526020019350505050602060405180830381600087803b1580156105b357600080fd5b505af11580156105c7573d6000803e3d6000fd5b505050506040513d60208110156105dd57600080fd5b505161062f576040805162461bcd60e51b815260206004820152601c60248201527b20baba3423b2b6a537b4b71a97b330b4b632b216ba3930b739b332b960211b604482015290519081900360640190fd5b816001600160a01b0316846001600160a01b03167f16c03c2fe01ac285473b0d10ba5c5de59ede582fcac27a866b5827415fe44b03856040518082815260200191505060405180910390a350505050565b60006106b2827f0000000000000000000000000000000000000000000000000000000000000000601203600a0a6108e4565b90506000811215610702576040805162461bcd60e51b81526020600482015260156024820152744175746847656d4a6f696e352f6f766572666c6f7760581b604482015290519081900360640190fd5b60408051633e6e9fef60e11b81527f000000000000000000000000000000000000000000000000000000000000000060048201523360248201526000838103604483015291516001600160a01b037f00000000000000000000000000000000000000000000000000000000000000001692637cdd3fde926064808201939182900301818387803b15801561079557600080fd5b505af11580156107a9573d6000803e3d6000fd5b505050507f00000000000000000000000000000000000000000000000000000000000000006001600160a01b031663a9059cbb84846040518363ffffffff1660e01b815260040180836001600160a01b0316815260200182815260200192505050602060405180830381600087803b15801561082457600080fd5b505af1158015610838573d6000803e3d6000fd5b505050506040513d602081101561084e57600080fd5b50516108a0576040805162461bcd60e51b815260206004820152601c60248201527b20baba3423b2b6a537b4b71a97b330b4b632b216ba3930b739b332b960211b604482015290519081900360640190fd5b6040805183815290516001600160a01b038516917f22d324652c93739755cf4581508b60875ebdd78c20c0cff5cf8e23452b299631919081900360200190a2505050565b60008115806108ff575050808202828282816108fc57fe5b04145b610948576040805162461bcd60e51b81526020600482015260156024820152744175746847656d4a6f696e352f6f766572666c6f7760581b604482015290519081900360640190fd5b9291505056fea2646970667358221220aa0f85c42c0c2801054cb377e302873f02fc7e2115f01e090623343216ea9d6364736f6c634300060c00334175746847656d4a6f696e352f646563696d616c732d31382d6f722d6869676865720000000000000000000000009e8860db73d093464ee2b5a1fe6f63b09f70e8c1555344432d410000000000000000000000000000000000000000000000000000000000000000000000000000e26d509c661c4f16faffbb1eace1fa1cda8cc146",
        "nonce": "0xae",
        "chainId": "0x161c28"
      },
      "additionalContracts": [],
      "isFixedGasLimit": false
    },
    {
      "hash": "0x3f108c75cc3add8e8ac491793a3e82d459bc3ac9e2cc00b15a0989e1c65df648",
      "transactionType": "CALL",
      "contractName": null,
      "contractAddress": "0x9e8860db73d093464ee2b5a1fe6f63b09f70e8c1",
      "function": "rely(address)",
      "arguments": [
        "0x43f5e030811411151f709A0796492EEFC34009A0"
      ],
      "transaction": {
        "from": "0x8866438f9348f33516040d38a0113531bc9e7e1d",
        "to": "0x9e8860db73d093464ee2b5a1fe6f63b09f70e8c1",
        "value": "0x0",
        "input": "0x65fae35e00000000000000000000000043f5e030811411151f709a0796492eefc34009a0",
        "nonce": "0xaf",
        "chainId": "0x161c28"
      },
      "additionalContracts": [],
      "isFixedGasLimit": false
    },
    {
      "hash": "0x3e3d78908b720b93bd183756d0aa2abe6562789fdaee1227be59e6617f4e30fd",
      "transactionType": "CREATE",
      "contractName": "SimplePip",
      "contractAddress": "0x651e1825ca8fb6bbd11af89b9b021571b28e88a7",
      "function": null,
      "arguments": null,
      "transaction": {
        "from": "0x8866438f9348f33516040d38a0113531bc9e7e1d",
        "value": "0x0",
        "input": "0x608060405234801561001057600080fd5b5060b68061001f6000396000f3fe6080604052348015600f57600080fd5b506004361060325760003560e01c806359e02dd714603757806360fe47b1146056575b600080fd5b603d6072565b6040805192835290151560208301528051918290030190f35b607060048036036020811015606a57600080fd5b5035607b565b005b60005460019091565b60005556fea2646970667358221220fb2b24add908e483130e41dfaaf77480a1c20e2760b50c72fd00f9d238058f3b64736f6c634300060c0033",
        "nonce": "0xb0",
        "chainId": "0x161c28"
      },
      "additionalContracts": [],
      "isFixedGasLimit": false
    },
    {
      "hash": "0xa8711b7af0d97175f459e79bc52fda5c5f635fba1bc2214c63869d4e83708427",
      "transactionType": "CALL",
      "contractName": null,
      "contractAddress": "0xbcacd0124f64017c58c151dc5734bc64622c6a75",
      "function": "file(bytes32,bytes32,address)",
      "arguments": [
        "0x555344432d410000000000000000000000000000000000000000000000000000",
        "0x7069700000000000000000000000000000000000000000000000000000000000",
        "0x651e1825cA8fb6bbD11AF89b9b021571B28E88A7"
      ],
      "transaction": {
        "from": "0x8866438f9348f33516040d38a0113531bc9e7e1d",
        "to": "0xbcacd0124f64017c58c151dc5734bc64622c6a75",
        "value": "0x0",
        "input": "0xebecb39d555344432d4100000000000000000000000000000000000000000000000000007069700000000000000000000000000000000000000000000000000000000000000000000000000000000000651e1825ca8fb6bbd11af89b9b021571b28e88a7",
        "nonce": "0xb1",
        "chainId": "0x161c28"
      },
      "additionalContracts": [],
      "isFixedGasLimit": false
    },
    {
      "hash": "0x9a557712e43c2ab097aa905610ed5ce25a53c9890be86f5ac40491fcae3bb93a",
      "transactionType": "CALL",
      "contractName": null,
      "contractAddress": "0xbcacd0124f64017c58c151dc5734bc64622c6a75",
      "function": "file(bytes32,bytes32,uint256)",
      "arguments": [
        "0x555344432d410000000000000000000000000000000000000000000000000000",
        "0x6d61740000000000000000000000000000000000000000000000000000000000",
        "1000000000000000000000000000"
      ],
      "transaction": {
        "from": "0x8866438f9348f33516040d38a0113531bc9e7e1d",
        "to": "0xbcacd0124f64017c58c151dc5734bc64622c6a75",
        "value": "0x0",
        "input": "0x1a0b287e555344432d4100000000000000000000000000000000000000000000000000006d617400000000000000000000000000000000000000000000000000000000000000000000000000000000000000000000000000033b2e3c9fd0803ce8000000",
        "nonce": "0xb2",
        "chainId": "0x161c28"
      },
      "additionalContracts": [],
      "isFixedGasLimit": false
    },
    {
      "hash": "0x7d91e924ccacb77d5de877cb3ffb15609a332a893fcb3be189b8d758da7efc16",
      "transactionType": "CALL",
      "contractName": null,
      "contractAddress": "0x7816527746f0ade226986e02cf6cc70cf287ff61",
      "function": "drip(bytes32)",
      "arguments": [
        "0x555344432d410000000000000000000000000000000000000000000000000000"
      ],
      "transaction": {
        "from": "0x8866438f9348f33516040d38a0113531bc9e7e1d",
        "to": "0x7816527746f0ade226986e02cf6cc70cf287ff61",
        "value": "0x0",
        "input": "0x44e2a5a8555344432d410000000000000000000000000000000000000000000000000000",
        "nonce": "0xb3",
        "chainId": "0x161c28"
      },
      "additionalContracts": [],
      "isFixedGasLimit": false
    },
    {
      "hash": "0xc91787e92865eeebc4e621dd5c24ea40d4e31e71fb2df88ee72788a9aa29fcf2",
      "transactionType": "CALL",
      "contractName": null,
      "contractAddress": "0x9e8860db73d093464ee2b5a1fe6f63b09f70e8c1",
      "function": "file(bytes32,bytes32,uint256)",
      "arguments": [
        "0x555344432d410000000000000000000000000000000000000000000000000000",
        "0x6c696e6500000000000000000000000000000000000000000000000000000000",
        "5000000000000000000000000000000000000000000000000000"
      ],
      "transaction": {
        "from": "0x8866438f9348f33516040d38a0113531bc9e7e1d",
        "to": "0x9e8860db73d093464ee2b5a1fe6f63b09f70e8c1",
        "value": "0x0",
        "input": "0x1a0b287e555344432d4100000000000000000000000000000000000000000000000000006c696e6500000000000000000000000000000000000000000000000000000000000000000000000000000d5d238a4abe9806872a4904598d6d88000000000000",
        "nonce": "0xb4",
        "chainId": "0x161c28"
      },
      "additionalContracts": [],
      "isFixedGasLimit": false
    },
    {
      "hash": "0x767b214c4315e94aad6e74c2226253d91f22dfbf3c54f6107630ad0a37dac7fe",
      "transactionType": "CALL",
      "contractName": null,
      "contractAddress": "0x9e8860db73d093464ee2b5a1fe6f63b09f70e8c1",
      "function": "file(bytes32,bytes32,uint256)",
      "arguments": [
        "0x555344432d410000000000000000000000000000000000000000000000000000",
        "0x6475737400000000000000000000000000000000000000000000000000000000",
        "50000000000000000000000000000000000000000000000"
      ],
      "transaction": {
        "from": "0x8866438f9348f33516040d38a0113531bc9e7e1d",
        "to": "0x9e8860db73d093464ee2b5a1fe6f63b09f70e8c1",
        "value": "0x0",
        "input": "0x1a0b287e555344432d410000000000000000000000000000000000000000000000000000647573740000000000000000000000000000000000000000000000000000000000000000000000000000000008c213d9da502de454526f422cc3400000000000",
        "nonce": "0xb5",
        "chainId": "0x161c28"
      },
      "additionalContracts": [],
      "isFixedGasLimit": false
    },
    {
      "hash": "0x8bb96e11aafa7f9505d559fe12cecfbb2f9faa47b9f3fe42fc5616c93e6f61a4",
      "transactionType": "CALL",
      "contractName": null,
      "contractAddress": "0xbcacd0124f64017c58c151dc5734bc64622c6a75",
      "function": "poke(bytes32)",
      "arguments": [
        "0x555344432d410000000000000000000000000000000000000000000000000000"
      ],
      "transaction": {
        "from": "0x8866438f9348f33516040d38a0113531bc9e7e1d",
        "to": "0xbcacd0124f64017c58c151dc5734bc64622c6a75",
        "value": "0x0",
        "input": "0x1504460f555344432d410000000000000000000000000000000000000000000000000000",
        "nonce": "0xb6",
        "chainId": "0x161c28"
      },
      "additionalContracts": [],
      "isFixedGasLimit": false
    }
  ],
  "receipts": [
    {
      "status": "0x1",
      "cumulativeGasUsed": "0xd4380",
      "logs": [
        {
          "address": "0x43f5e030811411151f709a0796492eefc34009a0",
          "topics": [
            "0xdd0e34038ac38b2a1ce960229778ac48a8719bc900b6c4f8d0475c6e8b385a60",
            "0x0000000000000000000000008866438f9348f33516040d38a0113531bc9e7e1d"
          ],
          "data": "0x",
          "blockHash": "0x42e2a13b96c16ca370bdb3867d70c6bd2d881e0ed4c80879477443f8fba5b266",
          "blockNumber": "0x33aa58",
          "transactionHash": "0x8851533c556e13a4f64f1e7d53d3ade2afea7a64e7745ade149548eb42b30c2b",
          "transactionIndex": "0x3",
          "logIndex": "0x1",
          "removed": false
        }
      ],
      "logsBloom": "0x00000000000000000000000000000000000000000000000000000000000000000000000000000000000000000000000000004000000000000000000000000000000000400000000000000000000000000000000000000000000000000000000000000000000000000000000000000000000000400000000000000000000000000004000000000000040000000000000000000000000000000000000000000000000000000000000000000000000000000000000000000000000000000000000000000000000000000000040000000000000000000000000000000000000010000000004000000002000000000000000000000000000000000000000000000000",
      "type": "0x2",
      "transactionHash": "0x8851533c556e13a4f64f1e7d53d3ade2afea7a64e7745ade149548eb42b30c2b",
      "transactionIndex": "0x3",
      "blockHash": "0x42e2a13b96c16ca370bdb3867d70c6bd2d881e0ed4c80879477443f8fba5b266",
      "blockNumber": "0x33aa58",
      "gasUsed": "0x9b74c",
      "effectiveGasPrice": "0x4cd5886400",
      "from": "0x8866438f9348f33516040d38a0113531bc9e7e1d",
      "to": null,
      "contractAddress": "0x43f5e030811411151f709a0796492eefc34009a0"
    },
    {
      "status": "0x1",
      "cumulativeGasUsed": "0x13bb9",
      "logs": [],
      "logsBloom": "0x00000000000000000000000000000000000000000000000000000000000000000000000000000000000000000000000000000000000000000000000000000000000000000000000000000000000000000000000000000000000000000000000000000000000000000000000000000000000000000000000000000000000000000000000000000000000000000000000000000000000000000000000000000000000000000000000000000000000000000000000000000000000000000000000000000000000000000000000000000000000000000000000000000000000000000000000000000000000000000000000000000000000000000000000000000000",
      "type": "0x2",
      "transactionHash": "0x3f108c75cc3add8e8ac491793a3e82d459bc3ac9e2cc00b15a0989e1c65df648",
      "transactionIndex": "0x1",
      "blockHash": "0x5985909d3766dacefda692141d032c0bfe72ea5ff3043dc966a1f169318a92d3",
      "blockNumber": "0x33aa59",
      "gasUsed": "0xbcc5",
      "effectiveGasPrice": "0x4cd5886400",
      "from": "0x8866438f9348f33516040d38a0113531bc9e7e1d",
      "to": "0x9e8860db73d093464ee2b5a1fe6f63b09f70e8c1",
      "contractAddress": null
    },
    {
      "status": "0x1",
      "cumulativeGasUsed": "0x2f0cb",
      "logs": [],
      "logsBloom": "0x00000000000000000000000000000000000000000000000000000000000000000000000000000000000000000000000000000000000000000000000000000000000000000000000000000000000000000000000000000000000000000000000000000000000000000000000000000000000000000000000000000000000000000000000000000000000000000000000000000000000000000000000000000000000000000000000000000000000000000000000000000000000000000000000000000000000000000000000000000000000000000000000000000000000000000000000000000000000000000000000000000000000000000000000000000000",
      "type": "0x2",
      "transactionHash": "0x3e3d78908b720b93bd183756d0aa2abe6562789fdaee1227be59e6617f4e30fd",
      "transactionIndex": "0x1",
      "blockHash": "0xd4d3c4a5aa6edea0ec8633fe58a0eed8da6433ce677eafc9020ef3a05896593d",
      "blockNumber": "0x33aa5a",
      "gasUsed": "0x16a2b",
      "effectiveGasPrice": "0x4cd5886400",
      "from": "0x8866438f9348f33516040d38a0113531bc9e7e1d",
      "to": null,
      "contractAddress": "0x651e1825ca8fb6bbd11af89b9b021571b28e88a7"
    },
    {
      "status": "0x1",
      "cumulativeGasUsed": "0x5a892",
      "logs": [],
      "logsBloom": "0x00000000000000000000000000000000000000000000000000000000000000000000000000000000000000000000000000000000000000000000000000000000000000000000000000000000000000000000000000000000000000000000000000000000000000000000000000000000000000000000000000000000000000000000000000000000000000000000000000000000000000000000000000000000000000000000000000000000000000000000000000000000000000000000000000000000000000000000000000000000000000000000000000000000000000000000000000000000000000000000000000000000000000000000000000000000",
      "type": "0x2",
      "transactionHash": "0xa8711b7af0d97175f459e79bc52fda5c5f635fba1bc2214c63869d4e83708427",
      "transactionIndex": "0x2",
      "blockHash": "0x0906aefc55d0fb40cf71f34158b85ba099b4604431ad4626a353a06528483db7",
      "blockNumber": "0x33aa5b",
      "gasUsed": "0x7bf8",
      "effectiveGasPrice": "0x4cd5886400",
      "from": "0x8866438f9348f33516040d38a0113531bc9e7e1d",
      "to": "0xbcacd0124f64017c58c151dc5734bc64622c6a75",
      "contractAddress": null
    },
    {
      "status": "0x1",
      "cumulativeGasUsed": "0x6f75",
      "logs": [],
      "logsBloom": "0x00000000000000000000000000000000000000000000000000000000000000000000000000000000000000000000000000000000000000000000000000000000000000000000000000000000000000000000000000000000000000000000000000000000000000000000000000000000000000000000000000000000000000000000000000000000000000000000000000000000000000000000000000000000000000000000000000000000000000000000000000000000000000000000000000000000000000000000000000000000000000000000000000000000000000000000000000000000000000000000000000000000000000000000000000000000",
      "type": "0x2",
      "transactionHash": "0x9a557712e43c2ab097aa905610ed5ce25a53c9890be86f5ac40491fcae3bb93a",
      "transactionIndex": "0x0",
      "blockHash": "0x74858dbf467174a99a23533254aa6ce399c2a243673d36c73c43cef0b83ddacc",
      "blockNumber": "0x33aa5c",
      "gasUsed": "0x6f75",
      "effectiveGasPrice": "0x4cd5886400",
      "from": "0x8866438f9348f33516040d38a0113531bc9e7e1d",
      "to": "0xbcacd0124f64017c58c151dc5734bc64622c6a75",
      "contractAddress": null
    },
    {
      "status": "0x1",
      "cumulativeGasUsed": "0x27bec",
      "logs": [],
      "logsBloom": "0x00000000000000000000000000000000000000000000000000000000000000000000000000000000000000000000000000000000000000000000000000000000000000000000000000000000000000000000000000000000000000000000000000000000000000000000000000000000000000000000000000000000000000000000000000000000000000000000000000000000000000000000000000000000000000000000000000000000000000000000000000000000000000000000000000000000000000000000000000000000000000000000000000000000000000000000000000000000000000000000000000000000000000000000000000000000",
      "type": "0x2",
      "transactionHash": "0x7d91e924ccacb77d5de877cb3ffb15609a332a893fcb3be189b8d758da7efc16",
      "transactionIndex": "0x1",
      "blockHash": "0xd2886fd1e57bbb4475b7a470798d804ced91393b257b3b9a84fe90a0c0a450aa",
      "blockNumber": "0x33aa5d",
      "gasUsed": "0xf54c",
      "effectiveGasPrice": "0x4cd5886400",
      "from": "0x8866438f9348f33516040d38a0113531bc9e7e1d",
      "to": "0x7816527746f0ade226986e02cf6cc70cf287ff61",
      "contractAddress": null
    },
    {
      "status": "0x1",
      "cumulativeGasUsed": "0xbdab",
      "logs": [],
      "logsBloom": "0x00000000000000000000000000000000000000000000000000000000000000000000000000000000000000000000000000000000000000000000000000000000000000000000000000000000000000000000000000000000000000000000000000000000000000000000000000000000000000000000000000000000000000000000000000000000000000000000000000000000000000000000000000000000000000000000000000000000000000000000000000000000000000000000000000000000000000000000000000000000000000000000000000000000000000000000000000000000000000000000000000000000000000000000000000000000",
      "type": "0x2",
      "transactionHash": "0xc91787e92865eeebc4e621dd5c24ea40d4e31e71fb2df88ee72788a9aa29fcf2",
      "transactionIndex": "0x0",
      "blockHash": "0x2905cd7560ec8e42d1a3603227c40b0069246777e4a40e379f5338e8e73b676f",
      "blockNumber": "0x33aa5e",
      "gasUsed": "0xbdab",
      "effectiveGasPrice": "0x4cd5886400",
      "from": "0x8866438f9348f33516040d38a0113531bc9e7e1d",
      "to": "0x9e8860db73d093464ee2b5a1fe6f63b09f70e8c1",
      "contractAddress": null
    },
    {
      "status": "0x1",
      "cumulativeGasUsed": "0x449f3",
      "logs": [],
      "logsBloom": "0x00000000000000000000000000000000000000000000000000000000000000000000000000000000000000000000000000000000000000000000000000000000000000000000000000000000000000000000000000000000000000000000000000000000000000000000000000000000000000000000000000000000000000000000000000000000000000000000000000000000000000000000000000000000000000000000000000000000000000000000000000000000000000000000000000000000000000000000000000000000000000000000000000000000000000000000000000000000000000000000000000000000000000000000000000000000",
      "type": "0x2",
      "transactionHash": "0x767b214c4315e94aad6e74c2226253d91f22dfbf3c54f6107630ad0a37dac7fe",
      "transactionIndex": "0x3",
      "blockHash": "0xa553b8ac75ab04c05c65c27da42c123ebcd91a910d0dd6b1f52f68ef6b472a24",
      "blockNumber": "0x33aa5f",
      "gasUsed": "0xbdbf",
      "effectiveGasPrice": "0x4cd5886400",
      "from": "0x8866438f9348f33516040d38a0113531bc9e7e1d",
      "to": "0x9e8860db73d093464ee2b5a1fe6f63b09f70e8c1",
      "contractAddress": null
    },
    {
      "status": "0x1",
      "cumulativeGasUsed": "0xb86d",
      "logs": [
        {
          "address": "0xbcacd0124f64017c58c151dc5734bc64622c6a75",
          "topics": [
            "0xdfd7467e425a8107cfd368d159957692c25085aacbcf5228ce08f10f2146486e"
          ],
          "data": "0x555344432d41000000000000000000000000000000000000000000000000000000000000000000000000000000000000000000000000000000000000000000000000000000000000000000000000000000000000000000000000000000000000",
          "blockHash": "0xc430d160120baf32a52f2b932153ff528d87795a93bcdfbc5709e4948a725610",
          "blockNumber": "0x33aa60",
          "transactionHash": "0x8bb96e11aafa7f9505d559fe12cecfbb2f9faa47b9f3fe42fc5616c93e6f61a4",
          "transactionIndex": "0x0",
          "logIndex": "0x0",
          "removed": false
        }
      ],
      "logsBloom": "0x00000000000000000000000000040000000000000000000000000000000000000004000000000000000000000000000000000000000000000000000000000000000000000000000000000000000000000000000000000000000000000000000000000000000000000400000000000000000000000000000000002000000000000000000000000000000000000000000000000000000000000000000000000000000080000000000000000000000000000000000000000000000000000000000000200000000000000000000000000000000000000000000000000000000000000000000000000000000000000000000000000000000000000000000000000000",
      "type": "0x2",
      "transactionHash": "0x8bb96e11aafa7f9505d559fe12cecfbb2f9faa47b9f3fe42fc5616c93e6f61a4",
      "transactionIndex": "0x0",
      "blockHash": "0xc430d160120baf32a52f2b932153ff528d87795a93bcdfbc5709e4948a725610",
      "blockNumber": "0x33aa60",
      "gasUsed": "0xb86d",
      "effectiveGasPrice": "0x4cd5886400",
      "from": "0x8866438f9348f33516040d38a0113531bc9e7e1d",
      "to": "0xbcacd0124f64017c58c151dc5734bc64622c6a75",
      "contractAddress": null
    }
  ],
  "libraries": [],
  "pending": [],
  "returns": {},
  "timestamp": 1759231310686,
  "chain": 1449000,
  "commit": "91aff73"
}