{
  "transactions": [
    {
      "hash": "0x6860dc2ff69f61902ca630a2961602b808bcb6f459dcd517ba31206ea139fd5d",
      "transactionType": "CALL",
      "contractName": null,
      "contractAddress": "0x9e8860db73d093464ee2b5a1fe6f63b09f70e8c1",
      "function": "init(bytes32)",
      "arguments": [
        "0x555344432d410000000000000000000000000000000000000000000000000000"
      ],
      "transaction": {
        "from": "0x8866438f9348f33516040d38a0113531bc9e7e1d",
        "to": "0x9e8860db73d093464ee2b5a1fe6f63b09f70e8c1",
        "value": "0x0",
        "input": "0x3b663195555344432d410000000000000000000000000000000000000000000000000000",
        "nonce": "0xa0",
        "chainId": "0x161c28"
      },
      "additionalContracts": [],
      "isFixedGasLimit": false
    },
    {
      "hash": "0x41d18b97ca848f45f6f265737d2d27b2e7afce347515816dc52adb939f2b0168",
      "transactionType": "CREATE",
      "contractName": "AuthGemJoin5",
      "contractAddress": "0x0241e1116c06c918fc2386095052011478be400a",
      "function": null,
      "arguments": [
        "0x9E8860db73D093464ee2B5a1Fe6F63B09F70e8C1",
        "0x555344432d410000000000000000000000000000000000000000000000000000",
        "0xE26D509C661c4F16FaFfBB1eAce1Fa1CdA8cc146"
      ],
      "transaction": {
        "from": "0x8866438f9348f33516040d38a0113531bc9e7e1d",
        "value": "0x0",
        "input": "0x61010060405234801561001157600080fd5b50604051610b71380380610b718339818101604052606081101561003457600080fd5b5080516020808301516040938401516001600160601b0319606082901b1660c052845163313ce56760e01b815294519394919390926000926001600160a01b0385169263313ce56792600480840193919291829003018186803b15801561009a57600080fd5b505afa1580156100ae573d6000803e3d6000fd5b505050506040513d60208110156100c457600080fd5b505160ff1660e081905290506012811061010f5760405162461bcd60e51b8152600401808060200182810382526022815260200180610b4f6022913960400191505060405180910390fd5b3360008181526020819052604080822060019055517fdd0e34038ac38b2a1ce960229778ac48a8719bc900b6c4f8d0475c6e8b385a609190a2505060018055606082811b6001600160601b03191660805260a082905260c05160e0516001600160a01b0390941693911c906109846101cb6000398061032f52806103fa52806106885250806102a5528061052d52806107af52508061036552806104a552806107125250806101d45280610476528061075252506109846000f3fe608060405234801561001057600080fd5b50600436106100995760003560e01c806336569e771461009e57806365fae35e146100c257806369245009146100ea5780637bd2bea7146100f2578063957aa58c146100fa5780639c52a7f114610114578063b3bcfa821461013a578063bf353dbb14610142578063c5ce281e14610168578063d14b1e4b14610170578063ef693bed146101a6575b600080fd5b6100a66101d2565b604080516001600160a01b039092168252519081900360200190f35b6100e8600480360360208110156100d857600080fd5b50356001600160a01b03166101f6565b005b6100e8610257565b6100a66102a3565b6101026102c7565b60408051918252519081900360200190f35b6100e86004803603602081101561012a57600080fd5b50356001600160a01b03166102cd565b61010261032d565b6101026004803603602081101561015857600080fd5b50356001600160a01b0316610351565b610102610363565b6100e86004803603606081101561018657600080fd5b506001600160a01b03813581169160208101359160409091013516610387565b6100e8600480360360408110156101bc57600080fd5b506001600160a01b038135169060200135610680565b7f000000000000000000000000000000000000000000000000000000000000000081565b3360009081526020819052604090205460011461021257600080fd5b6001600160a01b03811660008181526020819052604080822060019055517fdd0e34038ac38b2a1ce960229778ac48a8719bc900b6c4f8d0475c6e8b385a609190a250565b3360009081526020819052604090205460011461027357600080fd5b600060018190556040517f2308ed18a14e800c39b86eb6ea43270105955ca385b603b64eca89f98ae8fbda9190a1565b7f000000000000000000000000000000000000000000000000000000000000000081565b60015481565b336000908152602081905260409020546001146102e957600080fd5b6001600160a01b038116600081815260208190526040808220829055517f184450df2e323acec0ed3b5c7531b81f9b4cdef7914dfd4c0a4317416bb5251b9190a250565b7f000000000000000000000000000000000000000000000000000000000000000081565b60006020819052908152604090205481565b7f000000000000000000000000000000000000000000000000000000000000000081565b336000908152602081905260409020546001146103a357600080fd5b6001546001146103f2576040805162461bcd60e51b81526020600482015260156024820152744175746847656d4a6f696e352f6e6f742d6c69766560581b604482015290519081900360640190fd5b6000610424837f0000000000000000000000000000000000000000000000000000000000000000601203600a0a6108e4565b90506000811215610474576040805162461bcd60e51b81526020600482015260156024820152744175746847656d4a6f696e352f6f766572666c6f7760581b604482015290519081900360640190fd5b7f00000000000000000000000000000000000000000000000000000000000000006001600160a01b0316637cdd3fde7f000000000000000000000000000000000000000000000000000000000000000086846040518463ffffffff1660e01b815260040180848152602001836001600160a01b031681526020018281526020019350505050600060405180830381600087803b15801561051357600080fd5b505af1158015610527573d6000803e3d6000fd5b505050507f00000000000000000000000000000000000000000000000000000000000000006001600160a01b03166323b872dd8330866040518463ffffffff1660e01b815260040180846001600160a01b03168152602001836001600160a01b031681526020018281526020019350505050602060405180830381600087803b1580156105b357600080fd5b505af11580156105c7573d6000803e3d6000fd5b505050506040513d60208110156105dd57600080fd5b505161062f576040805162461bcd60e51b815260206004820152601c60248201527b20baba3423b2b6a537b4b71a97b330b4b632b216ba3930b739b332b960211b604482015290519081900360640190fd5b816001600160a01b0316846001600160a01b03167f16c03c2fe01ac285473b0d10ba5c5de59ede582fcac27a866b5827415fe44b03856040518082815260200191505060405180910390a350505050565b60006106b2827f0000000000000000000000000000000000000000000000000000000000000000601203600a0a6108e4565b90506000811215610702576040805162461bcd60e51b81526020600482015260156024820152744175746847656d4a6f696e352f6f766572666c6f7760581b604482015290519081900360640190fd5b60408051633e6e9fef60e11b81527f000000000000000000000000000000000000000000000000000000000000000060048201523360248201526000838103604483015291516001600160a01b037f00000000000000000000000000000000000000000000000000000000000000001692637cdd3fde926064808201939182900301818387803b15801561079557600080fd5b505af11580156107a9573d6000803e3d6000fd5b505050507f00000000000000000000000000000000000000000000000000000000000000006001600160a01b031663a9059cbb84846040518363ffffffff1660e01b815260040180836001600160a01b0316815260200182815260200192505050602060405180830381600087803b15801561082457600080fd5b505af1158015610838573d6000803e3d6000fd5b505050506040513d602081101561084e57600080fd5b50516108a0576040805162461bcd60e51b815260206004820152601c60248201527b20baba3423b2b6a537b4b71a97b330b4b632b216ba3930b739b332b960211b604482015290519081900360640190fd5b6040805183815290516001600160a01b038516917f22d324652c93739755cf4581508b60875ebdd78c20c0cff5cf8e23452b299631919081900360200190a2505050565b60008115806108ff575050808202828282816108fc57fe5b04145b610948576040805162461bcd60e51b81526020600482015260156024820152744175746847656d4a6f696e352f6f766572666c6f7760581b604482015290519081900360640190fd5b9291505056fea2646970667358221220aa0f85c42c0c2801054cb377e302873f02fc7e2115f01e090623343216ea9d6364736f6c634300060c00334175746847656d4a6f696e352f646563696d616c732d31382d6f722d6869676865720000000000000000000000009e8860db73d093464ee2b5a1fe6f63b09f70e8c1555344432d410000000000000000000000000000000000000000000000000000000000000000000000000000e26d509c661c4f16faffbb1eace1fa1cda8cc146",
        "nonce": "0xa1",
        "chainId": "0x161c28"
      },
      "additionalContracts": [],
      "isFixedGasLimit": false
    },
    {
      "hash": "0x2a9d872e8734748e157381ff941ad9b0f2e7e16c16dbbd18e421ba5111fe3a88",
      "transactionType": "CALL",
      "contractName": null,
      "contractAddress": "0x9e8860db73d093464ee2b5a1fe6f63b09f70e8c1",
      "function": "rely(address)",
      "arguments": [
        "0x0241E1116c06C918FC2386095052011478be400A"
      ],
      "transaction": {
        "from": "0x8866438f9348f33516040d38a0113531bc9e7e1d",
        "to": "0x9e8860db73d093464ee2b5a1fe6f63b09f70e8c1",
        "value": "0x0",
        "input": "0x65fae35e0000000000000000000000000241e1116c06c918fc2386095052011478be400a",
        "nonce": "0xa2",
        "chainId": "0x161c28"
      },
      "additionalContracts": [],
      "isFixedGasLimit": false
    },
    {
      "hash": "0xde3cac5f064fe1c774b7d112a54449c2730a19bcce4cf98cdcfb3cbd54acb4e3",
      "transactionType": "CREATE",
      "contractName": "SimplePip",
      "contractAddress": "0xb08ed21bb34e8e92b730a89b47d91fd85ef98fae",
      "function": null,
      "arguments": null,
      "transaction": {
        "from": "0x8866438f9348f33516040d38a0113531bc9e7e1d",
        "value": "0x0",
        "input": "0x608060405234801561001057600080fd5b5060b68061001f6000396000f3fe6080604052348015600f57600080fd5b506004361060325760003560e01c806359e02dd714603757806360fe47b1146056575b600080fd5b603d6072565b6040805192835290151560208301528051918290030190f35b607060048036036020811015606a57600080fd5b5035607b565b005b60005460019091565b60005556fea2646970667358221220ae6738a7d40d92522bf46052df6ccdd87c46b290cc7836b2b9be84d4ca5e793864736f6c634300060c0033",
        "nonce": "0xa3",
        "chainId": "0x161c28"
      },
      "additionalContracts": [],
      "isFixedGasLimit": false
    },
    {
      "hash": "0x0d175cde04f15ef3d1bc611d68f1e2c6a5bc80b5d4902dca30ae55083d6ab43c",
      "transactionType": "CALL",
      "contractName": null,
      "contractAddress": "0xbcacd0124f64017c58c151dc5734bc64622c6a75",
      "function": "file(bytes32,bytes32,address)",
      "arguments": [
        "0x555344432d410000000000000000000000000000000000000000000000000000",
        "0x7069700000000000000000000000000000000000000000000000000000000000",
        "0xB08ED21bb34e8e92B730a89b47D91FD85Ef98fae"
      ],
      "transaction": {
        "from": "0x8866438f9348f33516040d38a0113531bc9e7e1d",
        "to": "0xbcacd0124f64017c58c151dc5734bc64622c6a75",
        "value": "0x0",
        "input": "0xebecb39d555344432d4100000000000000000000000000000000000000000000000000007069700000000000000000000000000000000000000000000000000000000000000000000000000000000000b08ed21bb34e8e92b730a89b47d91fd85ef98fae",
        "nonce": "0xa4",
        "chainId": "0x161c28"
      },
      "additionalContracts": [],
      "isFixedGasLimit": false
    },
    {
      "hash": "0x20555dc78a9dcabc0bc27a6c3c02fd0a4623a03cfc3c8ba1e8f644fc81283fab",
      "transactionType": "CALL",
      "contractName": null,
      "contractAddress": "0xbcacd0124f64017c58c151dc5734bc64622c6a75",
      "function": "file(bytes32,bytes32,uint256)",
      "arguments": [
        "0x555344432d410000000000000000000000000000000000000000000000000000",
        "0x6d61740000000000000000000000000000000000000000000000000000000000",
        "1000000000000000000000000000"
      ],
      "transaction": {
        "from": "0x8866438f9348f33516040d38a0113531bc9e7e1d",
        "to": "0xbcacd0124f64017c58c151dc5734bc64622c6a75",
        "value": "0x0",
        "input": "0x1a0b287e555344432d4100000000000000000000000000000000000000000000000000006d617400000000000000000000000000000000000000000000000000000000000000000000000000000000000000000000000000033b2e3c9fd0803ce8000000",
        "nonce": "0xa5",
        "chainId": "0x161c28"
      },
      "additionalContracts": [],
      "isFixedGasLimit": false
    },
    {
      "hash": "0xa25ec4fd90f1fa133a23cf02013ab3565f7787e72b533ff2cf1a429b794e0185",
      "transactionType": "CALL",
      "contractName": null,
      "contractAddress": "0x7816527746f0ade226986e02cf6cc70cf287ff61",
      "function": "init(bytes32)",
      "arguments": [
        "0x555344432d410000000000000000000000000000000000000000000000000000"
      ],
      "transaction": {
        "from": "0x8866438f9348f33516040d38a0113531bc9e7e1d",
        "to": "0x7816527746f0ade226986e02cf6cc70cf287ff61",
        "value": "0x0",
        "input": "0x3b663195555344432d410000000000000000000000000000000000000000000000000000",
        "nonce": "0xa6",
        "chainId": "0x161c28"
      },
      "additionalContracts": [],
      "isFixedGasLimit": false
    },
    {
      "hash": "0x98ed8d001ac22ae6aab1e804b7fa999c5a5daa73da90eeaa4137cc7c9e6090db",
      "transactionType": "CALL",
      "contractName": null,
      "contractAddress": "0x7816527746f0ade226986e02cf6cc70cf287ff61",
      "function": "file(bytes32,bytes32,uint256)",
      "arguments": [
        "0x555344432d410000000000000000000000000000000000000000000000000000",
        "0x6475747900000000000000000000000000000000000000000000000000000000",
        "0"
      ],
      "transaction": {
        "from": "0x8866438f9348f33516040d38a0113531bc9e7e1d",
        "to": "0x7816527746f0ade226986e02cf6cc70cf287ff61",
        "value": "0x0",
        "input": "0x1a0b287e555344432d41000000000000000000000000000000000000000000000000000064757479000000000000000000000000000000000000000000000000000000000000000000000000000000000000000000000000000000000000000000000000",
        "nonce": "0xa7",
        "chainId": "0x161c28"
      },
      "additionalContracts": [],
      "isFixedGasLimit": false
    },
    {
      "hash": null,
      "transactionType": "CALL",
      "contractName": null,
      "contractAddress": "0x9e8860db73d093464ee2b5a1fe6f63b09f70e8c1",
      "function": "file(bytes32,bytes32,uint256)",
      "arguments": [
        "0x555344432d410000000000000000000000000000000000000000000000000000",
        "0x6c696e6500000000000000000000000000000000000000000000000000000000",
        "5000000000000000000000000000000000000000000000000000"
      ],
      "transaction": {
        "from": "0x8866438f9348f33516040d38a0113531bc9e7e1d",
        "to": "0x9e8860db73d093464ee2b5a1fe6f63b09f70e8c1",
        "value": "0x0",
        "input": "0x1a0b287e555344432d4100000000000000000000000000000000000000000000000000006c696e6500000000000000000000000000000000000000000000000000000000000000000000000000000d5d238a4abe9806872a4904598d6d88000000000000",
        "nonce": "0xa8",
        "chainId": "0x161c28"
      },
      "additionalContracts": [],
      "isFixedGasLimit": false
    },
    {
      "hash": null,
      "transactionType": "CALL",
      "contractName": null,
      "contractAddress": "0x9e8860db73d093464ee2b5a1fe6f63b09f70e8c1",
      "function": "file(bytes32,bytes32,uint256)",
      "arguments": [
        "0x555344432d410000000000000000000000000000000000000000000000000000",
        "0x6475737400000000000000000000000000000000000000000000000000000000",
        "50000000000000000000000000000000000000000000000"
      ],
      "transaction": {
        "from": "0x8866438f9348f33516040d38a0113531bc9e7e1d",
        "to": "0x9e8860db73d093464ee2b5a1fe6f63b09f70e8c1",
        "value": "0x0",
        "input": "0x1a0b287e555344432d410000000000000000000000000000000000000000000000000000647573740000000000000000000000000000000000000000000000000000000000000000000000000000000008c213d9da502de454526f422cc3400000000000",
        "nonce": "0xa9",
        "chainId": "0x161c28"
      },
      "additionalContracts": [],
      "isFixedGasLimit": false
    },
    {
      "hash": null,
      "transactionType": "CALL",
      "contractName": null,
      "contractAddress": "0xbcacd0124f64017c58c151dc5734bc64622c6a75",
      "function": "poke(bytes32)",
      "arguments": [
        "0x555344432d410000000000000000000000000000000000000000000000000000"
      ],
      "transaction": {
        "from": "0x8866438f9348f33516040d38a0113531bc9e7e1d",
        "to": "0xbcacd0124f64017c58c151dc5734bc64622c6a75",
        "value": "0x0",
        "input": "0x1504460f555344432d410000000000000000000000000000000000000000000000000000",
        "nonce": "0xaa",
        "chainId": "0x161c28"
      },
      "additionalContracts": [],
      "isFixedGasLimit": false
    }
  ],
  "receipts": [
    {
      "status": "0x1",
      "cumulativeGasUsed": "0xb3d4",
      "logs": [],
      "logsBloom": "0x00000000000000000000000000000000000000000000000000000000000000000000000000000000000000000000000000000000000000000000000000000000000000000000000000000000000000000000000000000000000000000000000000000000000000000000000000000000000000000000000000000000000000000000000000000000000000000000000000000000000000000000000000000000000000000000000000000000000000000000000000000000000000000000000000000000000000000000000000000000000000000000000000000000000000000000000000000000000000000000000000000000000000000000000000000000",
      "type": "0x2",
      "transactionHash": "0x6860dc2ff69f61902ca630a2961602b808bcb6f459dcd517ba31206ea139fd5d",
      "transactionIndex": "0x0",
      "blockHash": "0xc9f7fa985ec7a710a1640191620278744705cf70879a55f5652409240a7a07fb",
      "blockNumber": "0x33aa02",
      "gasUsed": "0xb3d4",
      "effectiveGasPrice": "0x4cd5886400",
      "from": "0x8866438f9348f33516040d38a0113531bc9e7e1d",
      "to": "0x9e8860db73d093464ee2b5a1fe6f63b09f70e8c1",
      "contractAddress": null
    },
    {
      "status": "0x1",
      "cumulativeGasUsed": "0xcc48c",
      "logs": [
        {
          "address": "0x0241e1116c06c918fc2386095052011478be400a",
          "topics": [
            "0xdd0e34038ac38b2a1ce960229778ac48a8719bc900b6c4f8d0475c6e8b385a60",
            "0x0000000000000000000000008866438f9348f33516040d38a0113531bc9e7e1d"
          ],
          "data": "0x",
          "blockHash": "0x25bcc3d311f4296f96ec9b935a3f9959f19cfdd7c71c924f19a03b49f78705bf",
          "blockNumber": "0x33aa03",
          "transactionHash": "0x41d18b97ca848f45f6f265737d2d27b2e7afce347515816dc52adb939f2b0168",
          "transactionIndex": "0x2",
          "logIndex": "0x0",
          "removed": false
        }
      ],
      "logsBloom": "0x00000000000000000000000000000000000000000000000000000000000000000000000000000000000000000000000000004000000000000000000000000000000000400000000000000000000000000000000000000000000000000000000000000000000000000000000000000000000000400000010000000000000000000004000000000000000000000000000000000000000000000000000000000000000000000000000000000000000000000000000000000000000000000000000000000000000000000000040000000000000000000000000000080000008010000000000000000000000000000000000000000000000000000000000000000000",
      "type": "0x2",
      "transactionHash": "0x41d18b97ca848f45f6f265737d2d27b2e7afce347515816dc52adb939f2b0168",
      "transactionIndex": "0x2",
      "blockHash": "0x25bcc3d311f4296f96ec9b935a3f9959f19cfdd7c71c924f19a03b49f78705bf",
      "blockNumber": "0x33aa03",
      "gasUsed": "0x9b74c",
      "effectiveGasPrice": "0x4cd5886400",
      "from": "0x8866438f9348f33516040d38a0113531bc9e7e1d",
      "to": null,
      "contractAddress": "0x0241e1116c06c918fc2386095052011478be400a"
    },
    {
      "status": "0x1",
      "cumulativeGasUsed": "0x13bb9",
      "logs": [],
      "logsBloom": "0x00000000000000000000000000000000000000000000000000000000000000000000000000000000000000000000000000000000000000000000000000000000000000000000000000000000000000000000000000000000000000000000000000000000000000000000000000000000000000000000000000000000000000000000000000000000000000000000000000000000000000000000000000000000000000000000000000000000000000000000000000000000000000000000000000000000000000000000000000000000000000000000000000000000000000000000000000000000000000000000000000000000000000000000000000000000",
      "type": "0x2",
      "transactionHash": "0x2a9d872e8734748e157381ff941ad9b0f2e7e16c16dbbd18e421ba5111fe3a88",
      "transactionIndex": "0x1",
      "blockHash": "0x8ff64039a789ea3539d4cbecd0b7e663077dd0124686700dd306402504df464e",
      "blockNumber": "0x33aa04",
      "gasUsed": "0xbcc5",
      "effectiveGasPrice": "0x4cd5886400",
      "from": "0x8866438f9348f33516040d38a0113531bc9e7e1d",
      "to": "0x9e8860db73d093464ee2b5a1fe6f63b09f70e8c1",
      "contractAddress": null
    },
    {
      "status": "0x1",
      "cumulativeGasUsed": "0x784b7",
      "logs": [],
      "logsBloom": "0x00000000000000000000000000000000000000000000000000000000000000000000000000000000000000000000000000000000000000000000000000000000000000000000000000000000000000000000000000000000000000000000000000000000000000000000000000000000000000000000000000000000000000000000000000000000000000000000000000000000000000000000000000000000000000000000000000000000000000000000000000000000000000000000000000000000000000000000000000000000000000000000000000000000000000000000000000000000000000000000000000000000000000000000000000000000",
      "type": "0x2",
      "transactionHash": "0xde3cac5f064fe1c774b7d112a54449c2730a19bcce4cf98cdcfb3cbd54acb4e3",
      "transactionIndex": "0x4",
      "blockHash": "0xb2b6aca93824d11920891a29c24ef74fc6bd43eeb62fcb34e52c6d0dd2e0c736",
      "blockNumber": "0x33aa05",
      "gasUsed": "0x16a37",
      "effectiveGasPrice": "0x4cd5886400",
      "from": "0x8866438f9348f33516040d38a0113531bc9e7e1d",
      "to": null,
      "contractAddress": "0xb08ed21bb34e8e92b730a89b47d91fd85ef98fae"
    },
    {
      "status": "0x1",
      "cumulativeGasUsed": "0x33503",
      "logs": [],
      "logsBloom": "0x00000000000000000000000000000000000000000000000000000000000000000000000000000000000000000000000000000000000000000000000000000000000000000000000000000000000000000000000000000000000000000000000000000000000000000000000000000000000000000000000000000000000000000000000000000000000000000000000000000000000000000000000000000000000000000000000000000000000000000000000000000000000000000000000000000000000000000000000000000000000000000000000000000000000000000000000000000000000000000000000000000000000000000000000000000000",
      "type": "0x2",
      "transactionHash": "0x0d175cde04f15ef3d1bc611d68f1e2c6a5bc80b5d4902dca30ae55083d6ab43c",
      "transactionIndex": "0x2",
      "blockHash": "0x954ad8c8ffac97b8ad0dba6d4eb59568a023fe7f9c9a033ec00d829776964feb",
      "blockNumber": "0x33aa06",
      "gasUsed": "0xbec4",
      "effectiveGasPrice": "0x4cd5886400",
      "from": "0x8866438f9348f33516040d38a0113531bc9e7e1d",
      "to": "0xbcacd0124f64017c58c151dc5734bc64622c6a75",
      "contractAddress": null
    },
    {
      "status": "0x1",
      "cumulativeGasUsed": "0xbd31",
      "logs": [],
      "logsBloom": "0x00000000000000000000000000000000000000000000000000000000000000000000000000000000000000000000000000000000000000000000000000000000000000000000000000000000000000000000000000000000000000000000000000000000000000000000000000000000000000000000000000000000000000000000000000000000000000000000000000000000000000000000000000000000000000000000000000000000000000000000000000000000000000000000000000000000000000000000000000000000000000000000000000000000000000000000000000000000000000000000000000000000000000000000000000000000",
      "type": "0x2",
      "transactionHash": "0x20555dc78a9dcabc0bc27a6c3c02fd0a4623a03cfc3c8ba1e8f644fc81283fab",
      "transactionIndex": "0x0",
      "blockHash": "0xc70a72cf3e315c0b7b1a3e4200ffb7fb31f614f62490b50e891fcd2c7093b21d",
      "blockNumber": "0x33aa07",
      "gasUsed": "0xbd31",
      "effectiveGasPrice": "0x4cd5886400",
      "from": "0x8866438f9348f33516040d38a0113531bc9e7e1d",
      "to": "0xbcacd0124f64017c58c151dc5734bc64622c6a75",
      "contractAddress": null
    },
    {
      "status": "0x1",
      "cumulativeGasUsed": "0x28681",
      "logs": [],
      "logsBloom": "0x00000000000000000000000000000000000000000000000000000000000000000000000000000000000000000000000000000000000000000000000000000000000000000000000000000000000000000000000000000000000000000000000000000000000000000000000000000000000000000000000000000000000000000000000000000000000000000000000000000000000000000000000000000000000000000000000000000000000000000000000000000000000000000000000000000000000000000000000000000000000000000000000000000000000000000000000000000000000000000000000000000000000000000000000000000000",
      "type": "0x2",
      "transactionHash": "0xa25ec4fd90f1fa133a23cf02013ab3565f7787e72b533ff2cf1a429b794e0185",
      "transactionIndex": "0x3",
      "blockHash": "0x3c96d19102c52b88fd72752fc7982571c31844fcf3cc5135805a78ea56ed1bf5",
      "blockNumber": "0x33aa08",
      "gasUsed": "0x109a5",
      "effectiveGasPrice": "0x4cd5886400",
      "from": "0x8866438f9348f33516040d38a0113531bc9e7e1d",
      "to": "0x7816527746f0ade226986e02cf6cc70cf287ff61",
      "contractAddress": null
    }
  ],
  "libraries": [],
  "pending": [],
  "returns": {},
  "timestamp": 1759230816284,
  "chain": 1449000,
  "commit": "91aff73"
}