{
  "transactions": [
    {
      "hash": "0x61979c1a58d2993ffcbdee20d4d340e2800d9759bd7360c1f6247f7a491edd55",
      "transactionType": "CREATE",
      "contractName": "AuthGemJoin5",
      "contractAddress": "0x2e5337dd70aebfe08a508c50a1336e7221e041ef",
      "function": null,
      "arguments": [
        "0x9E8860db73D093464ee2B5a1Fe6F63B09F70e8C1",
        "0x555344432d410000000000000000000000000000000000000000000000000000",
        "0xE26D509C661c4F16FaFfBB1eAce1Fa1CdA8cc146"
      ],
      "transaction": {
        "from": "0x8866438f9348f33516040d38a0113531bc9e7e1d",
        "value": "0x0",
        "input": "0x61010060405234801561001157600080fd5b50604051610b71380380610b718339818101604052606081101561003457600080fd5b5080516020808301516040938401516001600160601b0319606082901b1660c052845163313ce56760e01b815294519394919390926000926001600160a01b0385169263313ce56792600480840193919291829003018186803b15801561009a57600080fd5b505afa1580156100ae573d6000803e3d6000fd5b505050506040513d60208110156100c457600080fd5b505160ff1660e081905290506012811061010f5760405162461bcd60e51b8152600401808060200182810382526022815260200180610b4f6022913960400191505060405180910390fd5b3360008181526020819052604080822060019055517fdd0e34038ac38b2a1ce960229778ac48a8719bc900b6c4f8d0475c6e8b385a609190a2505060018055606082811b6001600160601b03191660805260a082905260c05160e0516001600160a01b0390941693911c906109846101cb6000398061032f52806103fa52806106885250806102a5528061052d52806107af52508061036552806104a552806107125250806101d45280610476528061075252506109846000f3fe608060405234801561001057600080fd5b50600436106100995760003560e01c806336569e771461009e57806365fae35e146100c257806369245009146100ea5780637bd2bea7146100f2578063957aa58c146100fa5780639c52a7f114610114578063b3bcfa821461013a578063bf353dbb14610142578063c5ce281e14610168578063d14b1e4b14610170578063ef693bed146101a6575b600080fd5b6100a66101d2565b604080516001600160a01b039092168252519081900360200190f35b6100e8600480360360208110156100d857600080fd5b50356001600160a01b03166101f6565b005b6100e8610257565b6100a66102a3565b6101026102c7565b60408051918252519081900360200190f35b6100e86004803603602081101561012a57600080fd5b50356001600160a01b03166102cd565b61010261032d565b6101026004803603602081101561015857600080fd5b50356001600160a01b0316610351565b610102610363565b6100e86004803603606081101561018657600080fd5b506001600160a01b03813581169160208101359160409091013516610387565b6100e8600480360360408110156101bc57600080fd5b506001600160a01b038135169060200135610680565b7f000000000000000000000000000000000000000000000000000000000000000081565b3360009081526020819052604090205460011461021257600080fd5b6001600160a01b03811660008181526020819052604080822060019055517fdd0e34038ac38b2a1ce960229778ac48a8719bc900b6c4f8d0475c6e8b385a609190a250565b3360009081526020819052604090205460011461027357600080fd5b600060018190556040517f2308ed18a14e800c39b86eb6ea43270105955ca385b603b64eca89f98ae8fbda9190a1565b7f000000000000000000000000000000000000000000000000000000000000000081565b60015481565b336000908152602081905260409020546001146102e957600080fd5b6001600160a01b038116600081815260208190526040808220829055517f184450df2e323acec0ed3b5c7531b81f9b4cdef7914dfd4c0a4317416bb5251b9190a250565b7f000000000000000000000000000000000000000000000000000000000000000081565b60006020819052908152604090205481565b7f000000000000000000000000000000000000000000000000000000000000000081565b336000908152602081905260409020546001146103a357600080fd5b6001546001146103f2576040805162461bcd60e51b81526020600482015260156024820152744175746847656d4a6f696e352f6e6f742d6c69766560581b604482015290519081900360640190fd5b6000610424837f0000000000000000000000000000000000000000000000000000000000000000601203600a0a6108e4565b90506000811215610474576040805162461bcd60e51b81526020600482015260156024820152744175746847656d4a6f696e352f6f766572666c6f7760581b604482015290519081900360640190fd5b7f00000000000000000000000000000000000000000000000000000000000000006001600160a01b0316637cdd3fde7f000000000000000000000000000000000000000000000000000000000000000086846040518463ffffffff1660e01b815260040180848152602001836001600160a01b031681526020018281526020019350505050600060405180830381600087803b15801561051357600080fd5b505af1158015610527573d6000803e3d6000fd5b505050507f00000000000000000000000000000000000000000000000000000000000000006001600160a01b03166323b872dd8330866040518463ffffffff1660e01b815260040180846001600160a01b03168152602001836001600160a01b031681526020018281526020019350505050602060405180830381600087803b1580156105b357600080fd5b505af11580156105c7573d6000803e3d6000fd5b505050506040513d60208110156105dd57600080fd5b505161062f576040805162461bcd60e51b815260206004820152601c60248201527b20baba3423b2b6a537b4b71a97b330b4b632b216ba3930b739b332b960211b604482015290519081900360640190fd5b816001600160a01b0316846001600160a01b03167f16c03c2fe01ac285473b0d10ba5c5de59ede582fcac27a866b5827415fe44b03856040518082815260200191505060405180910390a350505050565b60006106b2827f0000000000000000000000000000000000000000000000000000000000000000601203600a0a6108e4565b90506000811215610702576040805162461bcd60e51b81526020600482015260156024820152744175746847656d4a6f696e352f6f766572666c6f7760581b604482015290519081900360640190fd5b60408051633e6e9fef60e11b81527f000000000000000000000000000000000000000000000000000000000000000060048201523360248201526000838103604483015291516001600160a01b037f00000000000000000000000000000000000000000000000000000000000000001692637cdd3fde926064808201939182900301818387803b15801561079557600080fd5b505af11580156107a9573d6000803e3d6000fd5b505050507f00000000000000000000000000000000000000000000000000000000000000006001600160a01b031663a9059cbb84846040518363ffffffff1660e01b815260040180836001600160a01b0316815260200182815260200192505050602060405180830381600087803b15801561082457600080fd5b505af1158015610838573d6000803e3d6000fd5b505050506040513d602081101561084e57600080fd5b50516108a0576040805162461bcd60e51b815260206004820152601c60248201527b20baba3423b2b6a537b4b71a97b330b4b632b216ba3930b739b332b960211b604482015290519081900360640190fd5b6040805183815290516001600160a01b038516917f22d324652c93739755cf4581508b60875ebdd78c20c0cff5cf8e23452b299631919081900360200190a2505050565b60008115806108ff575050808202828282816108fc57fe5b04145b610948576040805162461bcd60e51b81526020600482015260156024820152744175746847656d4a6f696e352f6f766572666c6f7760581b604482015290519081900360640190fd5b9291505056fea2646970667358221220aa0f85c42c0c2801054cb377e302873f02fc7e2115f01e090623343216ea9d6364736f6c634300060c00334175746847656d4a6f696e352f646563696d616c732d31382d6f722d6869676865720000000000000000000000009e8860db73d093464ee2b5a1fe6f63b09f70e8c1555344432d410000000000000000000000000000000000000000000000000000000000000000000000000000e26d509c661c4f16faffbb1eace1fa1cda8cc146",
        "nonce": "0xa8",
        "chainId": "0x161c28"
      },
      "additionalContracts": [],
      "isFixedGasLimit": false
    },
    {
      "hash": "0x82a779fddc110b6264f50fde4886e0d93a7a6754d7557d199fcd16a7d348e95c",
      "transactionType": "CALL",
      "contractName": null,
      "contractAddress": "0x9e8860db73d093464ee2b5a1fe6f63b09f70e8c1",
      "function": "rely(address)",
      "arguments": [
        "0x2e5337Dd70AebFe08A508C50a1336e7221e041Ef"
      ],
      "transaction": {
        "from": "0x8866438f9348f33516040d38a0113531bc9e7e1d",
        "to": "0x9e8860db73d093464ee2b5a1fe6f63b09f70e8c1",
        "value": "0x0",
        "input": "0x65fae35e0000000000000000000000002e5337dd70aebfe08a508c50a1336e7221e041ef",
        "nonce": "0xa9",
        "chainId": "0x161c28"
      },
      "additionalContracts": [],
      "isFixedGasLimit": false
    },
    {
      "hash": "0x04919fd12170d9961d691a5d2ec1be394839934c9e81f31dd503d0d28d76e9f9",
      "transactionType": "CREATE",
      "contractName": "SimplePip",
      "contractAddress": "0x4fb78f1eb456ddedd1c89f82c7dcbbe89dc23a4e",
      "function": null,
      "arguments": null,
      "transaction": {
        "from": "0x8866438f9348f33516040d38a0113531bc9e7e1d",
        "value": "0x0",
        "input": "0x608060405234801561001057600080fd5b5060b68061001f6000396000f3fe6080604052348015600f57600080fd5b506004361060325760003560e01c806359e02dd714603757806360fe47b1146056575b600080fd5b603d6072565b6040805192835290151560208301528051918290030190f35b607060048036036020811015606a57600080fd5b5035607b565b005b60005460019091565b60005556fea26469706673582212200aa28e878eb5c862a197eb8834bb73f498a98c5b456fc783ab8ae8278c764a7164736f6c634300060c0033",
        "nonce": "0xaa",
        "chainId": "0x161c28"
      },
      "additionalContracts": [],
      "isFixedGasLimit": false
    },
    {
      "hash": "0x42a8478745b0742e8fddb4f2969cee8b8b9d7c8ebffccb01128960e4a42d4a5c",
      "transactionType": "CALL",
      "contractName": null,
      "contractAddress": "0xbcacd0124f64017c58c151dc5734bc64622c6a75",
      "function": "file(bytes32,bytes32,address)",
      "arguments": [
        "0x555344432d410000000000000000000000000000000000000000000000000000",
        "0x7069700000000000000000000000000000000000000000000000000000000000",
        "0x4Fb78F1EB456ddEdD1C89F82C7DcBbE89Dc23A4E"
      ],
      "transaction": {
        "from": "0x8866438f9348f33516040d38a0113531bc9e7e1d",
        "to": "0xbcacd0124f64017c58c151dc5734bc64622c6a75",
        "value": "0x0",
        "input": "0xebecb39d555344432d41000000000000000000000000000000000000000000000000000070697000000000000000000000000000000000000000000000000000000000000000000000000000000000004fb78f1eb456ddedd1c89f82c7dcbbe89dc23a4e",
        "nonce": "0xab",
        "chainId": "0x161c28"
      },
      "additionalContracts": [],
      "isFixedGasLimit": false
    },
    {
      "hash": "0x34b1f79f2d0333f3d971b8b35ad6020e8caf1f0ab4fabe9ac1af3caa30ab165e",
      "transactionType": "CALL",
      "contractName": null,
      "contractAddress": "0xbcacd0124f64017c58c151dc5734bc64622c6a75",
      "function": "file(bytes32,bytes32,uint256)",
      "arguments": [
        "0x555344432d410000000000000000000000000000000000000000000000000000",
        "0x6d61740000000000000000000000000000000000000000000000000000000000",
        "1000000000000000000000000000"
      ],
      "transaction": {
        "from": "0x8866438f9348f33516040d38a0113531bc9e7e1d",
        "to": "0xbcacd0124f64017c58c151dc5734bc64622c6a75",
        "value": "0x0",
        "input": "0x1a0b287e555344432d4100000000000000000000000000000000000000000000000000006d617400000000000000000000000000000000000000000000000000000000000000000000000000000000000000000000000000033b2e3c9fd0803ce8000000",
        "nonce": "0xac",
        "chainId": "0x161c28"
      },
      "additionalContracts": [],
      "isFixedGasLimit": false
    },
    {
      "hash": "0xa80c26a0e9df359a01443c0a46ceba2de8c4214b5f8c170cdf562538096c1ba8",
      "transactionType": "CALL",
      "contractName": null,
      "contractAddress": "0x7816527746f0ade226986e02cf6cc70cf287ff61",
      "function": "drip(bytes32)",
      "arguments": [
        "0x555344432d410000000000000000000000000000000000000000000000000000"
      ],
      "transaction": {
        "from": "0x8866438f9348f33516040d38a0113531bc9e7e1d",
        "to": "0x7816527746f0ade226986e02cf6cc70cf287ff61",
        "value": "0x0",
        "input": "0x44e2a5a8555344432d410000000000000000000000000000000000000000000000000000",
        "nonce": "0xad",
        "chainId": "0x161c28"
      },
      "additionalContracts": [],
      "isFixedGasLimit": false
    },
    {
      "hash": null,
      "transactionType": "CALL",
      "contractName": null,
      "contractAddress": "0x7816527746f0ade226986e02cf6cc70cf287ff61",
      "function": "file(bytes32,bytes32,uint256)",
      "arguments": [
        "0x555344432d410000000000000000000000000000000000000000000000000000",
        "0x6475747900000000000000000000000000000000000000000000000000000000",
        "0"
      ],
      "transaction": {
        "from": "0x8866438f9348f33516040d38a0113531bc9e7e1d",
        "to": "0x7816527746f0ade226986e02cf6cc70cf287ff61",
        "value": "0x0",
        "input": "0x1a0b287e555344432d41000000000000000000000000000000000000000000000000000064757479000000000000000000000000000000000000000000000000000000000000000000000000000000000000000000000000000000000000000000000000",
        "nonce": "0xae",
        "chainId": "0x161c28"
      },
      "additionalContracts": [],
      "isFixedGasLimit": false
    },
    {
      "hash": null,
      "transactionType": "CALL",
      "contractName": null,
      "contractAddress": "0x9e8860db73d093464ee2b5a1fe6f63b09f70e8c1",
      "function": "file(bytes32,bytes32,uint256)",
      "arguments": [
        "0x555344432d410000000000000000000000000000000000000000000000000000",
        "0x6c696e6500000000000000000000000000000000000000000000000000000000",
        "5000000000000000000000000000000000000000000000000000"
      ],
      "transaction": {
        "from": "0x8866438f9348f33516040d38a0113531bc9e7e1d",
        "to": "0x9e8860db73d093464ee2b5a1fe6f63b09f70e8c1",
        "value": "0x0",
        "input": "0x1a0b287e555344432d4100000000000000000000000000000000000000000000000000006c696e6500000000000000000000000000000000000000000000000000000000000000000000000000000d5d238a4abe9806872a4904598d6d88000000000000",
        "nonce": "0xaf",
        "chainId": "0x161c28"
      },
      "additionalContracts": [],
      "isFixedGasLimit": false
    },
    {
      "hash": null,
      "transactionType": "CALL",
      "contractName": null,
      "contractAddress": "0x9e8860db73d093464ee2b5a1fe6f63b09f70e8c1",
      "function": "file(bytes32,bytes32,uint256)",
      "arguments": [
        "0x555344432d410000000000000000000000000000000000000000000000000000",
        "0x6475737400000000000000000000000000000000000000000000000000000000",
        "50000000000000000000000000000000000000000000000"
      ],
      "transaction": {
        "from": "0x8866438f9348f33516040d38a0113531bc9e7e1d",
        "to": "0x9e8860db73d093464ee2b5a1fe6f63b09f70e8c1",
        "value": "0x0",
        "input": "0x1a0b287e555344432d410000000000000000000000000000000000000000000000000000647573740000000000000000000000000000000000000000000000000000000000000000000000000000000008c213d9da502de454526f422cc3400000000000",
        "nonce": "0xb0",
        "chainId": "0x161c28"
      },
      "additionalContracts": [],
      "isFixedGasLimit": false
    },
    {
      "hash": null,
      "transactionType": "CALL",
      "contractName": null,
      "contractAddress": "0xbcacd0124f64017c58c151dc5734bc64622c6a75",
      "function": "poke(bytes32)",
      "arguments": [
        "0x555344432d410000000000000000000000000000000000000000000000000000"
      ],
      "transaction": {
        "from": "0x8866438f9348f33516040d38a0113531bc9e7e1d",
        "to": "0xbcacd0124f64017c58c151dc5734bc64622c6a75",
        "value": "0x0",
        "input": "0x1504460f555344432d410000000000000000000000000000000000000000000000000000",
        "nonce": "0xb1",
        "chainId": "0x161c28"
      },
      "additionalContracts": [],
      "isFixedGasLimit": false
    }
  ],
  "receipts": [
    {
      "status": "0x1",
      "cumulativeGasUsed": "0x9b74c",
      "logs": [
        {
          "address": "0x2e5337dd70aebfe08a508c50a1336e7221e041ef",
          "topics": [
            "0xdd0e34038ac38b2a1ce960229778ac48a8719bc900b6c4f8d0475c6e8b385a60",
            "0x0000000000000000000000008866438f9348f33516040d38a0113531bc9e7e1d"
          ],
          "data": "0x",
          "blockHash": "0x74f76def081a1da07a9b3cb0db94b5b28ee01af95073490a0f825695bc2b60db",
          "blockNumber": "0x33aa45",
          "transactionHash": "0x61979c1a58d2993ffcbdee20d4d340e2800d9759bd7360c1f6247f7a491edd55",
          "transactionIndex": "0x0",
          "logIndex": "0x0",
          "removed": false
        }
      ],
      "logsBloom": "0x00000000000000000000000000000000000000000000008000000000000000000000000000000000000000000000000000004000000000000000000000000000000000400000010000000000000000000000000000000000000000000000000000000000000000000000000000000000000000400000000000000000000000000004000000000000000000000000000000000000000000000000000000000000000000000000000000000000000000000000000000200000000000000000000000000000000000000000040000000000000000000000000000000000000010000000000000000000000000000000000000000000000000000000000000000000",
      "type": "0x2",
      "transactionHash": "0x61979c1a58d2993ffcbdee20d4d340e2800d9759bd7360c1f6247f7a491edd55",
      "transactionIndex": "0x0",
      "blockHash": "0x74f76def081a1da07a9b3cb0db94b5b28ee01af95073490a0f825695bc2b60db",
      "blockNumber": "0x33aa45",
      "gasUsed": "0x9b74c",
      "effectiveGasPrice": "0x4cd5886400",
      "from": "0x8866438f9348f33516040d38a0113531bc9e7e1d",
      "to": null,
      "contractAddress": "0x2e5337dd70aebfe08a508c50a1336e7221e041ef"
    },
    {
      "status": "0x1",
      "cumulativeGasUsed": "0xbcc5",
      "logs": [],
      "logsBloom": "0x00000000000000000000000000000000000000000000000000000000000000000000000000000000000000000000000000000000000000000000000000000000000000000000000000000000000000000000000000000000000000000000000000000000000000000000000000000000000000000000000000000000000000000000000000000000000000000000000000000000000000000000000000000000000000000000000000000000000000000000000000000000000000000000000000000000000000000000000000000000000000000000000000000000000000000000000000000000000000000000000000000000000000000000000000000000",
      "type": "0x2",
      "transactionHash": "0x82a779fddc110b6264f50fde4886e0d93a7a6754d7557d199fcd16a7d348e95c",
      "transactionIndex": "0x0",
      "blockHash": "0xb33792897b1f4618be24ef48297627d4dde69b8efd777df87f0f164001c8a92c",
      "blockNumber": "0x33aa46",
      "gasUsed": "0xbcc5",
      "effectiveGasPrice": "0x4cd5886400",
      "from": "0x8866438f9348f33516040d38a0113531bc9e7e1d",
      "to": "0x9e8860db73d093464ee2b5a1fe6f63b09f70e8c1",
      "contractAddress": null
    },
    {
      "status": "0x1",
      "cumulativeGasUsed": "0x2681f",
      "logs": [],
      "logsBloom": "0x00000000000000000000000000000000000000000000000000000000000000000000000000000000000000000000000000000000000000000000000000000000000000000000000000000000000000000000000000000000000000000000000000000000000000000000000000000000000000000000000000000000000000000000000000000000000000000000000000000000000000000000000000000000000000000000000000000000000000000000000000000000000000000000000000000000000000000000000000000000000000000000000000000000000000000000000000000000000000000000000000000000000000000000000000000000",
      "type": "0x2",
      "transactionHash": "0x04919fd12170d9961d691a5d2ec1be394839934c9e81f31dd503d0d28d76e9f9",
      "transactionIndex": "0x2",
      "blockHash": "0xa1ae582ebf19b8edfa070ebcf013ed5b68de04a26426ceb7cedb801d4e722b36",
      "blockNumber": "0x33aa47",
      "gasUsed": "0x16a37",
      "effectiveGasPrice": "0x4cd5886400",
      "from": "0x8866438f9348f33516040d38a0113531bc9e7e1d",
      "to": null,
      "contractAddress": "0x4fb78f1eb456ddedd1c89f82c7dcbbe89dc23a4e"
    },
    {
      "status": "0x1",
      "cumulativeGasUsed": "0x7bf8",
      "logs": [],
      "logsBloom": "0x00000000000000000000000000000000000000000000000000000000000000000000000000000000000000000000000000000000000000000000000000000000000000000000000000000000000000000000000000000000000000000000000000000000000000000000000000000000000000000000000000000000000000000000000000000000000000000000000000000000000000000000000000000000000000000000000000000000000000000000000000000000000000000000000000000000000000000000000000000000000000000000000000000000000000000000000000000000000000000000000000000000000000000000000000000000",
      "type": "0x2",
      "transactionHash": "0x42a8478745b0742e8fddb4f2969cee8b8b9d7c8ebffccb01128960e4a42d4a5c",
      "transactionIndex": "0x0",
      "blockHash": "0x81041a92cfd1fdd5562144c1ae4b671282fea6ac33ba40c6add3be4c2bbbf69b",
      "blockNumber": "0x33aa48",
      "gasUsed": "0x7bf8",
      "effectiveGasPrice": "0x4cd5886400",
      "from": "0x8866438f9348f33516040d38a0113531bc9e7e1d",
      "to": "0xbcacd0124f64017c58c151dc5734bc64622c6a75",
      "contractAddress": null
    },
    {
      "status": "0x1",
      "cumulativeGasUsed": "0x37cb5",
      "logs": [],
      "logsBloom": "0x00000000000000000000000000000000000000000000000000000000000000000000000000000000000000000000000000000000000000000000000000000000000000000000000000000000000000000000000000000000000000000000000000000000000000000000000000000000000000000000000000000000000000000000000000000000000000000000000000000000000000000000000000000000000000000000000000000000000000000000000000000000000000000000000000000000000000000000000000000000000000000000000000000000000000000000000000000000000000000000000000000000000000000000000000000000",
      "type": "0x2",
      "transactionHash": "0x34b1f79f2d0333f3d971b8b35ad6020e8caf1f0ab4fabe9ac1af3caa30ab165e",
      "transactionIndex": "0x2",
      "blockHash": "0xd39f5b7178306c83cb09ab392a4b01bd1c4a5a4adbc76a695b040fe4868dc920",
      "blockNumber": "0x33aa49",
      "gasUsed": "0x6f75",
      "effectiveGasPrice": "0x4cd5886400",
      "from": "0x8866438f9348f33516040d38a0113531bc9e7e1d",
      "to": "0xbcacd0124f64017c58c151dc5734bc64622c6a75",
      "contractAddress": null
    },
    {
      "status": "0x1",
      "cumulativeGasUsed": "0x58b68",
      "logs": [],
      "logsBloom": "0x00000000000000000000000000000000000000000000000000000000000000000000000000000000000000000000000000000000000000000000000000000000000000000000000000000000000000000000000000000000000000000000000000000000000000000000000000000000000000000000000000000000000000000000000000000000000000000000000000000000000000000000000000000000000000000000000000000000000000000000000000000000000000000000000000000000000000000000000000000000000000000000000000000000000000000000000000000000000000000000000000000000000000000000000000000000",
      "type": "0x2",
      "transactionHash": "0xa80c26a0e9df359a01443c0a46ceba2de8c4214b5f8c170cdf562538096c1ba8",
      "transactionIndex": "0x3",
      "blockHash": "0xa5e7533938b3b34b44542cea48b2a22ddee768cec62ec2b2979587f91e57cdad",
      "blockNumber": "0x33aa4a",
      "gasUsed": "0xf788",
      "effectiveGasPrice": "0x4cd5886400",
      "from": "0x8866438f9348f33516040d38a0113531bc9e7e1d",
      "to": "0x7816527746f0ade226986e02cf6cc70cf287ff61",
      "contractAddress": null
    }
  ],
  "libraries": [],
  "pending": [],
  "returns": {},
  "timestamp": 1759231185915,
  "chain": 1449000,
  "commit": "91aff73"
}