{
  "transactions": [
    {
      "hash": "0x8f0403fea99e30d5795b72171f3c17880de7a6d127e01aef9ef036c7559cf0f5",
      "transactionType": "CREATE",
      "contractName": "DSToken",
      "contractAddress": "0x7a2088a1bfc9d81c55368ae168c2c02570cb814f",
      "function": null,
      "arguments": [
        "wXRP"
      ],
      "transaction": {
        "from": "0xf39fd6e51aad88f6f4ce6ab8827279cfffb92266",
        "value": "0x0",
        "input": "0x6006805460ff1916601217905560a060408190526000608081905262000028916007916200016d565b503480156200003657600080fd5b50604051620015a2380380620015a2833981810160405260208110156200005c57600080fd5b81019080805160405193929190846401000000008211156200007d57600080fd5b9083019060208201858111156200009357600080fd5b8251640100000000811182820188101715620000ae57600080fd5b82525081516020918201929091019080838360005b83811015620000dd578181015183820152602001620000c3565b50505050905090810190601f1680156200010b5780820380516001836020036101000a031916815260200191505b506040819052600180546001600160a01b0319163390811790915593507fce241d7ca1f669fee44b6fc00b8eba2df3bb514eed0f6f668f8f89096e81ed94925060009150a28051620001659060059060208401906200016d565b505062000209565b828054600181600116156101000203166002900490600052602060002090601f016020900481019282601f10620001b057805160ff1916838001178555620001e0565b82800160010185558215620001e0579182015b82811115620001e0578251825591602001919060010190620001c3565b50620001ee929150620001f2565b5090565b5b80821115620001ee5760008155600101620001f3565b61138980620002196000396000f3fe608060405234801561001057600080fd5b50600436106101335760003560e01c806306fdde031461013857806307da68f5146101b5578063095ea7b3146101bf57806313af4035146101ff57806318160ddd1461022557806323b872dd1461023f578063313ce5671461027557806340c10f191461029357806342966c68146102bf57806370a08231146102dc57806375f12b21146103025780637a9e5e4b1461030a5780638da5cb5b1461033057806395d89b41146103545780639dc29fac1461035c578063a0712d6814610388578063a9059cbb146103a5578063b753a98c146103d1578063bb35783b146103fd578063be9a655514610433578063bf7e214f1461043b578063c47f002714610443578063daea85c5146104e7578063dd62ed3e1461050d578063f2d5d56b1461053b575b600080fd5b610140610567565b6040805160208082528351818301528351919283929083019185019080838360005b8381101561017a578181015183820152602001610162565b50505050905090810190601f1680156101a75780820380516001836020036101000a031916815260200191505b509250505060405180910390f35b6101bd6105f5565b005b6101eb600480360360408110156101d557600080fd5b506001600160a01b038135169060200135610688565b604080519115158252519081900360200190f35b6101bd6004803603602081101561021557600080fd5b50356001600160a01b0316610747565b61022d6107ec565b60408051918252519081900360200190f35b6101eb6004803603606081101561025557600080fd5b506001600160a01b038135811691602081013590911690604001356107f2565b61027d610a53565b6040805160ff9092168252519081900360200190f35b6101bd600480360360408110156102a957600080fd5b506001600160a01b038135169060200135610a5c565b6101bd600480360360208110156102d557600080fd5b5035610b94565b61022d600480360360208110156102f257600080fd5b50356001600160a01b0316610ba1565b6101eb610bb3565b6101bd6004803603602081101561032057600080fd5b50356001600160a01b0316610bc3565b610338610c64565b604080516001600160a01b039092168252519081900360200190f35b610140610c73565b6101bd6004803603604081101561037257600080fd5b506001600160a01b038135169060200135610cce565b6101bd6004803603602081101561039e57600080fd5b5035610f5d565b6101eb600480360360408110156103bb57600080fd5b506001600160a01b038135169060200135610f67565b6101bd600480360360408110156103e757600080fd5b506001600160a01b038135169060200135610f7b565b6101bd6004803603606081101561041357600080fd5b506001600160a01b03813581169160208101359091169060400135610f8b565b6101bd610f9c565b610338611029565b6101bd6004803603602081101561045957600080fd5b810190602081018135600160201b81111561047357600080fd5b82018360208201111561048557600080fd5b803590602001918460018302840111600160201b831117156104a657600080fd5b91908080601f016020809104026020016040519081016040528093929190818152602001838380828437600092019190915250929550611038945050505050565b6101eb600480360360208110156104fd57600080fd5b50356001600160a01b03166110a4565b61022d6004803603604081101561052357600080fd5b506001600160a01b03813581169160200135166110b2565b6101bd6004803603604081101561055157600080fd5b506001600160a01b0381351690602001356110cf565b6007805460408051602060026001851615610100026000190190941693909304601f810184900484028201840190925281815292918301828280156105ed5780601f106105c2576101008083540402835291602001916105ed565b820191906000526020600020905b8154815290600101906020018083116105d057829003601f168201915b505050505081565b61060b336000356001600160e01b0319166110da565b61064a576040805162461bcd60e51b81526020600482015260146024820152600080516020611334833981519152604482015290519081900360640190fd5b6001805460ff60a01b1916600160a01b1790556040517fbedf0f4abfe86d4ffad593d9607fe70e83ea706033d44d24b3b6283cf3fc4f6b90600090a1565b600154600090600160a01b900460ff16156106df576040805162461bcd60e51b8152602060048201526012602482015271191ccb5cdd1bdc0b5a5ccb5cdd1bdc1c195960721b604482015290519081900360640190fd5b3360008181526004602090815260408083206001600160a01b03881680855290835292819020869055805186815290519293927f8c5be1e5ebec7d5bd14f71427d1e84f3dd0314c0f7b2291e5b200ac8c7c3b925929181900390910190a35060015b92915050565b61075d336000356001600160e01b0319166110da565b61079c576040805162461bcd60e51b81526020600482015260146024820152600080516020611334833981519152604482015290519081900360640190fd5b600180546001600160a01b0319166001600160a01b0383811691909117918290556040519116907fce241d7ca1f669fee44b6fc00b8eba2df3bb514eed0f6f668f8f89096e81ed9490600090a250565b60025481565b600154600090600160a01b900460ff1615610849576040805162461bcd60e51b8152602060048201526012602482015271191ccb5cdd1bdc0b5a5ccb5cdd1bdc1c195960721b604482015290519081900360640190fd5b6001600160a01b038416331480159061088757506001600160a01b038416600090815260046020908152604080832033845290915290205460001914155b15610945576001600160a01b03841660009081526004602090815260408083203384529091529020548211156108f2576040805162461bcd60e51b815260206004820152601e60248201526000805160206112f4833981519152604482015290519081900360640190fd5b6001600160a01b038416600090815260046020908152604080832033845290915290205461092090836111c1565b6001600160a01b03851660009081526004602090815260408083203384529091529020555b6001600160a01b0384166000908152600360205260409020548211156109a0576040805162461bcd60e51b815260206004820152601d6024820152600080516020611314833981519152604482015290519081900360640190fd5b6001600160a01b0384166000908152600360205260409020546109c390836111c1565b6001600160a01b0380861660009081526003602052604080822093909355908516815220546109f29083611211565b6001600160a01b0380851660008181526003602090815260409182902094909455805186815290519193928816927fddf252ad1be2c89b69c2b068fc378daa952ba7f163c4a11628f55a4df523b3ef92918290030190a35060019392505050565b60065460ff1681565b610a72336000356001600160e01b0319166110da565b610ab1576040805162461bcd60e51b81526020600482015260146024820152600080516020611334833981519152604482015290519081900360640190fd5b600154600160a01b900460ff1615610b05576040805162461bcd60e51b8152602060048201526012602482015271191ccb5cdd1bdc0b5a5ccb5cdd1bdc1c195960721b604482015290519081900360640190fd5b6001600160a01b038216600090815260036020526040902054610b289082611211565b6001600160a01b038316600090815260036020526040902055600254610b4e9082611211565b6002556040805182815290516001600160a01b038416917f0f6798a560793a54c3bcfe86a93cde1e73087d944c0ea20544137d4121396885919081900360200190a25050565b610b9e3382610cce565b50565b60036020526000908152604090205481565b600154600160a01b900460ff1681565b610bd9336000356001600160e01b0319166110da565b610c18576040805162461bcd60e51b81526020600482015260146024820152600080516020611334833981519152604482015290519081900360640190fd5b600080546001600160a01b0319166001600160a01b03838116919091178083556040519116917f1abebea81bfa2637f28358c371278fb15ede7ea8dd28d2e03b112ff6d936ada491a250565b6001546001600160a01b031681565b6005805460408051602060026001851615610100026000190190941693909304601f810184900484028201840190925281815292918301828280156105ed5780601f106105c2576101008083540402835291602001916105ed565b610ce4336000356001600160e01b0319166110da565b610d23576040805162461bcd60e51b81526020600482015260146024820152600080516020611334833981519152604482015290519081900360640190fd5b600154600160a01b900460ff1615610d77576040805162461bcd60e51b8152602060048201526012602482015271191ccb5cdd1bdc0b5a5ccb5cdd1bdc1c195960721b604482015290519081900360640190fd5b6001600160a01b0382163314801590610db557506001600160a01b038216600090815260046020908152604080832033845290915290205460001914155b15610e73576001600160a01b0382166000908152600460209081526040808320338452909152902054811115610e20576040805162461bcd60e51b815260206004820152601e60248201526000805160206112f4833981519152604482015290519081900360640190fd5b6001600160a01b0382166000908152600460209081526040808320338452909152902054610e4e90826111c1565b6001600160a01b03831660009081526004602090815260408083203384529091529020555b6001600160a01b038216600090815260036020526040902054811115610ece576040805162461bcd60e51b815260206004820152601d6024820152600080516020611314833981519152604482015290519081900360640190fd5b6001600160a01b038216600090815260036020526040902054610ef190826111c1565b6001600160a01b038316600090815260036020526040902055600254610f1790826111c1565b6002556040805182815290516001600160a01b038416917fcc16f5dbb4873280815c1ee09dbd06736cffcc184412cf7a71a0fdb75d397ca5919081900360200190a25050565b610b9e3382610a5c565b6000610f743384846107f2565b9392505050565b610f863383836107f2565b505050565b610f968383836107f2565b50505050565b610fb2336000356001600160e01b0319166110da565b610ff1576040805162461bcd60e51b81526020600482015260146024820152600080516020611334833981519152604482015290519081900360640190fd5b6001805460ff60a01b191690556040517f1b55ba3aa851a46be3b365aee5b5c140edd620d578922f3e8466d2cbd96f954b90600090a1565b6000546001600160a01b031681565b61104e336000356001600160e01b0319166110da565b61108d576040805162461bcd60e51b81526020600482015260146024820152600080516020611334833981519152604482015290519081900360640190fd5b80516110a0906007906020840190611260565b5050565b600061074182600019610688565b600460209081526000928352604080842090915290825290205481565b610f868233836107f2565b60006001600160a01b0383163014156110f557506001610741565b6001546001600160a01b038481169116141561111357506001610741565b6000546001600160a01b031661112b57506000610741565b6000546040805163b700961360e01b81526001600160a01b0386811660048301523060248301526001600160e01b0319861660448301529151919092169163b7009613916064808301926020929190829003018186803b15801561118e57600080fd5b505afa1580156111a2573d6000803e3d6000fd5b505050506040513d60208110156111b857600080fd5b50519050610741565b80820382811115610741576040805162461bcd60e51b815260206004820152601560248201527464732d6d6174682d7375622d756e646572666c6f7760581b604482015290519081900360640190fd5b80820182811015610741576040805162461bcd60e51b815260206004820152601460248201527364732d6d6174682d6164642d6f766572666c6f7760601b604482015290519081900360640190fd5b828054600181600116156101000203166002900490600052602060002090601f016020900481019282601f106112a157805160ff19168380011785556112ce565b828001600101855582156112ce579182015b828111156112ce5782518255916020019190600101906112b3565b506112da9291506112de565b5090565b5b808211156112da57600081556001016112df56fe64732d746f6b656e2d696e73756666696369656e742d617070726f76616c000064732d746f6b656e2d696e73756666696369656e742d62616c616e636500000064732d617574682d756e617574686f72697a6564000000000000000000000000a2646970667358221220f75587db1e4d84becec41d698db6e3ca018e397e00b25432ac3ef7d6c43c7bed64736f6c634300060c0033000000000000000000000000000000000000000000000000000000000000002000000000000000000000000000000000000000000000000000000000000000047758525000000000000000000000000000000000000000000000000000000000",
        "nonce": "0x1a",
        "chainId": "0x7a69"
      },
      "additionalContracts": [],
      "isFixedGasLimit": false
    },
    {
      "hash": "0x70777567380efff964fbb7e644a26b0dd7a048d3e019a2f18766121a0dfb9124",
      "transactionType": "CALL",
      "contractName": "DSToken",
      "contractAddress": "0x7a2088a1bfc9d81c55368ae168c2c02570cb814f",
      "function": "setName(string)",
      "arguments": [
        "Wrapped XRP"
      ],
      "transaction": {
        "from": "0xf39fd6e51aad88f6f4ce6ab8827279cfffb92266",
        "to": "0x7a2088a1bfc9d81c55368ae168c2c02570cb814f",
        "value": "0x0",
        "input": "0xc47f00270000000000000000000000000000000000000000000000000000000000000020000000000000000000000000000000000000000000000000000000000000000b5772617070656420585250000000000000000000000000000000000000000000",
        "nonce": "0x1b",
        "chainId": "0x7a69"
      },
      "additionalContracts": [],
      "isFixedGasLimit": false
    },
    {
      "hash": "0x207f2f65a8ffacfe0dc7cf6235ad9280078a4d600636fce4222fd11ffd127e20",
      "transactionType": "CALL",
      "contractName": "DSToken",
      "contractAddress": "0x7a2088a1bfc9d81c55368ae168c2c02570cb814f",
      "function": "mint(address,uint256)",
      "arguments": [
        "0xf39Fd6e51aad88F6F4ce6aB8827279cffFb92266",
        "1000000000000000000000000"
      ],
      "transaction": {
        "from": "0xf39fd6e51aad88f6f4ce6ab8827279cfffb92266",
        "to": "0x7a2088a1bfc9d81c55368ae168c2c02570cb814f",
        "value": "0x0",
        "input": "0x40c10f19000000000000000000000000f39fd6e51aad88f6f4ce6ab8827279cfffb9226600000000000000000000000000000000000000000000d3c21bcecceda1000000",
        "nonce": "0x1c",
        "chainId": "0x7a69"
      },
      "additionalContracts": [],
      "isFixedGasLimit": false
    },
    {
      "hash": "0xeb0c2382dc7c45f1b1b178394432089e13639f681797ce25634b2f01d8e1926a",
      "transactionType": "CREATE",
      "contractName": "SimplePip",
      "contractAddress": "0x67d269191c92caf3cd7723f116c85e6e9bf55933",
      "function": null,
      "arguments": null,
      "transaction": {
        "from": "0xf39fd6e51aad88f6f4ce6ab8827279cfffb92266",
        "value": "0x0",
        "input": "0x608060405234801561001057600080fd5b5060b68061001f6000396000f3fe6080604052348015600f57600080fd5b506004361060325760003560e01c806359e02dd714603757806360fe47b1146056575b600080fd5b603d6072565b6040805192835290151560208301528051918290030190f35b607060048036036020811015606a57600080fd5b5035607b565b005b60005460019091565b60005556fea264697066735822122039a9106c5d68b2a95f5bb1b737c7f9550528f061d72da4f5d43c65655b47760664736f6c634300060c0033",
        "nonce": "0x1d",
        "chainId": "0x7a69"
      },
      "additionalContracts": [],
      "isFixedGasLimit": false
    },
    {
      "hash": "0x5e44d4fb17d74c6518029c4786b6b9177466f0e7a7292badd8e1263e4f7bd30d",
      "transactionType": "CALL",
      "contractName": "SimplePip",
      "contractAddress": "0x67d269191c92caf3cd7723f116c85e6e9bf55933",
      "function": "set(uint256)",
      "arguments": [
        "1000000000000000000"
      ],
      "transaction": {
        "from": "0xf39fd6e51aad88f6f4ce6ab8827279cfffb92266",
        "to": "0x67d269191c92caf3cd7723f116c85e6e9bf55933",
        "value": "0x0",
        "input": "0x60fe47b10000000000000000000000000000000000000000000000000de0b6b3a7640000",
        "nonce": "0x1e",
        "chainId": "0x7a69"
      },
      "additionalContracts": [],
      "isFixedGasLimit": false
    },
    {
      "hash": "0xe645d1b2592b8a2ac26e50de6c4ac96675a8a0958af72bd9e60f6511d67706a1",
      "transactionType": "CREATE",
      "contractName": "GemJoin",
      "contractAddress": "0xc3e53f4d16ae77db1c982e75a937b9f60fe63690",
      "function": null,
      "arguments": [
        "0xCafac3dD18aC6c6e92c921884f9E4176737C052c",
        "0x5852502d410a0000000000000000000000000000000000000000000000000000",
        "0x7a2088a1bFc9d81c55368AE168C2C02570cB814F"
      ],
      "transaction": {
        "from": "0xf39fd6e51aad88f6f4ce6ab8827279cfffb92266",
        "value": "0x0",
        "input": "0x608060405234801561001057600080fd5b5060405161092f38038061092f8339818101604052606081101561003357600080fd5b508051602080830151604093840151336000908152808452859020600190819055600581905580546001600160a01b038087166001600160a01b03199283161790925560028490556003805483851692169190911790819055865163313ce56760e01b8152965195969395929491169263313ce5679260048281019392829003018186803b1580156100c457600080fd5b505afa1580156100d8573d6000803e3d6000fd5b505050506040513d60208110156100ee57600080fd5b505160045560405133907fdd0e34038ac38b2a1ce960229778ac48a8719bc900b6c4f8d0475c6e8b385a6090600090a25050506107ff806101306000396000f3fe608060405234801561001057600080fd5b50600436106100995760003560e01c806336569e771461009e5780633b4da69f146100c257806365fae35e146100f057806369245009146101165780637bd2bea71461011e578063957aa58c146101265780639c52a7f114610140578063b3bcfa8214610166578063bf353dbb1461016e578063c5ce281e14610194578063ef693bed1461019c575b600080fd5b6100a66101c8565b604080516001600160a01b039092168252519081900360200190f35b6100ee600480360360408110156100d857600080fd5b506001600160a01b0381351690602001356101d7565b005b6100ee6004803603602081101561010657600080fd5b50356001600160a01b03166103f5565b6100ee610497565b6100a6610524565b61012e610533565b60408051918252519081900360200190f35b6100ee6004803603602081101561015657600080fd5b50356001600160a01b0316610539565b61012e6105da565b61012e6004803603602081101561018457600080fd5b50356001600160a01b03166105e0565b61012e6105f2565b6100ee600480360360408110156101b257600080fd5b506001600160a01b0381351690602001356105f8565b6001546001600160a01b031681565b600554600114610221576040805162461bcd60e51b815260206004820152601060248201526f47656d4a6f696e2f6e6f742d6c69766560801b604482015290519081900360640190fd5b600081121561026a576040805162461bcd60e51b815260206004820152601060248201526f47656d4a6f696e2f6f766572666c6f7760801b604482015290519081900360640190fd5b60015460025460408051633e6e9fef60e11b815260048101929092526001600160a01b038581166024840152604483018590529051921691637cdd3fde9160648082019260009290919082900301818387803b1580156102c957600080fd5b505af11580156102dd573d6000803e3d6000fd5b5050600354604080516323b872dd60e01b81523360048201523060248201526044810186905290516001600160a01b0390921693506323b872dd92506064808201926020929091908290030181600087803b15801561033b57600080fd5b505af115801561034f573d6000803e3d6000fd5b505050506040513d602081101561036557600080fd5b50516103b2576040805162461bcd60e51b815260206004820152601760248201527623b2b6a537b4b717b330b4b632b216ba3930b739b332b960491b604482015290519081900360640190fd5b6040805182815290516001600160a01b038416917fb4e09949657f21548b58afe74e7b86cd2295da5ff1598ae1e5faecb1cf19ca95919081900360200190a25050565b33600090815260208190526040902054600114610452576040805162461bcd60e51b815260206004820152601660248201527511d95b529bda5b8bdb9bdd0b585d5d1a1bdc9a5e995960521b604482015290519081900360640190fd5b6001600160a01b03811660008181526020819052604080822060019055517fdd0e34038ac38b2a1ce960229778ac48a8719bc900b6c4f8d0475c6e8b385a609190a250565b336000908152602081905260409020546001146104f4576040805162461bcd60e51b815260206004820152601660248201527511d95b529bda5b8bdb9bdd0b585d5d1a1bdc9a5e995960521b604482015290519081900360640190fd5b600060058190556040517f2308ed18a14e800c39b86eb6ea43270105955ca385b603b64eca89f98ae8fbda9190a1565b6003546001600160a01b031681565b60055481565b33600090815260208190526040902054600114610596576040805162461bcd60e51b815260206004820152601660248201527511d95b529bda5b8bdb9bdd0b585d5d1a1bdc9a5e995960521b604482015290519081900360640190fd5b6001600160a01b038116600081815260208190526040808220829055517f184450df2e323acec0ed3b5c7531b81f9b4cdef7914dfd4c0a4317416bb5251b9190a250565b60045481565b60006020819052908152604090205481565b60025481565b600160ff1b811115610644576040805162461bcd60e51b815260206004820152601060248201526f47656d4a6f696e2f6f766572666c6f7760801b604482015290519081900360640190fd5b60015460025460408051633e6e9fef60e11b815260048101929092523360248301526000848103604484015290516001600160a01b0390931692637cdd3fde92606480820193929182900301818387803b1580156106a157600080fd5b505af11580156106b5573d6000803e3d6000fd5b50506003546040805163a9059cbb60e01b81526001600160a01b03878116600483015260248201879052915191909216935063a9059cbb925060448083019260209291908290030181600087803b15801561070f57600080fd5b505af1158015610723573d6000803e3d6000fd5b505050506040513d602081101561073957600080fd5b5051610786576040805162461bcd60e51b815260206004820152601760248201527623b2b6a537b4b717b330b4b632b216ba3930b739b332b960491b604482015290519081900360640190fd5b6040805182815290516001600160a01b038416917f22d324652c93739755cf4581508b60875ebdd78c20c0cff5cf8e23452b299631919081900360200190a2505056fea2646970667358221220c5f058937d23e2129a5fc2e60a43c24022ba0f1faaa2b2cfec284b2545792fb764736f6c634300060c0033000000000000000000000000cafac3dd18ac6c6e92c921884f9e4176737c052c5852502d410a00000000000000000000000000000000000000000000000000000000000000000000000000007a2088a1bfc9d81c55368ae168c2c02570cb814f",
        "nonce": "0x1f",
        "chainId": "0x7a69"
      },
      "additionalContracts": [],
      "isFixedGasLimit": false
    },
    {
      "hash": "0x33f2d93c25c7783b9ed9837f5d97241b6bcf16ee211d4b8b1bbd6ff703a272ab",
      "transactionType": "CALL",
      "contractName": null,
      "contractAddress": "0x5fbdb2315678afecb367f032d93f642f64180aa3",
      "function": "deployCollateralClip(bytes32,address,address,address)",
      "arguments": [
        "0x5852502d410a0000000000000000000000000000000000000000000000000000",
        "0xc3e53F4d16Ae77Db1c982e75a937B9f60FE63690",
        "0x67d269191c92Caf3cD7723F116c85e6E9bf55933",
        "0x0000000000000000000000000000000000000000"
      ],
      "transaction": {
        "from": "0xf39fd6e51aad88f6f4ce6ab8827279cfffb92266",
        "to": "0x5fbdb2315678afecb367f032d93f642f64180aa3",
        "value": "0x0",
        "input": "0x611916085852502d410a0000000000000000000000000000000000000000000000000000000000000000000000000000c3e53f4d16ae77db1c982e75a937b9f60fe6369000000000000000000000000067d269191c92caf3cd7723f116c85e6e9bf559330000000000000000000000000000000000000000000000000000000000000000",
        "nonce": "0x20",
        "chainId": "0x7a69"
      },
      "additionalContracts": [],
      "isFixedGasLimit": false
    }
  ],
  "receipts": [
    {
      "status": "0x1",
      "cumulativeGasUsed": "0x128038",
      "logs": [
        {
          "address": "0x7a2088a1bfc9d81c55368ae168c2c02570cb814f",
          "topics": [
            "0xce241d7ca1f669fee44b6fc00b8eba2df3bb514eed0f6f668f8f89096e81ed94",
            "0x000000000000000000000000f39fd6e51aad88f6f4ce6ab8827279cfffb92266"
          ],
          "data": "0x",
          "blockHash": "0xf81a899794d082d8dc50e39636b610b7a29c8094ed7608054ee0c9f33aaaf60e",
          "blockNumber": "0x12",
          "blockTimestamp": "0x68d1537f",
          "transactionHash": "0x8f0403fea99e30d5795b72171f3c17880de7a6d127e01aef9ef036c7559cf0f5",
          "transactionIndex": "0x0",
          "logIndex": "0x0",
          "removed": false
        }
      ],
      "logsBloom": "0x00000000001000000000000000000000000000000000020200000000000000000000000000000000000000000000000000000000000000080000000000000000000000000000000000000000000000000000000000080000000000000000000000000000000000000000000100000000000000000000000000000000000000000000000000000000000000000000000000000000000000000200000000000000000000000000000000000000000000000000000000000000000000000000000000000000000000200000000000000000000000002000000000000000000000000000000000000000000000000000000000000000000000000000000000000000",
      "type": "0x2",
      "transactionHash": "0x8f0403fea99e30d5795b72171f3c17880de7a6d127e01aef9ef036c7559cf0f5",
      "transactionIndex": "0x0",
      "blockHash": "0xf81a899794d082d8dc50e39636b610b7a29c8094ed7608054ee0c9f33aaaf60e",
      "blockNumber": "0x12",
      "gasUsed": "0x128038",
      "effectiveGasPrice": "0x879605b",
      "blobGasPrice": "0x1",
      "from": "0xf39fd6e51aad88f6f4ce6ab8827279cfffb92266",
      "to": null,
      "contractAddress": "0x7a2088a1bfc9d81c55368ae168c2c02570cb814f"
    },
    {
      "status": "0x1",
      "cumulativeGasUsed": "0xb89e",
      "logs": [],
      "logsBloom": "0x00000000000000000000000000000000000000000000000000000000000000000000000000000000000000000000000000000000000000000000000000000000000000000000000000000000000000000000000000000000000000000000000000000000000000000000000000000000000000000000000000000000000000000000000000000000000000000000000000000000000000000000000000000000000000000000000000000000000000000000000000000000000000000000000000000000000000000000000000000000000000000000000000000000000000000000000000000000000000000000000000000000000000000000000000000000",
      "type": "0x2",
      "transactionHash": "0x70777567380efff964fbb7e644a26b0dd7a048d3e019a2f18766121a0dfb9124",
      "transactionIndex": "0x0",
      "blockHash": "0xe86f39c4778762fcc2380f066190302e5a8812bf113160c291256a2d5763542d",
      "blockNumber": "0x13",
      "gasUsed": "0xb89e",
      "effectiveGasPrice": "0x7801fa3",
      "blobGasPrice": "0x1",
      "from": "0xf39fd6e51aad88f6f4ce6ab8827279cfffb92266",
      "to": "0x7a2088a1bfc9d81c55368ae168c2c02570cb814f",
      "contractAddress": null
    },
    {
      "status": "0x1",
      "cumulativeGasUsed": "0x11320",
      "logs": [
        {
          "address": "0x7a2088a1bfc9d81c55368ae168c2c02570cb814f",
          "topics": [
            "0x0f6798a560793a54c3bcfe86a93cde1e73087d944c0ea20544137d4121396885",
            "0x000000000000000000000000f39fd6e51aad88f6f4ce6ab8827279cfffb92266"
          ],
          "data": "0x00000000000000000000000000000000000000000000d3c21bcecceda1000000",
          "blockHash": "0x5dda71a74ca645fb3387f08a8bcdc177a08ffaf5530b2044572c34624fac61ec",
          "blockNumber": "0x14",
          "blockTimestamp": "0x68d1537f",
          "transactionHash": "0x207f2f65a8ffacfe0dc7cf6235ad9280078a4d600636fce4222fd11ffd127e20",
          "transactionIndex": "0x0",
          "logIndex": "0x0",
          "removed": false
        }
      ],
      "logsBloom": "0x00000000001000000000000000000000000000000000000200000000000000000000000000000000000000000000000000000000000000000000000000000000000000000020000000000000000000000000000000000000000000000000000000000000000000000000000100000000000000000000400000000000000000000000000000000000000000000000000000000000000000000200000000000000000080000000000000000000000000000000000000000000000000000000000000000000000000200000000000000000000000002000000000000000000000000000000000000000000000000000000000000000000000000000000000000000",
      "type": "0x2",
      "transactionHash": "0x207f2f65a8ffacfe0dc7cf6235ad9280078a4d600636fce4222fd11ffd127e20",
      "transactionIndex": "0x0",
      "blockHash": "0x5dda71a74ca645fb3387f08a8bcdc177a08ffaf5530b2044572c34624fac61ec",
      "blockNumber": "0x14",
      "gasUsed": "0x11320",
      "effectiveGasPrice": "0x690dd48",
      "blobGasPrice": "0x1",
      "from": "0xf39fd6e51aad88f6f4ce6ab8827279cfffb92266",
      "to": "0x7a2088a1bfc9d81c55368ae168c2c02570cb814f",
      "contractAddress": null
    },
    {
      "status": "0x1",
      "cumulativeGasUsed": "0x16a45",
      "logs": [],
      "logsBloom": "0x00000000000000000000000000000000000000000000000000000000000000000000000000000000000000000000000000000000000000000000000000000000000000000000000000000000000000000000000000000000000000000000000000000000000000000000000000000000000000000000000000000000000000000000000000000000000000000000000000000000000000000000000000000000000000000000000000000000000000000000000000000000000000000000000000000000000000000000000000000000000000000000000000000000000000000000000000000000000000000000000000000000000000000000000000000000",
      "type": "0x2",
      "transactionHash": "0xeb0c2382dc7c45f1b1b178394432089e13639f681797ce25634b2f01d8e1926a",
      "transactionIndex": "0x0",
      "blockHash": "0x32e1085646b641b7c6e251cb6a5656685cf71796de45e914131a99a8d7240540",
      "blockNumber": "0x15",
      "gasUsed": "0x16a45",
      "effectiveGasPrice": "0x5bfbe2f",
      "blobGasPrice": "0x1",
      "from": "0xf39fd6e51aad88f6f4ce6ab8827279cfffb92266",
      "to": null,
      "contractAddress": "0x67d269191c92caf3cd7723f116c85e6e9bf55933"
    },
    {
      "status": "0x1",
      "cumulativeGasUsed": "0xaa21",
      "logs": [],
      "logsBloom": "0x00000000000000000000000000000000000000000000000000000000000000000000000000000000000000000000000000000000000000000000000000000000000000000000000000000000000000000000000000000000000000000000000000000000000000000000000000000000000000000000000000000000000000000000000000000000000000000000000000000000000000000000000000000000000000000000000000000000000000000000000000000000000000000000000000000000000000000000000000000000000000000000000000000000000000000000000000000000000000000000000000000000000000000000000000000000",
      "type": "0x2",
      "transactionHash": "0x5e44d4fb17d74c6518029c4786b6b9177466f0e7a7292badd8e1263e4f7bd30d",
      "transactionIndex": "0x0",
      "blockHash": "0x3b64b8e6954fbbacfc44ddc276d4ccf0663d706f3e2554501acfed1d0a5b039e",
      "blockNumber": "0x16",
      "gasUsed": "0xaa21",
      "effectiveGasPrice": "0x508e998",
      "blobGasPrice": "0x1",
      "from": "0xf39fd6e51aad88f6f4ce6ab8827279cfffb92266",
      "to": "0x67d269191c92caf3cd7723f116c85e6e9bf55933",
      "contractAddress": null
    },
    {
      "status": "0x1",
      "cumulativeGasUsed": "0x9c48d",
      "logs": [
        {
          "address": "0xc3e53f4d16ae77db1c982e75a937b9f60fe63690",
          "topics": [
            "0xdd0e34038ac38b2a1ce960229778ac48a8719bc900b6c4f8d0475c6e8b385a60",
            "0x000000000000000000000000f39fd6e51aad88f6f4ce6ab8827279cfffb92266"
          ],
          "data": "0x",
          "blockHash": "0x36ed9edfcf06f27ad2170ad58bca87c755f6c4a473a82289a382428bab394e1e",
          "blockNumber": "0x17",
          "blockTimestamp": "0x68d1537f",
          "transactionHash": "0xe645d1b2592b8a2ac26e50de6c4ac96675a8a0958af72bd9e60f6511d67706a1",
          "transactionIndex": "0x0",
          "logIndex": "0x0",
          "removed": false
        }
      ],
      "logsBloom": "0x00000000000000000000000000000000000000000000000000000000000000000000000000000000000000000000000000004000000000200000000000000000000000400000000000000000000000000000000000000000000000000000000000000000000000000000000100000000000000000000000000000000000000000000000800000000000000020000000000000000000000000000000000000000000000000000000000000000000000000000000000000000000000000000000000000000000000200000000000000000000000002000000000000000000010000000000000000000000000000000000000000000000000000000000000000000",
      "type": "0x2",
      "transactionHash": "0xe645d1b2592b8a2ac26e50de6c4ac96675a8a0958af72bd9e60f6511d67706a1",
      "transactionIndex": "0x0",
      "blockHash": "0x36ed9edfcf06f27ad2170ad58bca87c755f6c4a473a82289a382428bab394e1e",
      "blockNumber": "0x17",
      "gasUsed": "0x9c48d",
      "effectiveGasPrice": "0x4684427",
      "blobGasPrice": "0x1",
      "from": "0xf39fd6e51aad88f6f4ce6ab8827279cfffb92266",
      "to": null,
      "contractAddress": "0xc3e53f4d16ae77db1c982e75a937b9f60fe63690"
    },
    {
      "status": "0x1",
      "cumulativeGasUsed": "0x2a22d7",
      "logs": [
        {
          "address": "0x94099942864ea81ccf197e9d71ac53310b1468d8",
          "topics": [
            "0xdd0e34038ac38b2a1ce960229778ac48a8719bc900b6c4f8d0475c6e8b385a60",
            "0x0000000000000000000000002279b7a0a67db372996a5fab50d91eaa73d2ebe6"
          ],
          "data": "0x",
          "blockHash": "0xfa10d6450920f29a35b7eb1a7c7f1d481ed92f634dc7f954ba88049c97b7624c",
          "blockNumber": "0x18",
          "blockTimestamp": "0x68d1537f",
          "transactionHash": "0x33f2d93c25c7783b9ed9837f5d97241b6bcf16ee211d4b8b1bbd6ff703a272ab",
          "transactionIndex": "0x0",
          "logIndex": "0x0",
          "removed": false
        },
        {
          "address": "0x94099942864ea81ccf197e9d71ac53310b1468d8",
          "topics": [
            "0xdd0e34038ac38b2a1ce960229778ac48a8719bc900b6c4f8d0475c6e8b385a60",
            "0x0000000000000000000000005fbdb2315678afecb367f032d93f642f64180aa3"
          ],
          "data": "0x",
          "blockHash": "0xfa10d6450920f29a35b7eb1a7c7f1d481ed92f634dc7f954ba88049c97b7624c",
          "blockNumber": "0x18",
          "blockTimestamp": "0x68d1537f",
          "transactionHash": "0x33f2d93c25c7783b9ed9837f5d97241b6bcf16ee211d4b8b1bbd6ff703a272ab",
          "transactionIndex": "0x0",
          "logIndex": "0x1",
          "removed": false
        },
        {
          "address": "0x94099942864ea81ccf197e9d71ac53310b1468d8",
          "topics": [
            "0x184450df2e323acec0ed3b5c7531b81f9b4cdef7914dfd4c0a4317416bb5251b",
            "0x0000000000000000000000002279b7a0a67db372996a5fab50d91eaa73d2ebe6"
          ],
          "data": "0x",
          "blockHash": "0xfa10d6450920f29a35b7eb1a7c7f1d481ed92f634dc7f954ba88049c97b7624c",
          "blockNumber": "0x18",
          "blockTimestamp": "0x68d1537f",
          "transactionHash": "0x33f2d93c25c7783b9ed9837f5d97241b6bcf16ee211d4b8b1bbd6ff703a272ab",
          "transactionIndex": "0x0",
          "logIndex": "0x2",
          "removed": false
        },
        {
          "address": "0x856e4424f806d16e8cbc702b3c0f2ede5468eae5",
          "topics": [
            "0x4ff2caaa972a7c6629ea01fae9c93d73cc307d13ea4c369f9bbbb7f9b7e9461d",
            "0x5852502d410a0000000000000000000000000000000000000000000000000000",
            "0x636c697000000000000000000000000000000000000000000000000000000000"
          ],
          "data": "0x00000000000000000000000094099942864ea81ccf197e9d71ac53310b1468d8",
          "blockHash": "0xfa10d6450920f29a35b7eb1a7c7f1d481ed92f634dc7f954ba88049c97b7624c",
          "blockNumber": "0x18",
          "blockTimestamp": "0x68d1537f",
          "transactionHash": "0x33f2d93c25c7783b9ed9837f5d97241b6bcf16ee211d4b8b1bbd6ff703a272ab",
          "transactionIndex": "0x0",
          "logIndex": "0x3",
          "removed": false
        },
        {
          "address": "0x94099942864ea81ccf197e9d71ac53310b1468d8",
          "topics": [
            "0x8fef588b5fc1afbf5b2f06c1a435d513f208da2e6704c3d8f0e0ec91167066ba",
            "0x766f770000000000000000000000000000000000000000000000000000000000"
          ],
          "data": "0x000000000000000000000000d8058efe0198ae9dd7d563e1b4938dcbc86a1f81",
          "blockHash": "0xfa10d6450920f29a35b7eb1a7c7f1d481ed92f634dc7f954ba88049c97b7624c",
          "blockNumber": "0x18",
          "blockTimestamp": "0x68d1537f",
          "transactionHash": "0x33f2d93c25c7783b9ed9837f5d97241b6bcf16ee211d4b8b1bbd6ff703a272ab",
          "transactionIndex": "0x0",
          "logIndex": "0x4",
          "removed": false
        },
        {
          "address": "0x8acd85898458400f7db866d53fcff6f0d49741ff",
          "topics": [
            "0xdd0e34038ac38b2a1ce960229778ac48a8719bc900b6c4f8d0475c6e8b385a60",
            "0x0000000000000000000000008a791620dd6260079bf849dc5567adc3f2fdc318"
          ],
          "data": "0x",
          "blockHash": "0xfa10d6450920f29a35b7eb1a7c7f1d481ed92f634dc7f954ba88049c97b7624c",
          "blockNumber": "0x18",
          "blockTimestamp": "0x68d1537f",
          "transactionHash": "0x33f2d93c25c7783b9ed9837f5d97241b6bcf16ee211d4b8b1bbd6ff703a272ab",
          "transactionIndex": "0x0",
          "logIndex": "0x5",
          "removed": false
        },
        {
          "address": "0x8acd85898458400f7db866d53fcff6f0d49741ff",
          "topics": [
            "0xdd0e34038ac38b2a1ce960229778ac48a8719bc900b6c4f8d0475c6e8b385a60",
            "0x0000000000000000000000005fbdb2315678afecb367f032d93f642f64180aa3"
          ],
          "data": "0x",
          "blockHash": "0xfa10d6450920f29a35b7eb1a7c7f1d481ed92f634dc7f954ba88049c97b7624c",
          "blockNumber": "0x18",
          "blockTimestamp": "0x68d1537f",
          "transactionHash": "0x33f2d93c25c7783b9ed9837f5d97241b6bcf16ee211d4b8b1bbd6ff703a272ab",
          "transactionIndex": "0x0",
          "logIndex": "0x6",
          "removed": false
        },
        {
          "address": "0x8acd85898458400f7db866d53fcff6f0d49741ff",
          "topics": [
            "0x184450df2e323acec0ed3b5c7531b81f9b4cdef7914dfd4c0a4317416bb5251b",
            "0x0000000000000000000000008a791620dd6260079bf849dc5567adc3f2fdc318"
          ],
          "data": "0x",
          "blockHash": "0xfa10d6450920f29a35b7eb1a7c7f1d481ed92f634dc7f954ba88049c97b7624c",
          "blockNumber": "0x18",
          "blockTimestamp": "0x68d1537f",
          "transactionHash": "0x33f2d93c25c7783b9ed9837f5d97241b6bcf16ee211d4b8b1bbd6ff703a272ab",
          "transactionIndex": "0x0",
          "logIndex": "0x7",
          "removed": false
        },
        {
          "address": "0x8acd85898458400f7db866d53fcff6f0d49741ff",
          "topics": [
            "0xe986e40cc8c151830d4f61050f4fb2e4add8567caad2d5f5496f9158e91fe4c7",
            "0x7461750000000000000000000000000000000000000000000000000000000000"
          ],
          "data": "0x0000000000000000000000000000000000000000000000000000000000000e10",
          "blockHash": "0xfa10d6450920f29a35b7eb1a7c7f1d481ed92f634dc7f954ba88049c97b7624c",
          "blockNumber": "0x18",
          "blockTimestamp": "0x68d1537f",
          "transactionHash": "0x33f2d93c25c7783b9ed9837f5d97241b6bcf16ee211d4b8b1bbd6ff703a272ab",
          "transactionIndex": "0x0",
          "logIndex": "0x8",
          "removed": false
        },
        {
          "address": "0x94099942864ea81ccf197e9d71ac53310b1468d8",
          "topics": [
            "0x8fef588b5fc1afbf5b2f06c1a435d513f208da2e6704c3d8f0e0ec91167066ba",
            "0x63616c6300000000000000000000000000000000000000000000000000000000"
          ],
          "data": "0x0000000000000000000000008acd85898458400f7db866d53fcff6f0d49741ff",
          "blockHash": "0xfa10d6450920f29a35b7eb1a7c7f1d481ed92f634dc7f954ba88049c97b7624c",
          "blockNumber": "0x18",
          "blockTimestamp": "0x68d1537f",
          "transactionHash": "0x33f2d93c25c7783b9ed9837f5d97241b6bcf16ee211d4b8b1bbd6ff703a272ab",
          "transactionIndex": "0x0",
          "logIndex": "0x9",
          "removed": false
        },
        {
          "address": "0x856e4424f806d16e8cbc702b3c0f2ede5468eae5",
          "topics": [
            "0xdd0e34038ac38b2a1ce960229778ac48a8719bc900b6c4f8d0475c6e8b385a60",
            "0x00000000000000000000000094099942864ea81ccf197e9d71ac53310b1468d8"
          ],
          "data": "0x",
          "blockHash": "0xfa10d6450920f29a35b7eb1a7c7f1d481ed92f634dc7f954ba88049c97b7624c",
          "blockNumber": "0x18",
          "blockTimestamp": "0x68d1537f",
          "transactionHash": "0x33f2d93c25c7783b9ed9837f5d97241b6bcf16ee211d4b8b1bbd6ff703a272ab",
          "transactionIndex": "0x0",
          "logIndex": "0xa",
          "removed": false
        },
        {
          "address": "0x94099942864ea81ccf197e9d71ac53310b1468d8",
          "topics": [
            "0xdd0e34038ac38b2a1ce960229778ac48a8719bc900b6c4f8d0475c6e8b385a60",
            "0x000000000000000000000000856e4424f806d16e8cbc702b3c0f2ede5468eae5"
          ],
          "data": "0x",
          "blockHash": "0xfa10d6450920f29a35b7eb1a7c7f1d481ed92f634dc7f954ba88049c97b7624c",
          "blockNumber": "0x18",
          "blockTimestamp": "0x68d1537f",
          "transactionHash": "0x33f2d93c25c7783b9ed9837f5d97241b6bcf16ee211d4b8b1bbd6ff703a272ab",
          "transactionIndex": "0x0",
          "logIndex": "0xb",
          "removed": false
        },
        {
          "address": "0x94099942864ea81ccf197e9d71ac53310b1468d8",
          "topics": [
            "0xdd0e34038ac38b2a1ce960229778ac48a8719bc900b6c4f8d0475c6e8b385a60",
            "0x00000000000000000000000032467b43bfa67273fc7ddda0999ee9a12f2aaa08"
          ],
          "data": "0x",
          "blockHash": "0xfa10d6450920f29a35b7eb1a7c7f1d481ed92f634dc7f954ba88049c97b7624c",
          "blockNumber": "0x18",
          "blockTimestamp": "0x68d1537f",
          "transactionHash": "0x33f2d93c25c7783b9ed9837f5d97241b6bcf16ee211d4b8b1bbd6ff703a272ab",
          "transactionIndex": "0x0",
          "logIndex": "0xc",
          "removed": false
        },
        {
          "address": "0x94099942864ea81ccf197e9d71ac53310b1468d8",
          "topics": [
            "0xdd0e34038ac38b2a1ce960229778ac48a8719bc900b6c4f8d0475c6e8b385a60",
            "0x0000000000000000000000008e80ffe6dc044f4a766afd6e5a8732fe0977a493"
          ],
          "data": "0x",
          "blockHash": "0xfa10d6450920f29a35b7eb1a7c7f1d481ed92f634dc7f954ba88049c97b7624c",
          "blockNumber": "0x18",
          "blockTimestamp": "0x68d1537f",
          "transactionHash": "0x33f2d93c25c7783b9ed9837f5d97241b6bcf16ee211d4b8b1bbd6ff703a272ab",
          "transactionIndex": "0x0",
          "logIndex": "0xd",
          "removed": false
        },
        {
          "address": "0x94099942864ea81ccf197e9d71ac53310b1468d8",
          "topics": [
            "0xdd0e34038ac38b2a1ce960229778ac48a8719bc900b6c4f8d0475c6e8b385a60",
            "0x000000000000000000000000ae7827c5ee1ad76c688fc03378c82700b3876d82"
          ],
          "data": "0x",
          "blockHash": "0xfa10d6450920f29a35b7eb1a7c7f1d481ed92f634dc7f954ba88049c97b7624c",
          "blockNumber": "0x18",
          "blockTimestamp": "0x68d1537f",
          "transactionHash": "0x33f2d93c25c7783b9ed9837f5d97241b6bcf16ee211d4b8b1bbd6ff703a272ab",
          "transactionIndex": "0x0",
          "logIndex": "0xe",
          "removed": false
        }
      ],
      "logsBloom": "0x00000000000000000000210000000000000000000000000000000000000020008000080000100400000000002000200000004000000000000000000001000000000000400000000800000c00000018000000000000010040002040000000000008100000000041000000000018800000000004000000000020000020400000000000020000000800000000008000008000000204000100000000000220200000000200000000000020100000010000000000000000000000000000000010000010000000000001000001000000040000000000000008000000000000000010000014000000000000100400000000040000001000001000000040000000000000",
      "type": "0x2",
      "transactionHash": "0x33f2d93c25c7783b9ed9837f5d97241b6bcf16ee211d4b8b1bbd6ff703a272ab",
      "transactionIndex": "0x0",
      "blockHash": "0xfa10d6450920f29a35b7eb1a7c7f1d481ed92f634dc7f954ba88049c97b7624c",
      "blockNumber": "0x18",
      "gasUsed": "0x2a22d7",
      "effectiveGasPrice": "0x3e1406f",
      "blobGasPrice": "0x1",
      "from": "0xf39fd6e51aad88f6f4ce6ab8827279cfffb92266",
      "to": "0x5fbdb2315678afecb367f032d93f642f64180aa3",
      "contractAddress": null
    }
  ],
  "libraries": [],
  "pending": [],
  "returns": {},
  "timestamp": 1758548863197,
  "chain": 31337,
  "commit": "7ae1ba5"
}