{
  "transactions": [
    {
      "hash": "0xcc6e58f067ba85812f1aaeaacd4aea70bc6ade72e4701c27392b028f1592f79a",
      "transactionType": "CREATE",
      "contractName": "DssPsm",
      "contractAddress": "0xfc18ab74d3a04a730b767aab241ce5a451dfcb1d",
      "function": null,
      "arguments": [
        "0x43f5e030811411151f709A0796492EEFC34009A0",
        "0x6Ea452dC1105607eC1AB84c643369Dd3356cc251",
        "0x734c4C0e460B1f08E85f8bc1A4bf162C1601f86F"
      ],
      "transaction": {
        "from": "0x8866438f9348f33516040d38a0113531bc9e7e1d",
        "value": "0x0",
        "input": "0x6101606040523480156200001257600080fd5b50604051620012c6380380620012c6833981810160405260608110156200003857600080fd5b508051602080830151604093840151336000818152938490528584206001905594519394919390927fdd0e34038ac38b2a1ce960229778ac48a8719bc900b6c4f8d0475c6e8b385a6091a26000836001600160a01b031660a0816001600160a01b031660601b81525090506000836001600160a01b031660e0816001600160a01b031660601b81525090506000826001600160a01b03166336569e776040518163ffffffff1660e01b815260040160206040518083038186803b158015620000ff57600080fd5b505afa15801562000114573d6000803e3d6000fd5b505050506040513d60208110156200012b57600080fd5b50516001600160601b0319606082901b166080526040805163f4b9fa7560e01b815290516001600160a01b03928316935060009285169163f4b9fa75916004808301926020929190829003018186803b1580156200018857600080fd5b505afa1580156200019d573d6000803e3d6000fd5b505050506040513d6020811015620001b457600080fd5b50516001600160601b0319606082901b1660c052604080516362e7140f60e11b815290516001600160a01b0392831693509186169163c5ce281e91600480820192602092909190829003018186803b1580156200021057600080fd5b505afa15801562000225573d6000803e3d6000fd5b505050506040513d60208110156200023c57600080fd5b5051610100526001600160601b0319606086901b1661012052604080516359de7d4160e11b815290516001600160a01b0386169163b3bcfa82916004808301926020929190829003018186803b1580156200029657600080fd5b505afa158015620002ab573d6000803e3d6000fd5b505050506040513d6020811015620002c257600080fd5b5051601203600a0a610140526040805163095ea7b360e01b81526001600160a01b038881166004830152600019602483015291519183169163095ea7b3916044808201926020929091908290030181600087803b1580156200032357600080fd5b505af115801562000338573d6000803e3d6000fd5b505050506040513d60208110156200034f57600080fd5b5050604080516328ec8bf160e21b81526001600160a01b03888116600483015291519184169163a3b22fc49160248082019260009290919082900301818387803b1580156200039d57600080fd5b505af1158015620003b2573d6000803e3d6000fd5b505050505050505050505060805160601c60a05160601c60c05160601c60e05160601c610100516101205160601c61014051610e56620004706000398061042d528061086d5250806103a252806107765280610a43525080610603528061095e5280610cff5250806105965280610ae75280610cdb5250806104b05280610dae52508061028052806106b752806108f05250806103785280610658528061074652806109b05280610a135280610c3f5280610d3f5250610e566000f3fe608060405234801561001057600080fd5b50600436106100d05760003560e01c806301664f66146100d557806329ae8114146100f957806336569e771461011e578063568d4b6f14610126578063626cb3c51461014057806365fae35e146101485780638d7ef9bb1461016e578063959912761461019a5780639c52a7f1146101c6578063a3b22fc4146101ec578063bf353dbb14610212578063c11645bc14610238578063c5ce281e14610240578063dc4d20fa14610248578063f4b9fa751461026e578063fae036d514610276575b600080fd5b6100dd61027e565b604080516001600160a01b039092168252519081900360200190f35b61011c6004803603604081101561010f57600080fd5b50803590602001356102a2565b005b6100dd610376565b61012e61039a565b60408051918252519081900360200190f35b6100dd6103a0565b61011c6004803603602081101561015e57600080fd5b50356001600160a01b03166103c4565b61011c6004803603604081101561018457600080fd5b506001600160a01b038135169060200135610425565b61011c600480360360408110156101b057600080fd5b506001600160a01b038135169060200135610865565b61011c600480360360208110156101dc57600080fd5b50356001600160a01b0316610bc1565b61011c6004803603602081101561020257600080fd5b50356001600160a01b0316610c21565b61012e6004803603602081101561022857600080fd5b50356001600160a01b0316610cc7565b6100dd610cd9565b61012e610cfd565b61011c6004803603602081101561025e57600080fd5b50356001600160a01b0316610d21565b6100dd610dac565b61012e610dd0565b7f000000000000000000000000000000000000000000000000000000000000000081565b336000908152602081905260409020546001146102be57600080fd5b81623a34b760e91b14156102d657600181905561033c565b81631d1bdd5d60e21b14156102ef57600281905561033c565b6040805162461bcd60e51b815260206004820152601e60248201527f44737350736d2f66696c652d756e7265636f676e697a65642d706172616d0000604482015290519081900360640190fd5b60408051828152905183917fe986e40cc8c151830d4f61050f4fb2e4add8567caad2d5f5496f9158e91fe4c7919081900360200190a25050565b7f000000000000000000000000000000000000000000000000000000000000000081565b60015481565b7f000000000000000000000000000000000000000000000000000000000000000081565b336000908152602081905260409020546001146103e057600080fd5b6001600160a01b03811660008181526020819052604080822060019055517fdd0e34038ac38b2a1ce960229778ac48a8719bc900b6c4f8d0475c6e8b385a609190a250565b6000610451827f0000000000000000000000000000000000000000000000000000000000000000610dd6565b90506000670de0b6b3a764000061046a83600254610dd6565b8161047157fe5b04905060006104808383610e00565b604080516323b872dd60e01b81523360048201523060248201526044810183905290519192506001600160a01b037f000000000000000000000000000000000000000000000000000000000000000016916323b872dd916064808201926020929091908290030181600087803b1580156104f957600080fd5b505af115801561050d573d6000803e3d6000fd5b505050506040513d602081101561052357600080fd5b505161056f576040805162461bcd60e51b81526020600482015260166024820152752239b9a839b697b330b4b632b216ba3930b739b332b960511b604482015290519081900360640190fd5b60408051633b4da69f60e01b81523060048201526024810183905290516001600160a01b037f00000000000000000000000000000000000000000000000000000000000000001691633b4da69f91604480830192600092919082900301818387803b1580156105dd57600080fd5b505af11580156105f1573d6000803e3d6000fd5b505060408051637608870360e01b81527f00000000000000000000000000000000000000000000000000000000000000006004820152306024820181905260448201819052606482015260008781036084830181905260a483015291516001600160a01b037f00000000000000000000000000000000000000000000000000000000000000001694506376088703935060c4808301939282900301818387803b15801561069d57600080fd5b505af11580156106b1573d6000803e3d6000fd5b505050507f00000000000000000000000000000000000000000000000000000000000000006001600160a01b031663ef693bed86866040518363ffffffff1660e01b815260040180836001600160a01b0316815260200182815260200192505050600060405180830381600087803b15801561072c57600080fd5b505af1158015610740573d6000803e3d6000fd5b505050507f00000000000000000000000000000000000000000000000000000000000000006001600160a01b031663bb35783b307f00000000000000000000000000000000000000000000000000000000000000006107aa86676765c793fa10079d601b1b610dd6565b6040518463ffffffff1660e01b815260040180846001600160a01b03168152602001836001600160a01b031681526020018281526020019350505050600060405180830381600087803b15801561080057600080fd5b505af1158015610814573d6000803e3d6000fd5b5050604080518781526020810186905281516001600160a01b038a1694507f085d06ecf4c34b237767a31c0888e121d89546a77f186f1987c6b8715e1a8caa93509081900390910190a25050505050565b6000610891827f0000000000000000000000000000000000000000000000000000000000000000610dd6565b90506000670de0b6b3a76400006108aa83600154610dd6565b816108b157fe5b04905060006108c08383610e10565b6040805163d14b1e4b60e01b81523060048201526024810187905233604482015290519192506001600160a01b037f0000000000000000000000000000000000000000000000000000000000000000169163d14b1e4b9160648082019260009290919082900301818387803b15801561093857600080fd5b505af115801561094c573d6000803e3d6000fd5b505060408051637608870360e01b81527f0000000000000000000000000000000000000000000000000000000000000000600482015230602482018190526044820181905260648201526084810187905260a4810187905290516001600160a01b037f00000000000000000000000000000000000000000000000000000000000000001693506376088703925060c480830192600092919082900301818387803b1580156109f957600080fd5b505af1158015610a0d573d6000803e3d6000fd5b505050507f00000000000000000000000000000000000000000000000000000000000000006001600160a01b031663bb35783b307f0000000000000000000000000000000000000000000000000000000000000000610a7786676765c793fa10079d601b1b610dd6565b6040518463ffffffff1660e01b815260040180846001600160a01b03168152602001836001600160a01b031681526020018281526020019350505050600060405180830381600087803b158015610acd57600080fd5b505af1158015610ae1573d6000803e3d6000fd5b505050507f00000000000000000000000000000000000000000000000000000000000000006001600160a01b031663ef693bed86836040518363ffffffff1660e01b815260040180836001600160a01b0316815260200182815260200192505050600060405180830381600087803b158015610b5c57600080fd5b505af1158015610b70573d6000803e3d6000fd5b5050604080518781526020810186905281516001600160a01b038a1694507fef75f5a47cc9a929968796ceb84f19e7541617b4577f2c228ea95200e157208193509081900390910190a25050505050565b33600090815260208190526040902054600114610bdd57600080fd5b6001600160a01b038116600081815260208190526040808220829055517f184450df2e323acec0ed3b5c7531b81f9b4cdef7914dfd4c0a4317416bb5251b9190a250565b33600090815260208190526040902054600114610c3d57600080fd5b7f00000000000000000000000000000000000000000000000000000000000000006001600160a01b031663a3b22fc4826040518263ffffffff1660e01b815260040180826001600160a01b03168152602001915050600060405180830381600087803b158015610cac57600080fd5b505af1158015610cc0573d6000803e3d6000fd5b5050505050565b60006020819052908152604090205481565b7f000000000000000000000000000000000000000000000000000000000000000081565b7f000000000000000000000000000000000000000000000000000000000000000081565b33600090815260208190526040902054600114610d3d57600080fd5b7f00000000000000000000000000000000000000000000000000000000000000006001600160a01b031663dc4d20fa826040518263ffffffff1660e01b815260040180826001600160a01b03168152602001915050600060405180830381600087803b158015610cac57600080fd5b7f000000000000000000000000000000000000000000000000000000000000000081565b60025481565b6000811580610df157505080820282828281610dee57fe5b04145b610dfa57600080fd5b92915050565b80820182811015610dfa57600080fd5b80820382811115610dfa57600080fdfea264697066735822122088d6c8561583b7aa7a224abf34a56071507ed69e11b952b58a9a406fb5e99cbf64736f6c634300060c003300000000000000000000000043f5e030811411151f709a0796492eefc34009a00000000000000000000000006ea452dc1105607ec1ab84c643369dd3356cc251000000000000000000000000734c4c0e460b1f08e85f8bc1a4bf162c1601f86f",
        "nonce": "0xc8",
        "chainId": "0x161c28"
      },
      "additionalContracts": [],
      "isFixedGasLimit": false
    },
    {
      "hash": "0xe0416b3ce84f0557d68c774a14062cebeb6ecf8a8a8f52605f8473125a633dc2",
      "transactionType": "CALL",
      "contractName": null,
      "contractAddress": "0x43f5e030811411151f709a0796492eefc34009a0",
      "function": "rely(address)",
      "arguments": [
        "0xfc18ab74D3a04A730B767AAB241CE5A451dfCB1d"
      ],
      "transaction": {
        "from": "0x8866438f9348f33516040d38a0113531bc9e7e1d",
        "to": "0x43f5e030811411151f709a0796492eefc34009a0",
        "value": "0x0",
        "input": "0x65fae35e000000000000000000000000fc18ab74d3a04a730b767aab241ce5a451dfcb1d",
        "nonce": "0xc9",
        "chainId": "0x161c28"
      },
      "additionalContracts": [],
      "isFixedGasLimit": false
    },
    {
      "hash": "0xe3e08ac6bea0881cbb5468a4284dfbab68703a5c220b37c960a0f20df8591405",
      "transactionType": "CALL",
      "contractName": "DssPsm",
      "contractAddress": "0xfc18ab74d3a04a730b767aab241ce5a451dfcb1d",
      "function": "file(bytes32,uint256)",
      "arguments": [
        "0x74696e0000000000000000000000000000000000000000000000000000000000",
        "0"
      ],
      "transaction": {
        "from": "0x8866438f9348f33516040d38a0113531bc9e7e1d",
        "to": "0xfc18ab74d3a04a730b767aab241ce5a451dfcb1d",
        "value": "0x0",
        "input": "0x29ae811474696e00000000000000000000000000000000000000000000000000000000000000000000000000000000000000000000000000000000000000000000000000",
        "nonce": "0xca",
        "chainId": "0x161c28"
      },
      "additionalContracts": [],
      "isFixedGasLimit": false
    },
    {
      "hash": "0x9ff79c4eb5db6cb84ae2d4e978e2638a49e375a35358843fb0c71e3354f6fca3",
      "transactionType": "CALL",
      "contractName": "DssPsm",
      "contractAddress": "0xfc18ab74d3a04a730b767aab241ce5a451dfcb1d",
      "function": "file(bytes32,uint256)",
      "arguments": [
        "0x746f757400000000000000000000000000000000000000000000000000000000",
        "0"
      ],
      "transaction": {
        "from": "0x8866438f9348f33516040d38a0113531bc9e7e1d",
        "to": "0xfc18ab74d3a04a730b767aab241ce5a451dfcb1d",
        "value": "0x0",
        "input": "0x29ae8114746f7574000000000000000000000000000000000000000000000000000000000000000000000000000000000000000000000000000000000000000000000000",
        "nonce": "0xcb",
        "chainId": "0x161c28"
      },
      "additionalContracts": [],
      "isFixedGasLimit": false
    }
  ],
  "receipts": [
    {
      "status": "0x1",
      "cumulativeGasUsed": "0xe6014",
      "logs": [
        {
          "address": "0xfc18ab74d3a04a730b767aab241ce5a451dfcb1d",
          "topics": [
            "0xdd0e34038ac38b2a1ce960229778ac48a8719bc900b6c4f8d0475c6e8b385a60",
            "0x0000000000000000000000008866438f9348f33516040d38a0113531bc9e7e1d"
          ],
          "data": "0x",
          "blockHash": "0x78e8b7350047a0685cf30052706c566741877d97f867a9c369afd0cc24e1d8f2",
          "blockNumber": "0x33af96",
          "transactionHash": "0xcc6e58f067ba85812f1aaeaacd4aea70bc6ade72e4701c27392b028f1592f79a",
          "transactionIndex": "0x0",
          "logIndex": "0x0",
          "removed": false
        },
        {
          "address": "0xb6202dd8d51598c18e1e277093b7468f943cd9fb",
          "topics": [
            "0x8c5be1e5ebec7d5bd14f71427d1e84f3dd0314c0f7b2291e5b200ac8c7c3b925",
            "0x000000000000000000000000fc18ab74d3a04a730b767aab241ce5a451dfcb1d",
            "0x0000000000000000000000006ea452dc1105607ec1ab84c643369dd3356cc251"
          ],
          "data": "0xffffffffffffffffffffffffffffffffffffffffffffffffffffffffffffffff",
          "blockHash": "0x78e8b7350047a0685cf30052706c566741877d97f867a9c369afd0cc24e1d8f2",
          "blockNumber": "0x33af96",
          "transactionHash": "0xcc6e58f067ba85812f1aaeaacd4aea70bc6ade72e4701c27392b028f1592f79a",
          "transactionIndex": "0x0",
          "logIndex": "0x1",
          "removed": false
        }
      ],
      "logsBloom": "0x00000000000000000000000000000000000000000000000000000000000000000000000000000000000000000000000000004000000000000000000000200000000000400000000000000200000000000000400000000000000000000000000000000000000000000000000000000004004000400000000000000000000000000004000000000000000010000000000000000000000000000000000010000000020000000000000000004000000020100000000000000000000000000001000000000000000000000000040000000400000000000000000000000000000010000010000000040000000000000000000000000000000000000000000000000000",
      "type": "0x2",
      "transactionHash": "0xcc6e58f067ba85812f1aaeaacd4aea70bc6ade72e4701c27392b028f1592f79a",
      "transactionIndex": "0x0",
      "blockHash": "0x78e8b7350047a0685cf30052706c566741877d97f867a9c369afd0cc24e1d8f2",
      "blockNumber": "0x33af96",
      "gasUsed": "0xe6014",
      "effectiveGasPrice": "0x4cd5886400",
      "from": "0x8866438f9348f33516040d38a0113531bc9e7e1d",
      "to": null,
      "contractAddress": "0xfc18ab74d3a04a730b767aab241ce5a451dfcb1d"
    },
    {
      "status": "0x1",
      "cumulativeGasUsed": "0x54c23",
      "logs": [
        {
          "address": "0x43f5e030811411151f709a0796492eefc34009a0",
          "topics": [
            "0xdd0e34038ac38b2a1ce960229778ac48a8719bc900b6c4f8d0475c6e8b385a60",
            "0x000000000000000000000000fc18ab74d3a04a730b767aab241ce5a451dfcb1d"
          ],
          "data": "0x",
          "blockHash": "0xacdddcff44ec221065ca722622b9461ec47ddae4512801fb9c272aa817e12fa9",
          "blockNumber": "0x33af97",
          "transactionHash": "0xe0416b3ce84f0557d68c774a14062cebeb6ecf8a8a8f52605f8473125a633dc2",
          "transactionIndex": "0x3",
          "logIndex": "0x0",
          "removed": false
        }
      ],
      "logsBloom": "0x00000000000000000000000000000000000000000000000000000000000000000000000000000000000000000000000000004000000000000000000000000000000000400000000000000000000000000000000000000000000000000000000000000000000000000000000000000000004000000000000000000000000000000000000000000000040000000000000000000000000000000000000000000000000000000000000000000000000000000000000000000000000000000001000000000000000000000000000000000400000000000000000000000000000010000000004000000002000000000000000000000000000000000000000000000000",
      "type": "0x2",
      "transactionHash": "0xe0416b3ce84f0557d68c774a14062cebeb6ecf8a8a8f52605f8473125a633dc2",
      "transactionIndex": "0x3",
      "blockHash": "0xacdddcff44ec221065ca722622b9461ec47ddae4512801fb9c272aa817e12fa9",
      "blockNumber": "0x33af97",
      "gasUsed": "0xb843",
      "effectiveGasPrice": "0x4cd5886400",
      "from": "0x8866438f9348f33516040d38a0113531bc9e7e1d",
      "to": "0x43f5e030811411151f709a0796492eefc34009a0",
      "contractAddress": null
    },
    {
      "status": "0x1",
      "cumulativeGasUsed": "0x6b3b",
      "logs": [
        {
          "address": "0xfc18ab74d3a04a730b767aab241ce5a451dfcb1d",
          "topics": [
            "0xe986e40cc8c151830d4f61050f4fb2e4add8567caad2d5f5496f9158e91fe4c7",
            "0x74696e0000000000000000000000000000000000000000000000000000000000"
          ],
          "data": "0x0000000000000000000000000000000000000000000000000000000000000000",
          "blockHash": "0xa7ca35ae394190fc9db15762b7663b32ec92fbe22ded4f7e2b56768a7438969e",
          "blockNumber": "0x33af98",
          "transactionHash": "0xe3e08ac6bea0881cbb5468a4284dfbab68703a5c220b37c960a0f20df8591405",
          "transactionIndex": "0x0",
          "logIndex": "0x0",
          "removed": false
        }
      ],
      "logsBloom": "0x00000000000000000000000000008000000000000000000000000000000000000000000000400000000000000000000000000000000000000000000000000000000000000000000000000000000000000000400000000000000000000000000000000000000000000000000000000000000000000000000000000000000000000000000000000000000000000000000000000200000000000000000200000000000000000040000000004000000020000000000000000000000000000000000000000000000000000001000000000000000000000000000000000000000000000000000000000000000000000000000000000000000000000000000000000000",
      "type": "0x2",
      "transactionHash": "0xe3e08ac6bea0881cbb5468a4284dfbab68703a5c220b37c960a0f20df8591405",
      "transactionIndex": "0x0",
      "blockHash": "0xa7ca35ae394190fc9db15762b7663b32ec92fbe22ded4f7e2b56768a7438969e",
      "blockNumber": "0x33af98",
      "gasUsed": "0x6b3b",
      "effectiveGasPrice": "0x4cd5886400",
      "from": "0x8866438f9348f33516040d38a0113531bc9e7e1d",
      "to": "0xfc18ab74d3a04a730b767aab241ce5a451dfcb1d",
      "contractAddress": null
    },
    {
      "status": "0x1",
      "cumulativeGasUsed": "0x6b67",
      "logs": [
        {
          "address": "0xfc18ab74d3a04a730b767aab241ce5a451dfcb1d",
          "topics": [
            "0xe986e40cc8c151830d4f61050f4fb2e4add8567caad2d5f5496f9158e91fe4c7",
            "0x746f757400000000000000000000000000000000000000000000000000000000"
          ],
          "data": "0x0000000000000000000000000000000000000000000000000000000000000000",
          "blockHash": "0x2369cfc3db7ac1d714055cd9495b86a2536cb7bfe9e087fb117b23b92014460b",
          "blockNumber": "0x33af99",
          "transactionHash": "0x9ff79c4eb5db6cb84ae2d4e978e2638a49e375a35358843fb0c71e3354f6fca3",
          "transactionIndex": "0x0",
          "logIndex": "0x0",
          "removed": false
        }
      ],
      "logsBloom": "0x00000000000000000000000000000000000000000000000000000000000000000000000000000000000000000000000000000000000000000000000000000000000000000000000010000000000000000000400000000000000000000000000000000000000000000000000000000000000000000000000000000000000000000000000000000000000000000000000000000200200000000000000200000000000000000000000000004000000020000000000000000000000000000000000000000000000000000001000000000000000000000000000000000000000080000000000000000000000000000000000000000000000000000000000000000000",
      "type": "0x2",
      "transactionHash": "0x9ff79c4eb5db6cb84ae2d4e978e2638a49e375a35358843fb0c71e3354f6fca3",
      "transactionIndex": "0x0",
      "blockHash": "0x2369cfc3db7ac1d714055cd9495b86a2536cb7bfe9e087fb117b23b92014460b",
      "blockNumber": "0x33af99",
      "gasUsed": "0x6b67",
      "effectiveGasPrice": "0x4cd5886400",
      "from": "0x8866438f9348f33516040d38a0113531bc9e7e1d",
      "to": "0xfc18ab74d3a04a730b767aab241ce5a451dfcb1d",
      "contractAddress": null
    }
  ],
  "libraries": [],
  "pending": [],
  "returns": {},
  "timestamp": 1759238902384,
  "chain": 1449000,
  "commit": "91aff73"
}