{
  "transactions": [
    {
      "hash": "0xca36bdd68cd000c6d480c02fb017eb6b3b077fe91679e1e4ceef269a290b9d40",
      "transactionType": "CALL",
      "contractName": null,
      "contractAddress": "0x7816527746f0ade226986e02cf6cc70cf287ff61",
      "function": "drip(bytes32)",
      "arguments": [
        "0x5852502d41000000000000000000000000000000000000000000000000000000"
      ],
      "transaction": {
        "from": "0x8866438f9348f33516040d38a0113531bc9e7e1d",
        "to": "0x7816527746f0ade226986e02cf6cc70cf287ff61",
        "value": "0x0",
        "input": "0x44e2a5a85852502d41000000000000000000000000000000000000000000000000000000",
        "nonce": "0x193",
        "chainId": "0x161c28"
      },
      "additionalContracts": [],
      "isFixedGasLimit": false
    },
    {
      "hash": "0xc546f086f6dc827783002f48b666f2fe6d99d079fbc100e765b845a00485ad04",
      "transactionType": "CALL",
      "contractName": null,
      "contractAddress": "0xbcacd0124f64017c58c151dc5734bc64622c6a75",
      "function": "file(bytes32,bytes32,uint256)",
      "arguments": [
        "0x5852502d41000000000000000000000000000000000000000000000000000000",
        "0x6d61740000000000000000000000000000000000000000000000000000000000",
        "1500000000000000000000000000"
      ],
      "transaction": {
        "from": "0x8866438f9348f33516040d38a0113531bc9e7e1d",
        "to": "0xbcacd0124f64017c58c151dc5734bc64622c6a75",
        "value": "0x0",
        "input": "0x1a0b287e5852502d410000000000000000000000000000000000000000000000000000006d61740000000000000000000000000000000000000000000000000000000000000000000000000000000000000000000000000004d8c55aefb8c05b5c000000",
        "nonce": "0x194",
        "chainId": "0x161c28"
      },
      "additionalContracts": [],
      "isFixedGasLimit": false
    },
    {
      "hash": "0xbdc021b2c98f1b94642ef93d8e84cf7fe3afc759c83955fce2c061a1b51285ed",
      "transactionType": "CALL",
      "contractName": null,
      "contractAddress": "0x9e8860db73d093464ee2b5a1fe6f63b09f70e8c1",
      "function": "file(bytes32,bytes32,uint256)",
      "arguments": [
        "0x5852502d41000000000000000000000000000000000000000000000000000000",
        "0x6c696e6500000000000000000000000000000000000000000000000000000000",
        "5000000000000000000000000000000000000000000000000000"
      ],
      "transaction": {
        "from": "0x8866438f9348f33516040d38a0113531bc9e7e1d",
        "to": "0x9e8860db73d093464ee2b5a1fe6f63b09f70e8c1",
        "value": "0x0",
        "input": "0x1a0b287e5852502d410000000000000000000000000000000000000000000000000000006c696e6500000000000000000000000000000000000000000000000000000000000000000000000000000d5d238a4abe9806872a4904598d6d88000000000000",
        "nonce": "0x195",
        "chainId": "0x161c28"
      },
      "additionalContracts": [],
      "isFixedGasLimit": false
    },
    {
      "hash": "0xa1bf4762fa8a42dc8219b73d214b8fb9be85eb3fa95069d7073eb7cc8cc5d89c",
      "transactionType": "CALL",
      "contractName": null,
      "contractAddress": "0x9e8860db73d093464ee2b5a1fe6f63b09f70e8c1",
      "function": "file(bytes32,uint256)",
      "arguments": [
        "0x4c696e6500000000000000000000000000000000000000000000000000000000",
        "5000000000000000000000000000000000000000000000000000"
      ],
      "transaction": {
        "from": "0x8866438f9348f33516040d38a0113531bc9e7e1d",
        "to": "0x9e8860db73d093464ee2b5a1fe6f63b09f70e8c1",
        "value": "0x0",
        "input": "0x29ae81144c696e6500000000000000000000000000000000000000000000000000000000000000000000000000000d5d238a4abe9806872a4904598d6d88000000000000",
        "nonce": "0x196",
        "chainId": "0x161c28"
      },
      "additionalContracts": [],
      "isFixedGasLimit": false
    },
    {
      "hash": "0x6c5f8d4825b0ec825c02f0c72f91e2829acbb2588f6c61aff226bebf58a81e8c",
      "transactionType": "CALL",
      "contractName": null,
      "contractAddress": "0x9e8860db73d093464ee2b5a1fe6f63b09f70e8c1",
      "function": "file(bytes32,bytes32,uint256)",
      "arguments": [
        "0x5852502d41000000000000000000000000000000000000000000000000000000",
        "0x6475737400000000000000000000000000000000000000000000000000000000",
        "5000000000000000000000000000000000000000000000"
      ],
      "transaction": {
        "from": "0x8866438f9348f33516040d38a0113531bc9e7e1d",
        "to": "0x9e8860db73d093464ee2b5a1fe6f63b09f70e8c1",
        "value": "0x0",
        "input": "0x1a0b287e5852502d41000000000000000000000000000000000000000000000000000000647573740000000000000000000000000000000000000000000000000000000000000000000000000000000000e0352f62a19e306ed50b2037ad200000000000",
        "nonce": "0x197",
        "chainId": "0x161c28"
      },
      "additionalContracts": [],
      "isFixedGasLimit": false
    },
    {
      "hash": "0x1f948e5cca26cbf8a4e01c872eb9ffba824050b02f6076e9dd0d0410e0d51e0c",
      "transactionType": "CALL",
      "contractName": null,
      "contractAddress": "0xed17d8734b9ef097ad190bb4bd539dfc98218c06",
      "function": "file(bytes32,uint256)",
      "arguments": [
        "0x486f6c6500000000000000000000000000000000000000000000000000000000",
        "5000000000000000000000000000000000000000000000000000"
      ],
      "transaction": {
        "from": "0x8866438f9348f33516040d38a0113531bc9e7e1d",
        "to": "0xed17d8734b9ef097ad190bb4bd539dfc98218c06",
        "value": "0x0",
        "input": "0x29ae8114486f6c6500000000000000000000000000000000000000000000000000000000000000000000000000000d5d238a4abe9806872a4904598d6d88000000000000",
        "nonce": "0x198",
        "chainId": "0x161c28"
      },
      "additionalContracts": [],
      "isFixedGasLimit": false
    },
    {
      "hash": "0x4bea701d4267c65db97f5d2f24798709b73b7fb0b8a9cfab7fcb4e61a94aaaec",
      "transactionType": "CALL",
      "contractName": null,
      "contractAddress": "0xed17d8734b9ef097ad190bb4bd539dfc98218c06",
      "function": "file(bytes32,bytes32,uint256)",
      "arguments": [
        "0x5852502d41000000000000000000000000000000000000000000000000000000",
        "0x686f6c6500000000000000000000000000000000000000000000000000000000",
        "5000000000000000000000000000000000000000000000000000"
      ],
      "transaction": {
        "from": "0x8866438f9348f33516040d38a0113531bc9e7e1d",
        "to": "0xed17d8734b9ef097ad190bb4bd539dfc98218c06",
        "value": "0x0",
        "input": "0x1a0b287e5852502d41000000000000000000000000000000000000000000000000000000686f6c6500000000000000000000000000000000000000000000000000000000000000000000000000000d5d238a4abe9806872a4904598d6d88000000000000",
        "nonce": "0x199",
        "chainId": "0x161c28"
      },
      "additionalContracts": [],
      "isFixedGasLimit": false
    },
    {
      "hash": "0x0faa2cc2049b1392c093ab3046e9ae54df7a0fdfc7c86e8409d83fb4ab0c93fa",
      "transactionType": "CALL",
      "contractName": null,
      "contractAddress": "0xbcacd0124f64017c58c151dc5734bc64622c6a75",
      "function": "poke(bytes32)",
      "arguments": [
        "0x5852502d41000000000000000000000000000000000000000000000000000000"
      ],
      "transaction": {
        "from": "0x8866438f9348f33516040d38a0113531bc9e7e1d",
        "to": "0xbcacd0124f64017c58c151dc5734bc64622c6a75",
        "value": "0x0",
        "input": "0x1504460f5852502d41000000000000000000000000000000000000000000000000000000",
        "nonce": "0x19a",
        "chainId": "0x161c28"
      },
      "additionalContracts": [],
      "isFixedGasLimit": false
    }
  ],
  "receipts": [
    {
      "status": "0x1",
      "cumulativeGasUsed": "0xf427",
      "logs": [],
      "logsBloom": "0x00000000000000000000000000000000000000000000000000000000000000000000000000000000000000000000000000000000000000000000000000000000000000000000000000000000000000000000000000000000000000000000000000000000000000000000000000000000000000000000000000000000000000000000000000000000000000000000000000000000000000000000000000000000000000000000000000000000000000000000000000000000000000000000000000000000000000000000000000000000000000000000000000000000000000000000000000000000000000000000000000000000000000000000000000000000",
      "type": "0x2",
      "transactionHash": "0xca36bdd68cd000c6d480c02fb017eb6b3b077fe91679e1e4ceef269a290b9d40",
      "transactionIndex": "0x0",
      "blockHash": "0xe618c4ea3104540b362e07cca3af5fb3658e6d07700578853e56c7bd1de1cb96",
      "blockNumber": "0x33e33d",
      "gasUsed": "0xf427",
      "effectiveGasPrice": "0x4cd5886400",
      "from": "0x8866438f9348f33516040d38a0113531bc9e7e1d",
      "to": "0x7816527746f0ade226986e02cf6cc70cf287ff61",
      "contractAddress": null
    },
    {
      "status": "0x1",
      "cumulativeGasUsed": "0x6f69",
      "logs": [],
      "logsBloom": "0x00000000000000000000000000000000000000000000000000000000000000000000000000000000000000000000000000000000000000000000000000000000000000000000000000000000000000000000000000000000000000000000000000000000000000000000000000000000000000000000000000000000000000000000000000000000000000000000000000000000000000000000000000000000000000000000000000000000000000000000000000000000000000000000000000000000000000000000000000000000000000000000000000000000000000000000000000000000000000000000000000000000000000000000000000000000",
      "type": "0x2",
      "transactionHash": "0xc546f086f6dc827783002f48b666f2fe6d99d079fbc100e765b845a00485ad04",
      "transactionIndex": "0x0",
      "blockHash": "0x9918bfa0154c8382ac68053b131c01ce8d5314fae30e64404a5566ac10f590f4",
      "blockNumber": "0x33e33e",
      "gasUsed": "0x6f69",
      "effectiveGasPrice": "0x4cd5886400",
      "from": "0x8866438f9348f33516040d38a0113531bc9e7e1d",
      "to": "0xbcacd0124f64017c58c151dc5734bc64622c6a75",
      "contractAddress": null
    },
    {
      "status": "0x1",
      "cumulativeGasUsed": "0x1f683",
      "logs": [],
      "logsBloom": "0x00000000000000000000000000000000000000000000000000000000000000000000000000000000000000000000000000000000000000000000000000000000000000000000000000000000000000000000000000000000000000000000000000000000000000000000000000000000000000000000000000000000000000000000000000000000000000000000000000000000000000000000000000000000000000000000000000000000000000000000000000000000000000000000000000000000000000000000000000000000000000000000000000000000000000000000000000000000000000000000000000000000000000000000000000000000",
      "type": "0x2",
      "transactionHash": "0xbdc021b2c98f1b94642ef93d8e84cf7fe3afc759c83955fce2c061a1b51285ed",
      "transactionIndex": "0x1",
      "blockHash": "0x16eb0aa441181be0d9d65ff668e54edaaad6bfa0a893ab58988c05c9703108b3",
      "blockNumber": "0x33e33f",
      "gasUsed": "0x6fe3",
      "effectiveGasPrice": "0x4cd5886400",
      "from": "0x8866438f9348f33516040d38a0113531bc9e7e1d",
      "to": "0x9e8860db73d093464ee2b5a1fe6f63b09f70e8c1",
      "contractAddress": null
    },
    {
      "status": "0x1",
      "cumulativeGasUsed": "0x6edc",
      "logs": [],
      "logsBloom": "0x00000000000000000000000000000000000000000000000000000000000000000000000000000000000000000000000000000000000000000000000000000000000000000000000000000000000000000000000000000000000000000000000000000000000000000000000000000000000000000000000000000000000000000000000000000000000000000000000000000000000000000000000000000000000000000000000000000000000000000000000000000000000000000000000000000000000000000000000000000000000000000000000000000000000000000000000000000000000000000000000000000000000000000000000000000000",
      "type": "0x2",
      "transactionHash": "0xa1bf4762fa8a42dc8219b73d214b8fb9be85eb3fa95069d7073eb7cc8cc5d89c",
      "transactionIndex": "0x0",
      "blockHash": "0x3b7097cf826bfbdcf447a12f7fc4f3b3332acf52a524141b97a06c6ee63ec76b",
      "blockNumber": "0x33e340",
      "gasUsed": "0x6edc",
      "effectiveGasPrice": "0x4cd5886400",
      "from": "0x8866438f9348f33516040d38a0113531bc9e7e1d",
      "to": "0x9e8860db73d093464ee2b5a1fe6f63b09f70e8c1",
      "contractAddress": null
    },
    {
      "status": "0x1",
      "cumulativeGasUsed": "0x7adb",
      "logs": [],
      "logsBloom": "0x00000000000000000000000000000000000000000000000000000000000000000000000000000000000000000000000000000000000000000000000000000000000000000000000000000000000000000000000000000000000000000000000000000000000000000000000000000000000000000000000000000000000000000000000000000000000000000000000000000000000000000000000000000000000000000000000000000000000000000000000000000000000000000000000000000000000000000000000000000000000000000000000000000000000000000000000000000000000000000000000000000000000000000000000000000000",
      "type": "0x2",
      "transactionHash": "0x6c5f8d4825b0ec825c02f0c72f91e2829acbb2588f6c61aff226bebf58a81e8c",
      "transactionIndex": "0x0",
      "blockHash": "0xe9deea412041fda84e89f98d00384bde2d7ba5085ba76eecefb5e60eeca5dd27",
      "blockNumber": "0x33e341",
      "gasUsed": "0x7adb",
      "effectiveGasPrice": "0x4cd5886400",
      "from": "0x8866438f9348f33516040d38a0113531bc9e7e1d",
      "to": "0x9e8860db73d093464ee2b5a1fe6f63b09f70e8c1",
      "contractAddress": null
    },
    {
      "status": "0x1",
      "cumulativeGasUsed": "0xeaef",
      "logs": [
        {
          "address": "0xed17d8734b9ef097ad190bb4bd539dfc98218c06",
          "topics": [
            "0xe986e40cc8c151830d4f61050f4fb2e4add8567caad2d5f5496f9158e91fe4c7",
            "0x486f6c6500000000000000000000000000000000000000000000000000000000"
          ],
          "data": "0x000000000000000000000d5d238a4abe9806872a4904598d6d88000000000000",
          "blockHash": "0xd8f64a9ba0e79da97966d82cc3637296e2c340fa563d0fe867d829276cb344c7",
          "blockNumber": "0x33e342",
          "transactionHash": "0x1f948e5cca26cbf8a4e01c872eb9ffba824050b02f6076e9dd0d0410e0d51e0c",
          "transactionIndex": "0x1",
          "logIndex": "0x1",
          "removed": false
        }
      ],
      "logsBloom": "0x00000000000000000000000000000000000000000000000000000000000000000000000000000000000000002000000000000000000000000000000000000000000000000000000000000000000000000010000000000000000000000000000000000000000000000000000000001000000000000000000000000000000000000000000000000000000000000000000000000200000000000000000200000000000000000000000000000000000000000000000000000000000000000000000080000000000000000001000000000000000000000000000000000000000000000000000000000000000000000100000000000000400000000000000000000000",
      "type": "0x2",
      "transactionHash": "0x1f948e5cca26cbf8a4e01c872eb9ffba824050b02f6076e9dd0d0410e0d51e0c",
      "transactionIndex": "0x1",
      "blockHash": "0xd8f64a9ba0e79da97966d82cc3637296e2c340fa563d0fe867d829276cb344c7",
      "blockNumber": "0x33e342",
      "gasUsed": "0x6bfb",
      "effectiveGasPrice": "0x4cd5886400",
      "from": "0x8866438f9348f33516040d38a0113531bc9e7e1d",
      "to": "0xed17d8734b9ef097ad190bb4bd539dfc98218c06",
      "contractAddress": null
    },
    {
      "status": "0x1",
      "cumulativeGasUsed": "0x6ea0",
      "logs": [
        {
          "address": "0xed17d8734b9ef097ad190bb4bd539dfc98218c06",
          "topics": [
            "0x851aa1caf4888170ad8875449d18f0f512fd6deb2a6571ea1a41fb9f95acbcd1",
            "0x5852502d41000000000000000000000000000000000000000000000000000000",
            "0x686f6c6500000000000000000000000000000000000000000000000000000000"
          ],
          "data": "0x000000000000000000000d5d238a4abe9806872a4904598d6d88000000000000",
          "blockHash": "0x618e475ce533e5eb449f0009f5c90d9f026d0a3f6c3e6d52da29768c83410ce7",
          "blockNumber": "0x33e343",
          "transactionHash": "0x4bea701d4267c65db97f5d2f24798709b73b7fb0b8a9cfab7fcb4e61a94aaaec",
          "transactionIndex": "0x0",
          "logIndex": "0x0",
          "removed": false
        }
      ],
      "logsBloom": "0x00000000000000000000000000000000000000000000000000000000000000000000000000000000000000000000000000000000000000000000000000000000000000000000000000000000000000000000000000000001000000000000000000000000000000000000000000000000000000000000000000000000020000000000000000004000000000000000000000000000000000000000000000000000000000000000000400000000000000000000000000000000000000000020000080000000000000000000000000000000000000001000000000000000000000000010000000000000000000000100000000000040400800000000000000000000",
      "type": "0x2",
      "transactionHash": "0x4bea701d4267c65db97f5d2f24798709b73b7fb0b8a9cfab7fcb4e61a94aaaec",
      "transactionIndex": "0x0",
      "blockHash": "0x618e475ce533e5eb449f0009f5c90d9f026d0a3f6c3e6d52da29768c83410ce7",
      "blockNumber": "0x33e343",
      "gasUsed": "0x6ea0",
      "effectiveGasPrice": "0x4cd5886400",
      "from": "0x8866438f9348f33516040d38a0113531bc9e7e1d",
      "to": "0xed17d8734b9ef097ad190bb4bd539dfc98218c06",
      "contractAddress": null
    },
    {
      "status": "0x1",
      "cumulativeGasUsed": "0xb861",
      "logs": [
        {
          "address": "0xbcacd0124f64017c58c151dc5734bc64622c6a75",
          "topics": [
            "0xdfd7467e425a8107cfd368d159957692c25085aacbcf5228ce08f10f2146486e"
          ],
          "data": "0x5852502d410000000000000000000000000000000000000000000000000000000000000000000000000000000000000000000000000000056bc75e2d631000000000000000000000000000000000000000000000d7695fc99e4c0fdc6aaaaaaa",
          "blockHash": "0xd8c40dec8e7834492ed5b54eab939740f1c443de5eb8dad11f9c547fa2efa2d0",
          "blockNumber": "0x33e344",
          "transactionHash": "0x0faa2cc2049b1392c093ab3046e9ae54df7a0fdfc7c86e8409d83fb4ab0c93fa",
          "transactionIndex": "0x0",
          "logIndex": "0x0",
          "removed": false
        }
      ],
      "logsBloom": "0x00000000000000000000000000040000000000000000000000000000000000000004000000000000000000000000000000000000000000000000000000000000000000000000000000000000000000000000000000000000000000000000000000000000000000000400000000000000000000000000000000002000000000000000000000000000000000000000000000000000000000000000000000000000000080000000000000000000000000000000000000000000000000000000000000200000000000000000000000000000000000000000000000000000000000000000000000000000000000000000000000000000000000000000000000000000",
      "type": "0x2",
      "transactionHash": "0x0faa2cc2049b1392c093ab3046e9ae54df7a0fdfc7c86e8409d83fb4ab0c93fa",
      "transactionIndex": "0x0",
      "blockHash": "0xd8c40dec8e7834492ed5b54eab939740f1c443de5eb8dad11f9c547fa2efa2d0",
      "blockNumber": "0x33e344",
      "gasUsed": "0xb861",
      "effectiveGasPrice": "0x4cd5886400",
      "from": "0x8866438f9348f33516040d38a0113531bc9e7e1d",
      "to": "0xbcacd0124f64017c58c151dc5734bc64622c6a75",
      "contractAddress": null
    }
  ],
  "libraries": [],
  "pending": [],
  "returns": {},
  "timestamp": 1759314036661,
  "chain": 1449000,
  "commit": "f678a5b"
}