{
  "transactions": [
    {
      "hash": "0x107e63440566a0cc313e6ba588f168dcb58c8ae77bc727f65a90347cf2beb917",
      "transactionType": "CALL",
      "contractName": null,
      "contractAddress": "0x7816527746f0ade226986e02cf6cc70cf287ff61",
      "function": "drip(bytes32)",
      "arguments": [
        "0x5852502d410a0000000000000000000000000000000000000000000000000000"
      ],
      "transaction": {
        "from": "0x8866438f9348f33516040d38a0113531bc9e7e1d",
        "to": "0x7816527746f0ade226986e02cf6cc70cf287ff61",
        "value": "0x0",
        "input": "0x44e2a5a85852502d410a0000000000000000000000000000000000000000000000000000",
        "nonce": "0x89",
        "chainId": "0x161c28"
      },
      "additionalContracts": [],
      "isFixedGasLimit": false
    },
    {
      "hash": "0x80b5f66d14275f568b1460f7eaa4425d439b012268dc66ea3aec670c68541e34",
      "transactionType": "CALL",
      "contractName": null,
      "contractAddress": "0xbcacd0124f64017c58c151dc5734bc64622c6a75",
      "function": "file(bytes32,bytes32,uint256)",
      "arguments": [
        "0x5852502d410a0000000000000000000000000000000000000000000000000000",
        "0x6d61740000000000000000000000000000000000000000000000000000000000",
        "1500000000000000000000000000"
      ],
      "transaction": {
        "from": "0x8866438f9348f33516040d38a0113531bc9e7e1d",
        "to": "0xbcacd0124f64017c58c151dc5734bc64622c6a75",
        "value": "0x0",
        "input": "0x1a0b287e5852502d410a00000000000000000000000000000000000000000000000000006d61740000000000000000000000000000000000000000000000000000000000000000000000000000000000000000000000000004d8c55aefb8c05b5c000000",
        "nonce": "0x8a",
        "chainId": "0x161c28"
      },
      "additionalContracts": [],
      "isFixedGasLimit": false
    },
    {
      "hash": "0x8bdc6611e3c4210b4dcf42b7bf166692dee43f892151d6dcdb6b17789e13ad0f",
      "transactionType": "CALL",
      "contractName": null,
      "contractAddress": "0x9e8860db73d093464ee2b5a1fe6f63b09f70e8c1",
      "function": "file(bytes32,bytes32,uint256)",
      "arguments": [
        "0x5852502d410a0000000000000000000000000000000000000000000000000000",
        "0x6c696e6500000000000000000000000000000000000000000000000000000000",
        "5000000000000000000000000000000000000000000000000000"
      ],
      "transaction": {
        "from": "0x8866438f9348f33516040d38a0113531bc9e7e1d",
        "to": "0x9e8860db73d093464ee2b5a1fe6f63b09f70e8c1",
        "value": "0x0",
        "input": "0x1a0b287e5852502d410a00000000000000000000000000000000000000000000000000006c696e6500000000000000000000000000000000000000000000000000000000000000000000000000000d5d238a4abe9806872a4904598d6d88000000000000",
        "nonce": "0x8b",
        "chainId": "0x161c28"
      },
      "additionalContracts": [],
      "isFixedGasLimit": false
    },
    {
      "hash": "0x89be6328980f7f102ce37ecd01d9a121b1bd3f5c22b01476a0e16544a9785c30",
      "transactionType": "CALL",
      "contractName": null,
      "contractAddress": "0x9e8860db73d093464ee2b5a1fe6f63b09f70e8c1",
      "function": "file(bytes32,uint256)",
      "arguments": [
        "0x4c696e6500000000000000000000000000000000000000000000000000000000",
        "5000000000000000000000000000000000000000000000000000"
      ],
      "transaction": {
        "from": "0x8866438f9348f33516040d38a0113531bc9e7e1d",
        "to": "0x9e8860db73d093464ee2b5a1fe6f63b09f70e8c1",
        "value": "0x0",
        "input": "0x29ae81144c696e6500000000000000000000000000000000000000000000000000000000000000000000000000000d5d238a4abe9806872a4904598d6d88000000000000",
        "nonce": "0x8c",
        "chainId": "0x161c28"
      },
      "additionalContracts": [],
      "isFixedGasLimit": false
    },
    {
      "hash": "0xae1f3173042e5ff316505328f10e07f303986085d325b1a01199b1fedf31aaa0",
      "transactionType": "CALL",
      "contractName": null,
      "contractAddress": "0x9e8860db73d093464ee2b5a1fe6f63b09f70e8c1",
      "function": "file(bytes32,bytes32,uint256)",
      "arguments": [
        "0x5852502d410a0000000000000000000000000000000000000000000000000000",
        "0x6475737400000000000000000000000000000000000000000000000000000000",
        "50000000000000000000000000000000000000000000000"
      ],
      "transaction": {
        "from": "0x8866438f9348f33516040d38a0113531bc9e7e1d",
        "to": "0x9e8860db73d093464ee2b5a1fe6f63b09f70e8c1",
        "value": "0x0",
        "input": "0x1a0b287e5852502d410a0000000000000000000000000000000000000000000000000000647573740000000000000000000000000000000000000000000000000000000000000000000000000000000008c213d9da502de454526f422cc3400000000000",
        "nonce": "0x8d",
        "chainId": "0x161c28"
      },
      "additionalContracts": [],
      "isFixedGasLimit": false
    },
    {
      "hash": "0x99c837c908f6fc9cd8ed90869eea79cb6383a9b41923bcf58a0cd9eebf719f91",
      "transactionType": "CALL",
      "contractName": null,
      "contractAddress": "0xed17d8734b9ef097ad190bb4bd539dfc98218c06",
      "function": "file(bytes32,uint256)",
      "arguments": [
        "0x486f6c6500000000000000000000000000000000000000000000000000000000",
        "5000000000000000000000000000000000000000000000000000"
      ],
      "transaction": {
        "from": "0x8866438f9348f33516040d38a0113531bc9e7e1d",
        "to": "0xed17d8734b9ef097ad190bb4bd539dfc98218c06",
        "value": "0x0",
        "input": "0x29ae8114486f6c6500000000000000000000000000000000000000000000000000000000000000000000000000000d5d238a4abe9806872a4904598d6d88000000000000",
        "nonce": "0x8e",
        "chainId": "0x161c28"
      },
      "additionalContracts": [],
      "isFixedGasLimit": false
    },
    {
      "hash": "0xfd27830abb4c85ca149644815d30107dcdb4635cfec689f292482f547730d5f4",
      "transactionType": "CALL",
      "contractName": null,
      "contractAddress": "0xed17d8734b9ef097ad190bb4bd539dfc98218c06",
      "function": "file(bytes32,bytes32,uint256)",
      "arguments": [
        "0x5852502d410a0000000000000000000000000000000000000000000000000000",
        "0x686f6c6500000000000000000000000000000000000000000000000000000000",
        "5000000000000000000000000000000000000000000000000000"
      ],
      "transaction": {
        "from": "0x8866438f9348f33516040d38a0113531bc9e7e1d",
        "to": "0xed17d8734b9ef097ad190bb4bd539dfc98218c06",
        "value": "0x0",
        "input": "0x1a0b287e5852502d410a0000000000000000000000000000000000000000000000000000686f6c6500000000000000000000000000000000000000000000000000000000000000000000000000000d5d238a4abe9806872a4904598d6d88000000000000",
        "nonce": "0x8f",
        "chainId": "0x161c28"
      },
      "additionalContracts": [],
      "isFixedGasLimit": false
    },
    {
      "hash": "0xb7a96ee728fc56c9dc0d1a6262d48b39c5bc6774812e602090de1dca988efc57",
      "transactionType": "CALL",
      "contractName": null,
      "contractAddress": "0xbcacd0124f64017c58c151dc5734bc64622c6a75",
      "function": "poke(bytes32)",
      "arguments": [
        "0x5852502d410a0000000000000000000000000000000000000000000000000000"
      ],
      "transaction": {
        "from": "0x8866438f9348f33516040d38a0113531bc9e7e1d",
        "to": "0xbcacd0124f64017c58c151dc5734bc64622c6a75",
        "value": "0x0",
        "input": "0x1504460f5852502d410a0000000000000000000000000000000000000000000000000000",
        "nonce": "0x90",
        "chainId": "0x161c28"
      },
      "additionalContracts": [],
      "isFixedGasLimit": false
    }
  ],
  "receipts": [
    {
      "status": "0x1",
      "cumulativeGasUsed": "0x18b7a8",
      "logs": [],
      "logsBloom": "0x00000000000000000000000000000000000000000000000000000000000000000000000000000000000000000000000000000000000000000000000000000000000000000000000000000000000000000000000000000000000000000000000000000000000000000000000000000000000000000000000000000000000000000000000000000000000000000000000000000000000000000000000000000000000000000000000000000000000000000000000000000000000000000000000000000000000000000000000000000000000000000000000000000000000000000000000000000000000000000000000000000000000000000000000000000000",
      "type": "0x2",
      "transactionHash": "0x107e63440566a0cc313e6ba588f168dcb58c8ae77bc727f65a90347cf2beb917",
      "transactionIndex": "0xc",
      "blockHash": "0x0a8c2c392ca3105f20764efd638c6b3672c8fa1f681ee4f2f75ca1a4e831a2b6",
      "blockNumber": "0x33a080",
      "gasUsed": "0xf665",
      "effectiveGasPrice": "0x2e90edd001",
      "from": "0x8866438f9348f33516040d38a0113531bc9e7e1d",
      "to": "0x7816527746f0ade226986e02cf6cc70cf287ff61",
      "contractAddress": null
    },
    {
      "status": "0x1",
      "cumulativeGasUsed": "0x17ff80",
      "logs": [],
      "logsBloom": "0x00000000000000000000000000000000000000000000000000000000000000000000000000000000000000000000000000000000000000000000000000000000000000000000000000000000000000000000000000000000000000000000000000000000000000000000000000000000000000000000000000000000000000000000000000000000000000000000000000000000000000000000000000000000000000000000000000000000000000000000000000000000000000000000000000000000000000000000000000000000000000000000000000000000000000000000000000000000000000000000000000000000000000000000000000000000",
      "type": "0x2",
      "transactionHash": "0x80b5f66d14275f568b1460f7eaa4425d439b012268dc66ea3aec670c68541e34",
      "transactionIndex": "0xb",
      "blockHash": "0x64c7e95839d63c5ca69f9e6fb176c8ebc9830148cc15b790c68f884d86517e46",
      "blockNumber": "0x33a081",
      "gasUsed": "0xbd31",
      "effectiveGasPrice": "0x2e90edd001",
      "from": "0x8866438f9348f33516040d38a0113531bc9e7e1d",
      "to": "0xbcacd0124f64017c58c151dc5734bc64622c6a75",
      "contractAddress": null
    },
    {
      "status": "0x1",
      "cumulativeGasUsed": "0x17fffa",
      "logs": [],
      "logsBloom": "0x00000000000000000000000000000000000000000000000000000000000000000000000000000000000000000000000000000000000000000000000000000000000000000000000000000000000000000000000000000000000000000000000000000000000000000000000000000000000000000000000000000000000000000000000000000000000000000000000000000000000000000000000000000000000000000000000000000000000000000000000000000000000000000000000000000000000000000000000000000000000000000000000000000000000000000000000000000000000000000000000000000000000000000000000000000000",
      "type": "0x2",
      "transactionHash": "0x8bdc6611e3c4210b4dcf42b7bf166692dee43f892151d6dcdb6b17789e13ad0f",
      "transactionIndex": "0xb",
      "blockHash": "0xafdde535522287a34f1e5733f78a0a90831fc4d28e9b01960c0f6f204087b7ea",
      "blockNumber": "0x33a082",
      "gasUsed": "0xbdab",
      "effectiveGasPrice": "0x2e90edd001",
      "from": "0x8866438f9348f33516040d38a0113531bc9e7e1d",
      "to": "0x9e8860db73d093464ee2b5a1fe6f63b09f70e8c1",
      "contractAddress": null
    },
    {
      "status": "0x1",
      "cumulativeGasUsed": "0x198587",
      "logs": [],
      "logsBloom": "0x00000000000000000000000000000000000000000000000000000000000000000000000000000000000000000000000000000000000000000000000000000000000000000000000000000000000000000000000000000000000000000000000000000000000000000000000000000000000000000000000000000000000000000000000000000000000000000000000000000000000000000000000000000000000000000000000000000000000000000000000000000000000000000000000000000000000000000000000000000000000000000000000000000000000000000000000000000000000000000000000000000000000000000000000000000000",
      "type": "0x2",
      "transactionHash": "0x89be6328980f7f102ce37ecd01d9a121b1bd3f5c22b01476a0e16544a9785c30",
      "transactionIndex": "0xc",
      "blockHash": "0xfb62cd2464907b311713542c31a7a3f0b25be09f41c525fc40a2176d9cb033b6",
      "blockNumber": "0x33a083",
      "gasUsed": "0xbc98",
      "effectiveGasPrice": "0x2e90edd001",
      "from": "0x8866438f9348f33516040d38a0113531bc9e7e1d",
      "to": "0x9e8860db73d093464ee2b5a1fe6f63b09f70e8c1",
      "contractAddress": null
    },
    {
      "status": "0x1",
      "cumulativeGasUsed": "0x18000e",
      "logs": [],
      "logsBloom": "0x00000000000000000000000000000000000000000000000000000000000000000000000000000000000000000000000000000000000000000000000000000000000000000000000000000000000000000000000000000000000000000000000000000000000000000000000000000000000000000000000000000000000000000000000000000000000000000000000000000000000000000000000000000000000000000000000000000000000000000000000000000000000000000000000000000000000000000000000000000000000000000000000000000000000000000000000000000000000000000000000000000000000000000000000000000000",
      "type": "0x2",
      "transactionHash": "0xae1f3173042e5ff316505328f10e07f303986085d325b1a01199b1fedf31aaa0",
      "transactionIndex": "0xb",
      "blockHash": "0xe025c75bca772891ff31b6b1f2b3b332521a068584122f92f7263e83ed446f18",
      "blockNumber": "0x33a084",
      "gasUsed": "0xbdbf",
      "effectiveGasPrice": "0x2e90edd001",
      "from": "0x8866438f9348f33516040d38a0113531bc9e7e1d",
      "to": "0x9e8860db73d093464ee2b5a1fe6f63b09f70e8c1",
      "contractAddress": null
    },
    {
      "status": "0x1",
      "cumulativeGasUsed": "0x1982a6",
      "logs": [
        {
          "address": "0xed17d8734b9ef097ad190bb4bd539dfc98218c06",
          "topics": [
            "0xe986e40cc8c151830d4f61050f4fb2e4add8567caad2d5f5496f9158e91fe4c7",
            "0x486f6c6500000000000000000000000000000000000000000000000000000000"
          ],
          "data": "0x000000000000000000000d5d238a4abe9806872a4904598d6d88000000000000",
          "blockHash": "0xe6f5ca679a301cdfc36d1a1f00c0905f1c13630faa93bd963338a5b6aedcc796",
          "blockNumber": "0x33a085",
          "transactionHash": "0x99c837c908f6fc9cd8ed90869eea79cb6383a9b41923bcf58a0cd9eebf719f91",
          "transactionIndex": "0xc",
          "logIndex": "0x0",
          "removed": false
        }
      ],
      "logsBloom": "0x00000000000000000000000000000000000000000000000000000000000000000000000000000000000000002000000000000000000000000000000000000000000000000000000000000000000000000010000000000000000000000000000000000000000000000000000000001000000000000000000000000000000000000000000000000000000000000000000000000200000000000000000200000000000000000000000000000000000000000000000000000000000000000000000080000000000000000001000000000000000000000000000000000000000000000000000000000000000000000100000000000000400000000000000000000000",
      "type": "0x2",
      "transactionHash": "0x99c837c908f6fc9cd8ed90869eea79cb6383a9b41923bcf58a0cd9eebf719f91",
      "transactionIndex": "0xc",
      "blockHash": "0xe6f5ca679a301cdfc36d1a1f00c0905f1c13630faa93bd963338a5b6aedcc796",
      "blockNumber": "0x33a085",
      "gasUsed": "0xb9b7",
      "effectiveGasPrice": "0x2e90edd001",
      "from": "0x8866438f9348f33516040d38a0113531bc9e7e1d",
      "to": "0xed17d8734b9ef097ad190bb4bd539dfc98218c06",
      "contractAddress": null
    },
    {
      "status": "0x1",
      "cumulativeGasUsed": "0x187dab",
      "logs": [
        {
          "address": "0xed17d8734b9ef097ad190bb4bd539dfc98218c06",
          "topics": [
            "0x851aa1caf4888170ad8875449d18f0f512fd6deb2a6571ea1a41fb9f95acbcd1",
            "0x5852502d410a0000000000000000000000000000000000000000000000000000",
            "0x686f6c6500000000000000000000000000000000000000000000000000000000"
          ],
          "data": "0x000000000000000000000d5d238a4abe9806872a4904598d6d88000000000000",
          "blockHash": "0xe08062b94c0c329cf88218bb3763b479d9a56dfbbad50cb4b831fd63bb85d1b6",
          "blockNumber": "0x33a086",
          "transactionHash": "0xfd27830abb4c85ca149644815d30107dcdb4635cfec689f292482f547730d5f4",
          "transactionIndex": "0xc",
          "logIndex": "0x1",
          "removed": false
        }
      ],
      "logsBloom": "0x00000000000000000000000000000000000000000000000000000000000000000000000000000000000000000000200000000000000000000000000000000000000000000000000000000000000000000000000000000001000000000000000000000000000000000000000010000000000000000000000000000000000000000000000000000000000000000000000000000000000000000000000000000000000000000000000400000000000000000000000000000000000000000020000080000000000000000000000000000000000000001000000000000000000000000010000000000000000000000100000000000040400000000040000000000000",
      "type": "0x2",
      "transactionHash": "0xfd27830abb4c85ca149644815d30107dcdb4635cfec689f292482f547730d5f4",
      "transactionIndex": "0xc",
      "blockHash": "0xe08062b94c0c329cf88218bb3763b479d9a56dfbbad50cb4b831fd63bb85d1b6",
      "blockNumber": "0x33a086",
      "gasUsed": "0xbc68",
      "effectiveGasPrice": "0x2e90edd001",
      "from": "0x8866438f9348f33516040d38a0113531bc9e7e1d",
      "to": "0xed17d8734b9ef097ad190bb4bd539dfc98218c06",
      "contractAddress": null
    },
    {
      "status": "0x1",
      "cumulativeGasUsed": "0x184878",
      "logs": [
        {
          "address": "0xbcacd0124f64017c58c151dc5734bc64622c6a75",
          "topics": [
            "0xdfd7467e425a8107cfd368d159957692c25085aacbcf5228ce08f10f2146486e"
          ],
          "data": "0x5852502d410a00000000000000000000000000000000000000000000000000000000000000000000000000000000000000000000000000000de0b6b3a76400000000000000000000000000000000000000000000022774286a8b00289aaaaaaa",
          "blockHash": "0xd073ab682a30485a78d578dfcf84c1ce5b2715c1a6eb6c501287bb8b1468646b",
          "blockNumber": "0x33a087",
          "transactionHash": "0xb7a96ee728fc56c9dc0d1a6262d48b39c5bc6774812e602090de1dca988efc57",
          "transactionIndex": "0xb",
          "logIndex": "0x0",
          "removed": false
        }
      ],
      "logsBloom": "0x00000000000000000000000000040000000000000000000000000000000000000004000000000000000000000000000000000000000000000000000000000000000000000000000000000000000000000000000000000000000000000000000000000000000000000400000000000000000000000000000000002000000000000000000000000000000000000000000000000000000000000000000000000000000080000000000000000000000000000000000000000000000000000000000000200000000000000000000000000000000000000000000000000000000000000000000000000000000000000000000000000000000000000000000000000000",
      "type": "0x2",
      "transactionHash": "0xb7a96ee728fc56c9dc0d1a6262d48b39c5bc6774812e602090de1dca988efc57",
      "transactionIndex": "0xb",
      "blockHash": "0xd073ab682a30485a78d578dfcf84c1ce5b2715c1a6eb6c501287bb8b1468646b",
      "blockNumber": "0x33a087",
      "gasUsed": "0x10629",
      "effectiveGasPrice": "0x2e90edd001",
      "from": "0x8866438f9348f33516040d38a0113531bc9e7e1d",
      "to": "0xbcacd0124f64017c58c151dc5734bc64622c6a75",
      "contractAddress": null
    }
  ],
  "libraries": [],
  "pending": [],
  "returns": {},
  "timestamp": 1759216869622,
  "chain": 1449000,
  "commit": "91aff73"
}